{
  "contractName": "Allowance",
  "abi": [
    {
      "anonymous": false,
      "inputs": [
        {
          "indexed": true,
          "internalType": "address",
          "name": "_forWho",
          "type": "address"
        },
        {
          "indexed": true,
          "internalType": "address",
          "name": "_byWho",
          "type": "address"
        },
        {
          "indexed": false,
          "internalType": "uint256",
          "name": "_oldAmount",
          "type": "uint256"
        },
        {
          "indexed": false,
          "internalType": "uint256",
          "name": "_newAmount",
          "type": "uint256"
        }
      ],
      "name": "AllowanceChanged",
      "type": "event"
    },
    {
      "inputs": [
        {
          "internalType": "address",
          "name": "",
          "type": "address"
        }
      ],
      "name": "allowance",
      "outputs": [
        {
          "internalType": "uint256",
          "name": "",
          "type": "uint256"
        }
      ],
      "stateMutability": "view",
      "type": "function"
    },
    {
      "inputs": [],
      "name": "getOwner",
      "outputs": [
        {
          "internalType": "address",
          "name": "",
          "type": "address"
        }
      ],
      "stateMutability": "view",
      "type": "function"
    },
    {
      "inputs": [],
      "name": "owner",
      "outputs": [
        {
          "internalType": "address",
          "name": "",
          "type": "address"
        }
      ],
      "stateMutability": "view",
      "type": "function"
    },
    {
      "inputs": [
        {
          "internalType": "address",
          "name": "_user",
          "type": "address"
        },
        {
          "internalType": "uint256",
          "name": "_allowance",
          "type": "uint256"
        }
      ],
      "name": "setAllowance",
      "outputs": [],
      "stateMutability": "nonpayable",
      "type": "function"
    }
  ],
  "bytecode": "0x608060405234801561001057600080fd5b50336000806101000a81548173ffffffffffffffffffffffffffffffffffffffff021916908373ffffffffffffffffffffffffffffffffffffffff1602179055506104f0806100606000396000f3fe608060405234801561001057600080fd5b506004361061004c5760003560e01c8063310ec4a7146100515780633e5beab91461006d578063893d20e81461009d5780638da5cb5b146100bb575b600080fd5b61006b60048036038101906100669190610311565b6100d9565b005b610087600480360381019061008291906102e4565b610255565b60405161009491906103cd565b60405180910390f35b6100a561026d565b6040516100b29190610392565b60405180910390f35b6100c3610296565b6040516100d09190610392565b60405180910390f35b60008054906101000a900473ffffffffffffffffffffffffffffffffffffffff1673ffffffffffffffffffffffffffffffffffffffff163373ffffffffffffffffffffffffffffffffffffffff1614610167576040517f08c379a000000000000000000000000000000000000000000000000000000000815260040161015e906103ad565b60405180910390fd5b3373ffffffffffffffffffffffffffffffffffffffff168273ffffffffffffffffffffffffffffffffffffffff167f3691d1a86d99355e52b689ca70a7bdf6d80763237a6aa06e5fa43964eac7244b600160008673ffffffffffffffffffffffffffffffffffffffff1673ffffffffffffffffffffffffffffffffffffffff16815260200190815260200160002054846040516102059291906103e8565b60405180910390a380600160008473ffffffffffffffffffffffffffffffffffffffff1673ffffffffffffffffffffffffffffffffffffffff168152602001908152602001600020819055505050565b60016020528060005260406000206000915090505481565b60008060009054906101000a900473ffffffffffffffffffffffffffffffffffffffff16905090565b60008054906101000a900473ffffffffffffffffffffffffffffffffffffffff1681565b6000813590506102c98161048c565b92915050565b6000813590506102de816104a3565b92915050565b6000602082840312156102fa576102f961045e565b5b6000610308848285016102ba565b91505092915050565b600080604083850312156103285761032761045e565b5b6000610336858286016102ba565b9250506020610347858286016102cf565b9150509250929050565b61035a81610422565b82525050565b600061036d601483610411565b915061037882610463565b602082019050919050565b61038c81610454565b82525050565b60006020820190506103a76000830184610351565b92915050565b600060208201905081810360008301526103c681610360565b9050919050565b60006020820190506103e26000830184610383565b92915050565b60006040820190506103fd6000830185610383565b61040a6020830184610383565b9392505050565b600082825260208201905092915050565b600061042d82610434565b9050919050565b600073ffffffffffffffffffffffffffffffffffffffff82169050919050565b6000819050919050565b600080fd5b7f596f7520617265206e6f7420616c6c6f7765642e000000000000000000000000600082015250565b61049581610422565b81146104a057600080fd5b50565b6104ac81610454565b81146104b757600080fd5b5056fea26469706673582212209a3b5b83192cba9acc4db037fab6b2e47ada92188defb4e4df8c5d46699dca8164736f6c63430008070033",
  "immutableReferences": {},
  "source": "pragma solidity ^0.8.0;\r\n\r\nimport \"./SafeMath.sol\";\r\n\r\ncontract Owned {\r\n    address public owner;\r\n    \r\n    constructor() {\r\n        owner = msg.sender;\r\n    }\r\n\r\n    function getOwner() public view returns(address) {\r\n        return owner;\r\n    }\r\n    \r\n    modifier onlyOwner () {\r\n        require(msg.sender == owner, \"You are not allowed.\");\r\n        _;\r\n    }\r\n}\r\ncontract Allowance is Owned {\r\n    using SafeMath for uint;\r\n    \r\n    event AllowanceChanged(address indexed _forWho, address indexed _byWho, uint _oldAmount, uint _newAmount);\r\n    \r\n     mapping(address => uint) public allowance;\r\n    \r\n     function setAllowance(address _user, uint _allowance) public onlyOwner {\r\n        emit AllowanceChanged(_user, msg.sender, allowance[_user], _allowance);\r\n        allowance[_user] = _allowance;\r\n    }\r\n    \r\n}",
  "sourcePath": "C:\\Users\\L_Mea\\contracts_solidity\\SharedWallet\\contracts\\Allowance.sol",
  "compiler": {
    "name": "solc",
    "version": "0.8.7+commit.e28d00a7.Emscripten.clang"
  },
  "schemaVersion": "3.4.3",
  "updatedAt": "2021-09-17T04:30:27.814Z",
  "devdoc": {
    "kind": "dev",
    "methods": {},
    "version": 1
  },
  "userdoc": {
    "kind": "user",
    "methods": {},
    "version": 1
  }
}