{
  "contractName": "Owned",
  "abi": [
    {
      "inputs": [],
      "stateMutability": "nonpayable",
      "type": "constructor"
    },
    {
      "inputs": [],
      "name": "owner",
      "outputs": [
        {
          "internalType": "address",
          "name": "",
          "type": "address"
        }
      ],
      "stateMutability": "view",
      "type": "function"
    },
    {
      "inputs": [],
      "name": "getOwner",
      "outputs": [
        {
          "internalType": "address",
          "name": "",
          "type": "address"
        }
      ],
      "stateMutability": "view",
      "type": "function"
    }
  ],
  "bytecode": "0x608060405234801561001057600080fd5b50336000806101000a81548173ffffffffffffffffffffffffffffffffffffffff021916908373ffffffffffffffffffffffffffffffffffffffff160217905550610156806100606000396000f3fe608060405234801561001057600080fd5b50600436106100365760003560e01c8063893d20e81461003b5780638da5cb5b14610059575b600080fd5b610043610077565b60405161005091906100d3565b60405180910390f35b6100616100a0565b60405161006e91906100d3565b60405180910390f35b60008060009054906101000a900473ffffffffffffffffffffffffffffffffffffffff16905090565b60008054906101000a900473ffffffffffffffffffffffffffffffffffffffff1681565b6100cd816100ee565b82525050565b60006020820190506100e860008301846100c4565b92915050565b60006100f982610100565b9050919050565b600073ffffffffffffffffffffffffffffffffffffffff8216905091905056fea2646970667358221220ac6226a4f2845f4f5d1f73201c245e67b4668174ad426e34da299a82175e8c1064736f6c63430008070033",
  "immutableReferences": {},
  "source": "pragma solidity ^0.8.0;\r\n\r\nimport \"./SafeMath.sol\";\r\n\r\ncontract Owned {\r\n    address public owner;\r\n    \r\n    constructor() {\r\n        owner = msg.sender;\r\n    }\r\n\r\n    function getOwner() public view returns(address) {\r\n        return owner;\r\n    }\r\n    \r\n    modifier onlyOwner () {\r\n        require(msg.sender == owner, \"You are not allowed.\");\r\n        _;\r\n    }\r\n}\r\ncontract Allowance is Owned {\r\n    using SafeMath for uint;\r\n    \r\n    event AllowanceChanged(address indexed _forWho, address indexed _byWho, uint _oldAmount, uint _newAmount);\r\n    \r\n     mapping(address => uint) public allowance;\r\n    \r\n     function setAllowance(address _user, uint _allowance) public onlyOwner {\r\n        emit AllowanceChanged(_user, msg.sender, allowance[_user], _allowance);\r\n        allowance[_user] = _allowance;\r\n    }\r\n    \r\n}",
  "sourcePath": "C:\\Users\\L_Mea\\contracts_solidity\\SharedWallet\\contracts\\Allowance.sol",
  "compiler": {
    "name": "solc",
    "version": "0.8.7+commit.e28d00a7.Emscripten.clang"
  },
  "schemaVersion": "3.4.3",
  "updatedAt": "2021-09-17T04:30:27.826Z",
  "devdoc": {
    "kind": "dev",
    "methods": {},
    "version": 1
  },
  "userdoc": {
    "kind": "user",
    "methods": {},
    "version": 1
  }
}