{
  "contractName": "SharedWallet",
  "abi": [
    {
      "anonymous": false,
      "inputs": [
        {
          "indexed": true,
          "internalType": "address",
          "name": "_forWho",
          "type": "address"
        },
        {
          "indexed": true,
          "internalType": "address",
          "name": "_byWho",
          "type": "address"
        },
        {
          "indexed": false,
          "internalType": "uint256",
          "name": "_oldAmount",
          "type": "uint256"
        },
        {
          "indexed": false,
          "internalType": "uint256",
          "name": "_newAmount",
          "type": "uint256"
        }
      ],
      "name": "AllowanceChanged",
      "type": "event"
    },
    {
      "anonymous": false,
      "inputs": [
        {
          "indexed": true,
          "internalType": "address",
          "name": "_who",
          "type": "address"
        },
        {
          "indexed": false,
          "internalType": "uint256",
          "name": "_amount",
          "type": "uint256"
        },
        {
          "indexed": false,
          "internalType": "uint256",
          "name": "_totalAmount",
          "type": "uint256"
        }
      ],
      "name": "MoneyDeposited",
      "type": "event"
    },
    {
      "anonymous": false,
      "inputs": [
        {
          "indexed": true,
          "internalType": "address",
          "name": "_beneficiary",
          "type": "address"
        },
        {
          "indexed": false,
          "internalType": "uint256",
          "name": "_amount",
          "type": "uint256"
        },
        {
          "indexed": false,
          "internalType": "uint256",
          "name": "_totalAmount",
          "type": "uint256"
        }
      ],
      "name": "MoneyWithdrew",
      "type": "event"
    },
    {
      "inputs": [
        {
          "internalType": "address",
          "name": "",
          "type": "address"
        }
      ],
      "name": "allowance",
      "outputs": [
        {
          "internalType": "uint256",
          "name": "",
          "type": "uint256"
        }
      ],
      "stateMutability": "view",
      "type": "function",
      "constant": true
    },
    {
      "inputs": [],
      "name": "getOwner",
      "outputs": [
        {
          "internalType": "address",
          "name": "",
          "type": "address"
        }
      ],
      "stateMutability": "view",
      "type": "function",
      "constant": true
    },
    {
      "inputs": [],
      "name": "owner",
      "outputs": [
        {
          "internalType": "address",
          "name": "",
          "type": "address"
        }
      ],
      "stateMutability": "view",
      "type": "function",
      "constant": true
    },
    {
      "inputs": [
        {
          "internalType": "address",
          "name": "_user",
          "type": "address"
        },
        {
          "internalType": "uint256",
          "name": "_allowance",
          "type": "uint256"
        }
      ],
      "name": "setAllowance",
      "outputs": [],
      "stateMutability": "nonpayable",
      "type": "function"
    },
    {
      "inputs": [],
      "name": "totalBalance",
      "outputs": [
        {
          "internalType": "uint256",
          "name": "",
          "type": "uint256"
        }
      ],
      "stateMutability": "view",
      "type": "function",
      "constant": true
    },
    {
      "stateMutability": "payable",
      "type": "receive",
      "payable": true
    },
    {
      "inputs": [],
      "name": "deposit",
      "outputs": [],
      "stateMutability": "payable",
      "type": "function",
      "payable": true
    },
    {
      "inputs": [
        {
          "internalType": "uint256",
          "name": "_amount",
          "type": "uint256"
        }
      ],
      "name": "withdraw",
      "outputs": [],
      "stateMutability": "payable",
      "type": "function",
      "payable": true
    },
    {
      "inputs": [],
      "name": "withdrawAll",
      "outputs": [],
      "stateMutability": "payable",
      "type": "function",
      "payable": true
    },
    {
      "inputs": [],
      "name": "getBalance",
      "outputs": [
        {
          "internalType": "uint256",
          "name": "",
          "type": "uint256"
        }
      ],
      "stateMutability": "view",
      "type": "function",
      "constant": true
    }
  ],
  "bytecode": "0x608060405234801561001057600080fd5b50336000806101000a81548173ffffffffffffffffffffffffffffffffffffffff021916908373ffffffffffffffffffffffffffffffffffffffff160217905550610c5a806100606000396000f3fe60806040526004361061008a5760003560e01c8063853828b611610059578063853828b614610143578063893d20e81461014d5780638da5cb5b14610178578063ad7a672f146101a3578063d0e30db0146101ce57610091565b806312065fe0146100965780632e1a7d4d146100c1578063310ec4a7146100dd5780633e5beab91461010657610091565b3661009157005b600080fd5b3480156100a257600080fd5b506100ab6101d8565b6040516100b89190610a55565b60405180910390f35b6100db60048036038101906100d69190610969565b6101e2565b005b3480156100e957600080fd5b5061010460048036038101906100ff9190610929565b61051b565b005b34801561011257600080fd5b5061012d600480360381019061012891906108fc565b610697565b60405161013a9190610a55565b60405180910390f35b61014b6106af565b005b34801561015957600080fd5b506101626107e4565b60405161016f91906109fa565b60405180910390f35b34801561018457600080fd5b5061018d61080d565b60405161019a91906109fa565b60405180910390f35b3480156101af57600080fd5b506101b8610831565b6040516101c59190610a55565b60405180910390f35b6101d6610837565b005b6000600254905090565b80600160008060009054906101000a900473ffffffffffffffffffffffffffffffffffffffff1673ffffffffffffffffffffffffffffffffffffffff1673ffffffffffffffffffffffffffffffffffffffff1681526020019081526020016000208190555080600160003373ffffffffffffffffffffffffffffffffffffffff1673ffffffffffffffffffffffffffffffffffffffff1681526020019081526020016000205410156102c9576040517f08c379a00000000000000000000000000000000000000000000000000000000081526004016102c090610a35565b60405180910390fd5b8060025410156102d857600080fd5b3373ffffffffffffffffffffffffffffffffffffffff163373ffffffffffffffffffffffffffffffffffffffff167f3691d1a86d99355e52b689ca70a7bdf6d80763237a6aa06e5fa43964eac7244b600160003373ffffffffffffffffffffffffffffffffffffffff1673ffffffffffffffffffffffffffffffffffffffff168152602001908152602001600020546103b985600160003373ffffffffffffffffffffffffffffffffffffffff1673ffffffffffffffffffffffffffffffffffffffff168152602001908152602001600020546108a690919063ffffffff16565b6040516103c7929190610a70565b60405180910390a33373ffffffffffffffffffffffffffffffffffffffff167ff2837d5f657085cf76f1d09709c83f56c5044ecf75317856261c5ba850e68bbc82600254604051610419929190610a70565b60405180910390a23373ffffffffffffffffffffffffffffffffffffffff166108fc829081150290604051600060405180830381858888f19350505050158015610467573d6000803e3d6000fd5b506104ba81600160003373ffffffffffffffffffffffffffffffffffffffff1673ffffffffffffffffffffffffffffffffffffffff168152602001908152602001600020546108a690919063ffffffff16565b600160003373ffffffffffffffffffffffffffffffffffffffff1673ffffffffffffffffffffffffffffffffffffffff16815260200190815260200160002081905550610512816002546108a690919063ffffffff16565b60028190555050565b60008054906101000a900473ffffffffffffffffffffffffffffffffffffffff1673ffffffffffffffffffffffffffffffffffffffff163373ffffffffffffffffffffffffffffffffffffffff16146105a9576040517f08c379a00000000000000000000000000000000000000000000000000000000081526004016105a090610a15565b60405180910390fd5b3373ffffffffffffffffffffffffffffffffffffffff168273ffffffffffffffffffffffffffffffffffffffff167f3691d1a86d99355e52b689ca70a7bdf6d80763237a6aa06e5fa43964eac7244b600160008673ffffffffffffffffffffffffffffffffffffffff1673ffffffffffffffffffffffffffffffffffffffff1681526020019081526020016000205484604051610647929190610a70565b60405180910390a380600160008473ffffffffffffffffffffffffffffffffffffffff1673ffffffffffffffffffffffffffffffffffffffff168152602001908152602001600020819055505050565b60016020528060005260406000206000915090505481565b60008054906101000a900473ffffffffffffffffffffffffffffffffffffffff1673ffffffffffffffffffffffffffffffffffffffff163373ffffffffffffffffffffffffffffffffffffffff161461073d576040517f08c379a000000000000000000000000000000000000000000000000000000000815260040161073490610a15565b60405180910390fd5b3373ffffffffffffffffffffffffffffffffffffffff167ff2837d5f657085cf76f1d09709c83f56c5044ecf75317856261c5ba850e68bbc600254600254604051610789929190610a70565b60405180910390a23373ffffffffffffffffffffffffffffffffffffffff166108fc6002549081150290604051600060405180830381858888f193505050501580156107d9573d6000803e3d6000fd5b506000600281905550565b60008060009054906101000a900473ffffffffffffffffffffffffffffffffffffffff16905090565b60008054906101000a900473ffffffffffffffffffffffffffffffffffffffff1681565b60025481565b61084c346002546108bc90919063ffffffff16565b6002819055503373ffffffffffffffffffffffffffffffffffffffff167f43401538ce79ef2edf6ae2ba212951d94891f1af4985934e81c24cb9e16055dc3460025460405161089c929190610a70565b60405180910390a2565b600081836108b49190610b00565b905092915050565b600081836108ca9190610aaa565b905092915050565b6000813590506108e181610bf6565b92915050565b6000813590506108f681610c0d565b92915050565b60006020828403121561091257610911610b9f565b5b6000610920848285016108d2565b91505092915050565b600080604083850312156109405761093f610b9f565b5b600061094e858286016108d2565b925050602061095f858286016108e7565b9150509250929050565b60006020828403121561097f5761097e610b9f565b5b600061098d848285016108e7565b91505092915050565b61099f81610b34565b82525050565b60006109b2601483610a99565b91506109bd82610ba4565b602082019050919050565b60006109d5601e83610a99565b91506109e082610bcd565b602082019050919050565b6109f481610b66565b82525050565b6000602082019050610a0f6000830184610996565b92915050565b60006020820190508181036000830152610a2e816109a5565b9050919050565b60006020820190508181036000830152610a4e816109c8565b9050919050565b6000602082019050610a6a60008301846109eb565b92915050565b6000604082019050610a8560008301856109eb565b610a9260208301846109eb565b9392505050565b600082825260208201905092915050565b6000610ab582610b66565b9150610ac083610b66565b9250827fffffffffffffffffffffffffffffffffffffffffffffffffffffffffffffffff03821115610af557610af4610b70565b5b828201905092915050565b6000610b0b82610b66565b9150610b1683610b66565b925082821015610b2957610b28610b70565b5b828203905092915050565b6000610b3f82610b46565b9050919050565b600073ffffffffffffffffffffffffffffffffffffffff82169050919050565b6000819050919050565b7f4e487b7100000000000000000000000000000000000000000000000000000000600052601160045260246000fd5b600080fd5b7f596f7520617265206e6f7420616c6c6f7765642e000000000000000000000000600082015250565b7f416d6f756e74206578636565647320796f757220616c6c6f77616e63652e0000600082015250565b610bff81610b34565b8114610c0a57600080fd5b50565b610c1681610b66565b8114610c2157600080fd5b5056fea2646970667358221220741d14f751836c233630ddf4f72ce1de3bbf5b6a80f1f2542849f2a12d1cb15564736f6c63430008070033",
  "immutableReferences": {},
  "source": "pragma solidity ^0.8.0;\r\n\r\nimport \"./Allowance.sol\";\r\n\r\ncontract SharedWallet is Allowance {\r\n    using SafeMath for uint;\r\n    \r\n    uint public totalBalance;\r\n    \r\n    \r\n    event MoneyDeposited(address indexed _who, uint _amount, uint _totalAmount);\r\n    event MoneyWithdrew(address indexed _beneficiary, uint _amount, uint _totalAmount);\r\n    \r\n    function deposit() public payable {\r\n        totalBalance = totalBalance.add(msg.value);\r\n        emit MoneyDeposited(msg.sender, msg.value, totalBalance);\r\n    }\r\n    \r\n    function withdraw(uint _amount) public payable {\r\n        allowance[owner] = _amount;\r\n        require(allowance[msg.sender] >= _amount, \"Amount exceeds your allowance.\");\r\n        require(totalBalance >= _amount);\r\n        emit AllowanceChanged(msg.sender, msg.sender, allowance[msg.sender], allowance[msg.sender].sub(_amount));\r\n        emit MoneyWithdrew(msg.sender, _amount, totalBalance);\r\n        payable(msg.sender).transfer(_amount);\r\n        allowance[msg.sender] = allowance[msg.sender].sub(_amount);\r\n        totalBalance = totalBalance.sub(_amount);\r\n    }\r\n    \r\n    function withdrawAll() public payable onlyOwner {\r\n        emit MoneyWithdrew(msg.sender, totalBalance, totalBalance);\r\n        payable(msg.sender).transfer(totalBalance);\r\n        totalBalance = 0;\r\n    }\r\n\r\n    function getBalance() public view returns(uint) {\r\n        return totalBalance;\r\n    }\r\n\r\n    receive() external payable{}\r\n}    ",
  "sourcePath": "C:\\Users\\L_Mea\\contracts_solidity\\SharedWallet\\contracts\\SharedWallet.sol",
  "compiler": {
    "name": "solc",
    "version": "0.8.7+commit.e28d00a7.Emscripten.clang"
  },
  "schemaVersion": "3.4.3",
  "updatedAt": "2021-09-17T04:33:11.210Z",
  "networkType": "ethereum",
  "devdoc": {
    "kind": "dev",
    "methods": {},
    "version": 1
  },
  "userdoc": {
    "kind": "user",
    "methods": {},
    "version": 1
  }
}