{
  "contractName": "CCLC",
  "abi": [
    {
      "inputs": [],
      "stateMutability": "nonpayable",
      "type": "constructor"
    },
    {
      "anonymous": false,
      "inputs": [
        {
          "indexed": true,
          "internalType": "address",
          "name": "owner",
          "type": "address"
        },
        {
          "indexed": true,
          "internalType": "address",
          "name": "spender",
          "type": "address"
        },
        {
          "indexed": false,
          "internalType": "uint256",
          "name": "value",
          "type": "uint256"
        }
      ],
      "name": "Approval",
      "type": "event"
    },
    {
      "anonymous": false,
      "inputs": [
        {
          "indexed": true,
          "internalType": "address",
          "name": "previousOwner",
          "type": "address"
        },
        {
          "indexed": true,
          "internalType": "address",
          "name": "newOwner",
          "type": "address"
        }
      ],
      "name": "OwnershipTransferred",
      "type": "event"
    },
    {
      "anonymous": false,
      "inputs": [
        {
          "indexed": true,
          "internalType": "address",
          "name": "from",
          "type": "address"
        },
        {
          "indexed": true,
          "internalType": "address",
          "name": "to",
          "type": "address"
        },
        {
          "indexed": false,
          "internalType": "uint256",
          "name": "value",
          "type": "uint256"
        }
      ],
      "name": "Transfer",
      "type": "event"
    },
    {
      "inputs": [
        {
          "internalType": "address",
          "name": "owner",
          "type": "address"
        },
        {
          "internalType": "address",
          "name": "spender",
          "type": "address"
        }
      ],
      "name": "allowance",
      "outputs": [
        {
          "internalType": "uint256",
          "name": "",
          "type": "uint256"
        }
      ],
      "stateMutability": "view",
      "type": "function"
    },
    {
      "inputs": [
        {
          "internalType": "address",
          "name": "spender",
          "type": "address"
        },
        {
          "internalType": "uint256",
          "name": "amount",
          "type": "uint256"
        }
      ],
      "name": "approve",
      "outputs": [
        {
          "internalType": "bool",
          "name": "",
          "type": "bool"
        }
      ],
      "stateMutability": "nonpayable",
      "type": "function"
    },
    {
      "inputs": [
        {
          "internalType": "address",
          "name": "account",
          "type": "address"
        }
      ],
      "name": "balanceOf",
      "outputs": [
        {
          "internalType": "uint256",
          "name": "",
          "type": "uint256"
        }
      ],
      "stateMutability": "view",
      "type": "function"
    },
    {
      "inputs": [
        {
          "internalType": "address",
          "name": "account",
          "type": "address"
        },
        {
          "internalType": "uint256",
          "name": "amount",
          "type": "uint256"
        }
      ],
      "name": "burnFrom",
      "outputs": [],
      "stateMutability": "nonpayable",
      "type": "function"
    },
    {
      "inputs": [],
      "name": "decimals",
      "outputs": [
        {
          "internalType": "uint8",
          "name": "",
          "type": "uint8"
        }
      ],
      "stateMutability": "view",
      "type": "function"
    },
    {
      "inputs": [
        {
          "internalType": "address",
          "name": "spender",
          "type": "address"
        },
        {
          "internalType": "uint256",
          "name": "subtractedValue",
          "type": "uint256"
        }
      ],
      "name": "decreaseAllowance",
      "outputs": [
        {
          "internalType": "bool",
          "name": "",
          "type": "bool"
        }
      ],
      "stateMutability": "nonpayable",
      "type": "function"
    },
    {
      "inputs": [
        {
          "internalType": "address",
          "name": "spender",
          "type": "address"
        },
        {
          "internalType": "uint256",
          "name": "addedValue",
          "type": "uint256"
        }
      ],
      "name": "increaseAllowance",
      "outputs": [
        {
          "internalType": "bool",
          "name": "",
          "type": "bool"
        }
      ],
      "stateMutability": "nonpayable",
      "type": "function"
    },
    {
      "inputs": [],
      "name": "name",
      "outputs": [
        {
          "internalType": "string",
          "name": "",
          "type": "string"
        }
      ],
      "stateMutability": "view",
      "type": "function"
    },
    {
      "inputs": [],
      "name": "owner",
      "outputs": [
        {
          "internalType": "address",
          "name": "",
          "type": "address"
        }
      ],
      "stateMutability": "view",
      "type": "function"
    },
    {
      "inputs": [],
      "name": "renounceOwnership",
      "outputs": [],
      "stateMutability": "nonpayable",
      "type": "function"
    },
    {
      "inputs": [],
      "name": "symbol",
      "outputs": [
        {
          "internalType": "string",
          "name": "",
          "type": "string"
        }
      ],
      "stateMutability": "view",
      "type": "function"
    },
    {
      "inputs": [],
      "name": "totalSupply",
      "outputs": [
        {
          "internalType": "uint256",
          "name": "",
          "type": "uint256"
        }
      ],
      "stateMutability": "view",
      "type": "function"
    },
    {
      "inputs": [
        {
          "internalType": "address",
          "name": "recipient",
          "type": "address"
        },
        {
          "internalType": "uint256",
          "name": "amount",
          "type": "uint256"
        }
      ],
      "name": "transfer",
      "outputs": [
        {
          "internalType": "bool",
          "name": "",
          "type": "bool"
        }
      ],
      "stateMutability": "nonpayable",
      "type": "function"
    },
    {
      "inputs": [
        {
          "internalType": "address",
          "name": "sender",
          "type": "address"
        },
        {
          "internalType": "address",
          "name": "recipient",
          "type": "address"
        },
        {
          "internalType": "uint256",
          "name": "amount",
          "type": "uint256"
        }
      ],
      "name": "transferFrom",
      "outputs": [
        {
          "internalType": "bool",
          "name": "",
          "type": "bool"
        }
      ],
      "stateMutability": "nonpayable",
      "type": "function"
    },
    {
      "inputs": [
        {
          "internalType": "address",
          "name": "newOwner",
          "type": "address"
        }
      ],
      "name": "transferOwnership",
      "outputs": [],
      "stateMutability": "nonpayable",
      "type": "function"
    },
    {
      "inputs": [
        {
          "internalType": "address",
          "name": "newOwner",
          "type": "address"
        }
      ],
      "name": "_transferOwnership",
      "outputs": [],
      "stateMutability": "nonpayable",
      "type": "function"
    },
    {
      "inputs": [
        {
          "internalType": "uint256",
          "name": "amount",
          "type": "uint256"
        }
      ],
      "name": "burn",
      "outputs": [],
      "stateMutability": "nonpayable",
      "type": "function"
    },
    {
      "inputs": [
        {
          "internalType": "uint256",
          "name": "amount",
          "type": "uint256"
        }
      ],
      "name": "mint",
      "outputs": [],
      "stateMutability": "nonpayable",
      "type": "function"
    }
  ],
  "bytecode": "0x60806040523480156200001157600080fd5b506040518060400160405280601581526020017f436c65617220436861696e204c69666520436f696e00000000000000000000008152506040518060400160405280600481526020017f43434c430000000000000000000000000000000000000000000000000000000081525081600390805190602001906200009692919062000347565b508060049080519060200190620000af92919062000347565b505050620000d2620000c6620000f660201b60201c565b620000fe60201b60201c565b620000f0336b033b2e3c9fd0803ce8000000620001c460201b60201c565b620005a3565b600033905090565b6000600560009054906101000a900473ffffffffffffffffffffffffffffffffffffffff16905081600560006101000a81548173ffffffffffffffffffffffffffffffffffffffff021916908373ffffffffffffffffffffffffffffffffffffffff1602179055508173ffffffffffffffffffffffffffffffffffffffff168173ffffffffffffffffffffffffffffffffffffffff167f8be0079c531659141344cd1fd0a4f28419497f9722a3daafe3b4186f6b6457e060405160405180910390a35050565b600073ffffffffffffffffffffffffffffffffffffffff168273ffffffffffffffffffffffffffffffffffffffff16141562000237576040517f08c379a00000000000000000000000000000000000000000000000000000000081526004016200022e9062000458565b60405180910390fd5b6200024b600083836200033d60201b60201c565b80600260008282546200025f9190620004b3565b92505081905550806000808473ffffffffffffffffffffffffffffffffffffffff1673ffffffffffffffffffffffffffffffffffffffff1681526020019081526020016000206000828254620002b69190620004b3565b925050819055508173ffffffffffffffffffffffffffffffffffffffff16600073ffffffffffffffffffffffffffffffffffffffff167fddf252ad1be2c89b69c2b068fc378daa952ba7f163c4a11628f55a4df523b3ef836040516200031d919062000521565b60405180910390a362000339600083836200034260201b60201c565b5050565b505050565b505050565b82805462000355906200056d565b90600052602060002090601f016020900481019282620003795760008555620003c5565b82601f106200039457805160ff1916838001178555620003c5565b82800160010185558215620003c5579182015b82811115620003c4578251825591602001919060010190620003a7565b5b509050620003d49190620003d8565b5090565b5b80821115620003f3576000816000905550600101620003d9565b5090565b600082825260208201905092915050565b7f45524332303a206d696e7420746f20746865207a65726f206164647265737300600082015250565b600062000440601f83620003f7565b91506200044d8262000408565b602082019050919050565b60006020820190508181036000830152620004738162000431565b9050919050565b6000819050919050565b7f4e487b7100000000000000000000000000000000000000000000000000000000600052601160045260246000fd5b6000620004c0826200047a565b9150620004cd836200047a565b9250827fffffffffffffffffffffffffffffffffffffffffffffffffffffffffffffffff0382111562000505576200050462000484565b5b828201905092915050565b6200051b816200047a565b82525050565b600060208201905062000538600083018462000510565b92915050565b7f4e487b7100000000000000000000000000000000000000000000000000000000600052602260045260246000fd5b600060028204905060018216806200058657607f821691505b602082108114156200059d576200059c6200053e565b5b50919050565b61203980620005b36000396000f3fe608060405234801561001057600080fd5b50600436106101165760003560e01c806379cc6790116100a2578063a457c2d711610071578063a457c2d7146102cf578063a9059cbb146102ff578063d29d44ee1461032f578063dd62ed3e1461034b578063f2fde38b1461037b57610116565b806379cc67901461025b5780638da5cb5b1461027757806395d89b4114610295578063a0712d68146102b357610116565b8063313ce567116100e9578063313ce567146101b757806339509351146101d557806342966c681461020557806370a0823114610221578063715018a61461025157610116565b806306fdde031461011b578063095ea7b31461013957806318160ddd1461016957806323b872dd14610187575b600080fd5b610123610397565b6040516101309190611522565b60405180910390f35b610153600480360381019061014e91906115dd565b610429565b6040516101609190611638565b60405180910390f35b610171610447565b60405161017e9190611662565b60405180910390f35b6101a1600480360381019061019c919061167d565b610451565b6040516101ae9190611638565b60405180910390f35b6101bf610549565b6040516101cc91906116ec565b60405180910390f35b6101ef60048036038101906101ea91906115dd565b610552565b6040516101fc9190611638565b60405180910390f35b61021f600480360381019061021a9190611707565b6105fe565b005b61023b60048036038101906102369190611734565b61068e565b6040516102489190611662565b60405180910390f35b6102596106d6565b005b610275600480360381019061027091906115dd565b61075e565b005b61027f6107d9565b60405161028c9190611770565b60405180910390f35b61029d610803565b6040516102aa9190611522565b60405180910390f35b6102cd60048036038101906102c89190611707565b610895565b005b6102e960048036038101906102e491906115dd565b61091e565b6040516102f69190611638565b60405180910390f35b610319600480360381019061031491906115dd565b610a09565b6040516103269190611638565b60405180910390f35b61034960048036038101906103449190611734565b610a27565b005b6103656004803603810190610360919061178b565b610aaf565b6040516103729190611662565b60405180910390f35b61039560048036038101906103909190611734565b610b36565b005b6060600380546103a6906117fa565b80601f01602080910402602001604051908101604052809291908181526020018280546103d2906117fa565b801561041f5780601f106103f45761010080835404028352916020019161041f565b820191906000526020600020905b81548152906001019060200180831161040257829003601f168201915b5050505050905090565b600061043d610436610c2e565b8484610c36565b6001905092915050565b6000600254905090565b600061045e848484610e01565b6000600160008673ffffffffffffffffffffffffffffffffffffffff1673ffffffffffffffffffffffffffffffffffffffff16815260200190815260200160002060006104a9610c2e565b73ffffffffffffffffffffffffffffffffffffffff1673ffffffffffffffffffffffffffffffffffffffff16815260200190815260200160002054905082811015610529576040517f08c379a00000000000000000000000000000000000000000000000000000000081526004016105209061189e565b60405180910390fd5b61053d85610535610c2e565b858403610c36565b60019150509392505050565b60006012905090565b60006105f461055f610c2e565b84846001600061056d610c2e565b73ffffffffffffffffffffffffffffffffffffffff1673ffffffffffffffffffffffffffffffffffffffff16815260200190815260200160002060008873ffffffffffffffffffffffffffffffffffffffff1673ffffffffffffffffffffffffffffffffffffffff168152602001908152602001600020546105ef91906118ed565b610c36565b6001905092915050565b610606610c2e565b73ffffffffffffffffffffffffffffffffffffffff166106246107d9565b73ffffffffffffffffffffffffffffffffffffffff161461067a576040517f08c379a00000000000000000000000000000000000000000000000000000000081526004016106719061198f565b60405180910390fd5b61068b610685610c2e565b82611082565b50565b60008060008373ffffffffffffffffffffffffffffffffffffffff1673ffffffffffffffffffffffffffffffffffffffff168152602001908152602001600020549050919050565b6106de610c2e565b73ffffffffffffffffffffffffffffffffffffffff166106fc6107d9565b73ffffffffffffffffffffffffffffffffffffffff1614610752576040517f08c379a00000000000000000000000000000000000000000000000000000000081526004016107499061198f565b60405180910390fd5b61075c6000611259565b565b60006107718361076c610c2e565b610aaf565b9050818110156107b6576040517f08c379a00000000000000000000000000000000000000000000000000000000081526004016107ad90611a21565b60405180910390fd5b6107ca836107c2610c2e565b848403610c36565b6107d48383611082565b505050565b6000600560009054906101000a900473ffffffffffffffffffffffffffffffffffffffff16905090565b606060048054610812906117fa565b80601f016020809104026020016040519081016040528092919081815260200182805461083e906117fa565b801561088b5780601f106108605761010080835404028352916020019161088b565b820191906000526020600020905b81548152906001019060200180831161086e57829003601f168201915b5050505050905090565b61089d610c2e565b73ffffffffffffffffffffffffffffffffffffffff166108bb6107d9565b73ffffffffffffffffffffffffffffffffffffffff1614610911576040517f08c379a00000000000000000000000000000000000000000000000000000000081526004016109089061198f565b60405180910390fd5b61091b338261131f565b50565b6000806001600061092d610c2e565b73ffffffffffffffffffffffffffffffffffffffff1673ffffffffffffffffffffffffffffffffffffffff16815260200190815260200160002060008573ffffffffffffffffffffffffffffffffffffffff1673ffffffffffffffffffffffffffffffffffffffff168152602001908152602001600020549050828110156109ea576040517f08c379a00000000000000000000000000000000000000000000000000000000081526004016109e190611ab3565b60405180910390fd5b6109fe6109f5610c2e565b85858403610c36565b600191505092915050565b6000610a1d610a16610c2e565b8484610e01565b6001905092915050565b610a2f610c2e565b73ffffffffffffffffffffffffffffffffffffffff16610a4d6107d9565b73ffffffffffffffffffffffffffffffffffffffff1614610aa3576040517f08c379a0000000000000000000000000000000000000000000000000000000008152600401610a9a9061198f565b60405180910390fd5b610aac81610b36565b50565b6000600160008473ffffffffffffffffffffffffffffffffffffffff1673ffffffffffffffffffffffffffffffffffffffff16815260200190815260200160002060008373ffffffffffffffffffffffffffffffffffffffff1673ffffffffffffffffffffffffffffffffffffffff16815260200190815260200160002054905092915050565b610b3e610c2e565b73ffffffffffffffffffffffffffffffffffffffff16610b5c6107d9565b73ffffffffffffffffffffffffffffffffffffffff1614610bb2576040517f08c379a0000000000000000000000000000000000000000000000000000000008152600401610ba99061198f565b60405180910390fd5b600073ffffffffffffffffffffffffffffffffffffffff168173ffffffffffffffffffffffffffffffffffffffff161415610c22576040517f08c379a0000000000000000000000000000000000000000000000000000000008152600401610c1990611b45565b60405180910390fd5b610c2b81611259565b50565b600033905090565b600073ffffffffffffffffffffffffffffffffffffffff168373ffffffffffffffffffffffffffffffffffffffff161415610ca6576040517f08c379a0000000000000000000000000000000000000000000000000000000008152600401610c9d90611bd7565b60405180910390fd5b600073ffffffffffffffffffffffffffffffffffffffff168273ffffffffffffffffffffffffffffffffffffffff161415610d16576040517f08c379a0000000000000000000000000000000000000000000000000000000008152600401610d0d90611c69565b60405180910390fd5b80600160008573ffffffffffffffffffffffffffffffffffffffff1673ffffffffffffffffffffffffffffffffffffffff16815260200190815260200160002060008473ffffffffffffffffffffffffffffffffffffffff1673ffffffffffffffffffffffffffffffffffffffff168152602001908152602001600020819055508173ffffffffffffffffffffffffffffffffffffffff168373ffffffffffffffffffffffffffffffffffffffff167f8c5be1e5ebec7d5bd14f71427d1e84f3dd0314c0f7b2291e5b200ac8c7c3b92583604051610df49190611662565b60405180910390a3505050565b600073ffffffffffffffffffffffffffffffffffffffff168373ffffffffffffffffffffffffffffffffffffffff161415610e71576040517f08c379a0000000000000000000000000000000000000000000000000000000008152600401610e6890611cfb565b60405180910390fd5b600073ffffffffffffffffffffffffffffffffffffffff168273ffffffffffffffffffffffffffffffffffffffff161415610ee1576040517f08c379a0000000000000000000000000000000000000000000000000000000008152600401610ed890611d8d565b60405180910390fd5b610eec83838361147f565b60008060008573ffffffffffffffffffffffffffffffffffffffff1673ffffffffffffffffffffffffffffffffffffffff16815260200190815260200160002054905081811015610f72576040517f08c379a0000000000000000000000000000000000000000000000000000000008152600401610f6990611e1f565b60405180910390fd5b8181036000808673ffffffffffffffffffffffffffffffffffffffff1673ffffffffffffffffffffffffffffffffffffffff16815260200190815260200160002081905550816000808573ffffffffffffffffffffffffffffffffffffffff1673ffffffffffffffffffffffffffffffffffffffff168152602001908152602001600020600082825461100591906118ed565b925050819055508273ffffffffffffffffffffffffffffffffffffffff168473ffffffffffffffffffffffffffffffffffffffff167fddf252ad1be2c89b69c2b068fc378daa952ba7f163c4a11628f55a4df523b3ef846040516110699190611662565b60405180910390a361107c848484611484565b50505050565b600073ffffffffffffffffffffffffffffffffffffffff168273ffffffffffffffffffffffffffffffffffffffff1614156110f2576040517f08c379a00000000000000000000000000000000000000000000000000000000081526004016110e990611eb1565b60405180910390fd5b6110fe8260008361147f565b60008060008473ffffffffffffffffffffffffffffffffffffffff1673ffffffffffffffffffffffffffffffffffffffff16815260200190815260200160002054905081811015611184576040517f08c379a000000000000000000000000000000000000000000000000000000000815260040161117b90611f43565b60405180910390fd5b8181036000808573ffffffffffffffffffffffffffffffffffffffff1673ffffffffffffffffffffffffffffffffffffffff1681526020019081526020016000208190555081600260008282546111db9190611f63565b92505081905550600073ffffffffffffffffffffffffffffffffffffffff168373ffffffffffffffffffffffffffffffffffffffff167fddf252ad1be2c89b69c2b068fc378daa952ba7f163c4a11628f55a4df523b3ef846040516112409190611662565b60405180910390a361125483600084611484565b505050565b6000600560009054906101000a900473ffffffffffffffffffffffffffffffffffffffff16905081600560006101000a81548173ffffffffffffffffffffffffffffffffffffffff021916908373ffffffffffffffffffffffffffffffffffffffff1602179055508173ffffffffffffffffffffffffffffffffffffffff168173ffffffffffffffffffffffffffffffffffffffff167f8be0079c531659141344cd1fd0a4f28419497f9722a3daafe3b4186f6b6457e060405160405180910390a35050565b600073ffffffffffffffffffffffffffffffffffffffff168273ffffffffffffffffffffffffffffffffffffffff16141561138f576040517f08c379a000000000000000000000000000000000000000000000000000000000815260040161138690611fe3565b60405180910390fd5b61139b6000838361147f565b80600260008282546113ad91906118ed565b92505081905550806000808473ffffffffffffffffffffffffffffffffffffffff1673ffffffffffffffffffffffffffffffffffffffff168152602001908152602001600020600082825461140291906118ed565b925050819055508173ffffffffffffffffffffffffffffffffffffffff16600073ffffffffffffffffffffffffffffffffffffffff167fddf252ad1be2c89b69c2b068fc378daa952ba7f163c4a11628f55a4df523b3ef836040516114679190611662565b60405180910390a361147b60008383611484565b5050565b505050565b505050565b600081519050919050565b600082825260208201905092915050565b60005b838110156114c35780820151818401526020810190506114a8565b838111156114d2576000848401525b50505050565b6000601f19601f8301169050919050565b60006114f482611489565b6114fe8185611494565b935061150e8185602086016114a5565b611517816114d8565b840191505092915050565b6000602082019050818103600083015261153c81846114e9565b905092915050565b600080fd5b600073ffffffffffffffffffffffffffffffffffffffff82169050919050565b600061157482611549565b9050919050565b61158481611569565b811461158f57600080fd5b50565b6000813590506115a18161157b565b92915050565b6000819050919050565b6115ba816115a7565b81146115c557600080fd5b50565b6000813590506115d7816115b1565b92915050565b600080604083850312156115f4576115f3611544565b5b600061160285828601611592565b9250506020611613858286016115c8565b9150509250929050565b60008115159050919050565b6116328161161d565b82525050565b600060208201905061164d6000830184611629565b92915050565b61165c816115a7565b82525050565b60006020820190506116776000830184611653565b92915050565b60008060006060848603121561169657611695611544565b5b60006116a486828701611592565b93505060206116b586828701611592565b92505060406116c6868287016115c8565b9150509250925092565b600060ff82169050919050565b6116e6816116d0565b82525050565b600060208201905061170160008301846116dd565b92915050565b60006020828403121561171d5761171c611544565b5b600061172b848285016115c8565b91505092915050565b60006020828403121561174a57611749611544565b5b600061175884828501611592565b91505092915050565b61176a81611569565b82525050565b60006020820190506117856000830184611761565b92915050565b600080604083850312156117a2576117a1611544565b5b60006117b085828601611592565b92505060206117c185828601611592565b9150509250929050565b7f4e487b7100000000000000000000000000000000000000000000000000000000600052602260045260246000fd5b6000600282049050600182168061181257607f821691505b60208210811415611826576118256117cb565b5b50919050565b7f45524332303a207472616e7366657220616d6f756e742065786365656473206160008201527f6c6c6f77616e6365000000000000000000000000000000000000000000000000602082015250565b6000611888602883611494565b91506118938261182c565b604082019050919050565b600060208201905081810360008301526118b78161187b565b9050919050565b7f4e487b7100000000000000000000000000000000000000000000000000000000600052601160045260246000fd5b60006118f8826115a7565b9150611903836115a7565b9250827fffffffffffffffffffffffffffffffffffffffffffffffffffffffffffffffff03821115611938576119376118be565b5b828201905092915050565b7f4f776e61626c653a2063616c6c6572206973206e6f7420746865206f776e6572600082015250565b6000611979602083611494565b915061198482611943565b602082019050919050565b600060208201905081810360008301526119a88161196c565b9050919050565b7f45524332303a206275726e20616d6f756e74206578636565647320616c6c6f7760008201527f616e636500000000000000000000000000000000000000000000000000000000602082015250565b6000611a0b602483611494565b9150611a16826119af565b604082019050919050565b60006020820190508181036000830152611a3a816119fe565b9050919050565b7f45524332303a2064656372656173656420616c6c6f77616e63652062656c6f7760008201527f207a65726f000000000000000000000000000000000000000000000000000000602082015250565b6000611a9d602583611494565b9150611aa882611a41565b604082019050919050565b60006020820190508181036000830152611acc81611a90565b9050919050565b7f4f776e61626c653a206e6577206f776e657220697320746865207a65726f206160008201527f6464726573730000000000000000000000000000000000000000000000000000602082015250565b6000611b2f602683611494565b9150611b3a82611ad3565b604082019050919050565b60006020820190508181036000830152611b5e81611b22565b9050919050565b7f45524332303a20617070726f76652066726f6d20746865207a65726f2061646460008201527f7265737300000000000000000000000000000000000000000000000000000000602082015250565b6000611bc1602483611494565b9150611bcc82611b65565b604082019050919050565b60006020820190508181036000830152611bf081611bb4565b9050919050565b7f45524332303a20617070726f766520746f20746865207a65726f20616464726560008201527f7373000000000000000000000000000000000000000000000000000000000000602082015250565b6000611c53602283611494565b9150611c5e82611bf7565b604082019050919050565b60006020820190508181036000830152611c8281611c46565b9050919050565b7f45524332303a207472616e736665722066726f6d20746865207a65726f20616460008201527f6472657373000000000000000000000000000000000000000000000000000000602082015250565b6000611ce5602583611494565b9150611cf082611c89565b604082019050919050565b60006020820190508181036000830152611d1481611cd8565b9050919050565b7f45524332303a207472616e7366657220746f20746865207a65726f206164647260008201527f6573730000000000000000000000000000000000000000000000000000000000602082015250565b6000611d77602383611494565b9150611d8282611d1b565b604082019050919050565b60006020820190508181036000830152611da681611d6a565b9050919050565b7f45524332303a207472616e7366657220616d6f756e742065786365656473206260008201527f616c616e63650000000000000000000000000000000000000000000000000000602082015250565b6000611e09602683611494565b9150611e1482611dad565b604082019050919050565b60006020820190508181036000830152611e3881611dfc565b9050919050565b7f45524332303a206275726e2066726f6d20746865207a65726f2061646472657360008201527f7300000000000000000000000000000000000000000000000000000000000000602082015250565b6000611e9b602183611494565b9150611ea682611e3f565b604082019050919050565b60006020820190508181036000830152611eca81611e8e565b9050919050565b7f45524332303a206275726e20616d6f756e7420657863656564732062616c616e60008201527f6365000000000000000000000000000000000000000000000000000000000000602082015250565b6000611f2d602283611494565b9150611f3882611ed1565b604082019050919050565b60006020820190508181036000830152611f5c81611f20565b9050919050565b6000611f6e826115a7565b9150611f79836115a7565b925082821015611f8c57611f8b6118be565b5b828203905092915050565b7f45524332303a206d696e7420746f20746865207a65726f206164647265737300600082015250565b6000611fcd601f83611494565b9150611fd882611f97565b602082019050919050565b60006020820190508181036000830152611ffc81611fc0565b905091905056fea264697066735822122074375d96a00b8b79258cf4458b0f10f17bf02488b9c5d752505cdda31aaaf19c64736f6c634300080b0033",
  "immutableReferences": {},
  "source": "// SPDX-License-Identifier: MIT\r\npragma solidity ^0.8.0;\r\n\r\nimport \"../client/node_modules/@openzeppelin/contracts/token/ERC20/extensions/ERC20Burnable.sol\";\r\nimport \"../client/node_modules/@openzeppelin/contracts/token/ERC20/ERC20.sol\";\r\nimport \"../client/node_modules/@openzeppelin/contracts/access/Ownable.sol\";\r\n\r\ncontract CCLC is ERC20Burnable, Ownable {\r\n    //0xFB3968274b07507212553548c395Cf0BD835b004 ROW\r\n    constructor() ERC20(\"Clear Chain Life Coin\", \"CCLC\"){\r\n        _mint(msg.sender, 1000000000000000000000000000); //1,000,000,000 = 1 billion.\r\n    } \r\n    \r\n\r\n    function _transferOwnership(address newOwner) public onlyOwner {\r\n        transferOwnership(newOwner);\r\n    } \r\n\r\n    function burn(uint256 amount) public override onlyOwner {\r\n        _burn(_msgSender(), amount);\r\n    }\r\n    function mint(uint256 amount) public onlyOwner {\r\n        _mint(msg.sender, amount);\r\n    }\r\n}",
  "sourcePath": "C:\\Users\\L_Mea\\clearchain\\ICO\\contracts\\CCLC.sol",
  "compiler": {
    "name": "solc",
    "version": "0.8.11+commit.d7f03943.Emscripten.clang"
  },
  "schemaVersion": "3.4.3",
  "updatedAt": "2022-01-25T13:31:26.885Z",
  "networkType": "ethereum",
  "devdoc": {
    "kind": "dev",
    "methods": {
      "allowance(address,address)": {
        "details": "See {IERC20-allowance}."
      },
      "approve(address,uint256)": {
        "details": "See {IERC20-approve}. Requirements: - `spender` cannot be the zero address."
      },
      "balanceOf(address)": {
        "details": "See {IERC20-balanceOf}."
      },
      "burn(uint256)": {
        "details": "Destroys `amount` tokens from the caller. See {ERC20-_burn}."
      },
      "burnFrom(address,uint256)": {
        "details": "Destroys `amount` tokens from `account`, deducting from the caller's allowance. See {ERC20-_burn} and {ERC20-allowance}. Requirements: - the caller must have allowance for ``accounts``'s tokens of at least `amount`."
      },
      "decimals()": {
        "details": "Returns the number of decimals used to get its user representation. For example, if `decimals` equals `2`, a balance of `505` tokens should be displayed to a user as `5.05` (`505 / 10 ** 2`). Tokens usually opt for a value of 18, imitating the relationship between Ether and Wei. This is the value {ERC20} uses, unless this function is overridden; NOTE: This information is only used for _display_ purposes: it in no way affects any of the arithmetic of the contract, including {IERC20-balanceOf} and {IERC20-transfer}."
      },
      "decreaseAllowance(address,uint256)": {
        "details": "Atomically decreases the allowance granted to `spender` by the caller. This is an alternative to {approve} that can be used as a mitigation for problems described in {IERC20-approve}. Emits an {Approval} event indicating the updated allowance. Requirements: - `spender` cannot be the zero address. - `spender` must have allowance for the caller of at least `subtractedValue`."
      },
      "increaseAllowance(address,uint256)": {
        "details": "Atomically increases the allowance granted to `spender` by the caller. This is an alternative to {approve} that can be used as a mitigation for problems described in {IERC20-approve}. Emits an {Approval} event indicating the updated allowance. Requirements: - `spender` cannot be the zero address."
      },
      "name()": {
        "details": "Returns the name of the token."
      },
      "owner()": {
        "details": "Returns the address of the current owner."
      },
      "renounceOwnership()": {
        "details": "Leaves the contract without owner. It will not be possible to call `onlyOwner` functions anymore. Can only be called by the current owner. NOTE: Renouncing ownership will leave the contract without an owner, thereby removing any functionality that is only available to the owner."
      },
      "symbol()": {
        "details": "Returns the symbol of the token, usually a shorter version of the name."
      },
      "totalSupply()": {
        "details": "See {IERC20-totalSupply}."
      },
      "transfer(address,uint256)": {
        "details": "See {IERC20-transfer}. Requirements: - `recipient` cannot be the zero address. - the caller must have a balance of at least `amount`."
      },
      "transferFrom(address,address,uint256)": {
        "details": "See {IERC20-transferFrom}. Emits an {Approval} event indicating the updated allowance. This is not required by the EIP. See the note at the beginning of {ERC20}. Requirements: - `sender` and `recipient` cannot be the zero address. - `sender` must have a balance of at least `amount`. - the caller must have allowance for ``sender``'s tokens of at least `amount`."
      },
      "transferOwnership(address)": {
        "details": "Transfers ownership of the contract to a new account (`newOwner`). Can only be called by the current owner."
      }
    },
    "version": 1
  },
  "userdoc": {
    "kind": "user",
    "methods": {},
    "version": 1
  }
}