{
  "contractName": "FundStorage",
  "abi": [
    {
      "anonymous": false,
      "inputs": [
        {
          "indexed": true,
          "internalType": "address",
          "name": "previousOwner",
          "type": "address"
        },
        {
          "indexed": true,
          "internalType": "address",
          "name": "newOwner",
          "type": "address"
        }
      ],
      "name": "OwnershipTransferred",
      "type": "event"
    },
    {
      "inputs": [],
      "name": "fundStorage",
      "outputs": [
        {
          "internalType": "address",
          "name": "",
          "type": "address"
        }
      ],
      "stateMutability": "view",
      "type": "function",
      "constant": true
    },
    {
      "inputs": [],
      "name": "owner",
      "outputs": [
        {
          "internalType": "address",
          "name": "",
          "type": "address"
        }
      ],
      "stateMutability": "view",
      "type": "function",
      "constant": true
    },
    {
      "inputs": [],
      "name": "renounceOwnership",
      "outputs": [],
      "stateMutability": "nonpayable",
      "type": "function"
    },
    {
      "inputs": [
        {
          "internalType": "address",
          "name": "newOwner",
          "type": "address"
        }
      ],
      "name": "transferOwnership",
      "outputs": [],
      "stateMutability": "nonpayable",
      "type": "function"
    },
    {
      "stateMutability": "payable",
      "type": "receive",
      "payable": true
    },
    {
      "inputs": [],
      "name": "getBalance",
      "outputs": [
        {
          "internalType": "uint256",
          "name": "",
          "type": "uint256"
        }
      ],
      "stateMutability": "view",
      "type": "function",
      "constant": true
    },
    {
      "inputs": [],
      "name": "getFundStorage",
      "outputs": [
        {
          "internalType": "address",
          "name": "",
          "type": "address"
        }
      ],
      "stateMutability": "view",
      "type": "function",
      "constant": true
    },
    {
      "inputs": [
        {
          "internalType": "uint256",
          "name": "_amount",
          "type": "uint256"
        }
      ],
      "name": "withdrawFunds",
      "outputs": [],
      "stateMutability": "payable",
      "type": "function",
      "payable": true
    }
  ],
  "bytecode": "0x608060405234801561001057600080fd5b5061002d61002261003260201b60201c565b61003a60201b60201c565b6100fe565b600033905090565b60008060009054906101000a900473ffffffffffffffffffffffffffffffffffffffff169050816000806101000a81548173ffffffffffffffffffffffffffffffffffffffff021916908373ffffffffffffffffffffffffffffffffffffffff1602179055508173ffffffffffffffffffffffffffffffffffffffff168173ffffffffffffffffffffffffffffffffffffffff167f8be0079c531659141344cd1fd0a4f28419497f9722a3daafe3b4186f6b6457e060405160405180910390a35050565b6107858061010d6000396000f3fe6080604052600436106100745760003560e01c8063715018a61161004e578063715018a6146100f2578063769de7d2146101095780638da5cb5b14610134578063f2fde38b1461015f5761007b565b8063032db5971461008057806312065fe0146100ab578063155dd5ee146100d65761007b565b3661007b57005b600080fd5b34801561008c57600080fd5b50610095610188565b6040516100a2919061053a565b60405180910390f35b3480156100b757600080fd5b506100c0610190565b6040516100cd919061056e565b60405180910390f35b6100f060048036038101906100eb91906105ba565b610198565b005b3480156100fe57600080fd5b5061010761025e565b005b34801561011557600080fd5b5061011e6102e6565b60405161012b919061053a565b60405180910390f35b34801561014057600080fd5b5061014961030c565b604051610156919061053a565b60405180910390f35b34801561016b57600080fd5b5061018660048036038101906101819190610613565b610335565b005b600030905090565b600047905090565b6101a061042d565b73ffffffffffffffffffffffffffffffffffffffff166101be61030c565b73ffffffffffffffffffffffffffffffffffffffff1614610214576040517f08c379a000000000000000000000000000000000000000000000000000000000815260040161020b9061069d565b60405180910390fd5b3373ffffffffffffffffffffffffffffffffffffffff166108fc829081150290604051600060405180830381858888f1935050505015801561025a573d6000803e3d6000fd5b5050565b61026661042d565b73ffffffffffffffffffffffffffffffffffffffff1661028461030c565b73ffffffffffffffffffffffffffffffffffffffff16146102da576040517f08c379a00000000000000000000000000000000000000000000000000000000081526004016102d19061069d565b60405180910390fd5b6102e46000610435565b565b600160009054906101000a900473ffffffffffffffffffffffffffffffffffffffff1681565b60008060009054906101000a900473ffffffffffffffffffffffffffffffffffffffff16905090565b61033d61042d565b73ffffffffffffffffffffffffffffffffffffffff1661035b61030c565b73ffffffffffffffffffffffffffffffffffffffff16146103b1576040517f08c379a00000000000000000000000000000000000000000000000000000000081526004016103a89061069d565b60405180910390fd5b600073ffffffffffffffffffffffffffffffffffffffff168173ffffffffffffffffffffffffffffffffffffffff161415610421576040517f08c379a00000000000000000000000000000000000000000000000000000000081526004016104189061072f565b60405180910390fd5b61042a81610435565b50565b600033905090565b60008060009054906101000a900473ffffffffffffffffffffffffffffffffffffffff169050816000806101000a81548173ffffffffffffffffffffffffffffffffffffffff021916908373ffffffffffffffffffffffffffffffffffffffff1602179055508173ffffffffffffffffffffffffffffffffffffffff168173ffffffffffffffffffffffffffffffffffffffff167f8be0079c531659141344cd1fd0a4f28419497f9722a3daafe3b4186f6b6457e060405160405180910390a35050565b600073ffffffffffffffffffffffffffffffffffffffff82169050919050565b6000610524826104f9565b9050919050565b61053481610519565b82525050565b600060208201905061054f600083018461052b565b92915050565b6000819050919050565b61056881610555565b82525050565b6000602082019050610583600083018461055f565b92915050565b600080fd5b61059781610555565b81146105a257600080fd5b50565b6000813590506105b48161058e565b92915050565b6000602082840312156105d0576105cf610589565b5b60006105de848285016105a5565b91505092915050565b6105f081610519565b81146105fb57600080fd5b50565b60008135905061060d816105e7565b92915050565b60006020828403121561062957610628610589565b5b6000610637848285016105fe565b91505092915050565b600082825260208201905092915050565b7f4f776e61626c653a2063616c6c6572206973206e6f7420746865206f776e6572600082015250565b6000610687602083610640565b915061069282610651565b602082019050919050565b600060208201905081810360008301526106b68161067a565b9050919050565b7f4f776e61626c653a206e6577206f776e657220697320746865207a65726f206160008201527f6464726573730000000000000000000000000000000000000000000000000000602082015250565b6000610719602683610640565b9150610724826106bd565b604082019050919050565b600060208201905081810360008301526107488161070c565b905091905056fea26469706673582212200c1ddc47848174360836d4cafc9bad58102d7a5a028ae7115546f98b5c193cf164736f6c63430008090033",
  "immutableReferences": {},
  "source": "pragma solidity ^0.8.0;\r\n\r\nimport \"../client/node_modules/@openzeppelin/contracts/access/Ownable.sol\";\r\n\r\n//All acquired Ether is sent to this smart contract.  Can be withdrawn by Owner.\r\n\r\ncontract FundStorage is Ownable {\r\n\r\n    address public fundStorage;\r\n\r\n    function getBalance() public view returns(uint256) {\r\n        return address(this).balance;\r\n    }\r\n  \r\n    function getFundStorage() public view returns(address) {\r\n        return address(this);\r\n    }\r\n\r\n    function withdrawFunds(uint256 _amount) public payable onlyOwner {\r\n        payable(msg.sender).transfer(_amount);\r\n    }\r\n\r\n    receive()external payable{}\r\n\r\n}",
  "sourcePath": "C:\\Users\\L_Mea\\clearchain\\ICO\\contracts\\FundStorage.sol",
  "compiler": {
    "name": "solc",
    "version": "0.8.9+commit.e5eed63a.Emscripten.clang"
  },
  "schemaVersion": "3.4.3",
  "updatedAt": "2021-10-25T02:52:53.537Z",
  "networkType": "ethereum",
  "devdoc": {
    "kind": "dev",
    "methods": {
      "owner()": {
        "details": "Returns the address of the current owner."
      },
      "renounceOwnership()": {
        "details": "Leaves the contract without owner. It will not be possible to call `onlyOwner` functions anymore. Can only be called by the current owner. NOTE: Renouncing ownership will leave the contract without an owner, thereby removing any functionality that is only available to the owner."
      },
      "transferOwnership(address)": {
        "details": "Transfers ownership of the contract to a new account (`newOwner`). Can only be called by the current owner."
      }
    },
    "version": 1
  },
  "userdoc": {
    "kind": "user",
    "methods": {},
    "version": 1
  }
}