{
	"data": {
		"bytecode": {
			"linkReferences": {},
			"object": "608060405260006010819055610bb8601155601460128190556032601355603c81556004601755610190601855601982905561a8c0601a5542601b55601c55601d55610bd6805463ffffff0019166101001790553480156200006057600080fd5b50604080518082018252600f81526e4d69676874794d6f6e676f6f73657360881b60208083019182528351808501909452601584527f4d69676874794d6f6e676f6f73657320284d4d45290000000000000000000000908401528151919291620000cd91600091620001d8565b508051620000e3906001906020840190620001d8565b5050600d805460ff1916905550620000fb336200017e565b60408051808201909152600e8082526d7777772e68656c6c6f312e636f6d60901b60209092019182526200013391610bdc91620001d8565b506200014242600019620002bb565b600e55610bd68054600160201b600160c01b031916336401000000000217905566f8b0a10e47000060155566b1a2bc2ec50000601655620002dc565b600d80546001600160a01b03838116610100818102610100600160a81b031985161790945560405193909204169182907f8be0079c531659141344cd1fd0a4f28419497f9722a3daafe3b4186f6b6457e090600090a35050565b828054620001e6906200027e565b90600052602060002090601f0160209004810192826200020a576000855562000255565b82601f106200022557805160ff191683800117855562000255565b8280016001018555821562000255579182015b828111156200025557825182559160200191906001019062000238565b506200026392915062000267565b5090565b5b8082111562000263576000815560010162000268565b600181811c908216806200029357607f821691505b60208210811415620002b557634e487b7160e01b600052602260045260246000fd5b50919050565b600082620002d757634e487b7160e01b81526012600452602481fd5b500690565b6153a980620002ec6000396000f3fe6080604052600436106104975760003560e01c80637a1b595a11610260578063bf91ed1e11610144578063e608eb1f116100c1578063f2fde38b11610085578063f2fde38b14610e2d578063f531b76814610e4d578063f92abf6214610e6d578063f9f411d814610e83578063fbe17aae14610ea3578063fd9425f514610ec357600080fd5b8063e608eb1f14610d79578063e985e9c514610d8f578063eacb0d2914610dd8578063ec8db81714610df8578063eeecf85d14610e0d57600080fd5b8063cee3e7bd11610108578063cee3e7bd14610cd6578063d5303baa14610cf6578063da7438d514610d16578063e3ae082814610d2c578063e503ea0f14610d4c57600080fd5b8063bf91ed1e14610c40578063c0d2ccf814610c60578063c1957b8414610c80578063c6cde4aa14610c96578063c87b56dd14610cb657600080fd5b80639b6a6709116101dd578063ac5a7359116101a1578063ac5a735914610b8a578063ae2c94b214610baa578063b49d97ed14610bca578063b88d4fde14610be0578063bbf961a414610c00578063bd1b929c14610c2057600080fd5b80639b6a670914610b0e578063a144819414610b21578063a1a953fd14610b34578063a22cb46514610b54578063a32da8c214610b7457600080fd5b80638456cb59116102245780638456cb5914610a8a5780638da5cb5b14610a9f5780638e2137ad14610ac25780638e689c8114610ad957806395d89b4114610af957600080fd5b80637a1b595a14610a0b5780637b2f4cee14610a215780637b42218414610a415780637ff9b59614610a5457806380ca5b4614610a6a57600080fd5b80633f4ba83a11610387578063564b81ef1161030457806368cd5bfe116102c857806368cd5bfe14610974578063696436691461098a5780636c0360eb146109aa57806370a08231146109bf5780637556e0e2146109df57806379446221146109f557600080fd5b8063564b81ef146108f357806359cc38d9146109065780635c975abb146109265780635f22eb6d1461093e5780636352211e1461095457600080fd5b8063477a056c1161034b578063477a056c146108585780634f6ccce71461087857806354c001dd1461089857806355f804b3146108b85780635646f79c146108d857600080fd5b80633f4ba83a146107c657806341275358146107db57806342842e0e1461080357806342966c6814610823578063472fc0ce1461084357600080fd5b80632316b4da116104155780632eb88cee116103d95780632eb88cee1461071d5780632f745c591461074d57806333ba9daa1461076d57806333bc1c5c1461078f57806334fc584b146107b057600080fd5b80632316b4da1461069257806323b872dd146106a757806325f1ffb8146106c757806326b52ab6146106dd5780632c1115ef146106fd57600080fd5b8063081812fc1161045c578063081812fc146105dc578063095ea7b31461061457806311d0ae2e1461063657806318160ddd1461066757806322a7cf5f1461067c57600080fd5b806215284a146104a357806301ffc9a7146104f0578063020f41fe1461052057806304ecf8811461055257806306fdde03146105ba57600080fd5b3661049e57005b600080fd5b3480156104af57600080fd5b506104dd6104be366004614b77565b6001600160a01b03166000908152610bd9602052604090206001015490565b6040519081526020015b60405180910390f35b3480156104fc57600080fd5b5061051061050b366004614dbd565b610ee3565b60405190151581526020016104e7565b34801561052c57600080fd5b5061054061053b366004614e3b565b610ef4565b6040516104e79695949392919061503d565b34801561055e57600080fd5b5061059861056d366004614b77565b610bd96020526000908152604090208054600182015460028301546003909301549192909160ff1684565b60408051948552602085019390935291830152151560608201526080016104e7565b3480156105c657600080fd5b506105cf610fb1565b6040516104e7919061502a565b3480156105e857600080fd5b506105fc6105f7366004614e3b565b611043565b6040516001600160a01b0390911681526020016104e7565b34801561062057600080fd5b5061063461062f366004614cad565b6110d0565b005b34801561064257600080fd5b50610510610651366004614b77565b610bd86020526000908152604090205460ff1681565b34801561067357600080fd5b50600a546104dd565b34801561068857600080fd5b506104dd601c5481565b34801561069e57600080fd5b506106346111e6565b3480156106b357600080fd5b506106346106c2366004614bc3565b61122a565b3480156106d357600080fd5b506104dd60175481565b3480156106e957600080fd5b506106346106f8366004614e3b565b61142c565b34801561070957600080fd5b50610510610718366004614e3b565b611461565b34801561072957600080fd5b50610510610738366004614e3b565b60076020526000908152604090205460ff1681565b34801561075957600080fd5b506104dd610768366004614cad565b61148d565b34801561077957600080fd5b50610bd654610510906301000000900460ff1681565b34801561079b57600080fd5b50610bd6546105109062010000900460ff1681565b3480156107bc57600080fd5b506104dd60165481565b3480156107d257600080fd5b50610634611523565b3480156107e757600080fd5b50610bd6546105fc90600160201b90046001600160a01b031681565b34801561080f57600080fd5b5061063461081e366004614bc3565b61155d565b34801561082f57600080fd5b5061063461083e366004614e3b565b61160f565b34801561084f57600080fd5b506105cf61168b565b34801561086457600080fd5b50610634610873366004614bc3565b611719565b34801561088457600080fd5b506104dd610893366004614e3b565b6117d1565b3480156108a457600080fd5b506106346108b3366004614b77565b611872565b3480156108c457600080fd5b506106346108d3366004614df5565b611926565b3480156108e457600080fd5b50610bd6546105109060ff1681565b3480156108ff57600080fd5b50466104dd565b34801561091257600080fd5b50610634610921366004614e3b565b61196e565b34801561093257600080fd5b50600d5460ff16610510565b34801561094a57600080fd5b506104dd60185481565b34801561096057600080fd5b506105fc61096f366004614e3b565b6119a3565b34801561098057600080fd5b506104dd60195481565b34801561099657600080fd5b50610bd65461051090610100900460ff1681565b3480156109b657600080fd5b506105cf6119be565b3480156109cb57600080fd5b506104dd6109da366004614b77565b6119cc565b3480156109eb57600080fd5b506104dd610bb881565b348015610a0157600080fd5b506104dd60145481565b348015610a1757600080fd5b506104dd601a5481565b348015610a2d57600080fd5b50610634610a3c366004614cd6565b611a53565b610634610a4f366004614e53565b611b62565b348015610a6057600080fd5b506104dd60155481565b348015610a7657600080fd5b50610634610a85366004614e3b565b612361565b348015610a9657600080fd5b50610634612396565b348015610aab57600080fd5b50600d5461010090046001600160a01b03166105fc565b348015610ace57600080fd5b506104dd610bd75481565b348015610ae557600080fd5b50610634610af4366004614e3b565b6123ce565b348015610b0557600080fd5b506105cf612403565b610634610b1c366004614cad565b612412565b610634610b2f366004614cad565b61269a565b348015610b4057600080fd5b506104dd610b4f366004614e3b565b6128b1565b348015610b6057600080fd5b50610634610b6f366004614c77565b6128c9565b348015610b8057600080fd5b506104dd601b5481565b348015610b9657600080fd5b50610634610ba5366004614d85565b61298e565b348015610bb657600080fd5b50610634610bc5366004614df5565b6129d2565b348015610bd657600080fd5b506104dd60135481565b348015610bec57600080fd5b50610634610bfb366004614bfe565b612a0b565b348015610c0c57600080fd5b50610634610c1b366004614cad565b612a3d565b348015610c2c57600080fd5b50610634610c3b366004614e53565b612aa3565b348015610c4c57600080fd5b50610634610c5b366004614e3b565b612fbd565b348015610c6c57600080fd5b50610634610c7b366004614cad565b612ff2565b348015610c8c57600080fd5b506104dd60115481565b348015610ca257600080fd5b50610634610cb1366004614e3b565b613098565b348015610cc257600080fd5b506105cf610cd1366004614e3b565b6130cd565b348015610ce257600080fd5b50610634610cf1366004614d85565b6130d8565b348015610d0257600080fd5b50610634610d11366004614e3b565b613123565b348015610d2257600080fd5b506104dd60125481565b348015610d3857600080fd5b50610634610d47366004614e3b565b613158565b348015610d5857600080fd5b50610d6c610d67366004614b77565b61318d565b6040516104e79190614fe6565b348015610d8557600080fd5b506104dd600f5481565b348015610d9b57600080fd5b50610510610daa366004614b91565b6001600160a01b03918216600090815260066020908152604080832093909416825291909152205460ff1690565b348015610de457600080fd5b50610634610df3366004614e3b565b6131fa565b348015610e0457600080fd5b5061063461322f565b348015610e1957600080fd5b50610634610e28366004614d85565b61326e565b348015610e3957600080fd5b50610634610e48366004614b77565b6132bd565b348015610e5957600080fd5b50610634610e68366004614cd6565b61335b565b348015610e7957600080fd5b506104dd60105481565b348015610e8f57600080fd5b506104dd610e9e366004614cad565b61346b565b348015610eaf57600080fd5b50610634610ebe366004614e3b565b61349d565b348015610ecf57600080fd5b50610634610ede366004614e3b565b6134d2565b6000610eee82613507565b92915050565b610bda60205260009081526040902080548190610f10906152a3565b80601f0160208091040260200160405190810160405280929190818152602001828054610f3c906152a3565b8015610f895780601f10610f5e57610100808354040283529160200191610f89565b820191906000526020600020905b815481529060010190602001808311610f6c57829003601f168201915b5050505050908060010154908060020154908060030154908060040154908060050154905086565b606060008054610fc0906152a3565b80601f0160208091040260200160405190810160405280929190818152602001828054610fec906152a3565b80156110395780601f1061100e57610100808354040283529160200191611039565b820191906000526020600020905b81548152906001019060200180831161101c57829003601f168201915b5050505050905090565b600061104e8261352c565b6110b45760405162461bcd60e51b815260206004820152602c60248201527f4552433732313a20617070726f76656420717565727920666f72206e6f6e657860448201526b34b9ba32b73a103a37b5b2b760a11b60648201526084015b60405180910390fd5b506000908152600560205260409020546001600160a01b031690565b60006110db826119a3565b9050806001600160a01b0316836001600160a01b031614156111495760405162461bcd60e51b815260206004820152602160248201527f4552433732313a20617070726f76616c20746f2063757272656e74206f776e656044820152603960f91b60648201526084016110ab565b336001600160a01b038216148061116557506111658133610daa565b6111d75760405162461bcd60e51b815260206004820152603860248201527f4552433732313a20617070726f76652063616c6c6572206973206e6f74206f7760448201527f6e6572206e6f7220617070726f76656420666f7220616c6c000000000000000060648201526084016110ab565b6111e18383613549565b505050565b600d546001600160a01b036101009091041633146112165760405162461bcd60e51b81526004016110ab906150f5565b610bd6805462ff0000191662010000179055565b6112358383836135b7565b6001600160a01b0383166000908152610bdb6020526040812054905b81811015611425576001600160a01b0385166000908152610bdb6020526040902080548491908390811061129557634e487b7160e01b600052603260045260246000fd5b90600052602060002001541415611413576001600160a01b0385166000908152610bdb602052604090206112ca600184615249565b815481106112e857634e487b7160e01b600052603260045260246000fd5b9060005260206000200154610bdb6000876001600160a01b03166001600160a01b03168152602001908152602001600020828154811061133857634e487b7160e01b600052603260045260246000fd5b60009182526020808320909101929092556001600160a01b0387168152610bdb9091526040902080548061137c57634e487b7160e01b600052603160045260246000fd5b6000828152602080822083016000199081018390559092019092556001600160a01b0387168252610bd99052604081206001018054916113bb8361528c565b90915550506001600160a01b0384166000818152610bdb6020908152604080832080546001818101835591855283852001889055938352610bd99091528120909101805491611409836152de565b9190505550611425565b8061141d816152de565b915050611251565b5050505050565b600d546001600160a01b0361010090910416331461145c5760405162461bcd60e51b81526004016110ab906150f5565b601555565b6013546000828152610bda60205260408120600101549091429161148591906151fe565b111592915050565b6000611498836119cc565b82106114fa5760405162461bcd60e51b815260206004820152602b60248201527f455243373231456e756d657261626c653a206f776e657220696e646578206f7560448201526a74206f6620626f756e647360a81b60648201526084016110ab565b506001600160a01b03919091166000908152600860209081526040808320938352929052205490565b600d546001600160a01b036101009091041633146115535760405162461bcd60e51b81526004016110ab906150f5565b61155b6135e7565b565b61156883838361367a565b6001600160a01b0383166000908152610bdb6020526040812054905b81811015611425576001600160a01b0385166000908152610bdb602052604090208054849190839081106115c857634e487b7160e01b600052603260045260246000fd5b906000526020600020015414156115fd576001600160a01b0385166000908152610bdb602052604090206112ca600184615249565b80611607816152de565b915050611584565b61161a335b82613695565b61167f5760405162461bcd60e51b815260206004820152603060248201527f4552433732314275726e61626c653a2063616c6c6572206973206e6f74206f7760448201526f1b995c881b9bdc88185c1c1c9bdd995960821b60648201526084016110ab565b6116888161377f565b50565b60028054611698906152a3565b80601f01602080910402602001604051908101604052809291908181526020018280546116c4906152a3565b80156117115780601f106116e657610100808354040283529160200191611711565b820191906000526020600020905b8154815290600101906020018083116116f457829003601f168201915b505050505081565b600d546001600160a01b036101009091041633146117495760405162461bcd60e51b81526004016110ab906150f5565b60405163a9059cbb60e01b81526001600160a01b0383811660048301526024820183905284169063a9059cbb90604401602060405180830381600087803b15801561179357600080fd5b505af11580156117a7573d6000803e3d6000fd5b505050506040513d601f19601f820116820180604052508101906117cb9190614da1565b50505050565b60006117dc600a5490565b821061183f5760405162461bcd60e51b815260206004820152602c60248201527f455243373231456e756d657261626c653a20676c6f62616c20696e646578206f60448201526b7574206f6620626f756e647360a01b60648201526084016110ab565b600a828154811061186057634e487b7160e01b600052603260045260246000fd5b90600052602060002001549050919050565b600d546001600160a01b036101009091041633146118a25760405162461bcd60e51b81526004016110ab906150f5565b6001600160a01b0381166118f85760405162461bcd60e51b815260206004820152601860248201527f53686f756c642062652061207a65726f2061646472657373000000000000000060448201526064016110ab565b610bd680546001600160a01b03909216600160201b02640100000000600160c01b0319909216919091179055565b600d546001600160a01b036101009091041633146119565760405162461bcd60e51b81526004016110ab906150f5565b805161196a90610bdc906020840190614a39565b5050565b600d546001600160a01b0361010090910416331461199e5760405162461bcd60e51b81526004016110ab906150f5565b601855565b6000908152600360205260409020546001600160a01b031690565b610bdc8054611698906152a3565b60006001600160a01b038216611a375760405162461bcd60e51b815260206004820152602a60248201527f4552433732313a2062616c616e636520717565727920666f7220746865207a65604482015269726f206164647265737360b01b60648201526084016110ab565b506001600160a01b031660009081526004602052604090205490565b600d546001600160a01b03610100909104163314611a835760405162461bcd60e51b81526004016110ab906150f5565b60005b815181101561196a57610bd86000838381518110611ab457634e487b7160e01b600052603260045260246000fd5b6020908102919091018101516001600160a01b031682528101919091526040016000205460ff16611b50576001610bd86000848481518110611b0657634e487b7160e01b600052603260045260246000fd5b6020908102919091018101516001600160a01b031682528101919091526040016000908120805460ff191692151592909217909155610bd7805491611b4a836152de565b91905055505b80611b5a816152de565b915050611a86565b600d5460ff1615611b855760405162461bcd60e51b81526004016110ab906150cb565b601254600f54339111611bd35760405162461bcd60e51b815260206004820152601660248201527513585e08109c995959081b1a5b5a5d08195e18d9595960521b60448201526064016110ab565b611bde6002846152f9565b158015611bf55750611bf16002836152f9565b6001145b611c3d5760405162461bcd60e51b815260206004820152601960248201527813585b19481bdc8811995b585b19481a59081a5b9d985b1a59603a1b60448201526064016110ab565b6017546001600160a01b0382166000908152610bd9602052604090205410611cb25760405162461bcd60e51b815260206004820152602260248201527f4d61782042726565642070657220706572736f6e204c696d6974207265616368604482015261195960f21b60648201526084016110ab565b6001600160a01b0381166000908152610bd9602052604090206003015460ff16611d115760405162461bcd60e51b815260206004820152601060248201526f11d95cdd185d1a5bdb8819985a5b195960821b60448201526064016110ab565b6014546001600160a01b0382166000908152610bd960205260409020600201544291611d3c916151fe565b10611d815760405162461bcd60e51b815260206004820152601560248201527411d95cdd185d1a5bdb881d1a5b594819985a5b1959605a1b60448201526064016110ab565b806001600160a01b0316611d94846119a3565b6001600160a01b0316148015611dc35750806001600160a01b0316611db8836119a3565b6001600160a01b0316145b611e0f5760405162461bcd60e51b815260206004820152601b60248201527f63616c6c61626c65206164647265737320697320696e7661696c64000000000060448201526064016110ab565b611e1883611461565b8015611e285750611e2882611461565b611e6d5760405162461bcd60e51b8152602060048201526016602482015275139bdd08195b1a59da589b1948199bdc88189c99595960521b60448201526064016110ab565b6000838152610bda6020908152604091829020915163310c357160e01b92611e9792909101614f0e565b604051602081830303815290604052805190602001206001600160e01b03191614611f045760405162461bcd60e51b815260206004820152601c60248201527f4d656e204e46542073686f756c64206f6e6c792063616c6c61626c650000000060448201526064016110ab565b6000828152610bda60209081526040918290209151630ae55a4d60e21b92611f2e92909101614f0e565b604051602081830303815290604052805190602001206001600160e01b03191614611f9b5760405162461bcd60e51b815260206004820152601f60248201527f46656d616c65204e46542073686f756c64206f6e6c792063616c6c61626c650060448201526064016110ab565b6000828152610bda60205260408082206004908101548684529190922090910154146120095760405162461bcd60e51b815260206004820181905260248201527f4272656564206973206e6f742070726f63656564207769746820706172656e7460448201526064016110ab565b600d5461010090046001600160a01b03166001600160a01b0316336001600160a01b0316146120a05760165434101561207d5760405162461bcd60e51b81526020600482015260166024820152751d1bdad95b88141c9a58d9481a5cc81a5b9d985b1a5960521b60448201526064016110ab565b610bd65461209b90600160201b90046001600160a01b031634613788565b6120c4565b34156120c457610bd6546120c490600160201b90046001600160a01b031634613788565b6000601154600f546120d691906151fe565b6120e19060016151fe565b90506120ed82826138a1565b6040518181527f05297781ec3be961005343c79526e11fa2c29f53380c82e2beafdd9372bd75be9060200160405180910390a161213f816000908152600760205260409020805460ff19166001179055565b600061214c6002836152f9565b15612175576040518060400160405280600681526020016546656d616c6560d01b815250612193565b604051806040016040528060048152602001634d616c6560e01b8152505b336000908152610bdb6020908152604080832080546001818101835591855283852001879055815160c08101835285815242818501528083018a9052606081018b90528a8552610bda9093529220600401549293509160808301916121f891906151fe565b815260006020918201819052848152610bda82526040902082518051919261222592849290910190614a39565b506020820151816001015560408201518160020155606082015181600301556080820151816004015560a082015181600501559050506040518060800160405280610bd96000866001600160a01b03166001600160a01b0316815260200190815260200160002060000154600161229c91906151fe565b8152602001610bd96000866001600160a01b03166001600160a01b031681526020019081526020016000206001015460016122d791906151fe565b815242602080830191909152600060409283018190526001600160a01b0387168152610bd98252828120845181559184015160018301559183015160028201556060909201516003909201805460ff191692151592909217909155600f805491612340836152de565b9091555050600e8054906000612355836152de565b91905055505050505050565b600d546001600160a01b036101009091041633146123915760405162461bcd60e51b81526004016110ab906150f5565b601a55565b600d546001600160a01b036101009091041633146123c65760405162461bcd60e51b81526004016110ab906150f5565b61155b6138bb565b600d546001600160a01b036101009091041633146123fe5760405162461bcd60e51b81526004016110ab906150f5565b601455565b606060018054610fc0906152a3565b610bd6546301000000900460ff161561245e5760405162461bcd60e51b815260206004820152600e60248201526d141c995cd85b194814185d5cd95960921b60448201526064016110ab565b336000908152610bd8602052604090205460ff166124b15760405162461bcd60e51b815260206004820152601060248201526f556e61626c6520746f2061636365737360801b60448201526064016110ab565b601c548111156124d35760405162461bcd60e51b81526004016110ab9061517b565b601854816010546124e491906151fe565b11156125325760405162461bcd60e51b815260206004820152601b60248201527f57686974656c697374204e4654206c696d69742072656163686564000000000060448201526064016110ab565b42601a54601b5461254391906151fe565b116125825760405162461bcd60e51b815260206004820152600f60248201526e141c995cd85b1948195e1c1a5c9959608a1b60448201526064016110ab565b600d5461010090046001600160a01b03166001600160a01b0316336001600160a01b0316146126215760155434906125ba9083613913565b11156125fe5760405162461bcd60e51b8152602060048201526013602482015272496e76616c696420546f6b656e20507269636560681b60448201526064016110ab565b610bd65461261c90600160201b90046001600160a01b031634613788565b612645565b341561264557610bd65461264590600160201b90046001600160a01b031634613788565b60005b818110156111e15760108054906000612660836152de565b909155505060198054906000612675836152de565b9190505550612688836010546001613999565b80612692816152de565b915050612648565b600d5460ff16156126bd5760405162461bcd60e51b81526004016110ab906150cb565b601c548111156126df5760405162461bcd60e51b81526004016110ab9061517b565b601154816010546126f091906151fe565b111561274e5760405162461bcd60e51b815260206004820152602760248201527f546f74616c204e4654206c696d697420657863656564656420696e207075626c60448201526669632073616c6560c81b60648201526084016110ab565b610bd65462010000900460ff166127a75760405162461bcd60e51b815260206004820152601a60248201527f5075626c69632073616c65206d7573742062652061637469766500000000000060448201526064016110ab565b600d546001600160a01b038381166101009092041614612836576015546127ce9082613913565b34146128135760405162461bcd60e51b815260206004820152601460248201527324b73b30b634b2103a37b5b2b710383934b1b29760611b60448201526064016110ab565b610bd65461283190600160201b90046001600160a01b031634613788565b61285a565b341561285a57610bd65461285a90600160201b90046001600160a01b031634613788565b60015b8181116111e15760006128706000613b44565b905061287b8161352c565b6128905761288b84826000613999565b61289e565b8161289a8161528c565b9250505b50806128a9816152de565b91505061285d565b601e81610bb881106128c257600080fd5b0154905081565b6001600160a01b0382163314156129225760405162461bcd60e51b815260206004820152601960248201527f4552433732313a20617070726f766520746f2063616c6c65720000000000000060448201526064016110ab565b3360008181526006602090815260408083206001600160a01b03871680855290835292819020805460ff191686151590811790915590519081529192917f17307eab39ab6107e8899845ad3d59bd9653f200f220920489ca2b5937696c31910160405180910390a35050565b600d546001600160a01b036101009091041633146129be5760405162461bcd60e51b81526004016110ab906150f5565b610bd6805460ff1916911515919091179055565b600d546001600160a01b03610100909104163314612a025760405162461bcd60e51b81526004016110ab906150f5565b61168881613d1b565b612a153383613695565b612a315760405162461bcd60e51b81526004016110ab9061512a565b6117cb84848484613d2e565b600d546001600160a01b03610100909104163314612a6d5760405162461bcd60e51b81526004016110ab906150f5565b6040516001600160a01b0383169082156108fc029083906000818181858888f193505050501580156111e1573d6000803e3d6000fd5b600d5460ff1615612ac65760405162461bcd60e51b81526004016110ab906150cb565b610bd6543390610100900460ff1615612b175760405162461bcd60e51b8152602060048201526013602482015272556e61626c6520746f206272656564204e6f7760681b60448201526064016110ab565b601254600f5410612b5f5760405162461bcd60e51b8152602060048201526012602482015271189c995959081b1a5b5a5d08195e18d9595960721b60448201526064016110ab565b612b6a6002846152f9565b158015612b815750612b7d6002836152f9565b6001145b612bc95760405162461bcd60e51b815260206004820152601960248201527813585b19481bdc8811995b585b19481a59081a5b9d985b1a59603a1b60448201526064016110ab565b806001600160a01b0316612bdc846119a3565b6001600160a01b0316148015612c0b5750806001600160a01b0316612c00836119a3565b6001600160a01b0316145b612c575760405162461bcd60e51b815260206004820152601b60248201527f63616c6c61626c65206164647265737320697320696e7661696c64000000000060448201526064016110ab565b6000838152610bda6020908152604091829020915163310c357160e01b92612c8192909101614f0e565b604051602081830303815290604052805190602001206001600160e01b03191614612cee5760405162461bcd60e51b815260206004820152601c60248201527f4d656e204e46542073686f756c64206f6e6c792063616c6c61626c650000000060448201526064016110ab565b6000828152610bda60209081526040918290209151630ae55a4d60e21b92612d1892909101614f0e565b604051602081830303815290604052805190602001206001600160e01b03191614612d855760405162461bcd60e51b815260206004820152601f60248201527f46656d616c65204e46542073686f756c64206f6e6c792063616c6c61626c650060448201526064016110ab565b6000828152610bda6020526040808220600490810154868452919092209091015414612df35760405162461bcd60e51b815260206004820181905260248201527f4272656564206973206e6f742070726f63656564207769746820706172656e7460448201526064016110ab565b6017546001600160a01b0382166000908152610bd9602052604090205410612e535760405162461bcd60e51b8152602060048201526013602482015272109c995959081b1a5b5a5d081c995858da1959606a1b60448201526064016110ab565b6001600160a01b0381166000908152610bd9602052604090206003015460ff1615612eb75760405162461bcd60e51b815260206004820152601460248201527320b63932b0b23c9034b71033b2b9ba30ba34b7b760611b60448201526064016110ab565b6000838152610bda602052604090206003015415801590612ee957506000828152610bda602052604090206003015415155b15612f4c57612ef783611461565b8015612f075750612f0782611461565b612f4c5760405162461bcd60e51b8152602060048201526016602482015275139bdd08195b1a59da589b1948199bdc88189c99595960521b60448201526064016110ab565b6001600160a01b0381166000908152610bd960205260409081902060038101805460ff1916600117905542600290910181905590517f286b2734ccbd01d36d37c513d36c69fec082be8c3e11a4bc51acc5577dcc87e591612fb09190815260200190565b60405180910390a1505050565b600d546001600160a01b03610100909104163314612fed5760405162461bcd60e51b81526004016110ab906150f5565b601b55565b600d5460ff16156130155760405162461bcd60e51b81526004016110ab906150cb565b600d546001600160a01b036101009091041633146130455760405162461bcd60e51b81526004016110ab906150f5565b6011546010541061308c5760405162461bcd60e51b815260206004820152601160248201527013919508131a5b5a5d081c995858da1959607a1b60448201526064016110ab565b61196a82826000613999565b600d546001600160a01b036101009091041633146130c85760405162461bcd60e51b81526004016110ab906150f5565b601155565b6060610eee82613d61565b600d546001600160a01b036101009091041633146131085760405162461bcd60e51b81526004016110ab906150f5565b610bd680549115156101000261ff0019909216919091179055565b600d546001600160a01b036101009091041633146131535760405162461bcd60e51b81526004016110ab906150f5565b601255565b600d546001600160a01b036101009091041633146131885760405162461bcd60e51b81526004016110ab906150f5565b601755565b6001600160a01b0381166000908152610bdb60209081526040918290208054835181840281018401909452808452606093928301828280156131ee57602002820191906000526020600020905b8154815260200190600101908083116131da575b50505050509050919050565b600d546001600160a01b0361010090910416331461322a5760405162461bcd60e51b81526004016110ab906150f5565b601655565b600d546001600160a01b0361010090910416331461325f5760405162461bcd60e51b81526004016110ab906150f5565b610bd6805462ff000019169055565b600d546001600160a01b0361010090910416331461329e5760405162461bcd60e51b81526004016110ab906150f5565b610bd6805491151563010000000263ff00000019909216919091179055565b600d546001600160a01b036101009091041633146132ed5760405162461bcd60e51b81526004016110ab906150f5565b6001600160a01b0381166133525760405162461bcd60e51b815260206004820152602660248201527f4f776e61626c653a206e6577206f776e657220697320746865207a65726f206160448201526564647265737360d01b60648201526084016110ab565b61168881613ec3565b600d546001600160a01b0361010090910416331461338b5760405162461bcd60e51b81526004016110ab906150f5565b60005b815181101561196a57610bd860008383815181106133bc57634e487b7160e01b600052603260045260246000fd5b6020908102919091018101516001600160a01b031682528101919091526040016000205460ff1615613459576000610bd8600084848151811061340f57634e487b7160e01b600052603260045260246000fd5b6020908102919091018101516001600160a01b031682528101919091526040016000908120805460ff191692151592909217909155610bd78054916134538361528c565b91905055505b80613463816152de565b91505061338e565b610bdb602052816000526040600020818154811061348857600080fd5b90600052602060002001600091509150505481565b600d546001600160a01b036101009091041633146134cd5760405162461bcd60e51b81526004016110ab906150f5565b601355565b600d546001600160a01b036101009091041633146135025760405162461bcd60e51b81526004016110ab906150f5565b601c55565b60006001600160e01b0319821663780e9d6360e01b1480610eee5750610eee82613f1d565b6000908152600360205260409020546001600160a01b0316151590565b600081815260056020526040902080546001600160a01b0319166001600160a01b038416908117909155819061357e826119a3565b6001600160a01b03167f8c5be1e5ebec7d5bd14f71427d1e84f3dd0314c0f7b2291e5b200ac8c7c3b92560405160405180910390a45050565b6135c033611614565b6135dc5760405162461bcd60e51b81526004016110ab9061512a565b6111e1838383613f6d565b600d5460ff166136305760405162461bcd60e51b815260206004820152601460248201527314185d5cd8589b194e881b9bdd081c185d5cd95960621b60448201526064016110ab565b600d805460ff191690557f5db9ee0a495bf2e6ff9c91a7834c1ba4fdd244a5e8aa4e537bd38aeae4b073aa335b6040516001600160a01b03909116815260200160405180910390a1565b6111e183838360405180602001604052806000815250612a0b565b60006136a08261352c565b6137015760405162461bcd60e51b815260206004820152602c60248201527f4552433732313a206f70657261746f7220717565727920666f72206e6f6e657860448201526b34b9ba32b73a103a37b5b2b760a11b60648201526084016110ab565b600061370c836119a3565b9050806001600160a01b0316846001600160a01b031614806137475750836001600160a01b031661373c84611043565b6001600160a01b0316145b8061377757506001600160a01b0380821660009081526006602090815260408083209388168352929052205460ff165b949350505050565b61168881614118565b804710156137d85760405162461bcd60e51b815260206004820152601d60248201527f416464726573733a20696e73756666696369656e742062616c616e636500000060448201526064016110ab565b6000826001600160a01b03168260405160006040518083038185875af1925050503d8060008114613825576040519150601f19603f3d011682016040523d82523d6000602084013e61382a565b606091505b50509050806111e15760405162461bcd60e51b815260206004820152603a60248201527f416464726573733a20756e61626c6520746f2073656e642076616c75652c207260448201527f6563697069656e74206d6179206861766520726576657274656400000000000060648201526084016110ab565b61196a828260405180602001604052806000815250614158565b600d5460ff16156138de5760405162461bcd60e51b81526004016110ab906150cb565b600d805460ff191660011790557f62e78cea01bee320cd4e420270b5ea74000d11b0c9f74754ebdbfc544b05a25861365d3390565b60008261392257506000610eee565b600061392e838561522a565b90508261393b8583615216565b146139925760405162461bcd60e51b815260206004820152602160248201527f536166654d6174683a206d756c7469706c69636174696f6e206f766572666c6f6044820152607760f81b60648201526084016110ab565b9392505050565b6139a383836138a1565b6040518281527f05297781ec3be961005343c79526e11fa2c29f53380c82e2beafdd9372bd75be9060200160405180910390a160006139e36002846152f9565b15613a0c576040518060400160405280600681526020016546656d616c6560d01b815250613a2a565b604051806040016040528060048152602001634d616c6560e01b8152505b6001600160a01b0385166000908152610bdb60209081526040808320805460018101825590845282842001879055805160c0810182528481524281840152808201849052606081018490526080810184905260a08101849052878452610bda835292208251805194955092939092613aa6928492910190614a39565b506020828101516001808401919091556040808501516002850155606085015160038501556080850151600485015560a0909401516005909301929092556001600160a01b0387166000908152610bd990915291822001805491613b09836152de565b919050555081613b295760108054906000613b23836152de565b91905055505b600e8054906000613b39836152de565b919050555050505050565b600080601954601054601154613b5a9190615249565b613b6491906151fe565b610bd65490915060009062010000900460ff1615613bdb57601d546040805160208101929092526bffffffffffffffffffffffff193360601b169082015244605482015242607482015282906094016040516020818303038152906040528051906020012060001c613bd691906152f9565b613bdd565b835b90506000601e82610bb88110613c0357634e487b7160e01b600052603260045260246000fd5b015415613c3557601e82610bb88110613c2c57634e487b7160e01b600052603260045260246000fd5b01549050613c38565b50805b601e613c45600185615249565b610bb88110613c6457634e487b7160e01b600052603260045260246000fd5b0154613c9e57613c75600184615249565b601e83610bb88110613c9757634e487b7160e01b600052603260045260246000fd5b0155613cf1565b601e613cab600185615249565b610bb88110613cca57634e487b7160e01b600052603260045260246000fd5b0154601e83610bb88110613cee57634e487b7160e01b600052603260045260246000fd5b01555b601d8054906000613d01836152de565b90915550613d12905081600161418b565b95945050505050565b805161196a906002906020840190614a39565b613d39848484613f6d565b613d45848484846141ea565b6117cb5760405162461bcd60e51b81526004016110ab90615079565b6060613d6c8261352c565b613dd25760405162461bcd60e51b815260206004820152603160248201527f45524337323155524953746f726167653a2055524920717565727920666f72206044820152703737b732bc34b9ba32b73a103a37b5b2b760791b60648201526084016110ab565b6000828152600c602052604081208054613deb906152a3565b80601f0160208091040260200160405190810160405280929190818152602001828054613e17906152a3565b8015613e645780601f10613e3957610100808354040283529160200191613e64565b820191906000526020600020905b815481529060010190602001808311613e4757829003601f168201915b505050505090506000613e756142f7565b9050805160001415613e88575092915050565b815115613eba578082604051602001613ea2929190614ea0565b60405160208183030381529060405292505050919050565b61377784614307565b600d80546001600160a01b03838116610100818102610100600160a81b031985161790945560405193909204169182907f8be0079c531659141344cd1fd0a4f28419497f9722a3daafe3b4186f6b6457e090600090a35050565b60006001600160e01b031982166380ac58cd60e01b1480613f4e57506001600160e01b03198216635b5e139f60e01b145b80610eee57506301ffc9a760e01b6001600160e01b0319831614610eee565b826001600160a01b0316613f80826119a3565b6001600160a01b031614613fe85760405162461bcd60e51b815260206004820152602960248201527f4552433732313a207472616e73666572206f6620746f6b656e2074686174206960448201526839903737ba1037bbb760b91b60648201526084016110ab565b6001600160a01b03821661404a5760405162461bcd60e51b8152602060048201526024808201527f4552433732313a207472616e7366657220746f20746865207a65726f206164646044820152637265737360e01b60648201526084016110ab565b614055838383614499565b614060600082613549565b6001600160a01b0383166000908152600460205260408120805460019290614089908490615249565b90915550506001600160a01b03821660009081526004602052604081208054600192906140b79084906151fe565b909155505060008181526003602052604080822080546001600160a01b0319166001600160a01b0386811691821790925591518493918716917fddf252ad1be2c89b69c2b068fc378daa952ba7f163c4a11628f55a4df523b3ef91a4505050565b614121816144c7565b6000818152600c60205260409020805461413a906152a3565b159050611688576000818152600c6020526040812061168891614abd565b614162838361456e565b61416f60008484846141ea565b6111e15760405162461bcd60e51b81526004016110ab90615079565b60008061419883856151fe565b9050838110156139925760405162461bcd60e51b815260206004820152601b60248201527f536166654d6174683a206164646974696f6e206f766572666c6f77000000000060448201526064016110ab565b60006001600160a01b0384163b156142ec57604051630a85bd0160e11b81526001600160a01b0385169063150b7a029061422e903390899088908890600401614fa9565b602060405180830381600087803b15801561424857600080fd5b505af1925050508015614278575060408051601f3d908101601f1916820190925261427591810190614dd9565b60015b6142d2573d8080156142a6576040519150601f19603f3d011682016040523d82523d6000602084013e6142ab565b606091505b5080516142ca5760405162461bcd60e51b81526004016110ab90615079565b805181602001fd5b6001600160e01b031916630a85bd0160e11b149050613777565b506001949350505050565b6060610bdc8054610fc0906152a3565b60606143128261352c565b6143765760405162461bcd60e51b815260206004820152602f60248201527f4552433732314d657461646174613a2055524920717565727920666f72206e6f60448201526e3732bc34b9ba32b73a103a37b5b2b760891b60648201526084016110ab565b60008281526007602052604090205460ff166143e75760006143966142f7565b905060008151116143b65760405180602001604052806000815250613992565b806143c0846146ad565b6040516020016143d1929190614ecf565b6040516020818303038152906040529392505050565b6000600280546143f6906152a3565b80601f0160208091040260200160405190810160405280929190818152602001828054614422906152a3565b801561446f5780601f106144445761010080835404028352916020019161446f565b820191906000526020600020905b81548152906001019060200180831161445257829003601f168201915b5050505050905060008151116143b65760405180602001604052806000815250613992565b919050565b600d5460ff16156144bc5760405162461bcd60e51b81526004016110ab906150cb565b6111e18383836147c7565b60006144d2826119a3565b90506144e081600084614499565b6144eb600083613549565b6001600160a01b0381166000908152600460205260408120805460019290614514908490615249565b909155505060008281526003602052604080822080546001600160a01b0319169055518391906001600160a01b038416907fddf252ad1be2c89b69c2b068fc378daa952ba7f163c4a11628f55a4df523b3ef908390a45050565b6001600160a01b0382166145c45760405162461bcd60e51b815260206004820181905260248201527f4552433732313a206d696e7420746f20746865207a65726f206164647265737360448201526064016110ab565b6145cd8161352c565b1561461a5760405162461bcd60e51b815260206004820152601c60248201527f4552433732313a20746f6b656e20616c7265616479206d696e7465640000000060448201526064016110ab565b61462660008383614499565b6001600160a01b038216600090815260046020526040812080546001929061464f9084906151fe565b909155505060008181526003602052604080822080546001600160a01b0319166001600160a01b03861690811790915590518392907fddf252ad1be2c89b69c2b068fc378daa952ba7f163c4a11628f55a4df523b3ef908290a45050565b6060816146d15750506040805180820190915260018152600360fc1b602082015290565b8160005b81156146fb57806146e5816152de565b91506146f49050600a83615216565b91506146d5565b60008167ffffffffffffffff81111561472457634e487b7160e01b600052604160045260246000fd5b6040519080825280601f01601f19166020018201604052801561474e576020820181803683370190505b5090505b841561377757614763600183615249565b9150614770600a866152f9565b61477b9060306151fe565b60f81b81838151811061479e57634e487b7160e01b600052603260045260246000fd5b60200101906001600160f81b031916908160001a9053506147c0600a86615216565b9450614752565b6001600160a01b0383166148225761481d81600a80546000838152600b60205260408120829055600182018355919091527fc65a7bb8d6351c1cf70c95a316cc6a92839c986682d98bc35f958f4883f9d2a80155565b614845565b816001600160a01b0316836001600160a01b03161461484557614845838261487f565b6001600160a01b03821661485c576111e18161491c565b826001600160a01b0316826001600160a01b0316146111e1576111e182826149f5565b6000600161488c846119cc565b6148969190615249565b6000838152600960205260409020549091508082146148e9576001600160a01b03841660009081526008602090815260408083208584528252808320548484528184208190558352600990915290208190555b5060009182526009602090815260408084208490556001600160a01b039094168352600881528383209183525290812055565b600a5460009061492e90600190615249565b6000838152600b6020526040812054600a805493945090928490811061496457634e487b7160e01b600052603260045260246000fd5b9060005260206000200154905080600a838154811061499357634e487b7160e01b600052603260045260246000fd5b6000918252602080832090910192909255828152600b9091526040808220849055858252812055600a8054806149d957634e487b7160e01b600052603160045260246000fd5b6001900381819060005260206000200160009055905550505050565b6000614a00836119cc565b6001600160a01b039093166000908152600860209081526040808320868452825280832085905593825260099052919091209190915550565b828054614a45906152a3565b90600052602060002090601f016020900481019282614a675760008555614aad565b82601f10614a8057805160ff1916838001178555614aad565b82800160010185558215614aad579182015b82811115614aad578251825591602001919060010190614a92565b50614ab9929150614af3565b5090565b508054614ac9906152a3565b6000825580601f10614ad9575050565b601f01602090049060005260206000209081019061168891905b5b80821115614ab95760008155600101614af4565b600067ffffffffffffffff831115614b2257614b22615339565b614b35601f8401601f19166020016151cd565b9050828152838383011115614b4957600080fd5b828260208301376000602084830101529392505050565b80356001600160a01b038116811461449457600080fd5b600060208284031215614b88578081fd5b61399282614b60565b60008060408385031215614ba3578081fd5b614bac83614b60565b9150614bba60208401614b60565b90509250929050565b600080600060608486031215614bd7578081fd5b614be084614b60565b9250614bee60208501614b60565b9150604084013590509250925092565b60008060008060808587031215614c13578081fd5b614c1c85614b60565b9350614c2a60208601614b60565b925060408501359150606085013567ffffffffffffffff811115614c4c578182fd5b8501601f81018713614c5c578182fd5b614c6b87823560208401614b08565b91505092959194509250565b60008060408385031215614c89578182fd5b614c9283614b60565b91506020830135614ca28161534f565b809150509250929050565b60008060408385031215614cbf578182fd5b614cc883614b60565b946020939093013593505050565b60006020808385031215614ce8578182fd5b823567ffffffffffffffff80821115614cff578384fd5b818501915085601f830112614d12578384fd5b813581811115614d2457614d24615339565b8060051b9150614d358483016151cd565b8181528481019084860184860187018a1015614d4f578788fd5b8795505b83861015614d7857614d6481614b60565b835260019590950194918601918601614d53565b5098975050505050505050565b600060208284031215614d96578081fd5b81356139928161534f565b600060208284031215614db2578081fd5b81516139928161534f565b600060208284031215614dce578081fd5b81356139928161535d565b600060208284031215614dea578081fd5b81516139928161535d565b600060208284031215614e06578081fd5b813567ffffffffffffffff811115614e1c578182fd5b8201601f81018413614e2c578182fd5b61377784823560208401614b08565b600060208284031215614e4c578081fd5b5035919050565b60008060408385031215614e65578182fd5b50508035926020909101359150565b60008151808452614e8c816020860160208601615260565b601f01601f19169290920160200192915050565b60008351614eb2818460208801615260565b835190830190614ec6818360208801615260565b01949350505050565b60008351614ee1818460208801615260565b835190830190614ef5818360208801615260565b64173539b7b760d91b9101908152600501949350505050565b600080835482600182811c915080831680614f2a57607f831692505b6020808410821415614f4a57634e487b7160e01b87526022600452602487fd5b818015614f5e5760018114614f6f57614f9b565b60ff19861689528489019650614f9b565b60008a815260209020885b86811015614f935781548b820152908501908301614f7a565b505084890196505b509498975050505050505050565b6001600160a01b0385811682528416602082015260408101839052608060608201819052600090614fdc90830184614e74565b9695505050505050565b6020808252825182820181905260009190848201906040850190845b8181101561501e57835183529284019291840191600101615002565b50909695505050505050565b6020815260006139926020830184614e74565b60c08152600061505060c0830189614e74565b60208301979097525060408101949094526060840192909252608083015260a090910152919050565b60208082526032908201527f4552433732313a207472616e7366657220746f206e6f6e20455243373231526560408201527131b2b4bb32b91034b6b83632b6b2b73a32b960711b606082015260800190565b60208082526010908201526f14185d5cd8589b194e881c185d5cd95960821b604082015260600190565b6020808252818101527f4f776e61626c653a2063616c6c6572206973206e6f7420746865206f776e6572604082015260600190565b60208082526031908201527f4552433732313a207472616e736665722063616c6c6572206973206e6f74206f6040820152701ddb995c881b9bdc88185c1c1c9bdd9959607a1b606082015260800190565b60208082526032908201527f45786365656473206d6178206e756d626572206f66204d6f6e676f6f7365732060408201527134b71037b732903a3930b739b0b1ba34b7b760711b606082015260800190565b604051601f8201601f1916810167ffffffffffffffff811182821017156151f6576151f6615339565b604052919050565b600082198211156152115761521161530d565b500190565b60008261522557615225615323565b500490565b60008160001904831182151516156152445761524461530d565b500290565b60008282101561525b5761525b61530d565b500390565b60005b8381101561527b578181015183820152602001615263565b838111156117cb5750506000910152565b60008161529b5761529b61530d565b506000190190565b600181811c908216806152b757607f821691505b602082108114156152d857634e487b7160e01b600052602260045260246000fd5b50919050565b60006000198214156152f2576152f261530d565b5060010190565b60008261530857615308615323565b500690565b634e487b7160e01b600052601160045260246000fd5b634e487b7160e01b600052601260045260246000fd5b634e487b7160e01b600052604160045260246000fd5b801515811461168857600080fd5b6001600160e01b03198116811461168857600080fdfea2646970667358221220fec3ad3106ebf00bbd8dfaf6638d5b1191bdbf9fd54da207496a70f3f6020c3c64736f6c63430008040033",
			"opcodes": "PUSH1 0x80 PUSH1 0x40 MSTORE PUSH1 0x0 PUSH1 0x10 DUP2 SWAP1 SSTORE PUSH2 0xBB8 PUSH1 0x11 SSTORE PUSH1 0x14 PUSH1 0x12 DUP2 SWAP1 SSTORE PUSH1 0x32 PUSH1 0x13 SSTORE PUSH1 0x3C DUP2 SSTORE PUSH1 0x4 PUSH1 0x17 SSTORE PUSH2 0x190 PUSH1 0x18 SSTORE PUSH1 0x19 DUP3 SWAP1 SSTORE PUSH2 0xA8C0 PUSH1 0x1A SSTORE TIMESTAMP PUSH1 0x1B SSTORE PUSH1 0x1C SSTORE PUSH1 0x1D SSTORE PUSH2 0xBD6 DUP1 SLOAD PUSH4 0xFFFFFF00 NOT AND PUSH2 0x100 OR SWAP1 SSTORE CALLVALUE DUP1 ISZERO PUSH3 0x60 JUMPI PUSH1 0x0 DUP1 REVERT JUMPDEST POP PUSH1 0x40 DUP1 MLOAD DUP1 DUP3 ADD DUP3 MSTORE PUSH1 0xF DUP2 MSTORE PUSH15 0x4D69676874794D6F6E676F6F736573 PUSH1 0x88 SHL PUSH1 0x20 DUP1 DUP4 ADD SWAP2 DUP3 MSTORE DUP4 MLOAD DUP1 DUP6 ADD SWAP1 SWAP5 MSTORE PUSH1 0x15 DUP5 MSTORE PUSH32 0x4D69676874794D6F6E676F6F73657320284D4D45290000000000000000000000 SWAP1 DUP5 ADD MSTORE DUP2 MLOAD SWAP2 SWAP3 SWAP2 PUSH3 0xCD SWAP2 PUSH1 0x0 SWAP2 PUSH3 0x1D8 JUMP JUMPDEST POP DUP1 MLOAD PUSH3 0xE3 SWAP1 PUSH1 0x1 SWAP1 PUSH1 0x20 DUP5 ADD SWAP1 PUSH3 0x1D8 JUMP JUMPDEST POP POP PUSH1 0xD DUP1 SLOAD PUSH1 0xFF NOT AND SWAP1 SSTORE POP PUSH3 0xFB CALLER PUSH3 0x17E JUMP JUMPDEST PUSH1 0x40 DUP1 MLOAD DUP1 DUP3 ADD SWAP1 SWAP2 MSTORE PUSH1 0xE DUP1 DUP3 MSTORE PUSH14 0x7777772E68656C6C6F312E636F6D PUSH1 0x90 SHL PUSH1 0x20 SWAP1 SWAP3 ADD SWAP2 DUP3 MSTORE PUSH3 0x133 SWAP2 PUSH2 0xBDC SWAP2 PUSH3 0x1D8 JUMP JUMPDEST POP PUSH3 0x142 TIMESTAMP PUSH1 0x0 NOT PUSH3 0x2BB JUMP JUMPDEST PUSH1 0xE SSTORE PUSH2 0xBD6 DUP1 SLOAD PUSH1 0x1 PUSH1 0x20 SHL PUSH1 0x1 PUSH1 0xC0 SHL SUB NOT AND CALLER PUSH5 0x100000000 MUL OR SWAP1 SSTORE PUSH7 0xF8B0A10E470000 PUSH1 0x15 SSTORE PUSH7 0xB1A2BC2EC50000 PUSH1 0x16 SSTORE PUSH3 0x2DC JUMP JUMPDEST PUSH1 0xD DUP1 SLOAD PUSH1 0x1 PUSH1 0x1 PUSH1 0xA0 SHL SUB DUP4 DUP2 AND PUSH2 0x100 DUP2 DUP2 MUL PUSH2 0x100 PUSH1 0x1 PUSH1 0xA8 SHL SUB NOT DUP6 AND OR SWAP1 SWAP5 SSTORE PUSH1 0x40 MLOAD SWAP4 SWAP1 SWAP3 DIV AND SWAP2 DUP3 SWAP1 PUSH32 0x8BE0079C531659141344CD1FD0A4F28419497F9722A3DAAFE3B4186F6B6457E0 SWAP1 PUSH1 0x0 SWAP1 LOG3 POP POP JUMP JUMPDEST DUP3 DUP1 SLOAD PUSH3 0x1E6 SWAP1 PUSH3 0x27E JUMP JUMPDEST SWAP1 PUSH1 0x0 MSTORE PUSH1 0x20 PUSH1 0x0 KECCAK256 SWAP1 PUSH1 0x1F ADD PUSH1 0x20 SWAP1 DIV DUP2 ADD SWAP3 DUP3 PUSH3 0x20A JUMPI PUSH1 0x0 DUP6 SSTORE PUSH3 0x255 JUMP JUMPDEST DUP3 PUSH1 0x1F LT PUSH3 0x225 JUMPI DUP1 MLOAD PUSH1 0xFF NOT AND DUP4 DUP1 ADD OR DUP6 SSTORE PUSH3 0x255 JUMP JUMPDEST DUP3 DUP1 ADD PUSH1 0x1 ADD DUP6 SSTORE DUP3 ISZERO PUSH3 0x255 JUMPI SWAP2 DUP3 ADD JUMPDEST DUP3 DUP2 GT ISZERO PUSH3 0x255 JUMPI DUP3 MLOAD DUP3 SSTORE SWAP2 PUSH1 0x20 ADD SWAP2 SWAP1 PUSH1 0x1 ADD SWAP1 PUSH3 0x238 JUMP JUMPDEST POP PUSH3 0x263 SWAP3 SWAP2 POP PUSH3 0x267 JUMP JUMPDEST POP SWAP1 JUMP JUMPDEST JUMPDEST DUP1 DUP3 GT ISZERO PUSH3 0x263 JUMPI PUSH1 0x0 DUP2 SSTORE PUSH1 0x1 ADD PUSH3 0x268 JUMP JUMPDEST PUSH1 0x1 DUP2 DUP2 SHR SWAP1 DUP3 AND DUP1 PUSH3 0x293 JUMPI PUSH1 0x7F DUP3 AND SWAP2 POP JUMPDEST PUSH1 0x20 DUP3 LT DUP2 EQ ISZERO PUSH3 0x2B5 JUMPI PUSH4 0x4E487B71 PUSH1 0xE0 SHL PUSH1 0x0 MSTORE PUSH1 0x22 PUSH1 0x4 MSTORE PUSH1 0x24 PUSH1 0x0 REVERT JUMPDEST POP SWAP2 SWAP1 POP JUMP JUMPDEST PUSH1 0x0 DUP3 PUSH3 0x2D7 JUMPI PUSH4 0x4E487B71 PUSH1 0xE0 SHL DUP2 MSTORE PUSH1 0x12 PUSH1 0x4 MSTORE PUSH1 0x24 DUP2 REVERT JUMPDEST POP MOD SWAP1 JUMP JUMPDEST PUSH2 0x53A9 DUP1 PUSH3 0x2EC PUSH1 0x0 CODECOPY PUSH1 0x0 RETURN INVALID PUSH1 0x80 PUSH1 0x40 MSTORE PUSH1 0x4 CALLDATASIZE LT PUSH2 0x497 JUMPI PUSH1 0x0 CALLDATALOAD PUSH1 0xE0 SHR DUP1 PUSH4 0x7A1B595A GT PUSH2 0x260 JUMPI DUP1 PUSH4 0xBF91ED1E GT PUSH2 0x144 JUMPI DUP1 PUSH4 0xE608EB1F GT PUSH2 0xC1 JUMPI DUP1 PUSH4 0xF2FDE38B GT PUSH2 0x85 JUMPI DUP1 PUSH4 0xF2FDE38B EQ PUSH2 0xE2D JUMPI DUP1 PUSH4 0xF531B768 EQ PUSH2 0xE4D JUMPI DUP1 PUSH4 0xF92ABF62 EQ PUSH2 0xE6D JUMPI DUP1 PUSH4 0xF9F411D8 EQ PUSH2 0xE83 JUMPI DUP1 PUSH4 0xFBE17AAE EQ PUSH2 0xEA3 JUMPI DUP1 PUSH4 0xFD9425F5 EQ PUSH2 0xEC3 JUMPI PUSH1 0x0 DUP1 REVERT JUMPDEST DUP1 PUSH4 0xE608EB1F EQ PUSH2 0xD79 JUMPI DUP1 PUSH4 0xE985E9C5 EQ PUSH2 0xD8F JUMPI DUP1 PUSH4 0xEACB0D29 EQ PUSH2 0xDD8 JUMPI DUP1 PUSH4 0xEC8DB817 EQ PUSH2 0xDF8 JUMPI DUP1 PUSH4 0xEEECF85D EQ PUSH2 0xE0D JUMPI PUSH1 0x0 DUP1 REVERT JUMPDEST DUP1 PUSH4 0xCEE3E7BD GT PUSH2 0x108 JUMPI DUP1 PUSH4 0xCEE3E7BD EQ PUSH2 0xCD6 JUMPI DUP1 PUSH4 0xD5303BAA EQ PUSH2 0xCF6 JUMPI DUP1 PUSH4 0xDA7438D5 EQ PUSH2 0xD16 JUMPI DUP1 PUSH4 0xE3AE0828 EQ PUSH2 0xD2C JUMPI DUP1 PUSH4 0xE503EA0F EQ PUSH2 0xD4C JUMPI PUSH1 0x0 DUP1 REVERT JUMPDEST DUP1 PUSH4 0xBF91ED1E EQ PUSH2 0xC40 JUMPI DUP1 PUSH4 0xC0D2CCF8 EQ PUSH2 0xC60 JUMPI DUP1 PUSH4 0xC1957B84 EQ PUSH2 0xC80 JUMPI DUP1 PUSH4 0xC6CDE4AA EQ PUSH2 0xC96 JUMPI DUP1 PUSH4 0xC87B56DD EQ PUSH2 0xCB6 JUMPI PUSH1 0x0 DUP1 REVERT JUMPDEST DUP1 PUSH4 0x9B6A6709 GT PUSH2 0x1DD JUMPI DUP1 PUSH4 0xAC5A7359 GT PUSH2 0x1A1 JUMPI DUP1 PUSH4 0xAC5A7359 EQ PUSH2 0xB8A JUMPI DUP1 PUSH4 0xAE2C94B2 EQ PUSH2 0xBAA JUMPI DUP1 PUSH4 0xB49D97ED EQ PUSH2 0xBCA JUMPI DUP1 PUSH4 0xB88D4FDE EQ PUSH2 0xBE0 JUMPI DUP1 PUSH4 0xBBF961A4 EQ PUSH2 0xC00 JUMPI DUP1 PUSH4 0xBD1B929C EQ PUSH2 0xC20 JUMPI PUSH1 0x0 DUP1 REVERT JUMPDEST DUP1 PUSH4 0x9B6A6709 EQ PUSH2 0xB0E JUMPI DUP1 PUSH4 0xA1448194 EQ PUSH2 0xB21 JUMPI DUP1 PUSH4 0xA1A953FD EQ PUSH2 0xB34 JUMPI DUP1 PUSH4 0xA22CB465 EQ PUSH2 0xB54 JUMPI DUP1 PUSH4 0xA32DA8C2 EQ PUSH2 0xB74 JUMPI PUSH1 0x0 DUP1 REVERT JUMPDEST DUP1 PUSH4 0x8456CB59 GT PUSH2 0x224 JUMPI DUP1 PUSH4 0x8456CB59 EQ PUSH2 0xA8A JUMPI DUP1 PUSH4 0x8DA5CB5B EQ PUSH2 0xA9F JUMPI DUP1 PUSH4 0x8E2137AD EQ PUSH2 0xAC2 JUMPI DUP1 PUSH4 0x8E689C81 EQ PUSH2 0xAD9 JUMPI DUP1 PUSH4 0x95D89B41 EQ PUSH2 0xAF9 JUMPI PUSH1 0x0 DUP1 REVERT JUMPDEST DUP1 PUSH4 0x7A1B595A EQ PUSH2 0xA0B JUMPI DUP1 PUSH4 0x7B2F4CEE EQ PUSH2 0xA21 JUMPI DUP1 PUSH4 0x7B422184 EQ PUSH2 0xA41 JUMPI DUP1 PUSH4 0x7FF9B596 EQ PUSH2 0xA54 JUMPI DUP1 PUSH4 0x80CA5B46 EQ PUSH2 0xA6A JUMPI PUSH1 0x0 DUP1 REVERT JUMPDEST DUP1 PUSH4 0x3F4BA83A GT PUSH2 0x387 JUMPI DUP1 PUSH4 0x564B81EF GT PUSH2 0x304 JUMPI DUP1 PUSH4 0x68CD5BFE GT PUSH2 0x2C8 JUMPI DUP1 PUSH4 0x68CD5BFE EQ PUSH2 0x974 JUMPI DUP1 PUSH4 0x69643669 EQ PUSH2 0x98A JUMPI DUP1 PUSH4 0x6C0360EB EQ PUSH2 0x9AA JUMPI DUP1 PUSH4 0x70A08231 EQ PUSH2 0x9BF JUMPI DUP1 PUSH4 0x7556E0E2 EQ PUSH2 0x9DF JUMPI DUP1 PUSH4 0x79446221 EQ PUSH2 0x9F5 JUMPI PUSH1 0x0 DUP1 REVERT JUMPDEST DUP1 PUSH4 0x564B81EF EQ PUSH2 0x8F3 JUMPI DUP1 PUSH4 0x59CC38D9 EQ PUSH2 0x906 JUMPI DUP1 PUSH4 0x5C975ABB EQ PUSH2 0x926 JUMPI DUP1 PUSH4 0x5F22EB6D EQ PUSH2 0x93E JUMPI DUP1 PUSH4 0x6352211E EQ PUSH2 0x954 JUMPI PUSH1 0x0 DUP1 REVERT JUMPDEST DUP1 PUSH4 0x477A056C GT PUSH2 0x34B JUMPI DUP1 PUSH4 0x477A056C EQ PUSH2 0x858 JUMPI DUP1 PUSH4 0x4F6CCCE7 EQ PUSH2 0x878 JUMPI DUP1 PUSH4 0x54C001DD EQ PUSH2 0x898 JUMPI DUP1 PUSH4 0x55F804B3 EQ PUSH2 0x8B8 JUMPI DUP1 PUSH4 0x5646F79C EQ PUSH2 0x8D8 JUMPI PUSH1 0x0 DUP1 REVERT JUMPDEST DUP1 PUSH4 0x3F4BA83A EQ PUSH2 0x7C6 JUMPI DUP1 PUSH4 0x41275358 EQ PUSH2 0x7DB JUMPI DUP1 PUSH4 0x42842E0E EQ PUSH2 0x803 JUMPI DUP1 PUSH4 0x42966C68 EQ PUSH2 0x823 JUMPI DUP1 PUSH4 0x472FC0CE EQ PUSH2 0x843 JUMPI PUSH1 0x0 DUP1 REVERT JUMPDEST DUP1 PUSH4 0x2316B4DA GT PUSH2 0x415 JUMPI DUP1 PUSH4 0x2EB88CEE GT PUSH2 0x3D9 JUMPI DUP1 PUSH4 0x2EB88CEE EQ PUSH2 0x71D JUMPI DUP1 PUSH4 0x2F745C59 EQ PUSH2 0x74D JUMPI DUP1 PUSH4 0x33BA9DAA EQ PUSH2 0x76D JUMPI DUP1 PUSH4 0x33BC1C5C EQ PUSH2 0x78F JUMPI DUP1 PUSH4 0x34FC584B EQ PUSH2 0x7B0 JUMPI PUSH1 0x0 DUP1 REVERT JUMPDEST DUP1 PUSH4 0x2316B4DA EQ PUSH2 0x692 JUMPI DUP1 PUSH4 0x23B872DD EQ PUSH2 0x6A7 JUMPI DUP1 PUSH4 0x25F1FFB8 EQ PUSH2 0x6C7 JUMPI DUP1 PUSH4 0x26B52AB6 EQ PUSH2 0x6DD JUMPI DUP1 PUSH4 0x2C1115EF EQ PUSH2 0x6FD JUMPI PUSH1 0x0 DUP1 REVERT JUMPDEST DUP1 PUSH4 0x81812FC GT PUSH2 0x45C JUMPI DUP1 PUSH4 0x81812FC EQ PUSH2 0x5DC JUMPI DUP1 PUSH4 0x95EA7B3 EQ PUSH2 0x614 JUMPI DUP1 PUSH4 0x11D0AE2E EQ PUSH2 0x636 JUMPI DUP1 PUSH4 0x18160DDD EQ PUSH2 0x667 JUMPI DUP1 PUSH4 0x22A7CF5F EQ PUSH2 0x67C JUMPI PUSH1 0x0 DUP1 REVERT JUMPDEST DUP1 PUSH3 0x15284A EQ PUSH2 0x4A3 JUMPI DUP1 PUSH4 0x1FFC9A7 EQ PUSH2 0x4F0 JUMPI DUP1 PUSH4 0x20F41FE EQ PUSH2 0x520 JUMPI DUP1 PUSH4 0x4ECF881 EQ PUSH2 0x552 JUMPI DUP1 PUSH4 0x6FDDE03 EQ PUSH2 0x5BA JUMPI PUSH1 0x0 DUP1 REVERT JUMPDEST CALLDATASIZE PUSH2 0x49E JUMPI STOP JUMPDEST PUSH1 0x0 DUP1 REVERT JUMPDEST CALLVALUE DUP1 ISZERO PUSH2 0x4AF JUMPI PUSH1 0x0 DUP1 REVERT JUMPDEST POP PUSH2 0x4DD PUSH2 0x4BE CALLDATASIZE PUSH1 0x4 PUSH2 0x4B77 JUMP JUMPDEST PUSH1 0x1 PUSH1 0x1 PUSH1 0xA0 SHL SUB AND PUSH1 0x0 SWAP1 DUP2 MSTORE PUSH2 0xBD9 PUSH1 0x20 MSTORE PUSH1 0x40 SWAP1 KECCAK256 PUSH1 0x1 ADD SLOAD SWAP1 JUMP JUMPDEST PUSH1 0x40 MLOAD SWAP1 DUP2 MSTORE PUSH1 0x20 ADD JUMPDEST PUSH1 0x40 MLOAD DUP1 SWAP2 SUB SWAP1 RETURN JUMPDEST CALLVALUE DUP1 ISZERO PUSH2 0x4FC JUMPI PUSH1 0x0 DUP1 REVERT JUMPDEST POP PUSH2 0x510 PUSH2 0x50B CALLDATASIZE PUSH1 0x4 PUSH2 0x4DBD JUMP JUMPDEST PUSH2 0xEE3 JUMP JUMPDEST PUSH1 0x40 MLOAD SWAP1 ISZERO ISZERO DUP2 MSTORE PUSH1 0x20 ADD PUSH2 0x4E7 JUMP JUMPDEST CALLVALUE DUP1 ISZERO PUSH2 0x52C JUMPI PUSH1 0x0 DUP1 REVERT JUMPDEST POP PUSH2 0x540 PUSH2 0x53B CALLDATASIZE PUSH1 0x4 PUSH2 0x4E3B JUMP JUMPDEST PUSH2 0xEF4 JUMP JUMPDEST PUSH1 0x40 MLOAD PUSH2 0x4E7 SWAP7 SWAP6 SWAP5 SWAP4 SWAP3 SWAP2 SWAP1 PUSH2 0x503D JUMP JUMPDEST CALLVALUE DUP1 ISZERO PUSH2 0x55E JUMPI PUSH1 0x0 DUP1 REVERT JUMPDEST POP PUSH2 0x598 PUSH2 0x56D CALLDATASIZE PUSH1 0x4 PUSH2 0x4B77 JUMP JUMPDEST PUSH2 0xBD9 PUSH1 0x20 MSTORE PUSH1 0x0 SWAP1 DUP2 MSTORE PUSH1 0x40 SWAP1 KECCAK256 DUP1 SLOAD PUSH1 0x1 DUP3 ADD SLOAD PUSH1 0x2 DUP4 ADD SLOAD PUSH1 0x3 SWAP1 SWAP4 ADD SLOAD SWAP2 SWAP3 SWAP1 SWAP2 PUSH1 0xFF AND DUP5 JUMP JUMPDEST PUSH1 0x40 DUP1 MLOAD SWAP5 DUP6 MSTORE PUSH1 0x20 DUP6 ADD SWAP4 SWAP1 SWAP4 MSTORE SWAP2 DUP4 ADD MSTORE ISZERO ISZERO PUSH1 0x60 DUP3 ADD MSTORE PUSH1 0x80 ADD PUSH2 0x4E7 JUMP JUMPDEST CALLVALUE DUP1 ISZERO PUSH2 0x5C6 JUMPI PUSH1 0x0 DUP1 REVERT JUMPDEST POP PUSH2 0x5CF PUSH2 0xFB1 JUMP JUMPDEST PUSH1 0x40 MLOAD PUSH2 0x4E7 SWAP2 SWAP1 PUSH2 0x502A JUMP JUMPDEST CALLVALUE DUP1 ISZERO PUSH2 0x5E8 JUMPI PUSH1 0x0 DUP1 REVERT JUMPDEST POP PUSH2 0x5FC PUSH2 0x5F7 CALLDATASIZE PUSH1 0x4 PUSH2 0x4E3B JUMP JUMPDEST PUSH2 0x1043 JUMP JUMPDEST PUSH1 0x40 MLOAD PUSH1 0x1 PUSH1 0x1 PUSH1 0xA0 SHL SUB SWAP1 SWAP2 AND DUP2 MSTORE PUSH1 0x20 ADD PUSH2 0x4E7 JUMP JUMPDEST CALLVALUE DUP1 ISZERO PUSH2 0x620 JUMPI PUSH1 0x0 DUP1 REVERT JUMPDEST POP PUSH2 0x634 PUSH2 0x62F CALLDATASIZE PUSH1 0x4 PUSH2 0x4CAD JUMP JUMPDEST PUSH2 0x10D0 JUMP JUMPDEST STOP JUMPDEST CALLVALUE DUP1 ISZERO PUSH2 0x642 JUMPI PUSH1 0x0 DUP1 REVERT JUMPDEST POP PUSH2 0x510 PUSH2 0x651 CALLDATASIZE PUSH1 0x4 PUSH2 0x4B77 JUMP JUMPDEST PUSH2 0xBD8 PUSH1 0x20 MSTORE PUSH1 0x0 SWAP1 DUP2 MSTORE PUSH1 0x40 SWAP1 KECCAK256 SLOAD PUSH1 0xFF AND DUP2 JUMP JUMPDEST CALLVALUE DUP1 ISZERO PUSH2 0x673 JUMPI PUSH1 0x0 DUP1 REVERT JUMPDEST POP PUSH1 0xA SLOAD PUSH2 0x4DD JUMP JUMPDEST CALLVALUE DUP1 ISZERO PUSH2 0x688 JUMPI PUSH1 0x0 DUP1 REVERT JUMPDEST POP PUSH2 0x4DD PUSH1 0x1C SLOAD DUP2 JUMP JUMPDEST CALLVALUE DUP1 ISZERO PUSH2 0x69E JUMPI PUSH1 0x0 DUP1 REVERT JUMPDEST POP PUSH2 0x634 PUSH2 0x11E6 JUMP JUMPDEST CALLVALUE DUP1 ISZERO PUSH2 0x6B3 JUMPI PUSH1 0x0 DUP1 REVERT JUMPDEST POP PUSH2 0x634 PUSH2 0x6C2 CALLDATASIZE PUSH1 0x4 PUSH2 0x4BC3 JUMP JUMPDEST PUSH2 0x122A JUMP JUMPDEST CALLVALUE DUP1 ISZERO PUSH2 0x6D3 JUMPI PUSH1 0x0 DUP1 REVERT JUMPDEST POP PUSH2 0x4DD PUSH1 0x17 SLOAD DUP2 JUMP JUMPDEST CALLVALUE DUP1 ISZERO PUSH2 0x6E9 JUMPI PUSH1 0x0 DUP1 REVERT JUMPDEST POP PUSH2 0x634 PUSH2 0x6F8 CALLDATASIZE PUSH1 0x4 PUSH2 0x4E3B JUMP JUMPDEST PUSH2 0x142C JUMP JUMPDEST CALLVALUE DUP1 ISZERO PUSH2 0x709 JUMPI PUSH1 0x0 DUP1 REVERT JUMPDEST POP PUSH2 0x510 PUSH2 0x718 CALLDATASIZE PUSH1 0x4 PUSH2 0x4E3B JUMP JUMPDEST PUSH2 0x1461 JUMP JUMPDEST CALLVALUE DUP1 ISZERO PUSH2 0x729 JUMPI PUSH1 0x0 DUP1 REVERT JUMPDEST POP PUSH2 0x510 PUSH2 0x738 CALLDATASIZE PUSH1 0x4 PUSH2 0x4E3B JUMP JUMPDEST PUSH1 0x7 PUSH1 0x20 MSTORE PUSH1 0x0 SWAP1 DUP2 MSTORE PUSH1 0x40 SWAP1 KECCAK256 SLOAD PUSH1 0xFF AND DUP2 JUMP JUMPDEST CALLVALUE DUP1 ISZERO PUSH2 0x759 JUMPI PUSH1 0x0 DUP1 REVERT JUMPDEST POP PUSH2 0x4DD PUSH2 0x768 CALLDATASIZE PUSH1 0x4 PUSH2 0x4CAD JUMP JUMPDEST PUSH2 0x148D JUMP JUMPDEST CALLVALUE DUP1 ISZERO PUSH2 0x779 JUMPI PUSH1 0x0 DUP1 REVERT JUMPDEST POP PUSH2 0xBD6 SLOAD PUSH2 0x510 SWAP1 PUSH4 0x1000000 SWAP1 DIV PUSH1 0xFF AND DUP2 JUMP JUMPDEST CALLVALUE DUP1 ISZERO PUSH2 0x79B JUMPI PUSH1 0x0 DUP1 REVERT JUMPDEST POP PUSH2 0xBD6 SLOAD PUSH2 0x510 SWAP1 PUSH3 0x10000 SWAP1 DIV PUSH1 0xFF AND DUP2 JUMP JUMPDEST CALLVALUE DUP1 ISZERO PUSH2 0x7BC JUMPI PUSH1 0x0 DUP1 REVERT JUMPDEST POP PUSH2 0x4DD PUSH1 0x16 SLOAD DUP2 JUMP JUMPDEST CALLVALUE DUP1 ISZERO PUSH2 0x7D2 JUMPI PUSH1 0x0 DUP1 REVERT JUMPDEST POP PUSH2 0x634 PUSH2 0x1523 JUMP JUMPDEST CALLVALUE DUP1 ISZERO PUSH2 0x7E7 JUMPI PUSH1 0x0 DUP1 REVERT JUMPDEST POP PUSH2 0xBD6 SLOAD PUSH2 0x5FC SWAP1 PUSH1 0x1 PUSH1 0x20 SHL SWAP1 DIV PUSH1 0x1 PUSH1 0x1 PUSH1 0xA0 SHL SUB AND DUP2 JUMP JUMPDEST CALLVALUE DUP1 ISZERO PUSH2 0x80F JUMPI PUSH1 0x0 DUP1 REVERT JUMPDEST POP PUSH2 0x634 PUSH2 0x81E CALLDATASIZE PUSH1 0x4 PUSH2 0x4BC3 JUMP JUMPDEST PUSH2 0x155D JUMP JUMPDEST CALLVALUE DUP1 ISZERO PUSH2 0x82F JUMPI PUSH1 0x0 DUP1 REVERT JUMPDEST POP PUSH2 0x634 PUSH2 0x83E CALLDATASIZE PUSH1 0x4 PUSH2 0x4E3B JUMP JUMPDEST PUSH2 0x160F JUMP JUMPDEST CALLVALUE DUP1 ISZERO PUSH2 0x84F JUMPI PUSH1 0x0 DUP1 REVERT JUMPDEST POP PUSH2 0x5CF PUSH2 0x168B JUMP JUMPDEST CALLVALUE DUP1 ISZERO PUSH2 0x864 JUMPI PUSH1 0x0 DUP1 REVERT JUMPDEST POP PUSH2 0x634 PUSH2 0x873 CALLDATASIZE PUSH1 0x4 PUSH2 0x4BC3 JUMP JUMPDEST PUSH2 0x1719 JUMP JUMPDEST CALLVALUE DUP1 ISZERO PUSH2 0x884 JUMPI PUSH1 0x0 DUP1 REVERT JUMPDEST POP PUSH2 0x4DD PUSH2 0x893 CALLDATASIZE PUSH1 0x4 PUSH2 0x4E3B JUMP JUMPDEST PUSH2 0x17D1 JUMP JUMPDEST CALLVALUE DUP1 ISZERO PUSH2 0x8A4 JUMPI PUSH1 0x0 DUP1 REVERT JUMPDEST POP PUSH2 0x634 PUSH2 0x8B3 CALLDATASIZE PUSH1 0x4 PUSH2 0x4B77 JUMP JUMPDEST PUSH2 0x1872 JUMP JUMPDEST CALLVALUE DUP1 ISZERO PUSH2 0x8C4 JUMPI PUSH1 0x0 DUP1 REVERT JUMPDEST POP PUSH2 0x634 PUSH2 0x8D3 CALLDATASIZE PUSH1 0x4 PUSH2 0x4DF5 JUMP JUMPDEST PUSH2 0x1926 JUMP JUMPDEST CALLVALUE DUP1 ISZERO PUSH2 0x8E4 JUMPI PUSH1 0x0 DUP1 REVERT JUMPDEST POP PUSH2 0xBD6 SLOAD PUSH2 0x510 SWAP1 PUSH1 0xFF AND DUP2 JUMP JUMPDEST CALLVALUE DUP1 ISZERO PUSH2 0x8FF JUMPI PUSH1 0x0 DUP1 REVERT JUMPDEST POP CHAINID PUSH2 0x4DD JUMP JUMPDEST CALLVALUE DUP1 ISZERO PUSH2 0x912 JUMPI PUSH1 0x0 DUP1 REVERT JUMPDEST POP PUSH2 0x634 PUSH2 0x921 CALLDATASIZE PUSH1 0x4 PUSH2 0x4E3B JUMP JUMPDEST PUSH2 0x196E JUMP JUMPDEST CALLVALUE DUP1 ISZERO PUSH2 0x932 JUMPI PUSH1 0x0 DUP1 REVERT JUMPDEST POP PUSH1 0xD SLOAD PUSH1 0xFF AND PUSH2 0x510 JUMP JUMPDEST CALLVALUE DUP1 ISZERO PUSH2 0x94A JUMPI PUSH1 0x0 DUP1 REVERT JUMPDEST POP PUSH2 0x4DD PUSH1 0x18 SLOAD DUP2 JUMP JUMPDEST CALLVALUE DUP1 ISZERO PUSH2 0x960 JUMPI PUSH1 0x0 DUP1 REVERT JUMPDEST POP PUSH2 0x5FC PUSH2 0x96F CALLDATASIZE PUSH1 0x4 PUSH2 0x4E3B JUMP JUMPDEST PUSH2 0x19A3 JUMP JUMPDEST CALLVALUE DUP1 ISZERO PUSH2 0x980 JUMPI PUSH1 0x0 DUP1 REVERT JUMPDEST POP PUSH2 0x4DD PUSH1 0x19 SLOAD DUP2 JUMP JUMPDEST CALLVALUE DUP1 ISZERO PUSH2 0x996 JUMPI PUSH1 0x0 DUP1 REVERT JUMPDEST POP PUSH2 0xBD6 SLOAD PUSH2 0x510 SWAP1 PUSH2 0x100 SWAP1 DIV PUSH1 0xFF AND DUP2 JUMP JUMPDEST CALLVALUE DUP1 ISZERO PUSH2 0x9B6 JUMPI PUSH1 0x0 DUP1 REVERT JUMPDEST POP PUSH2 0x5CF PUSH2 0x19BE JUMP JUMPDEST CALLVALUE DUP1 ISZERO PUSH2 0x9CB JUMPI PUSH1 0x0 DUP1 REVERT JUMPDEST POP PUSH2 0x4DD PUSH2 0x9DA CALLDATASIZE PUSH1 0x4 PUSH2 0x4B77 JUMP JUMPDEST PUSH2 0x19CC JUMP JUMPDEST CALLVALUE DUP1 ISZERO PUSH2 0x9EB JUMPI PUSH1 0x0 DUP1 REVERT JUMPDEST POP PUSH2 0x4DD PUSH2 0xBB8 DUP2 JUMP JUMPDEST CALLVALUE DUP1 ISZERO PUSH2 0xA01 JUMPI PUSH1 0x0 DUP1 REVERT JUMPDEST POP PUSH2 0x4DD PUSH1 0x14 SLOAD DUP2 JUMP JUMPDEST CALLVALUE DUP1 ISZERO PUSH2 0xA17 JUMPI PUSH1 0x0 DUP1 REVERT JUMPDEST POP PUSH2 0x4DD PUSH1 0x1A SLOAD DUP2 JUMP JUMPDEST CALLVALUE DUP1 ISZERO PUSH2 0xA2D JUMPI PUSH1 0x0 DUP1 REVERT JUMPDEST POP PUSH2 0x634 PUSH2 0xA3C CALLDATASIZE PUSH1 0x4 PUSH2 0x4CD6 JUMP JUMPDEST PUSH2 0x1A53 JUMP JUMPDEST PUSH2 0x634 PUSH2 0xA4F CALLDATASIZE PUSH1 0x4 PUSH2 0x4E53 JUMP JUMPDEST PUSH2 0x1B62 JUMP JUMPDEST CALLVALUE DUP1 ISZERO PUSH2 0xA60 JUMPI PUSH1 0x0 DUP1 REVERT JUMPDEST POP PUSH2 0x4DD PUSH1 0x15 SLOAD DUP2 JUMP JUMPDEST CALLVALUE DUP1 ISZERO PUSH2 0xA76 JUMPI PUSH1 0x0 DUP1 REVERT JUMPDEST POP PUSH2 0x634 PUSH2 0xA85 CALLDATASIZE PUSH1 0x4 PUSH2 0x4E3B JUMP JUMPDEST PUSH2 0x2361 JUMP JUMPDEST CALLVALUE DUP1 ISZERO PUSH2 0xA96 JUMPI PUSH1 0x0 DUP1 REVERT JUMPDEST POP PUSH2 0x634 PUSH2 0x2396 JUMP JUMPDEST CALLVALUE DUP1 ISZERO PUSH2 0xAAB JUMPI PUSH1 0x0 DUP1 REVERT JUMPDEST POP PUSH1 0xD SLOAD PUSH2 0x100 SWAP1 DIV PUSH1 0x1 PUSH1 0x1 PUSH1 0xA0 SHL SUB AND PUSH2 0x5FC JUMP JUMPDEST CALLVALUE DUP1 ISZERO PUSH2 0xACE JUMPI PUSH1 0x0 DUP1 REVERT JUMPDEST POP PUSH2 0x4DD PUSH2 0xBD7 SLOAD DUP2 JUMP JUMPDEST CALLVALUE DUP1 ISZERO PUSH2 0xAE5 JUMPI PUSH1 0x0 DUP1 REVERT JUMPDEST POP PUSH2 0x634 PUSH2 0xAF4 CALLDATASIZE PUSH1 0x4 PUSH2 0x4E3B JUMP JUMPDEST PUSH2 0x23CE JUMP JUMPDEST CALLVALUE DUP1 ISZERO PUSH2 0xB05 JUMPI PUSH1 0x0 DUP1 REVERT JUMPDEST POP PUSH2 0x5CF PUSH2 0x2403 JUMP JUMPDEST PUSH2 0x634 PUSH2 0xB1C CALLDATASIZE PUSH1 0x4 PUSH2 0x4CAD JUMP JUMPDEST PUSH2 0x2412 JUMP JUMPDEST PUSH2 0x634 PUSH2 0xB2F CALLDATASIZE PUSH1 0x4 PUSH2 0x4CAD JUMP JUMPDEST PUSH2 0x269A JUMP JUMPDEST CALLVALUE DUP1 ISZERO PUSH2 0xB40 JUMPI PUSH1 0x0 DUP1 REVERT JUMPDEST POP PUSH2 0x4DD PUSH2 0xB4F CALLDATASIZE PUSH1 0x4 PUSH2 0x4E3B JUMP JUMPDEST PUSH2 0x28B1 JUMP JUMPDEST CALLVALUE DUP1 ISZERO PUSH2 0xB60 JUMPI PUSH1 0x0 DUP1 REVERT JUMPDEST POP PUSH2 0x634 PUSH2 0xB6F CALLDATASIZE PUSH1 0x4 PUSH2 0x4C77 JUMP JUMPDEST PUSH2 0x28C9 JUMP JUMPDEST CALLVALUE DUP1 ISZERO PUSH2 0xB80 JUMPI PUSH1 0x0 DUP1 REVERT JUMPDEST POP PUSH2 0x4DD PUSH1 0x1B SLOAD DUP2 JUMP JUMPDEST CALLVALUE DUP1 ISZERO PUSH2 0xB96 JUMPI PUSH1 0x0 DUP1 REVERT JUMPDEST POP PUSH2 0x634 PUSH2 0xBA5 CALLDATASIZE PUSH1 0x4 PUSH2 0x4D85 JUMP JUMPDEST PUSH2 0x298E JUMP JUMPDEST CALLVALUE DUP1 ISZERO PUSH2 0xBB6 JUMPI PUSH1 0x0 DUP1 REVERT JUMPDEST POP PUSH2 0x634 PUSH2 0xBC5 CALLDATASIZE PUSH1 0x4 PUSH2 0x4DF5 JUMP JUMPDEST PUSH2 0x29D2 JUMP JUMPDEST CALLVALUE DUP1 ISZERO PUSH2 0xBD6 JUMPI PUSH1 0x0 DUP1 REVERT JUMPDEST POP PUSH2 0x4DD PUSH1 0x13 SLOAD DUP2 JUMP JUMPDEST CALLVALUE DUP1 ISZERO PUSH2 0xBEC JUMPI PUSH1 0x0 DUP1 REVERT JUMPDEST POP PUSH2 0x634 PUSH2 0xBFB CALLDATASIZE PUSH1 0x4 PUSH2 0x4BFE JUMP JUMPDEST PUSH2 0x2A0B JUMP JUMPDEST CALLVALUE DUP1 ISZERO PUSH2 0xC0C JUMPI PUSH1 0x0 DUP1 REVERT JUMPDEST POP PUSH2 0x634 PUSH2 0xC1B CALLDATASIZE PUSH1 0x4 PUSH2 0x4CAD JUMP JUMPDEST PUSH2 0x2A3D JUMP JUMPDEST CALLVALUE DUP1 ISZERO PUSH2 0xC2C JUMPI PUSH1 0x0 DUP1 REVERT JUMPDEST POP PUSH2 0x634 PUSH2 0xC3B CALLDATASIZE PUSH1 0x4 PUSH2 0x4E53 JUMP JUMPDEST PUSH2 0x2AA3 JUMP JUMPDEST CALLVALUE DUP1 ISZERO PUSH2 0xC4C JUMPI PUSH1 0x0 DUP1 REVERT JUMPDEST POP PUSH2 0x634 PUSH2 0xC5B CALLDATASIZE PUSH1 0x4 PUSH2 0x4E3B JUMP JUMPDEST PUSH2 0x2FBD JUMP JUMPDEST CALLVALUE DUP1 ISZERO PUSH2 0xC6C JUMPI PUSH1 0x0 DUP1 REVERT JUMPDEST POP PUSH2 0x634 PUSH2 0xC7B CALLDATASIZE PUSH1 0x4 PUSH2 0x4CAD JUMP JUMPDEST PUSH2 0x2FF2 JUMP JUMPDEST CALLVALUE DUP1 ISZERO PUSH2 0xC8C JUMPI PUSH1 0x0 DUP1 REVERT JUMPDEST POP PUSH2 0x4DD PUSH1 0x11 SLOAD DUP2 JUMP JUMPDEST CALLVALUE DUP1 ISZERO PUSH2 0xCA2 JUMPI PUSH1 0x0 DUP1 REVERT JUMPDEST POP PUSH2 0x634 PUSH2 0xCB1 CALLDATASIZE PUSH1 0x4 PUSH2 0x4E3B JUMP JUMPDEST PUSH2 0x3098 JUMP JUMPDEST CALLVALUE DUP1 ISZERO PUSH2 0xCC2 JUMPI PUSH1 0x0 DUP1 REVERT JUMPDEST POP PUSH2 0x5CF PUSH2 0xCD1 CALLDATASIZE PUSH1 0x4 PUSH2 0x4E3B JUMP JUMPDEST PUSH2 0x30CD JUMP JUMPDEST CALLVALUE DUP1 ISZERO PUSH2 0xCE2 JUMPI PUSH1 0x0 DUP1 REVERT JUMPDEST POP PUSH2 0x634 PUSH2 0xCF1 CALLDATASIZE PUSH1 0x4 PUSH2 0x4D85 JUMP JUMPDEST PUSH2 0x30D8 JUMP JUMPDEST CALLVALUE DUP1 ISZERO PUSH2 0xD02 JUMPI PUSH1 0x0 DUP1 REVERT JUMPDEST POP PUSH2 0x634 PUSH2 0xD11 CALLDATASIZE PUSH1 0x4 PUSH2 0x4E3B JUMP JUMPDEST PUSH2 0x3123 JUMP JUMPDEST CALLVALUE DUP1 ISZERO PUSH2 0xD22 JUMPI PUSH1 0x0 DUP1 REVERT JUMPDEST POP PUSH2 0x4DD PUSH1 0x12 SLOAD DUP2 JUMP JUMPDEST CALLVALUE DUP1 ISZERO PUSH2 0xD38 JUMPI PUSH1 0x0 DUP1 REVERT JUMPDEST POP PUSH2 0x634 PUSH2 0xD47 CALLDATASIZE PUSH1 0x4 PUSH2 0x4E3B JUMP JUMPDEST PUSH2 0x3158 JUMP JUMPDEST CALLVALUE DUP1 ISZERO PUSH2 0xD58 JUMPI PUSH1 0x0 DUP1 REVERT JUMPDEST POP PUSH2 0xD6C PUSH2 0xD67 CALLDATASIZE PUSH1 0x4 PUSH2 0x4B77 JUMP JUMPDEST PUSH2 0x318D JUMP JUMPDEST PUSH1 0x40 MLOAD PUSH2 0x4E7 SWAP2 SWAP1 PUSH2 0x4FE6 JUMP JUMPDEST CALLVALUE DUP1 ISZERO PUSH2 0xD85 JUMPI PUSH1 0x0 DUP1 REVERT JUMPDEST POP PUSH2 0x4DD PUSH1 0xF SLOAD DUP2 JUMP JUMPDEST CALLVALUE DUP1 ISZERO PUSH2 0xD9B JUMPI PUSH1 0x0 DUP1 REVERT JUMPDEST POP PUSH2 0x510 PUSH2 0xDAA CALLDATASIZE PUSH1 0x4 PUSH2 0x4B91 JUMP JUMPDEST PUSH1 0x1 PUSH1 0x1 PUSH1 0xA0 SHL SUB SWAP2 DUP3 AND PUSH1 0x0 SWAP1 DUP2 MSTORE PUSH1 0x6 PUSH1 0x20 SWAP1 DUP2 MSTORE PUSH1 0x40 DUP1 DUP4 KECCAK256 SWAP4 SWAP1 SWAP5 AND DUP3 MSTORE SWAP2 SWAP1 SWAP2 MSTORE KECCAK256 SLOAD PUSH1 0xFF AND SWAP1 JUMP JUMPDEST CALLVALUE DUP1 ISZERO PUSH2 0xDE4 JUMPI PUSH1 0x0 DUP1 REVERT JUMPDEST POP PUSH2 0x634 PUSH2 0xDF3 CALLDATASIZE PUSH1 0x4 PUSH2 0x4E3B JUMP JUMPDEST PUSH2 0x31FA JUMP JUMPDEST CALLVALUE DUP1 ISZERO PUSH2 0xE04 JUMPI PUSH1 0x0 DUP1 REVERT JUMPDEST POP PUSH2 0x634 PUSH2 0x322F JUMP JUMPDEST CALLVALUE DUP1 ISZERO PUSH2 0xE19 JUMPI PUSH1 0x0 DUP1 REVERT JUMPDEST POP PUSH2 0x634 PUSH2 0xE28 CALLDATASIZE PUSH1 0x4 PUSH2 0x4D85 JUMP JUMPDEST PUSH2 0x326E JUMP JUMPDEST CALLVALUE DUP1 ISZERO PUSH2 0xE39 JUMPI PUSH1 0x0 DUP1 REVERT JUMPDEST POP PUSH2 0x634 PUSH2 0xE48 CALLDATASIZE PUSH1 0x4 PUSH2 0x4B77 JUMP JUMPDEST PUSH2 0x32BD JUMP JUMPDEST CALLVALUE DUP1 ISZERO PUSH2 0xE59 JUMPI PUSH1 0x0 DUP1 REVERT JUMPDEST POP PUSH2 0x634 PUSH2 0xE68 CALLDATASIZE PUSH1 0x4 PUSH2 0x4CD6 JUMP JUMPDEST PUSH2 0x335B JUMP JUMPDEST CALLVALUE DUP1 ISZERO PUSH2 0xE79 JUMPI PUSH1 0x0 DUP1 REVERT JUMPDEST POP PUSH2 0x4DD PUSH1 0x10 SLOAD DUP2 JUMP JUMPDEST CALLVALUE DUP1 ISZERO PUSH2 0xE8F JUMPI PUSH1 0x0 DUP1 REVERT JUMPDEST POP PUSH2 0x4DD PUSH2 0xE9E CALLDATASIZE PUSH1 0x4 PUSH2 0x4CAD JUMP JUMPDEST PUSH2 0x346B JUMP JUMPDEST CALLVALUE DUP1 ISZERO PUSH2 0xEAF JUMPI PUSH1 0x0 DUP1 REVERT JUMPDEST POP PUSH2 0x634 PUSH2 0xEBE CALLDATASIZE PUSH1 0x4 PUSH2 0x4E3B JUMP JUMPDEST PUSH2 0x349D JUMP JUMPDEST CALLVALUE DUP1 ISZERO PUSH2 0xECF JUMPI PUSH1 0x0 DUP1 REVERT JUMPDEST POP PUSH2 0x634 PUSH2 0xEDE CALLDATASIZE PUSH1 0x4 PUSH2 0x4E3B JUMP JUMPDEST PUSH2 0x34D2 JUMP JUMPDEST PUSH1 0x0 PUSH2 0xEEE DUP3 PUSH2 0x3507 JUMP JUMPDEST SWAP3 SWAP2 POP POP JUMP JUMPDEST PUSH2 0xBDA PUSH1 0x20 MSTORE PUSH1 0x0 SWAP1 DUP2 MSTORE PUSH1 0x40 SWAP1 KECCAK256 DUP1 SLOAD DUP2 SWAP1 PUSH2 0xF10 SWAP1 PUSH2 0x52A3 JUMP JUMPDEST DUP1 PUSH1 0x1F ADD PUSH1 0x20 DUP1 SWAP2 DIV MUL PUSH1 0x20 ADD PUSH1 0x40 MLOAD SWAP1 DUP2 ADD PUSH1 0x40 MSTORE DUP1 SWAP3 SWAP2 SWAP1 DUP2 DUP2 MSTORE PUSH1 0x20 ADD DUP3 DUP1 SLOAD PUSH2 0xF3C SWAP1 PUSH2 0x52A3 JUMP JUMPDEST DUP1 ISZERO PUSH2 0xF89 JUMPI DUP1 PUSH1 0x1F LT PUSH2 0xF5E JUMPI PUSH2 0x100 DUP1 DUP4 SLOAD DIV MUL DUP4 MSTORE SWAP2 PUSH1 0x20 ADD SWAP2 PUSH2 0xF89 JUMP JUMPDEST DUP3 ADD SWAP2 SWAP1 PUSH1 0x0 MSTORE PUSH1 0x20 PUSH1 0x0 KECCAK256 SWAP1 JUMPDEST DUP2 SLOAD DUP2 MSTORE SWAP1 PUSH1 0x1 ADD SWAP1 PUSH1 0x20 ADD DUP1 DUP4 GT PUSH2 0xF6C JUMPI DUP3 SWAP1 SUB PUSH1 0x1F AND DUP3 ADD SWAP2 JUMPDEST POP POP POP POP POP SWAP1 DUP1 PUSH1 0x1 ADD SLOAD SWAP1 DUP1 PUSH1 0x2 ADD SLOAD SWAP1 DUP1 PUSH1 0x3 ADD SLOAD SWAP1 DUP1 PUSH1 0x4 ADD SLOAD SWAP1 DUP1 PUSH1 0x5 ADD SLOAD SWAP1 POP DUP7 JUMP JUMPDEST PUSH1 0x60 PUSH1 0x0 DUP1 SLOAD PUSH2 0xFC0 SWAP1 PUSH2 0x52A3 JUMP JUMPDEST DUP1 PUSH1 0x1F ADD PUSH1 0x20 DUP1 SWAP2 DIV MUL PUSH1 0x20 ADD PUSH1 0x40 MLOAD SWAP1 DUP2 ADD PUSH1 0x40 MSTORE DUP1 SWAP3 SWAP2 SWAP1 DUP2 DUP2 MSTORE PUSH1 0x20 ADD DUP3 DUP1 SLOAD PUSH2 0xFEC SWAP1 PUSH2 0x52A3 JUMP JUMPDEST DUP1 ISZERO PUSH2 0x1039 JUMPI DUP1 PUSH1 0x1F LT PUSH2 0x100E JUMPI PUSH2 0x100 DUP1 DUP4 SLOAD DIV MUL DUP4 MSTORE SWAP2 PUSH1 0x20 ADD SWAP2 PUSH2 0x1039 JUMP JUMPDEST DUP3 ADD SWAP2 SWAP1 PUSH1 0x0 MSTORE PUSH1 0x20 PUSH1 0x0 KECCAK256 SWAP1 JUMPDEST DUP2 SLOAD DUP2 MSTORE SWAP1 PUSH1 0x1 ADD SWAP1 PUSH1 0x20 ADD DUP1 DUP4 GT PUSH2 0x101C JUMPI DUP3 SWAP1 SUB PUSH1 0x1F AND DUP3 ADD SWAP2 JUMPDEST POP POP POP POP POP SWAP1 POP SWAP1 JUMP JUMPDEST PUSH1 0x0 PUSH2 0x104E DUP3 PUSH2 0x352C JUMP JUMPDEST PUSH2 0x10B4 JUMPI PUSH1 0x40 MLOAD PUSH3 0x461BCD PUSH1 0xE5 SHL DUP2 MSTORE PUSH1 0x20 PUSH1 0x4 DUP3 ADD MSTORE PUSH1 0x2C PUSH1 0x24 DUP3 ADD MSTORE PUSH32 0x4552433732313A20617070726F76656420717565727920666F72206E6F6E6578 PUSH1 0x44 DUP3 ADD MSTORE PUSH12 0x34B9BA32B73A103A37B5B2B7 PUSH1 0xA1 SHL PUSH1 0x64 DUP3 ADD MSTORE PUSH1 0x84 ADD JUMPDEST PUSH1 0x40 MLOAD DUP1 SWAP2 SUB SWAP1 REVERT JUMPDEST POP PUSH1 0x0 SWAP1 DUP2 MSTORE PUSH1 0x5 PUSH1 0x20 MSTORE PUSH1 0x40 SWAP1 KECCAK256 SLOAD PUSH1 0x1 PUSH1 0x1 PUSH1 0xA0 SHL SUB AND SWAP1 JUMP JUMPDEST PUSH1 0x0 PUSH2 0x10DB DUP3 PUSH2 0x19A3 JUMP JUMPDEST SWAP1 POP DUP1 PUSH1 0x1 PUSH1 0x1 PUSH1 0xA0 SHL SUB AND DUP4 PUSH1 0x1 PUSH1 0x1 PUSH1 0xA0 SHL SUB AND EQ ISZERO PUSH2 0x1149 JUMPI PUSH1 0x40 MLOAD PUSH3 0x461BCD PUSH1 0xE5 SHL DUP2 MSTORE PUSH1 0x20 PUSH1 0x4 DUP3 ADD MSTORE PUSH1 0x21 PUSH1 0x24 DUP3 ADD MSTORE PUSH32 0x4552433732313A20617070726F76616C20746F2063757272656E74206F776E65 PUSH1 0x44 DUP3 ADD MSTORE PUSH1 0x39 PUSH1 0xF9 SHL PUSH1 0x64 DUP3 ADD MSTORE PUSH1 0x84 ADD PUSH2 0x10AB JUMP JUMPDEST CALLER PUSH1 0x1 PUSH1 0x1 PUSH1 0xA0 SHL SUB DUP3 AND EQ DUP1 PUSH2 0x1165 JUMPI POP PUSH2 0x1165 DUP2 CALLER PUSH2 0xDAA JUMP JUMPDEST PUSH2 0x11D7 JUMPI PUSH1 0x40 MLOAD PUSH3 0x461BCD PUSH1 0xE5 SHL DUP2 MSTORE PUSH1 0x20 PUSH1 0x4 DUP3 ADD MSTORE PUSH1 0x38 PUSH1 0x24 DUP3 ADD MSTORE PUSH32 0x4552433732313A20617070726F76652063616C6C6572206973206E6F74206F77 PUSH1 0x44 DUP3 ADD MSTORE PUSH32 0x6E6572206E6F7220617070726F76656420666F7220616C6C0000000000000000 PUSH1 0x64 DUP3 ADD MSTORE PUSH1 0x84 ADD PUSH2 0x10AB JUMP JUMPDEST PUSH2 0x11E1 DUP4 DUP4 PUSH2 0x3549 JUMP JUMPDEST POP POP POP JUMP JUMPDEST PUSH1 0xD SLOAD PUSH1 0x1 PUSH1 0x1 PUSH1 0xA0 SHL SUB PUSH2 0x100 SWAP1 SWAP2 DIV AND CALLER EQ PUSH2 0x1216 JUMPI PUSH1 0x40 MLOAD PUSH3 0x461BCD PUSH1 0xE5 SHL DUP2 MSTORE PUSH1 0x4 ADD PUSH2 0x10AB SWAP1 PUSH2 0x50F5 JUMP JUMPDEST PUSH2 0xBD6 DUP1 SLOAD PUSH3 0xFF0000 NOT AND PUSH3 0x10000 OR SWAP1 SSTORE JUMP JUMPDEST PUSH2 0x1235 DUP4 DUP4 DUP4 PUSH2 0x35B7 JUMP JUMPDEST PUSH1 0x1 PUSH1 0x1 PUSH1 0xA0 SHL SUB DUP4 AND PUSH1 0x0 SWAP1 DUP2 MSTORE PUSH2 0xBDB PUSH1 0x20 MSTORE PUSH1 0x40 DUP2 KECCAK256 SLOAD SWAP1 JUMPDEST DUP2 DUP2 LT ISZERO PUSH2 0x1425 JUMPI PUSH1 0x1 PUSH1 0x1 PUSH1 0xA0 SHL SUB DUP6 AND PUSH1 0x0 SWAP1 DUP2 MSTORE PUSH2 0xBDB PUSH1 0x20 MSTORE PUSH1 0x40 SWAP1 KECCAK256 DUP1 SLOAD DUP5 SWAP2 SWAP1 DUP4 SWAP1 DUP2 LT PUSH2 0x1295 JUMPI PUSH4 0x4E487B71 PUSH1 0xE0 SHL PUSH1 0x0 MSTORE PUSH1 0x32 PUSH1 0x4 MSTORE PUSH1 0x24 PUSH1 0x0 REVERT JUMPDEST SWAP1 PUSH1 0x0 MSTORE PUSH1 0x20 PUSH1 0x0 KECCAK256 ADD SLOAD EQ ISZERO PUSH2 0x1413 JUMPI PUSH1 0x1 PUSH1 0x1 PUSH1 0xA0 SHL SUB DUP6 AND PUSH1 0x0 SWAP1 DUP2 MSTORE PUSH2 0xBDB PUSH1 0x20 MSTORE PUSH1 0x40 SWAP1 KECCAK256 PUSH2 0x12CA PUSH1 0x1 DUP5 PUSH2 0x5249 JUMP JUMPDEST DUP2 SLOAD DUP2 LT PUSH2 0x12E8 JUMPI PUSH4 0x4E487B71 PUSH1 0xE0 SHL PUSH1 0x0 MSTORE PUSH1 0x32 PUSH1 0x4 MSTORE PUSH1 0x24 PUSH1 0x0 REVERT JUMPDEST SWAP1 PUSH1 0x0 MSTORE PUSH1 0x20 PUSH1 0x0 KECCAK256 ADD SLOAD PUSH2 0xBDB PUSH1 0x0 DUP8 PUSH1 0x1 PUSH1 0x1 PUSH1 0xA0 SHL SUB AND PUSH1 0x1 PUSH1 0x1 PUSH1 0xA0 SHL SUB AND DUP2 MSTORE PUSH1 0x20 ADD SWAP1 DUP2 MSTORE PUSH1 0x20 ADD PUSH1 0x0 KECCAK256 DUP3 DUP2 SLOAD DUP2 LT PUSH2 0x1338 JUMPI PUSH4 0x4E487B71 PUSH1 0xE0 SHL PUSH1 0x0 MSTORE PUSH1 0x32 PUSH1 0x4 MSTORE PUSH1 0x24 PUSH1 0x0 REVERT JUMPDEST PUSH1 0x0 SWAP2 DUP3 MSTORE PUSH1 0x20 DUP1 DUP4 KECCAK256 SWAP1 SWAP2 ADD SWAP3 SWAP1 SWAP3 SSTORE PUSH1 0x1 PUSH1 0x1 PUSH1 0xA0 SHL SUB DUP8 AND DUP2 MSTORE PUSH2 0xBDB SWAP1 SWAP2 MSTORE PUSH1 0x40 SWAP1 KECCAK256 DUP1 SLOAD DUP1 PUSH2 0x137C JUMPI PUSH4 0x4E487B71 PUSH1 0xE0 SHL PUSH1 0x0 MSTORE PUSH1 0x31 PUSH1 0x4 MSTORE PUSH1 0x24 PUSH1 0x0 REVERT JUMPDEST PUSH1 0x0 DUP3 DUP2 MSTORE PUSH1 0x20 DUP1 DUP3 KECCAK256 DUP4 ADD PUSH1 0x0 NOT SWAP1 DUP2 ADD DUP4 SWAP1 SSTORE SWAP1 SWAP3 ADD SWAP1 SWAP3 SSTORE PUSH1 0x1 PUSH1 0x1 PUSH1 0xA0 SHL SUB DUP8 AND DUP3 MSTORE PUSH2 0xBD9 SWAP1 MSTORE PUSH1 0x40 DUP2 KECCAK256 PUSH1 0x1 ADD DUP1 SLOAD SWAP2 PUSH2 0x13BB DUP4 PUSH2 0x528C JUMP JUMPDEST SWAP1 SWAP2 SSTORE POP POP PUSH1 0x1 PUSH1 0x1 PUSH1 0xA0 SHL SUB DUP5 AND PUSH1 0x0 DUP2 DUP2 MSTORE PUSH2 0xBDB PUSH1 0x20 SWAP1 DUP2 MSTORE PUSH1 0x40 DUP1 DUP4 KECCAK256 DUP1 SLOAD PUSH1 0x1 DUP2 DUP2 ADD DUP4 SSTORE SWAP2 DUP6 MSTORE DUP4 DUP6 KECCAK256 ADD DUP9 SWAP1 SSTORE SWAP4 DUP4 MSTORE PUSH2 0xBD9 SWAP1 SWAP2 MSTORE DUP2 KECCAK256 SWAP1 SWAP2 ADD DUP1 SLOAD SWAP2 PUSH2 0x1409 DUP4 PUSH2 0x52DE JUMP JUMPDEST SWAP2 SWAP1 POP SSTORE POP PUSH2 0x1425 JUMP JUMPDEST DUP1 PUSH2 0x141D DUP2 PUSH2 0x52DE JUMP JUMPDEST SWAP2 POP POP PUSH2 0x1251 JUMP JUMPDEST POP POP POP POP POP JUMP JUMPDEST PUSH1 0xD SLOAD PUSH1 0x1 PUSH1 0x1 PUSH1 0xA0 SHL SUB PUSH2 0x100 SWAP1 SWAP2 DIV AND CALLER EQ PUSH2 0x145C JUMPI PUSH1 0x40 MLOAD PUSH3 0x461BCD PUSH1 0xE5 SHL DUP2 MSTORE PUSH1 0x4 ADD PUSH2 0x10AB SWAP1 PUSH2 0x50F5 JUMP JUMPDEST PUSH1 0x15 SSTORE JUMP JUMPDEST PUSH1 0x13 SLOAD PUSH1 0x0 DUP3 DUP2 MSTORE PUSH2 0xBDA PUSH1 0x20 MSTORE PUSH1 0x40 DUP2 KECCAK256 PUSH1 0x1 ADD SLOAD SWAP1 SWAP2 TIMESTAMP SWAP2 PUSH2 0x1485 SWAP2 SWAP1 PUSH2 0x51FE JUMP JUMPDEST GT ISZERO SWAP3 SWAP2 POP POP JUMP JUMPDEST PUSH1 0x0 PUSH2 0x1498 DUP4 PUSH2 0x19CC JUMP JUMPDEST DUP3 LT PUSH2 0x14FA JUMPI PUSH1 0x40 MLOAD PUSH3 0x461BCD PUSH1 0xE5 SHL DUP2 MSTORE PUSH1 0x20 PUSH1 0x4 DUP3 ADD MSTORE PUSH1 0x2B PUSH1 0x24 DUP3 ADD MSTORE PUSH32 0x455243373231456E756D657261626C653A206F776E657220696E646578206F75 PUSH1 0x44 DUP3 ADD MSTORE PUSH11 0x74206F6620626F756E6473 PUSH1 0xA8 SHL PUSH1 0x64 DUP3 ADD MSTORE PUSH1 0x84 ADD PUSH2 0x10AB JUMP JUMPDEST POP PUSH1 0x1 PUSH1 0x1 PUSH1 0xA0 SHL SUB SWAP2 SWAP1 SWAP2 AND PUSH1 0x0 SWAP1 DUP2 MSTORE PUSH1 0x8 PUSH1 0x20 SWAP1 DUP2 MSTORE PUSH1 0x40 DUP1 DUP4 KECCAK256 SWAP4 DUP4 MSTORE SWAP3 SWAP1 MSTORE KECCAK256 SLOAD SWAP1 JUMP JUMPDEST PUSH1 0xD SLOAD PUSH1 0x1 PUSH1 0x1 PUSH1 0xA0 SHL SUB PUSH2 0x100 SWAP1 SWAP2 DIV AND CALLER EQ PUSH2 0x1553 JUMPI PUSH1 0x40 MLOAD PUSH3 0x461BCD PUSH1 0xE5 SHL DUP2 MSTORE PUSH1 0x4 ADD PUSH2 0x10AB SWAP1 PUSH2 0x50F5 JUMP JUMPDEST PUSH2 0x155B PUSH2 0x35E7 JUMP JUMPDEST JUMP JUMPDEST PUSH2 0x1568 DUP4 DUP4 DUP4 PUSH2 0x367A JUMP JUMPDEST PUSH1 0x1 PUSH1 0x1 PUSH1 0xA0 SHL SUB DUP4 AND PUSH1 0x0 SWAP1 DUP2 MSTORE PUSH2 0xBDB PUSH1 0x20 MSTORE PUSH1 0x40 DUP2 KECCAK256 SLOAD SWAP1 JUMPDEST DUP2 DUP2 LT ISZERO PUSH2 0x1425 JUMPI PUSH1 0x1 PUSH1 0x1 PUSH1 0xA0 SHL SUB DUP6 AND PUSH1 0x0 SWAP1 DUP2 MSTORE PUSH2 0xBDB PUSH1 0x20 MSTORE PUSH1 0x40 SWAP1 KECCAK256 DUP1 SLOAD DUP5 SWAP2 SWAP1 DUP4 SWAP1 DUP2 LT PUSH2 0x15C8 JUMPI PUSH4 0x4E487B71 PUSH1 0xE0 SHL PUSH1 0x0 MSTORE PUSH1 0x32 PUSH1 0x4 MSTORE PUSH1 0x24 PUSH1 0x0 REVERT JUMPDEST SWAP1 PUSH1 0x0 MSTORE PUSH1 0x20 PUSH1 0x0 KECCAK256 ADD SLOAD EQ ISZERO PUSH2 0x15FD JUMPI PUSH1 0x1 PUSH1 0x1 PUSH1 0xA0 SHL SUB DUP6 AND PUSH1 0x0 SWAP1 DUP2 MSTORE PUSH2 0xBDB PUSH1 0x20 MSTORE PUSH1 0x40 SWAP1 KECCAK256 PUSH2 0x12CA PUSH1 0x1 DUP5 PUSH2 0x5249 JUMP JUMPDEST DUP1 PUSH2 0x1607 DUP2 PUSH2 0x52DE JUMP JUMPDEST SWAP2 POP POP PUSH2 0x1584 JUMP JUMPDEST PUSH2 0x161A CALLER JUMPDEST DUP3 PUSH2 0x3695 JUMP JUMPDEST PUSH2 0x167F JUMPI PUSH1 0x40 MLOAD PUSH3 0x461BCD PUSH1 0xE5 SHL DUP2 MSTORE PUSH1 0x20 PUSH1 0x4 DUP3 ADD MSTORE PUSH1 0x30 PUSH1 0x24 DUP3 ADD MSTORE PUSH32 0x4552433732314275726E61626C653A2063616C6C6572206973206E6F74206F77 PUSH1 0x44 DUP3 ADD MSTORE PUSH16 0x1B995C881B9BDC88185C1C1C9BDD9959 PUSH1 0x82 SHL PUSH1 0x64 DUP3 ADD MSTORE PUSH1 0x84 ADD PUSH2 0x10AB JUMP JUMPDEST PUSH2 0x1688 DUP2 PUSH2 0x377F JUMP JUMPDEST POP JUMP JUMPDEST PUSH1 0x2 DUP1 SLOAD PUSH2 0x1698 SWAP1 PUSH2 0x52A3 JUMP JUMPDEST DUP1 PUSH1 0x1F ADD PUSH1 0x20 DUP1 SWAP2 DIV MUL PUSH1 0x20 ADD PUSH1 0x40 MLOAD SWAP1 DUP2 ADD PUSH1 0x40 MSTORE DUP1 SWAP3 SWAP2 SWAP1 DUP2 DUP2 MSTORE PUSH1 0x20 ADD DUP3 DUP1 SLOAD PUSH2 0x16C4 SWAP1 PUSH2 0x52A3 JUMP JUMPDEST DUP1 ISZERO PUSH2 0x1711 JUMPI DUP1 PUSH1 0x1F LT PUSH2 0x16E6 JUMPI PUSH2 0x100 DUP1 DUP4 SLOAD DIV MUL DUP4 MSTORE SWAP2 PUSH1 0x20 ADD SWAP2 PUSH2 0x1711 JUMP JUMPDEST DUP3 ADD SWAP2 SWAP1 PUSH1 0x0 MSTORE PUSH1 0x20 PUSH1 0x0 KECCAK256 SWAP1 JUMPDEST DUP2 SLOAD DUP2 MSTORE SWAP1 PUSH1 0x1 ADD SWAP1 PUSH1 0x20 ADD DUP1 DUP4 GT PUSH2 0x16F4 JUMPI DUP3 SWAP1 SUB PUSH1 0x1F AND DUP3 ADD SWAP2 JUMPDEST POP POP POP POP POP DUP2 JUMP JUMPDEST PUSH1 0xD SLOAD PUSH1 0x1 PUSH1 0x1 PUSH1 0xA0 SHL SUB PUSH2 0x100 SWAP1 SWAP2 DIV AND CALLER EQ PUSH2 0x1749 JUMPI PUSH1 0x40 MLOAD PUSH3 0x461BCD PUSH1 0xE5 SHL DUP2 MSTORE PUSH1 0x4 ADD PUSH2 0x10AB SWAP1 PUSH2 0x50F5 JUMP JUMPDEST PUSH1 0x40 MLOAD PUSH4 0xA9059CBB PUSH1 0xE0 SHL DUP2 MSTORE PUSH1 0x1 PUSH1 0x1 PUSH1 0xA0 SHL SUB DUP4 DUP2 AND PUSH1 0x4 DUP4 ADD MSTORE PUSH1 0x24 DUP3 ADD DUP4 SWAP1 MSTORE DUP5 AND SWAP1 PUSH4 0xA9059CBB SWAP1 PUSH1 0x44 ADD PUSH1 0x20 PUSH1 0x40 MLOAD DUP1 DUP4 SUB DUP2 PUSH1 0x0 DUP8 DUP1 EXTCODESIZE ISZERO DUP1 ISZERO PUSH2 0x1793 JUMPI PUSH1 0x0 DUP1 REVERT JUMPDEST POP GAS CALL ISZERO DUP1 ISZERO PUSH2 0x17A7 JUMPI RETURNDATASIZE PUSH1 0x0 DUP1 RETURNDATACOPY RETURNDATASIZE PUSH1 0x0 REVERT JUMPDEST POP POP POP POP PUSH1 0x40 MLOAD RETURNDATASIZE PUSH1 0x1F NOT PUSH1 0x1F DUP3 ADD AND DUP3 ADD DUP1 PUSH1 0x40 MSTORE POP DUP2 ADD SWAP1 PUSH2 0x17CB SWAP2 SWAP1 PUSH2 0x4DA1 JUMP JUMPDEST POP POP POP POP JUMP JUMPDEST PUSH1 0x0 PUSH2 0x17DC PUSH1 0xA SLOAD SWAP1 JUMP JUMPDEST DUP3 LT PUSH2 0x183F JUMPI PUSH1 0x40 MLOAD PUSH3 0x461BCD PUSH1 0xE5 SHL DUP2 MSTORE PUSH1 0x20 PUSH1 0x4 DUP3 ADD MSTORE PUSH1 0x2C PUSH1 0x24 DUP3 ADD MSTORE PUSH32 0x455243373231456E756D657261626C653A20676C6F62616C20696E646578206F PUSH1 0x44 DUP3 ADD MSTORE PUSH12 0x7574206F6620626F756E6473 PUSH1 0xA0 SHL PUSH1 0x64 DUP3 ADD MSTORE PUSH1 0x84 ADD PUSH2 0x10AB JUMP JUMPDEST PUSH1 0xA DUP3 DUP2 SLOAD DUP2 LT PUSH2 0x1860 JUMPI PUSH4 0x4E487B71 PUSH1 0xE0 SHL PUSH1 0x0 MSTORE PUSH1 0x32 PUSH1 0x4 MSTORE PUSH1 0x24 PUSH1 0x0 REVERT JUMPDEST SWAP1 PUSH1 0x0 MSTORE PUSH1 0x20 PUSH1 0x0 KECCAK256 ADD SLOAD SWAP1 POP SWAP2 SWAP1 POP JUMP JUMPDEST PUSH1 0xD SLOAD PUSH1 0x1 PUSH1 0x1 PUSH1 0xA0 SHL SUB PUSH2 0x100 SWAP1 SWAP2 DIV AND CALLER EQ PUSH2 0x18A2 JUMPI PUSH1 0x40 MLOAD PUSH3 0x461BCD PUSH1 0xE5 SHL DUP2 MSTORE PUSH1 0x4 ADD PUSH2 0x10AB SWAP1 PUSH2 0x50F5 JUMP JUMPDEST PUSH1 0x1 PUSH1 0x1 PUSH1 0xA0 SHL SUB DUP2 AND PUSH2 0x18F8 JUMPI PUSH1 0x40 MLOAD PUSH3 0x461BCD PUSH1 0xE5 SHL DUP2 MSTORE PUSH1 0x20 PUSH1 0x4 DUP3 ADD MSTORE PUSH1 0x18 PUSH1 0x24 DUP3 ADD MSTORE PUSH32 0x53686F756C642062652061207A65726F20616464726573730000000000000000 PUSH1 0x44 DUP3 ADD MSTORE PUSH1 0x64 ADD PUSH2 0x10AB JUMP JUMPDEST PUSH2 0xBD6 DUP1 SLOAD PUSH1 0x1 PUSH1 0x1 PUSH1 0xA0 SHL SUB SWAP1 SWAP3 AND PUSH1 0x1 PUSH1 0x20 SHL MUL PUSH5 0x100000000 PUSH1 0x1 PUSH1 0xC0 SHL SUB NOT SWAP1 SWAP3 AND SWAP2 SWAP1 SWAP2 OR SWAP1 SSTORE JUMP JUMPDEST PUSH1 0xD SLOAD PUSH1 0x1 PUSH1 0x1 PUSH1 0xA0 SHL SUB PUSH2 0x100 SWAP1 SWAP2 DIV AND CALLER EQ PUSH2 0x1956 JUMPI PUSH1 0x40 MLOAD PUSH3 0x461BCD PUSH1 0xE5 SHL DUP2 MSTORE PUSH1 0x4 ADD PUSH2 0x10AB SWAP1 PUSH2 0x50F5 JUMP JUMPDEST DUP1 MLOAD PUSH2 0x196A SWAP1 PUSH2 0xBDC SWAP1 PUSH1 0x20 DUP5 ADD SWAP1 PUSH2 0x4A39 JUMP JUMPDEST POP POP JUMP JUMPDEST PUSH1 0xD SLOAD PUSH1 0x1 PUSH1 0x1 PUSH1 0xA0 SHL SUB PUSH2 0x100 SWAP1 SWAP2 DIV AND CALLER EQ PUSH2 0x199E JUMPI PUSH1 0x40 MLOAD PUSH3 0x461BCD PUSH1 0xE5 SHL DUP2 MSTORE PUSH1 0x4 ADD PUSH2 0x10AB SWAP1 PUSH2 0x50F5 JUMP JUMPDEST PUSH1 0x18 SSTORE JUMP JUMPDEST PUSH1 0x0 SWAP1 DUP2 MSTORE PUSH1 0x3 PUSH1 0x20 MSTORE PUSH1 0x40 SWAP1 KECCAK256 SLOAD PUSH1 0x1 PUSH1 0x1 PUSH1 0xA0 SHL SUB AND SWAP1 JUMP JUMPDEST PUSH2 0xBDC DUP1 SLOAD PUSH2 0x1698 SWAP1 PUSH2 0x52A3 JUMP JUMPDEST PUSH1 0x0 PUSH1 0x1 PUSH1 0x1 PUSH1 0xA0 SHL SUB DUP3 AND PUSH2 0x1A37 JUMPI PUSH1 0x40 MLOAD PUSH3 0x461BCD PUSH1 0xE5 SHL DUP2 MSTORE PUSH1 0x20 PUSH1 0x4 DUP3 ADD MSTORE PUSH1 0x2A PUSH1 0x24 DUP3 ADD MSTORE PUSH32 0x4552433732313A2062616C616E636520717565727920666F7220746865207A65 PUSH1 0x44 DUP3 ADD MSTORE PUSH10 0x726F2061646472657373 PUSH1 0xB0 SHL PUSH1 0x64 DUP3 ADD MSTORE PUSH1 0x84 ADD PUSH2 0x10AB JUMP JUMPDEST POP PUSH1 0x1 PUSH1 0x1 PUSH1 0xA0 SHL SUB AND PUSH1 0x0 SWAP1 DUP2 MSTORE PUSH1 0x4 PUSH1 0x20 MSTORE PUSH1 0x40 SWAP1 KECCAK256 SLOAD SWAP1 JUMP JUMPDEST PUSH1 0xD SLOAD PUSH1 0x1 PUSH1 0x1 PUSH1 0xA0 SHL SUB PUSH2 0x100 SWAP1 SWAP2 DIV AND CALLER EQ PUSH2 0x1A83 JUMPI PUSH1 0x40 MLOAD PUSH3 0x461BCD PUSH1 0xE5 SHL DUP2 MSTORE PUSH1 0x4 ADD PUSH2 0x10AB SWAP1 PUSH2 0x50F5 JUMP JUMPDEST PUSH1 0x0 JUMPDEST DUP2 MLOAD DUP2 LT ISZERO PUSH2 0x196A JUMPI PUSH2 0xBD8 PUSH1 0x0 DUP4 DUP4 DUP2 MLOAD DUP2 LT PUSH2 0x1AB4 JUMPI PUSH4 0x4E487B71 PUSH1 0xE0 SHL PUSH1 0x0 MSTORE PUSH1 0x32 PUSH1 0x4 MSTORE PUSH1 0x24 PUSH1 0x0 REVERT JUMPDEST PUSH1 0x20 SWAP1 DUP2 MUL SWAP2 SWAP1 SWAP2 ADD DUP2 ADD MLOAD PUSH1 0x1 PUSH1 0x1 PUSH1 0xA0 SHL SUB AND DUP3 MSTORE DUP2 ADD SWAP2 SWAP1 SWAP2 MSTORE PUSH1 0x40 ADD PUSH1 0x0 KECCAK256 SLOAD PUSH1 0xFF AND PUSH2 0x1B50 JUMPI PUSH1 0x1 PUSH2 0xBD8 PUSH1 0x0 DUP5 DUP5 DUP2 MLOAD DUP2 LT PUSH2 0x1B06 JUMPI PUSH4 0x4E487B71 PUSH1 0xE0 SHL PUSH1 0x0 MSTORE PUSH1 0x32 PUSH1 0x4 MSTORE PUSH1 0x24 PUSH1 0x0 REVERT JUMPDEST PUSH1 0x20 SWAP1 DUP2 MUL SWAP2 SWAP1 SWAP2 ADD DUP2 ADD MLOAD PUSH1 0x1 PUSH1 0x1 PUSH1 0xA0 SHL SUB AND DUP3 MSTORE DUP2 ADD SWAP2 SWAP1 SWAP2 MSTORE PUSH1 0x40 ADD PUSH1 0x0 SWAP1 DUP2 KECCAK256 DUP1 SLOAD PUSH1 0xFF NOT AND SWAP3 ISZERO ISZERO SWAP3 SWAP1 SWAP3 OR SWAP1 SWAP2 SSTORE PUSH2 0xBD7 DUP1 SLOAD SWAP2 PUSH2 0x1B4A DUP4 PUSH2 0x52DE JUMP JUMPDEST SWAP2 SWAP1 POP SSTORE POP JUMPDEST DUP1 PUSH2 0x1B5A DUP2 PUSH2 0x52DE JUMP JUMPDEST SWAP2 POP POP PUSH2 0x1A86 JUMP JUMPDEST PUSH1 0xD SLOAD PUSH1 0xFF AND ISZERO PUSH2 0x1B85 JUMPI PUSH1 0x40 MLOAD PUSH3 0x461BCD PUSH1 0xE5 SHL DUP2 MSTORE PUSH1 0x4 ADD PUSH2 0x10AB SWAP1 PUSH2 0x50CB JUMP JUMPDEST PUSH1 0x12 SLOAD PUSH1 0xF SLOAD CALLER SWAP2 GT PUSH2 0x1BD3 JUMPI PUSH1 0x40 MLOAD PUSH3 0x461BCD PUSH1 0xE5 SHL DUP2 MSTORE PUSH1 0x20 PUSH1 0x4 DUP3 ADD MSTORE PUSH1 0x16 PUSH1 0x24 DUP3 ADD MSTORE PUSH22 0x13585E08109C995959081B1A5B5A5D08195E18D95959 PUSH1 0x52 SHL PUSH1 0x44 DUP3 ADD MSTORE PUSH1 0x64 ADD PUSH2 0x10AB JUMP JUMPDEST PUSH2 0x1BDE PUSH1 0x2 DUP5 PUSH2 0x52F9 JUMP JUMPDEST ISZERO DUP1 ISZERO PUSH2 0x1BF5 JUMPI POP PUSH2 0x1BF1 PUSH1 0x2 DUP4 PUSH2 0x52F9 JUMP JUMPDEST PUSH1 0x1 EQ JUMPDEST PUSH2 0x1C3D JUMPI PUSH1 0x40 MLOAD PUSH3 0x461BCD PUSH1 0xE5 SHL DUP2 MSTORE PUSH1 0x20 PUSH1 0x4 DUP3 ADD MSTORE PUSH1 0x19 PUSH1 0x24 DUP3 ADD MSTORE PUSH25 0x13585B19481BDC8811995B585B19481A59081A5B9D985B1A59 PUSH1 0x3A SHL PUSH1 0x44 DUP3 ADD MSTORE PUSH1 0x64 ADD PUSH2 0x10AB JUMP JUMPDEST PUSH1 0x17 SLOAD PUSH1 0x1 PUSH1 0x1 PUSH1 0xA0 SHL SUB DUP3 AND PUSH1 0x0 SWAP1 DUP2 MSTORE PUSH2 0xBD9 PUSH1 0x20 MSTORE PUSH1 0x40 SWAP1 KECCAK256 SLOAD LT PUSH2 0x1CB2 JUMPI PUSH1 0x40 MLOAD PUSH3 0x461BCD PUSH1 0xE5 SHL DUP2 MSTORE PUSH1 0x20 PUSH1 0x4 DUP3 ADD MSTORE PUSH1 0x22 PUSH1 0x24 DUP3 ADD MSTORE PUSH32 0x4D61782042726565642070657220706572736F6E204C696D6974207265616368 PUSH1 0x44 DUP3 ADD MSTORE PUSH2 0x1959 PUSH1 0xF2 SHL PUSH1 0x64 DUP3 ADD MSTORE PUSH1 0x84 ADD PUSH2 0x10AB JUMP JUMPDEST PUSH1 0x1 PUSH1 0x1 PUSH1 0xA0 SHL SUB DUP2 AND PUSH1 0x0 SWAP1 DUP2 MSTORE PUSH2 0xBD9 PUSH1 0x20 MSTORE PUSH1 0x40 SWAP1 KECCAK256 PUSH1 0x3 ADD SLOAD PUSH1 0xFF AND PUSH2 0x1D11 JUMPI PUSH1 0x40 MLOAD PUSH3 0x461BCD PUSH1 0xE5 SHL DUP2 MSTORE PUSH1 0x20 PUSH1 0x4 DUP3 ADD MSTORE PUSH1 0x10 PUSH1 0x24 DUP3 ADD MSTORE PUSH16 0x11D95CDD185D1A5BDB8819985A5B1959 PUSH1 0x82 SHL PUSH1 0x44 DUP3 ADD MSTORE PUSH1 0x64 ADD PUSH2 0x10AB JUMP JUMPDEST PUSH1 0x14 SLOAD PUSH1 0x1 PUSH1 0x1 PUSH1 0xA0 SHL SUB DUP3 AND PUSH1 0x0 SWAP1 DUP2 MSTORE PUSH2 0xBD9 PUSH1 0x20 MSTORE PUSH1 0x40 SWAP1 KECCAK256 PUSH1 0x2 ADD SLOAD TIMESTAMP SWAP2 PUSH2 0x1D3C SWAP2 PUSH2 0x51FE JUMP JUMPDEST LT PUSH2 0x1D81 JUMPI PUSH1 0x40 MLOAD PUSH3 0x461BCD PUSH1 0xE5 SHL DUP2 MSTORE PUSH1 0x20 PUSH1 0x4 DUP3 ADD MSTORE PUSH1 0x15 PUSH1 0x24 DUP3 ADD MSTORE PUSH21 0x11D95CDD185D1A5BDB881D1A5B594819985A5B1959 PUSH1 0x5A SHL PUSH1 0x44 DUP3 ADD MSTORE PUSH1 0x64 ADD PUSH2 0x10AB JUMP JUMPDEST DUP1 PUSH1 0x1 PUSH1 0x1 PUSH1 0xA0 SHL SUB AND PUSH2 0x1D94 DUP5 PUSH2 0x19A3 JUMP JUMPDEST PUSH1 0x1 PUSH1 0x1 PUSH1 0xA0 SHL SUB AND EQ DUP1 ISZERO PUSH2 0x1DC3 JUMPI POP DUP1 PUSH1 0x1 PUSH1 0x1 PUSH1 0xA0 SHL SUB AND PUSH2 0x1DB8 DUP4 PUSH2 0x19A3 JUMP JUMPDEST PUSH1 0x1 PUSH1 0x1 PUSH1 0xA0 SHL SUB AND EQ JUMPDEST PUSH2 0x1E0F JUMPI PUSH1 0x40 MLOAD PUSH3 0x461BCD PUSH1 0xE5 SHL DUP2 MSTORE PUSH1 0x20 PUSH1 0x4 DUP3 ADD MSTORE PUSH1 0x1B PUSH1 0x24 DUP3 ADD MSTORE PUSH32 0x63616C6C61626C65206164647265737320697320696E7661696C640000000000 PUSH1 0x44 DUP3 ADD MSTORE PUSH1 0x64 ADD PUSH2 0x10AB JUMP JUMPDEST PUSH2 0x1E18 DUP4 PUSH2 0x1461 JUMP JUMPDEST DUP1 ISZERO PUSH2 0x1E28 JUMPI POP PUSH2 0x1E28 DUP3 PUSH2 0x1461 JUMP JUMPDEST PUSH2 0x1E6D JUMPI PUSH1 0x40 MLOAD PUSH3 0x461BCD PUSH1 0xE5 SHL DUP2 MSTORE PUSH1 0x20 PUSH1 0x4 DUP3 ADD MSTORE PUSH1 0x16 PUSH1 0x24 DUP3 ADD MSTORE PUSH22 0x139BDD08195B1A59DA589B1948199BDC88189C995959 PUSH1 0x52 SHL PUSH1 0x44 DUP3 ADD MSTORE PUSH1 0x64 ADD PUSH2 0x10AB JUMP JUMPDEST PUSH1 0x0 DUP4 DUP2 MSTORE PUSH2 0xBDA PUSH1 0x20 SWAP1 DUP2 MSTORE PUSH1 0x40 SWAP2 DUP3 SWAP1 KECCAK256 SWAP2 MLOAD PUSH4 0x310C3571 PUSH1 0xE0 SHL SWAP3 PUSH2 0x1E97 SWAP3 SWAP1 SWAP2 ADD PUSH2 0x4F0E JUMP JUMPDEST PUSH1 0x40 MLOAD PUSH1 0x20 DUP2 DUP4 SUB SUB DUP2 MSTORE SWAP1 PUSH1 0x40 MSTORE DUP1 MLOAD SWAP1 PUSH1 0x20 ADD KECCAK256 PUSH1 0x1 PUSH1 0x1 PUSH1 0xE0 SHL SUB NOT AND EQ PUSH2 0x1F04 JUMPI PUSH1 0x40 MLOAD PUSH3 0x461BCD PUSH1 0xE5 SHL DUP2 MSTORE PUSH1 0x20 PUSH1 0x4 DUP3 ADD MSTORE PUSH1 0x1C PUSH1 0x24 DUP3 ADD MSTORE PUSH32 0x4D656E204E46542073686F756C64206F6E6C792063616C6C61626C6500000000 PUSH1 0x44 DUP3 ADD MSTORE PUSH1 0x64 ADD PUSH2 0x10AB JUMP JUMPDEST PUSH1 0x0 DUP3 DUP2 MSTORE PUSH2 0xBDA PUSH1 0x20 SWAP1 DUP2 MSTORE PUSH1 0x40 SWAP2 DUP3 SWAP1 KECCAK256 SWAP2 MLOAD PUSH4 0xAE55A4D PUSH1 0xE2 SHL SWAP3 PUSH2 0x1F2E SWAP3 SWAP1 SWAP2 ADD PUSH2 0x4F0E JUMP JUMPDEST PUSH1 0x40 MLOAD PUSH1 0x20 DUP2 DUP4 SUB SUB DUP2 MSTORE SWAP1 PUSH1 0x40 MSTORE DUP1 MLOAD SWAP1 PUSH1 0x20 ADD KECCAK256 PUSH1 0x1 PUSH1 0x1 PUSH1 0xE0 SHL SUB NOT AND EQ PUSH2 0x1F9B JUMPI PUSH1 0x40 MLOAD PUSH3 0x461BCD PUSH1 0xE5 SHL DUP2 MSTORE PUSH1 0x20 PUSH1 0x4 DUP3 ADD MSTORE PUSH1 0x1F PUSH1 0x24 DUP3 ADD MSTORE PUSH32 0x46656D616C65204E46542073686F756C64206F6E6C792063616C6C61626C6500 PUSH1 0x44 DUP3 ADD MSTORE PUSH1 0x64 ADD PUSH2 0x10AB JUMP JUMPDEST PUSH1 0x0 DUP3 DUP2 MSTORE PUSH2 0xBDA PUSH1 0x20 MSTORE PUSH1 0x40 DUP1 DUP3 KECCAK256 PUSH1 0x4 SWAP1 DUP2 ADD SLOAD DUP7 DUP5 MSTORE SWAP2 SWAP1 SWAP3 KECCAK256 SWAP1 SWAP2 ADD SLOAD EQ PUSH2 0x2009 JUMPI PUSH1 0x40 MLOAD PUSH3 0x461BCD PUSH1 0xE5 SHL DUP2 MSTORE PUSH1 0x20 PUSH1 0x4 DUP3 ADD DUP2 SWAP1 MSTORE PUSH1 0x24 DUP3 ADD MSTORE PUSH32 0x4272656564206973206E6F742070726F63656564207769746820706172656E74 PUSH1 0x44 DUP3 ADD MSTORE PUSH1 0x64 ADD PUSH2 0x10AB JUMP JUMPDEST PUSH1 0xD SLOAD PUSH2 0x100 SWAP1 DIV PUSH1 0x1 PUSH1 0x1 PUSH1 0xA0 SHL SUB AND PUSH1 0x1 PUSH1 0x1 PUSH1 0xA0 SHL SUB AND CALLER PUSH1 0x1 PUSH1 0x1 PUSH1 0xA0 SHL SUB AND EQ PUSH2 0x20A0 JUMPI PUSH1 0x16 SLOAD CALLVALUE LT ISZERO PUSH2 0x207D JUMPI PUSH1 0x40 MLOAD PUSH3 0x461BCD PUSH1 0xE5 SHL DUP2 MSTORE PUSH1 0x20 PUSH1 0x4 DUP3 ADD MSTORE PUSH1 0x16 PUSH1 0x24 DUP3 ADD MSTORE PUSH22 0x1D1BDAD95B88141C9A58D9481A5CC81A5B9D985B1A59 PUSH1 0x52 SHL PUSH1 0x44 DUP3 ADD MSTORE PUSH1 0x64 ADD PUSH2 0x10AB JUMP JUMPDEST PUSH2 0xBD6 SLOAD PUSH2 0x209B SWAP1 PUSH1 0x1 PUSH1 0x20 SHL SWAP1 DIV PUSH1 0x1 PUSH1 0x1 PUSH1 0xA0 SHL SUB AND CALLVALUE PUSH2 0x3788 JUMP JUMPDEST PUSH2 0x20C4 JUMP JUMPDEST CALLVALUE ISZERO PUSH2 0x20C4 JUMPI PUSH2 0xBD6 SLOAD PUSH2 0x20C4 SWAP1 PUSH1 0x1 PUSH1 0x20 SHL SWAP1 DIV PUSH1 0x1 PUSH1 0x1 PUSH1 0xA0 SHL SUB AND CALLVALUE PUSH2 0x3788 JUMP JUMPDEST PUSH1 0x0 PUSH1 0x11 SLOAD PUSH1 0xF SLOAD PUSH2 0x20D6 SWAP2 SWAP1 PUSH2 0x51FE JUMP JUMPDEST PUSH2 0x20E1 SWAP1 PUSH1 0x1 PUSH2 0x51FE JUMP JUMPDEST SWAP1 POP PUSH2 0x20ED DUP3 DUP3 PUSH2 0x38A1 JUMP JUMPDEST PUSH1 0x40 MLOAD DUP2 DUP2 MSTORE PUSH32 0x5297781EC3BE961005343C79526E11FA2C29F53380C82E2BEAFDD9372BD75BE SWAP1 PUSH1 0x20 ADD PUSH1 0x40 MLOAD DUP1 SWAP2 SUB SWAP1 LOG1 PUSH2 0x213F DUP2 PUSH1 0x0 SWAP1 DUP2 MSTORE PUSH1 0x7 PUSH1 0x20 MSTORE PUSH1 0x40 SWAP1 KECCAK256 DUP1 SLOAD PUSH1 0xFF NOT AND PUSH1 0x1 OR SWAP1 SSTORE JUMP JUMPDEST PUSH1 0x0 PUSH2 0x214C PUSH1 0x2 DUP4 PUSH2 0x52F9 JUMP JUMPDEST ISZERO PUSH2 0x2175 JUMPI PUSH1 0x40 MLOAD DUP1 PUSH1 0x40 ADD PUSH1 0x40 MSTORE DUP1 PUSH1 0x6 DUP2 MSTORE PUSH1 0x20 ADD PUSH6 0x46656D616C65 PUSH1 0xD0 SHL DUP2 MSTORE POP PUSH2 0x2193 JUMP JUMPDEST PUSH1 0x40 MLOAD DUP1 PUSH1 0x40 ADD PUSH1 0x40 MSTORE DUP1 PUSH1 0x4 DUP2 MSTORE PUSH1 0x20 ADD PUSH4 0x4D616C65 PUSH1 0xE0 SHL DUP2 MSTORE POP JUMPDEST CALLER PUSH1 0x0 SWAP1 DUP2 MSTORE PUSH2 0xBDB PUSH1 0x20 SWAP1 DUP2 MSTORE PUSH1 0x40 DUP1 DUP4 KECCAK256 DUP1 SLOAD PUSH1 0x1 DUP2 DUP2 ADD DUP4 SSTORE SWAP2 DUP6 MSTORE DUP4 DUP6 KECCAK256 ADD DUP8 SWAP1 SSTORE DUP2 MLOAD PUSH1 0xC0 DUP2 ADD DUP4 MSTORE DUP6 DUP2 MSTORE TIMESTAMP DUP2 DUP6 ADD MSTORE DUP1 DUP4 ADD DUP11 SWAP1 MSTORE PUSH1 0x60 DUP2 ADD DUP12 SWAP1 MSTORE DUP11 DUP6 MSTORE PUSH2 0xBDA SWAP1 SWAP4 MSTORE SWAP3 KECCAK256 PUSH1 0x4 ADD SLOAD SWAP3 SWAP4 POP SWAP2 PUSH1 0x80 DUP4 ADD SWAP2 PUSH2 0x21F8 SWAP2 SWAP1 PUSH2 0x51FE JUMP JUMPDEST DUP2 MSTORE PUSH1 0x0 PUSH1 0x20 SWAP2 DUP3 ADD DUP2 SWAP1 MSTORE DUP5 DUP2 MSTORE PUSH2 0xBDA DUP3 MSTORE PUSH1 0x40 SWAP1 KECCAK256 DUP3 MLOAD DUP1 MLOAD SWAP2 SWAP3 PUSH2 0x2225 SWAP3 DUP5 SWAP3 SWAP1 SWAP2 ADD SWAP1 PUSH2 0x4A39 JUMP JUMPDEST POP PUSH1 0x20 DUP3 ADD MLOAD DUP2 PUSH1 0x1 ADD SSTORE PUSH1 0x40 DUP3 ADD MLOAD DUP2 PUSH1 0x2 ADD SSTORE PUSH1 0x60 DUP3 ADD MLOAD DUP2 PUSH1 0x3 ADD SSTORE PUSH1 0x80 DUP3 ADD MLOAD DUP2 PUSH1 0x4 ADD SSTORE PUSH1 0xA0 DUP3 ADD MLOAD DUP2 PUSH1 0x5 ADD SSTORE SWAP1 POP POP PUSH1 0x40 MLOAD DUP1 PUSH1 0x80 ADD PUSH1 0x40 MSTORE DUP1 PUSH2 0xBD9 PUSH1 0x0 DUP7 PUSH1 0x1 PUSH1 0x1 PUSH1 0xA0 SHL SUB AND PUSH1 0x1 PUSH1 0x1 PUSH1 0xA0 SHL SUB AND DUP2 MSTORE PUSH1 0x20 ADD SWAP1 DUP2 MSTORE PUSH1 0x20 ADD PUSH1 0x0 KECCAK256 PUSH1 0x0 ADD SLOAD PUSH1 0x1 PUSH2 0x229C SWAP2 SWAP1 PUSH2 0x51FE JUMP JUMPDEST DUP2 MSTORE PUSH1 0x20 ADD PUSH2 0xBD9 PUSH1 0x0 DUP7 PUSH1 0x1 PUSH1 0x1 PUSH1 0xA0 SHL SUB AND PUSH1 0x1 PUSH1 0x1 PUSH1 0xA0 SHL SUB AND DUP2 MSTORE PUSH1 0x20 ADD SWAP1 DUP2 MSTORE PUSH1 0x20 ADD PUSH1 0x0 KECCAK256 PUSH1 0x1 ADD SLOAD PUSH1 0x1 PUSH2 0x22D7 SWAP2 SWAP1 PUSH2 0x51FE JUMP JUMPDEST DUP2 MSTORE TIMESTAMP PUSH1 0x20 DUP1 DUP4 ADD SWAP2 SWAP1 SWAP2 MSTORE PUSH1 0x0 PUSH1 0x40 SWAP3 DUP4 ADD DUP2 SWAP1 MSTORE PUSH1 0x1 PUSH1 0x1 PUSH1 0xA0 SHL SUB DUP8 AND DUP2 MSTORE PUSH2 0xBD9 DUP3 MSTORE DUP3 DUP2 KECCAK256 DUP5 MLOAD DUP2 SSTORE SWAP2 DUP5 ADD MLOAD PUSH1 0x1 DUP4 ADD SSTORE SWAP2 DUP4 ADD MLOAD PUSH1 0x2 DUP3 ADD SSTORE PUSH1 0x60 SWAP1 SWAP3 ADD MLOAD PUSH1 0x3 SWAP1 SWAP3 ADD DUP1 SLOAD PUSH1 0xFF NOT AND SWAP3 ISZERO ISZERO SWAP3 SWAP1 SWAP3 OR SWAP1 SWAP2 SSTORE PUSH1 0xF DUP1 SLOAD SWAP2 PUSH2 0x2340 DUP4 PUSH2 0x52DE JUMP JUMPDEST SWAP1 SWAP2 SSTORE POP POP PUSH1 0xE DUP1 SLOAD SWAP1 PUSH1 0x0 PUSH2 0x2355 DUP4 PUSH2 0x52DE JUMP JUMPDEST SWAP2 SWAP1 POP SSTORE POP POP POP POP POP POP JUMP JUMPDEST PUSH1 0xD SLOAD PUSH1 0x1 PUSH1 0x1 PUSH1 0xA0 SHL SUB PUSH2 0x100 SWAP1 SWAP2 DIV AND CALLER EQ PUSH2 0x2391 JUMPI PUSH1 0x40 MLOAD PUSH3 0x461BCD PUSH1 0xE5 SHL DUP2 MSTORE PUSH1 0x4 ADD PUSH2 0x10AB SWAP1 PUSH2 0x50F5 JUMP JUMPDEST PUSH1 0x1A SSTORE JUMP JUMPDEST PUSH1 0xD SLOAD PUSH1 0x1 PUSH1 0x1 PUSH1 0xA0 SHL SUB PUSH2 0x100 SWAP1 SWAP2 DIV AND CALLER EQ PUSH2 0x23C6 JUMPI PUSH1 0x40 MLOAD PUSH3 0x461BCD PUSH1 0xE5 SHL DUP2 MSTORE PUSH1 0x4 ADD PUSH2 0x10AB SWAP1 PUSH2 0x50F5 JUMP JUMPDEST PUSH2 0x155B PUSH2 0x38BB JUMP JUMPDEST PUSH1 0xD SLOAD PUSH1 0x1 PUSH1 0x1 PUSH1 0xA0 SHL SUB PUSH2 0x100 SWAP1 SWAP2 DIV AND CALLER EQ PUSH2 0x23FE JUMPI PUSH1 0x40 MLOAD PUSH3 0x461BCD PUSH1 0xE5 SHL DUP2 MSTORE PUSH1 0x4 ADD PUSH2 0x10AB SWAP1 PUSH2 0x50F5 JUMP JUMPDEST PUSH1 0x14 SSTORE JUMP JUMPDEST PUSH1 0x60 PUSH1 0x1 DUP1 SLOAD PUSH2 0xFC0 SWAP1 PUSH2 0x52A3 JUMP JUMPDEST PUSH2 0xBD6 SLOAD PUSH4 0x1000000 SWAP1 DIV PUSH1 0xFF AND ISZERO PUSH2 0x245E JUMPI PUSH1 0x40 MLOAD PUSH3 0x461BCD PUSH1 0xE5 SHL DUP2 MSTORE PUSH1 0x20 PUSH1 0x4 DUP3 ADD MSTORE PUSH1 0xE PUSH1 0x24 DUP3 ADD MSTORE PUSH14 0x141C995CD85B194814185D5CD959 PUSH1 0x92 SHL PUSH1 0x44 DUP3 ADD MSTORE PUSH1 0x64 ADD PUSH2 0x10AB JUMP JUMPDEST CALLER PUSH1 0x0 SWAP1 DUP2 MSTORE PUSH2 0xBD8 PUSH1 0x20 MSTORE PUSH1 0x40 SWAP1 KECCAK256 SLOAD PUSH1 0xFF AND PUSH2 0x24B1 JUMPI PUSH1 0x40 MLOAD PUSH3 0x461BCD PUSH1 0xE5 SHL DUP2 MSTORE PUSH1 0x20 PUSH1 0x4 DUP3 ADD MSTORE PUSH1 0x10 PUSH1 0x24 DUP3 ADD MSTORE PUSH16 0x556E61626C6520746F20616363657373 PUSH1 0x80 SHL PUSH1 0x44 DUP3 ADD MSTORE PUSH1 0x64 ADD PUSH2 0x10AB JUMP JUMPDEST PUSH1 0x1C SLOAD DUP2 GT ISZERO PUSH2 0x24D3 JUMPI PUSH1 0x40 MLOAD PUSH3 0x461BCD PUSH1 0xE5 SHL DUP2 MSTORE PUSH1 0x4 ADD PUSH2 0x10AB SWAP1 PUSH2 0x517B JUMP JUMPDEST PUSH1 0x18 SLOAD DUP2 PUSH1 0x10 SLOAD PUSH2 0x24E4 SWAP2 SWAP1 PUSH2 0x51FE JUMP JUMPDEST GT ISZERO PUSH2 0x2532 JUMPI PUSH1 0x40 MLOAD PUSH3 0x461BCD PUSH1 0xE5 SHL DUP2 MSTORE PUSH1 0x20 PUSH1 0x4 DUP3 ADD MSTORE PUSH1 0x1B PUSH1 0x24 DUP3 ADD MSTORE PUSH32 0x57686974656C697374204E4654206C696D697420726561636865640000000000 PUSH1 0x44 DUP3 ADD MSTORE PUSH1 0x64 ADD PUSH2 0x10AB JUMP JUMPDEST TIMESTAMP PUSH1 0x1A SLOAD PUSH1 0x1B SLOAD PUSH2 0x2543 SWAP2 SWAP1 PUSH2 0x51FE JUMP JUMPDEST GT PUSH2 0x2582 JUMPI PUSH1 0x40 MLOAD PUSH3 0x461BCD PUSH1 0xE5 SHL DUP2 MSTORE PUSH1 0x20 PUSH1 0x4 DUP3 ADD MSTORE PUSH1 0xF PUSH1 0x24 DUP3 ADD MSTORE PUSH15 0x141C995CD85B1948195E1C1A5C9959 PUSH1 0x8A SHL PUSH1 0x44 DUP3 ADD MSTORE PUSH1 0x64 ADD PUSH2 0x10AB JUMP JUMPDEST PUSH1 0xD SLOAD PUSH2 0x100 SWAP1 DIV PUSH1 0x1 PUSH1 0x1 PUSH1 0xA0 SHL SUB AND PUSH1 0x1 PUSH1 0x1 PUSH1 0xA0 SHL SUB AND CALLER PUSH1 0x1 PUSH1 0x1 PUSH1 0xA0 SHL SUB AND EQ PUSH2 0x2621 JUMPI PUSH1 0x15 SLOAD CALLVALUE SWAP1 PUSH2 0x25BA SWAP1 DUP4 PUSH2 0x3913 JUMP JUMPDEST GT ISZERO PUSH2 0x25FE JUMPI PUSH1 0x40 MLOAD PUSH3 0x461BCD PUSH1 0xE5 SHL DUP2 MSTORE PUSH1 0x20 PUSH1 0x4 DUP3 ADD MSTORE PUSH1 0x13 PUSH1 0x24 DUP3 ADD MSTORE PUSH19 0x496E76616C696420546F6B656E205072696365 PUSH1 0x68 SHL PUSH1 0x44 DUP3 ADD MSTORE PUSH1 0x64 ADD PUSH2 0x10AB JUMP JUMPDEST PUSH2 0xBD6 SLOAD PUSH2 0x261C SWAP1 PUSH1 0x1 PUSH1 0x20 SHL SWAP1 DIV PUSH1 0x1 PUSH1 0x1 PUSH1 0xA0 SHL SUB AND CALLVALUE PUSH2 0x3788 JUMP JUMPDEST PUSH2 0x2645 JUMP JUMPDEST CALLVALUE ISZERO PUSH2 0x2645 JUMPI PUSH2 0xBD6 SLOAD PUSH2 0x2645 SWAP1 PUSH1 0x1 PUSH1 0x20 SHL SWAP1 DIV PUSH1 0x1 PUSH1 0x1 PUSH1 0xA0 SHL SUB AND CALLVALUE PUSH2 0x3788 JUMP JUMPDEST PUSH1 0x0 JUMPDEST DUP2 DUP2 LT ISZERO PUSH2 0x11E1 JUMPI PUSH1 0x10 DUP1 SLOAD SWAP1 PUSH1 0x0 PUSH2 0x2660 DUP4 PUSH2 0x52DE JUMP JUMPDEST SWAP1 SWAP2 SSTORE POP POP PUSH1 0x19 DUP1 SLOAD SWAP1 PUSH1 0x0 PUSH2 0x2675 DUP4 PUSH2 0x52DE JUMP JUMPDEST SWAP2 SWAP1 POP SSTORE POP PUSH2 0x2688 DUP4 PUSH1 0x10 SLOAD PUSH1 0x1 PUSH2 0x3999 JUMP JUMPDEST DUP1 PUSH2 0x2692 DUP2 PUSH2 0x52DE JUMP JUMPDEST SWAP2 POP POP PUSH2 0x2648 JUMP JUMPDEST PUSH1 0xD SLOAD PUSH1 0xFF AND ISZERO PUSH2 0x26BD JUMPI PUSH1 0x40 MLOAD PUSH3 0x461BCD PUSH1 0xE5 SHL DUP2 MSTORE PUSH1 0x4 ADD PUSH2 0x10AB SWAP1 PUSH2 0x50CB JUMP JUMPDEST PUSH1 0x1C SLOAD DUP2 GT ISZERO PUSH2 0x26DF JUMPI PUSH1 0x40 MLOAD PUSH3 0x461BCD PUSH1 0xE5 SHL DUP2 MSTORE PUSH1 0x4 ADD PUSH2 0x10AB SWAP1 PUSH2 0x517B JUMP JUMPDEST PUSH1 0x11 SLOAD DUP2 PUSH1 0x10 SLOAD PUSH2 0x26F0 SWAP2 SWAP1 PUSH2 0x51FE JUMP JUMPDEST GT ISZERO PUSH2 0x274E JUMPI PUSH1 0x40 MLOAD PUSH3 0x461BCD PUSH1 0xE5 SHL DUP2 MSTORE PUSH1 0x20 PUSH1 0x4 DUP3 ADD MSTORE PUSH1 0x27 PUSH1 0x24 DUP3 ADD MSTORE PUSH32 0x546F74616C204E4654206C696D697420657863656564656420696E207075626C PUSH1 0x44 DUP3 ADD MSTORE PUSH7 0x69632073616C65 PUSH1 0xC8 SHL PUSH1 0x64 DUP3 ADD MSTORE PUSH1 0x84 ADD PUSH2 0x10AB JUMP JUMPDEST PUSH2 0xBD6 SLOAD PUSH3 0x10000 SWAP1 DIV PUSH1 0xFF AND PUSH2 0x27A7 JUMPI PUSH1 0x40 MLOAD PUSH3 0x461BCD PUSH1 0xE5 SHL DUP2 MSTORE PUSH1 0x20 PUSH1 0x4 DUP3 ADD MSTORE PUSH1 0x1A PUSH1 0x24 DUP3 ADD MSTORE PUSH32 0x5075626C69632073616C65206D75737420626520616374697665000000000000 PUSH1 0x44 DUP3 ADD MSTORE PUSH1 0x64 ADD PUSH2 0x10AB JUMP JUMPDEST PUSH1 0xD SLOAD PUSH1 0x1 PUSH1 0x1 PUSH1 0xA0 SHL SUB DUP4 DUP2 AND PUSH2 0x100 SWAP1 SWAP3 DIV AND EQ PUSH2 0x2836 JUMPI PUSH1 0x15 SLOAD PUSH2 0x27CE SWAP1 DUP3 PUSH2 0x3913 JUMP JUMPDEST CALLVALUE EQ PUSH2 0x2813 JUMPI PUSH1 0x40 MLOAD PUSH3 0x461BCD PUSH1 0xE5 SHL DUP2 MSTORE PUSH1 0x20 PUSH1 0x4 DUP3 ADD MSTORE PUSH1 0x14 PUSH1 0x24 DUP3 ADD MSTORE PUSH20 0x24B73B30B634B2103A37B5B2B710383934B1B297 PUSH1 0x61 SHL PUSH1 0x44 DUP3 ADD MSTORE PUSH1 0x64 ADD PUSH2 0x10AB JUMP JUMPDEST PUSH2 0xBD6 SLOAD PUSH2 0x2831 SWAP1 PUSH1 0x1 PUSH1 0x20 SHL SWAP1 DIV PUSH1 0x1 PUSH1 0x1 PUSH1 0xA0 SHL SUB AND CALLVALUE PUSH2 0x3788 JUMP JUMPDEST PUSH2 0x285A JUMP JUMPDEST CALLVALUE ISZERO PUSH2 0x285A JUMPI PUSH2 0xBD6 SLOAD PUSH2 0x285A SWAP1 PUSH1 0x1 PUSH1 0x20 SHL SWAP1 DIV PUSH1 0x1 PUSH1 0x1 PUSH1 0xA0 SHL SUB AND CALLVALUE PUSH2 0x3788 JUMP JUMPDEST PUSH1 0x1 JUMPDEST DUP2 DUP2 GT PUSH2 0x11E1 JUMPI PUSH1 0x0 PUSH2 0x2870 PUSH1 0x0 PUSH2 0x3B44 JUMP JUMPDEST SWAP1 POP PUSH2 0x287B DUP2 PUSH2 0x352C JUMP JUMPDEST PUSH2 0x2890 JUMPI PUSH2 0x288B DUP5 DUP3 PUSH1 0x0 PUSH2 0x3999 JUMP JUMPDEST PUSH2 0x289E JUMP JUMPDEST DUP2 PUSH2 0x289A DUP2 PUSH2 0x528C JUMP JUMPDEST SWAP3 POP POP JUMPDEST POP DUP1 PUSH2 0x28A9 DUP2 PUSH2 0x52DE JUMP JUMPDEST SWAP2 POP POP PUSH2 0x285D JUMP JUMPDEST PUSH1 0x1E DUP2 PUSH2 0xBB8 DUP2 LT PUSH2 0x28C2 JUMPI PUSH1 0x0 DUP1 REVERT JUMPDEST ADD SLOAD SWAP1 POP DUP2 JUMP JUMPDEST PUSH1 0x1 PUSH1 0x1 PUSH1 0xA0 SHL SUB DUP3 AND CALLER EQ ISZERO PUSH2 0x2922 JUMPI PUSH1 0x40 MLOAD PUSH3 0x461BCD PUSH1 0xE5 SHL DUP2 MSTORE PUSH1 0x20 PUSH1 0x4 DUP3 ADD MSTORE PUSH1 0x19 PUSH1 0x24 DUP3 ADD MSTORE PUSH32 0x4552433732313A20617070726F766520746F2063616C6C657200000000000000 PUSH1 0x44 DUP3 ADD MSTORE PUSH1 0x64 ADD PUSH2 0x10AB JUMP JUMPDEST CALLER PUSH1 0x0 DUP2 DUP2 MSTORE PUSH1 0x6 PUSH1 0x20 SWAP1 DUP2 MSTORE PUSH1 0x40 DUP1 DUP4 KECCAK256 PUSH1 0x1 PUSH1 0x1 PUSH1 0xA0 SHL SUB DUP8 AND DUP1 DUP6 MSTORE SWAP1 DUP4 MSTORE SWAP3 DUP2 SWAP1 KECCAK256 DUP1 SLOAD PUSH1 0xFF NOT AND DUP7 ISZERO ISZERO SWAP1 DUP2 OR SWAP1 SWAP2 SSTORE SWAP1 MLOAD SWAP1 DUP2 MSTORE SWAP2 SWAP3 SWAP2 PUSH32 0x17307EAB39AB6107E8899845AD3D59BD9653F200F220920489CA2B5937696C31 SWAP2 ADD PUSH1 0x40 MLOAD DUP1 SWAP2 SUB SWAP1 LOG3 POP POP JUMP JUMPDEST PUSH1 0xD SLOAD PUSH1 0x1 PUSH1 0x1 PUSH1 0xA0 SHL SUB PUSH2 0x100 SWAP1 SWAP2 DIV AND CALLER EQ PUSH2 0x29BE JUMPI PUSH1 0x40 MLOAD PUSH3 0x461BCD PUSH1 0xE5 SHL DUP2 MSTORE PUSH1 0x4 ADD PUSH2 0x10AB SWAP1 PUSH2 0x50F5 JUMP JUMPDEST PUSH2 0xBD6 DUP1 SLOAD PUSH1 0xFF NOT AND SWAP2 ISZERO ISZERO SWAP2 SWAP1 SWAP2 OR SWAP1 SSTORE JUMP JUMPDEST PUSH1 0xD SLOAD PUSH1 0x1 PUSH1 0x1 PUSH1 0xA0 SHL SUB PUSH2 0x100 SWAP1 SWAP2 DIV AND CALLER EQ PUSH2 0x2A02 JUMPI PUSH1 0x40 MLOAD PUSH3 0x461BCD PUSH1 0xE5 SHL DUP2 MSTORE PUSH1 0x4 ADD PUSH2 0x10AB SWAP1 PUSH2 0x50F5 JUMP JUMPDEST PUSH2 0x1688 DUP2 PUSH2 0x3D1B JUMP JUMPDEST PUSH2 0x2A15 CALLER DUP4 PUSH2 0x3695 JUMP JUMPDEST PUSH2 0x2A31 JUMPI PUSH1 0x40 MLOAD PUSH3 0x461BCD PUSH1 0xE5 SHL DUP2 MSTORE PUSH1 0x4 ADD PUSH2 0x10AB SWAP1 PUSH2 0x512A JUMP JUMPDEST PUSH2 0x17CB DUP5 DUP5 DUP5 DUP5 PUSH2 0x3D2E JUMP JUMPDEST PUSH1 0xD SLOAD PUSH1 0x1 PUSH1 0x1 PUSH1 0xA0 SHL SUB PUSH2 0x100 SWAP1 SWAP2 DIV AND CALLER EQ PUSH2 0x2A6D JUMPI PUSH1 0x40 MLOAD PUSH3 0x461BCD PUSH1 0xE5 SHL DUP2 MSTORE PUSH1 0x4 ADD PUSH2 0x10AB SWAP1 PUSH2 0x50F5 JUMP JUMPDEST PUSH1 0x40 MLOAD PUSH1 0x1 PUSH1 0x1 PUSH1 0xA0 SHL SUB DUP4 AND SWAP1 DUP3 ISZERO PUSH2 0x8FC MUL SWAP1 DUP4 SWAP1 PUSH1 0x0 DUP2 DUP2 DUP2 DUP6 DUP9 DUP9 CALL SWAP4 POP POP POP POP ISZERO DUP1 ISZERO PUSH2 0x11E1 JUMPI RETURNDATASIZE PUSH1 0x0 DUP1 RETURNDATACOPY RETURNDATASIZE PUSH1 0x0 REVERT JUMPDEST PUSH1 0xD SLOAD PUSH1 0xFF AND ISZERO PUSH2 0x2AC6 JUMPI PUSH1 0x40 MLOAD PUSH3 0x461BCD PUSH1 0xE5 SHL DUP2 MSTORE PUSH1 0x4 ADD PUSH2 0x10AB SWAP1 PUSH2 0x50CB JUMP JUMPDEST PUSH2 0xBD6 SLOAD CALLER SWAP1 PUSH2 0x100 SWAP1 DIV PUSH1 0xFF AND ISZERO PUSH2 0x2B17 JUMPI PUSH1 0x40 MLOAD PUSH3 0x461BCD PUSH1 0xE5 SHL DUP2 MSTORE PUSH1 0x20 PUSH1 0x4 DUP3 ADD MSTORE PUSH1 0x13 PUSH1 0x24 DUP3 ADD MSTORE PUSH19 0x556E61626C6520746F206272656564204E6F77 PUSH1 0x68 SHL PUSH1 0x44 DUP3 ADD MSTORE PUSH1 0x64 ADD PUSH2 0x10AB JUMP JUMPDEST PUSH1 0x12 SLOAD PUSH1 0xF SLOAD LT PUSH2 0x2B5F JUMPI PUSH1 0x40 MLOAD PUSH3 0x461BCD PUSH1 0xE5 SHL DUP2 MSTORE PUSH1 0x20 PUSH1 0x4 DUP3 ADD MSTORE PUSH1 0x12 PUSH1 0x24 DUP3 ADD MSTORE PUSH18 0x189C995959081B1A5B5A5D08195E18D95959 PUSH1 0x72 SHL PUSH1 0x44 DUP3 ADD MSTORE PUSH1 0x64 ADD PUSH2 0x10AB JUMP JUMPDEST PUSH2 0x2B6A PUSH1 0x2 DUP5 PUSH2 0x52F9 JUMP JUMPDEST ISZERO DUP1 ISZERO PUSH2 0x2B81 JUMPI POP PUSH2 0x2B7D PUSH1 0x2 DUP4 PUSH2 0x52F9 JUMP JUMPDEST PUSH1 0x1 EQ JUMPDEST PUSH2 0x2BC9 JUMPI PUSH1 0x40 MLOAD PUSH3 0x461BCD PUSH1 0xE5 SHL DUP2 MSTORE PUSH1 0x20 PUSH1 0x4 DUP3 ADD MSTORE PUSH1 0x19 PUSH1 0x24 DUP3 ADD MSTORE PUSH25 0x13585B19481BDC8811995B585B19481A59081A5B9D985B1A59 PUSH1 0x3A SHL PUSH1 0x44 DUP3 ADD MSTORE PUSH1 0x64 ADD PUSH2 0x10AB JUMP JUMPDEST DUP1 PUSH1 0x1 PUSH1 0x1 PUSH1 0xA0 SHL SUB AND PUSH2 0x2BDC DUP5 PUSH2 0x19A3 JUMP JUMPDEST PUSH1 0x1 PUSH1 0x1 PUSH1 0xA0 SHL SUB AND EQ DUP1 ISZERO PUSH2 0x2C0B JUMPI POP DUP1 PUSH1 0x1 PUSH1 0x1 PUSH1 0xA0 SHL SUB AND PUSH2 0x2C00 DUP4 PUSH2 0x19A3 JUMP JUMPDEST PUSH1 0x1 PUSH1 0x1 PUSH1 0xA0 SHL SUB AND EQ JUMPDEST PUSH2 0x2C57 JUMPI PUSH1 0x40 MLOAD PUSH3 0x461BCD PUSH1 0xE5 SHL DUP2 MSTORE PUSH1 0x20 PUSH1 0x4 DUP3 ADD MSTORE PUSH1 0x1B PUSH1 0x24 DUP3 ADD MSTORE PUSH32 0x63616C6C61626C65206164647265737320697320696E7661696C640000000000 PUSH1 0x44 DUP3 ADD MSTORE PUSH1 0x64 ADD PUSH2 0x10AB JUMP JUMPDEST PUSH1 0x0 DUP4 DUP2 MSTORE PUSH2 0xBDA PUSH1 0x20 SWAP1 DUP2 MSTORE PUSH1 0x40 SWAP2 DUP3 SWAP1 KECCAK256 SWAP2 MLOAD PUSH4 0x310C3571 PUSH1 0xE0 SHL SWAP3 PUSH2 0x2C81 SWAP3 SWAP1 SWAP2 ADD PUSH2 0x4F0E JUMP JUMPDEST PUSH1 0x40 MLOAD PUSH1 0x20 DUP2 DUP4 SUB SUB DUP2 MSTORE SWAP1 PUSH1 0x40 MSTORE DUP1 MLOAD SWAP1 PUSH1 0x20 ADD KECCAK256 PUSH1 0x1 PUSH1 0x1 PUSH1 0xE0 SHL SUB NOT AND EQ PUSH2 0x2CEE JUMPI PUSH1 0x40 MLOAD PUSH3 0x461BCD PUSH1 0xE5 SHL DUP2 MSTORE PUSH1 0x20 PUSH1 0x4 DUP3 ADD MSTORE PUSH1 0x1C PUSH1 0x24 DUP3 ADD MSTORE PUSH32 0x4D656E204E46542073686F756C64206F6E6C792063616C6C61626C6500000000 PUSH1 0x44 DUP3 ADD MSTORE PUSH1 0x64 ADD PUSH2 0x10AB JUMP JUMPDEST PUSH1 0x0 DUP3 DUP2 MSTORE PUSH2 0xBDA PUSH1 0x20 SWAP1 DUP2 MSTORE PUSH1 0x40 SWAP2 DUP3 SWAP1 KECCAK256 SWAP2 MLOAD PUSH4 0xAE55A4D PUSH1 0xE2 SHL SWAP3 PUSH2 0x2D18 SWAP3 SWAP1 SWAP2 ADD PUSH2 0x4F0E JUMP JUMPDEST PUSH1 0x40 MLOAD PUSH1 0x20 DUP2 DUP4 SUB SUB DUP2 MSTORE SWAP1 PUSH1 0x40 MSTORE DUP1 MLOAD SWAP1 PUSH1 0x20 ADD KECCAK256 PUSH1 0x1 PUSH1 0x1 PUSH1 0xE0 SHL SUB NOT AND EQ PUSH2 0x2D85 JUMPI PUSH1 0x40 MLOAD PUSH3 0x461BCD PUSH1 0xE5 SHL DUP2 MSTORE PUSH1 0x20 PUSH1 0x4 DUP3 ADD MSTORE PUSH1 0x1F PUSH1 0x24 DUP3 ADD MSTORE PUSH32 0x46656D616C65204E46542073686F756C64206F6E6C792063616C6C61626C6500 PUSH1 0x44 DUP3 ADD MSTORE PUSH1 0x64 ADD PUSH2 0x10AB JUMP JUMPDEST PUSH1 0x0 DUP3 DUP2 MSTORE PUSH2 0xBDA PUSH1 0x20 MSTORE PUSH1 0x40 DUP1 DUP3 KECCAK256 PUSH1 0x4 SWAP1 DUP2 ADD SLOAD DUP7 DUP5 MSTORE SWAP2 SWAP1 SWAP3 KECCAK256 SWAP1 SWAP2 ADD SLOAD EQ PUSH2 0x2DF3 JUMPI PUSH1 0x40 MLOAD PUSH3 0x461BCD PUSH1 0xE5 SHL DUP2 MSTORE PUSH1 0x20 PUSH1 0x4 DUP3 ADD DUP2 SWAP1 MSTORE PUSH1 0x24 DUP3 ADD MSTORE PUSH32 0x4272656564206973206E6F742070726F63656564207769746820706172656E74 PUSH1 0x44 DUP3 ADD MSTORE PUSH1 0x64 ADD PUSH2 0x10AB JUMP JUMPDEST PUSH1 0x17 SLOAD PUSH1 0x1 PUSH1 0x1 PUSH1 0xA0 SHL SUB DUP3 AND PUSH1 0x0 SWAP1 DUP2 MSTORE PUSH2 0xBD9 PUSH1 0x20 MSTORE PUSH1 0x40 SWAP1 KECCAK256 SLOAD LT PUSH2 0x2E53 JUMPI PUSH1 0x40 MLOAD PUSH3 0x461BCD PUSH1 0xE5 SHL DUP2 MSTORE PUSH1 0x20 PUSH1 0x4 DUP3 ADD MSTORE PUSH1 0x13 PUSH1 0x24 DUP3 ADD MSTORE PUSH19 0x109C995959081B1A5B5A5D081C995858DA1959 PUSH1 0x6A SHL PUSH1 0x44 DUP3 ADD MSTORE PUSH1 0x64 ADD PUSH2 0x10AB JUMP JUMPDEST PUSH1 0x1 PUSH1 0x1 PUSH1 0xA0 SHL SUB DUP2 AND PUSH1 0x0 SWAP1 DUP2 MSTORE PUSH2 0xBD9 PUSH1 0x20 MSTORE PUSH1 0x40 SWAP1 KECCAK256 PUSH1 0x3 ADD SLOAD PUSH1 0xFF AND ISZERO PUSH2 0x2EB7 JUMPI PUSH1 0x40 MLOAD PUSH3 0x461BCD PUSH1 0xE5 SHL DUP2 MSTORE PUSH1 0x20 PUSH1 0x4 DUP3 ADD MSTORE PUSH1 0x14 PUSH1 0x24 DUP3 ADD MSTORE PUSH20 0x20B63932B0B23C9034B71033B2B9BA30BA34B7B7 PUSH1 0x61 SHL PUSH1 0x44 DUP3 ADD MSTORE PUSH1 0x64 ADD PUSH2 0x10AB JUMP JUMPDEST PUSH1 0x0 DUP4 DUP2 MSTORE PUSH2 0xBDA PUSH1 0x20 MSTORE PUSH1 0x40 SWAP1 KECCAK256 PUSH1 0x3 ADD SLOAD ISZERO DUP1 ISZERO SWAP1 PUSH2 0x2EE9 JUMPI POP PUSH1 0x0 DUP3 DUP2 MSTORE PUSH2 0xBDA PUSH1 0x20 MSTORE PUSH1 0x40 SWAP1 KECCAK256 PUSH1 0x3 ADD SLOAD ISZERO ISZERO JUMPDEST ISZERO PUSH2 0x2F4C JUMPI PUSH2 0x2EF7 DUP4 PUSH2 0x1461 JUMP JUMPDEST DUP1 ISZERO PUSH2 0x2F07 JUMPI POP PUSH2 0x2F07 DUP3 PUSH2 0x1461 JUMP JUMPDEST PUSH2 0x2F4C JUMPI PUSH1 0x40 MLOAD PUSH3 0x461BCD PUSH1 0xE5 SHL DUP2 MSTORE PUSH1 0x20 PUSH1 0x4 DUP3 ADD MSTORE PUSH1 0x16 PUSH1 0x24 DUP3 ADD MSTORE PUSH22 0x139BDD08195B1A59DA589B1948199BDC88189C995959 PUSH1 0x52 SHL PUSH1 0x44 DUP3 ADD MSTORE PUSH1 0x64 ADD PUSH2 0x10AB JUMP JUMPDEST PUSH1 0x1 PUSH1 0x1 PUSH1 0xA0 SHL SUB DUP2 AND PUSH1 0x0 SWAP1 DUP2 MSTORE PUSH2 0xBD9 PUSH1 0x20 MSTORE PUSH1 0x40 SWAP1 DUP2 SWAP1 KECCAK256 PUSH1 0x3 DUP2 ADD DUP1 SLOAD PUSH1 0xFF NOT AND PUSH1 0x1 OR SWAP1 SSTORE TIMESTAMP PUSH1 0x2 SWAP1 SWAP2 ADD DUP2 SWAP1 SSTORE SWAP1 MLOAD PUSH32 0x286B2734CCBD01D36D37C513D36C69FEC082BE8C3E11A4BC51ACC5577DCC87E5 SWAP2 PUSH2 0x2FB0 SWAP2 SWAP1 DUP2 MSTORE PUSH1 0x20 ADD SWAP1 JUMP JUMPDEST PUSH1 0x40 MLOAD DUP1 SWAP2 SUB SWAP1 LOG1 POP POP POP JUMP JUMPDEST PUSH1 0xD SLOAD PUSH1 0x1 PUSH1 0x1 PUSH1 0xA0 SHL SUB PUSH2 0x100 SWAP1 SWAP2 DIV AND CALLER EQ PUSH2 0x2FED JUMPI PUSH1 0x40 MLOAD PUSH3 0x461BCD PUSH1 0xE5 SHL DUP2 MSTORE PUSH1 0x4 ADD PUSH2 0x10AB SWAP1 PUSH2 0x50F5 JUMP JUMPDEST PUSH1 0x1B SSTORE JUMP JUMPDEST PUSH1 0xD SLOAD PUSH1 0xFF AND ISZERO PUSH2 0x3015 JUMPI PUSH1 0x40 MLOAD PUSH3 0x461BCD PUSH1 0xE5 SHL DUP2 MSTORE PUSH1 0x4 ADD PUSH2 0x10AB SWAP1 PUSH2 0x50CB JUMP JUMPDEST PUSH1 0xD SLOAD PUSH1 0x1 PUSH1 0x1 PUSH1 0xA0 SHL SUB PUSH2 0x100 SWAP1 SWAP2 DIV AND CALLER EQ PUSH2 0x3045 JUMPI PUSH1 0x40 MLOAD PUSH3 0x461BCD PUSH1 0xE5 SHL DUP2 MSTORE PUSH1 0x4 ADD PUSH2 0x10AB SWAP1 PUSH2 0x50F5 JUMP JUMPDEST PUSH1 0x11 SLOAD PUSH1 0x10 SLOAD LT PUSH2 0x308C JUMPI PUSH1 0x40 MLOAD PUSH3 0x461BCD PUSH1 0xE5 SHL DUP2 MSTORE PUSH1 0x20 PUSH1 0x4 DUP3 ADD MSTORE PUSH1 0x11 PUSH1 0x24 DUP3 ADD MSTORE PUSH17 0x13919508131A5B5A5D081C995858DA1959 PUSH1 0x7A SHL PUSH1 0x44 DUP3 ADD MSTORE PUSH1 0x64 ADD PUSH2 0x10AB JUMP JUMPDEST PUSH2 0x196A DUP3 DUP3 PUSH1 0x0 PUSH2 0x3999 JUMP JUMPDEST PUSH1 0xD SLOAD PUSH1 0x1 PUSH1 0x1 PUSH1 0xA0 SHL SUB PUSH2 0x100 SWAP1 SWAP2 DIV AND CALLER EQ PUSH2 0x30C8 JUMPI PUSH1 0x40 MLOAD PUSH3 0x461BCD PUSH1 0xE5 SHL DUP2 MSTORE PUSH1 0x4 ADD PUSH2 0x10AB SWAP1 PUSH2 0x50F5 JUMP JUMPDEST PUSH1 0x11 SSTORE JUMP JUMPDEST PUSH1 0x60 PUSH2 0xEEE DUP3 PUSH2 0x3D61 JUMP JUMPDEST PUSH1 0xD SLOAD PUSH1 0x1 PUSH1 0x1 PUSH1 0xA0 SHL SUB PUSH2 0x100 SWAP1 SWAP2 DIV AND CALLER EQ PUSH2 0x3108 JUMPI PUSH1 0x40 MLOAD PUSH3 0x461BCD PUSH1 0xE5 SHL DUP2 MSTORE PUSH1 0x4 ADD PUSH2 0x10AB SWAP1 PUSH2 0x50F5 JUMP JUMPDEST PUSH2 0xBD6 DUP1 SLOAD SWAP2 ISZERO ISZERO PUSH2 0x100 MUL PUSH2 0xFF00 NOT SWAP1 SWAP3 AND SWAP2 SWAP1 SWAP2 OR SWAP1 SSTORE JUMP JUMPDEST PUSH1 0xD SLOAD PUSH1 0x1 PUSH1 0x1 PUSH1 0xA0 SHL SUB PUSH2 0x100 SWAP1 SWAP2 DIV AND CALLER EQ PUSH2 0x3153 JUMPI PUSH1 0x40 MLOAD PUSH3 0x461BCD PUSH1 0xE5 SHL DUP2 MSTORE PUSH1 0x4 ADD PUSH2 0x10AB SWAP1 PUSH2 0x50F5 JUMP JUMPDEST PUSH1 0x12 SSTORE JUMP JUMPDEST PUSH1 0xD SLOAD PUSH1 0x1 PUSH1 0x1 PUSH1 0xA0 SHL SUB PUSH2 0x100 SWAP1 SWAP2 DIV AND CALLER EQ PUSH2 0x3188 JUMPI PUSH1 0x40 MLOAD PUSH3 0x461BCD PUSH1 0xE5 SHL DUP2 MSTORE PUSH1 0x4 ADD PUSH2 0x10AB SWAP1 PUSH2 0x50F5 JUMP JUMPDEST PUSH1 0x17 SSTORE JUMP JUMPDEST PUSH1 0x1 PUSH1 0x1 PUSH1 0xA0 SHL SUB DUP2 AND PUSH1 0x0 SWAP1 DUP2 MSTORE PUSH2 0xBDB PUSH1 0x20 SWAP1 DUP2 MSTORE PUSH1 0x40 SWAP2 DUP3 SWAP1 KECCAK256 DUP1 SLOAD DUP4 MLOAD DUP2 DUP5 MUL DUP2 ADD DUP5 ADD SWAP1 SWAP5 MSTORE DUP1 DUP5 MSTORE PUSH1 0x60 SWAP4 SWAP3 DUP4 ADD DUP3 DUP3 DUP1 ISZERO PUSH2 0x31EE JUMPI PUSH1 0x20 MUL DUP3 ADD SWAP2 SWAP1 PUSH1 0x0 MSTORE PUSH1 0x20 PUSH1 0x0 KECCAK256 SWAP1 JUMPDEST DUP2 SLOAD DUP2 MSTORE PUSH1 0x20 ADD SWAP1 PUSH1 0x1 ADD SWAP1 DUP1 DUP4 GT PUSH2 0x31DA JUMPI JUMPDEST POP POP POP POP POP SWAP1 POP SWAP2 SWAP1 POP JUMP JUMPDEST PUSH1 0xD SLOAD PUSH1 0x1 PUSH1 0x1 PUSH1 0xA0 SHL SUB PUSH2 0x100 SWAP1 SWAP2 DIV AND CALLER EQ PUSH2 0x322A JUMPI PUSH1 0x40 MLOAD PUSH3 0x461BCD PUSH1 0xE5 SHL DUP2 MSTORE PUSH1 0x4 ADD PUSH2 0x10AB SWAP1 PUSH2 0x50F5 JUMP JUMPDEST PUSH1 0x16 SSTORE JUMP JUMPDEST PUSH1 0xD SLOAD PUSH1 0x1 PUSH1 0x1 PUSH1 0xA0 SHL SUB PUSH2 0x100 SWAP1 SWAP2 DIV AND CALLER EQ PUSH2 0x325F JUMPI PUSH1 0x40 MLOAD PUSH3 0x461BCD PUSH1 0xE5 SHL DUP2 MSTORE PUSH1 0x4 ADD PUSH2 0x10AB SWAP1 PUSH2 0x50F5 JUMP JUMPDEST PUSH2 0xBD6 DUP1 SLOAD PUSH3 0xFF0000 NOT AND SWAP1 SSTORE JUMP JUMPDEST PUSH1 0xD SLOAD PUSH1 0x1 PUSH1 0x1 PUSH1 0xA0 SHL SUB PUSH2 0x100 SWAP1 SWAP2 DIV AND CALLER EQ PUSH2 0x329E JUMPI PUSH1 0x40 MLOAD PUSH3 0x461BCD PUSH1 0xE5 SHL DUP2 MSTORE PUSH1 0x4 ADD PUSH2 0x10AB SWAP1 PUSH2 0x50F5 JUMP JUMPDEST PUSH2 0xBD6 DUP1 SLOAD SWAP2 ISZERO ISZERO PUSH4 0x1000000 MUL PUSH4 0xFF000000 NOT SWAP1 SWAP3 AND SWAP2 SWAP1 SWAP2 OR SWAP1 SSTORE JUMP JUMPDEST PUSH1 0xD SLOAD PUSH1 0x1 PUSH1 0x1 PUSH1 0xA0 SHL SUB PUSH2 0x100 SWAP1 SWAP2 DIV AND CALLER EQ PUSH2 0x32ED JUMPI PUSH1 0x40 MLOAD PUSH3 0x461BCD PUSH1 0xE5 SHL DUP2 MSTORE PUSH1 0x4 ADD PUSH2 0x10AB SWAP1 PUSH2 0x50F5 JUMP JUMPDEST PUSH1 0x1 PUSH1 0x1 PUSH1 0xA0 SHL SUB DUP2 AND PUSH2 0x3352 JUMPI PUSH1 0x40 MLOAD PUSH3 0x461BCD PUSH1 0xE5 SHL DUP2 MSTORE PUSH1 0x20 PUSH1 0x4 DUP3 ADD MSTORE PUSH1 0x26 PUSH1 0x24 DUP3 ADD MSTORE PUSH32 0x4F776E61626C653A206E6577206F776E657220697320746865207A65726F2061 PUSH1 0x44 DUP3 ADD MSTORE PUSH6 0x646472657373 PUSH1 0xD0 SHL PUSH1 0x64 DUP3 ADD MSTORE PUSH1 0x84 ADD PUSH2 0x10AB JUMP JUMPDEST PUSH2 0x1688 DUP2 PUSH2 0x3EC3 JUMP JUMPDEST PUSH1 0xD SLOAD PUSH1 0x1 PUSH1 0x1 PUSH1 0xA0 SHL SUB PUSH2 0x100 SWAP1 SWAP2 DIV AND CALLER EQ PUSH2 0x338B JUMPI PUSH1 0x40 MLOAD PUSH3 0x461BCD PUSH1 0xE5 SHL DUP2 MSTORE PUSH1 0x4 ADD PUSH2 0x10AB SWAP1 PUSH2 0x50F5 JUMP JUMPDEST PUSH1 0x0 JUMPDEST DUP2 MLOAD DUP2 LT ISZERO PUSH2 0x196A JUMPI PUSH2 0xBD8 PUSH1 0x0 DUP4 DUP4 DUP2 MLOAD DUP2 LT PUSH2 0x33BC JUMPI PUSH4 0x4E487B71 PUSH1 0xE0 SHL PUSH1 0x0 MSTORE PUSH1 0x32 PUSH1 0x4 MSTORE PUSH1 0x24 PUSH1 0x0 REVERT JUMPDEST PUSH1 0x20 SWAP1 DUP2 MUL SWAP2 SWAP1 SWAP2 ADD DUP2 ADD MLOAD PUSH1 0x1 PUSH1 0x1 PUSH1 0xA0 SHL SUB AND DUP3 MSTORE DUP2 ADD SWAP2 SWAP1 SWAP2 MSTORE PUSH1 0x40 ADD PUSH1 0x0 KECCAK256 SLOAD PUSH1 0xFF AND ISZERO PUSH2 0x3459 JUMPI PUSH1 0x0 PUSH2 0xBD8 PUSH1 0x0 DUP5 DUP5 DUP2 MLOAD DUP2 LT PUSH2 0x340F JUMPI PUSH4 0x4E487B71 PUSH1 0xE0 SHL PUSH1 0x0 MSTORE PUSH1 0x32 PUSH1 0x4 MSTORE PUSH1 0x24 PUSH1 0x0 REVERT JUMPDEST PUSH1 0x20 SWAP1 DUP2 MUL SWAP2 SWAP1 SWAP2 ADD DUP2 ADD MLOAD PUSH1 0x1 PUSH1 0x1 PUSH1 0xA0 SHL SUB AND DUP3 MSTORE DUP2 ADD SWAP2 SWAP1 SWAP2 MSTORE PUSH1 0x40 ADD PUSH1 0x0 SWAP1 DUP2 KECCAK256 DUP1 SLOAD PUSH1 0xFF NOT AND SWAP3 ISZERO ISZERO SWAP3 SWAP1 SWAP3 OR SWAP1 SWAP2 SSTORE PUSH2 0xBD7 DUP1 SLOAD SWAP2 PUSH2 0x3453 DUP4 PUSH2 0x528C JUMP JUMPDEST SWAP2 SWAP1 POP SSTORE POP JUMPDEST DUP1 PUSH2 0x3463 DUP2 PUSH2 0x52DE JUMP JUMPDEST SWAP2 POP POP PUSH2 0x338E JUMP JUMPDEST PUSH2 0xBDB PUSH1 0x20 MSTORE DUP2 PUSH1 0x0 MSTORE PUSH1 0x40 PUSH1 0x0 KECCAK256 DUP2 DUP2 SLOAD DUP2 LT PUSH2 0x3488 JUMPI PUSH1 0x0 DUP1 REVERT JUMPDEST SWAP1 PUSH1 0x0 MSTORE PUSH1 0x20 PUSH1 0x0 KECCAK256 ADD PUSH1 0x0 SWAP2 POP SWAP2 POP POP SLOAD DUP2 JUMP JUMPDEST PUSH1 0xD SLOAD PUSH1 0x1 PUSH1 0x1 PUSH1 0xA0 SHL SUB PUSH2 0x100 SWAP1 SWAP2 DIV AND CALLER EQ PUSH2 0x34CD JUMPI PUSH1 0x40 MLOAD PUSH3 0x461BCD PUSH1 0xE5 SHL DUP2 MSTORE PUSH1 0x4 ADD PUSH2 0x10AB SWAP1 PUSH2 0x50F5 JUMP JUMPDEST PUSH1 0x13 SSTORE JUMP JUMPDEST PUSH1 0xD SLOAD PUSH1 0x1 PUSH1 0x1 PUSH1 0xA0 SHL SUB PUSH2 0x100 SWAP1 SWAP2 DIV AND CALLER EQ PUSH2 0x3502 JUMPI PUSH1 0x40 MLOAD PUSH3 0x461BCD PUSH1 0xE5 SHL DUP2 MSTORE PUSH1 0x4 ADD PUSH2 0x10AB SWAP1 PUSH2 0x50F5 JUMP JUMPDEST PUSH1 0x1C SSTORE JUMP JUMPDEST PUSH1 0x0 PUSH1 0x1 PUSH1 0x1 PUSH1 0xE0 SHL SUB NOT DUP3 AND PUSH4 0x780E9D63 PUSH1 0xE0 SHL EQ DUP1 PUSH2 0xEEE JUMPI POP PUSH2 0xEEE DUP3 PUSH2 0x3F1D JUMP JUMPDEST PUSH1 0x0 SWAP1 DUP2 MSTORE PUSH1 0x3 PUSH1 0x20 MSTORE PUSH1 0x40 SWAP1 KECCAK256 SLOAD PUSH1 0x1 PUSH1 0x1 PUSH1 0xA0 SHL SUB AND ISZERO ISZERO SWAP1 JUMP JUMPDEST PUSH1 0x0 DUP2 DUP2 MSTORE PUSH1 0x5 PUSH1 0x20 MSTORE PUSH1 0x40 SWAP1 KECCAK256 DUP1 SLOAD PUSH1 0x1 PUSH1 0x1 PUSH1 0xA0 SHL SUB NOT AND PUSH1 0x1 PUSH1 0x1 PUSH1 0xA0 SHL SUB DUP5 AND SWAP1 DUP2 OR SWAP1 SWAP2 SSTORE DUP2 SWAP1 PUSH2 0x357E DUP3 PUSH2 0x19A3 JUMP JUMPDEST PUSH1 0x1 PUSH1 0x1 PUSH1 0xA0 SHL SUB AND PUSH32 0x8C5BE1E5EBEC7D5BD14F71427D1E84F3DD0314C0F7B2291E5B200AC8C7C3B925 PUSH1 0x40 MLOAD PUSH1 0x40 MLOAD DUP1 SWAP2 SUB SWAP1 LOG4 POP POP JUMP JUMPDEST PUSH2 0x35C0 CALLER PUSH2 0x1614 JUMP JUMPDEST PUSH2 0x35DC JUMPI PUSH1 0x40 MLOAD PUSH3 0x461BCD PUSH1 0xE5 SHL DUP2 MSTORE PUSH1 0x4 ADD PUSH2 0x10AB SWAP1 PUSH2 0x512A JUMP JUMPDEST PUSH2 0x11E1 DUP4 DUP4 DUP4 PUSH2 0x3F6D JUMP JUMPDEST PUSH1 0xD SLOAD PUSH1 0xFF AND PUSH2 0x3630 JUMPI PUSH1 0x40 MLOAD PUSH3 0x461BCD PUSH1 0xE5 SHL DUP2 MSTORE PUSH1 0x20 PUSH1 0x4 DUP3 ADD MSTORE PUSH1 0x14 PUSH1 0x24 DUP3 ADD MSTORE PUSH20 0x14185D5CD8589B194E881B9BDD081C185D5CD959 PUSH1 0x62 SHL PUSH1 0x44 DUP3 ADD MSTORE PUSH1 0x64 ADD PUSH2 0x10AB JUMP JUMPDEST PUSH1 0xD DUP1 SLOAD PUSH1 0xFF NOT AND SWAP1 SSTORE PUSH32 0x5DB9EE0A495BF2E6FF9C91A7834C1BA4FDD244A5E8AA4E537BD38AEAE4B073AA CALLER JUMPDEST PUSH1 0x40 MLOAD PUSH1 0x1 PUSH1 0x1 PUSH1 0xA0 SHL SUB SWAP1 SWAP2 AND DUP2 MSTORE PUSH1 0x20 ADD PUSH1 0x40 MLOAD DUP1 SWAP2 SUB SWAP1 LOG1 JUMP JUMPDEST PUSH2 0x11E1 DUP4 DUP4 DUP4 PUSH1 0x40 MLOAD DUP1 PUSH1 0x20 ADD PUSH1 0x40 MSTORE DUP1 PUSH1 0x0 DUP2 MSTORE POP PUSH2 0x2A0B JUMP JUMPDEST PUSH1 0x0 PUSH2 0x36A0 DUP3 PUSH2 0x352C JUMP JUMPDEST PUSH2 0x3701 JUMPI PUSH1 0x40 MLOAD PUSH3 0x461BCD PUSH1 0xE5 SHL DUP2 MSTORE PUSH1 0x20 PUSH1 0x4 DUP3 ADD MSTORE PUSH1 0x2C PUSH1 0x24 DUP3 ADD MSTORE PUSH32 0x4552433732313A206F70657261746F7220717565727920666F72206E6F6E6578 PUSH1 0x44 DUP3 ADD MSTORE PUSH12 0x34B9BA32B73A103A37B5B2B7 PUSH1 0xA1 SHL PUSH1 0x64 DUP3 ADD MSTORE PUSH1 0x84 ADD PUSH2 0x10AB JUMP JUMPDEST PUSH1 0x0 PUSH2 0x370C DUP4 PUSH2 0x19A3 JUMP JUMPDEST SWAP1 POP DUP1 PUSH1 0x1 PUSH1 0x1 PUSH1 0xA0 SHL SUB AND DUP5 PUSH1 0x1 PUSH1 0x1 PUSH1 0xA0 SHL SUB AND EQ DUP1 PUSH2 0x3747 JUMPI POP DUP4 PUSH1 0x1 PUSH1 0x1 PUSH1 0xA0 SHL SUB AND PUSH2 0x373C DUP5 PUSH2 0x1043 JUMP JUMPDEST PUSH1 0x1 PUSH1 0x1 PUSH1 0xA0 SHL SUB AND EQ JUMPDEST DUP1 PUSH2 0x3777 JUMPI POP PUSH1 0x1 PUSH1 0x1 PUSH1 0xA0 SHL SUB DUP1 DUP3 AND PUSH1 0x0 SWAP1 DUP2 MSTORE PUSH1 0x6 PUSH1 0x20 SWAP1 DUP2 MSTORE PUSH1 0x40 DUP1 DUP4 KECCAK256 SWAP4 DUP9 AND DUP4 MSTORE SWAP3 SWAP1 MSTORE KECCAK256 SLOAD PUSH1 0xFF AND JUMPDEST SWAP5 SWAP4 POP POP POP POP JUMP JUMPDEST PUSH2 0x1688 DUP2 PUSH2 0x4118 JUMP JUMPDEST DUP1 SELFBALANCE LT ISZERO PUSH2 0x37D8 JUMPI PUSH1 0x40 MLOAD PUSH3 0x461BCD PUSH1 0xE5 SHL DUP2 MSTORE PUSH1 0x20 PUSH1 0x4 DUP3 ADD MSTORE PUSH1 0x1D PUSH1 0x24 DUP3 ADD MSTORE PUSH32 0x416464726573733A20696E73756666696369656E742062616C616E6365000000 PUSH1 0x44 DUP3 ADD MSTORE PUSH1 0x64 ADD PUSH2 0x10AB JUMP JUMPDEST PUSH1 0x0 DUP3 PUSH1 0x1 PUSH1 0x1 PUSH1 0xA0 SHL SUB AND DUP3 PUSH1 0x40 MLOAD PUSH1 0x0 PUSH1 0x40 MLOAD DUP1 DUP4 SUB DUP2 DUP6 DUP8 GAS CALL SWAP3 POP POP POP RETURNDATASIZE DUP1 PUSH1 0x0 DUP2 EQ PUSH2 0x3825 JUMPI PUSH1 0x40 MLOAD SWAP2 POP PUSH1 0x1F NOT PUSH1 0x3F RETURNDATASIZE ADD AND DUP3 ADD PUSH1 0x40 MSTORE RETURNDATASIZE DUP3 MSTORE RETURNDATASIZE PUSH1 0x0 PUSH1 0x20 DUP5 ADD RETURNDATACOPY PUSH2 0x382A JUMP JUMPDEST PUSH1 0x60 SWAP2 POP JUMPDEST POP POP SWAP1 POP DUP1 PUSH2 0x11E1 JUMPI PUSH1 0x40 MLOAD PUSH3 0x461BCD PUSH1 0xE5 SHL DUP2 MSTORE PUSH1 0x20 PUSH1 0x4 DUP3 ADD MSTORE PUSH1 0x3A PUSH1 0x24 DUP3 ADD MSTORE PUSH32 0x416464726573733A20756E61626C6520746F2073656E642076616C75652C2072 PUSH1 0x44 DUP3 ADD MSTORE PUSH32 0x6563697069656E74206D61792068617665207265766572746564000000000000 PUSH1 0x64 DUP3 ADD MSTORE PUSH1 0x84 ADD PUSH2 0x10AB JUMP JUMPDEST PUSH2 0x196A DUP3 DUP3 PUSH1 0x40 MLOAD DUP1 PUSH1 0x20 ADD PUSH1 0x40 MSTORE DUP1 PUSH1 0x0 DUP2 MSTORE POP PUSH2 0x4158 JUMP JUMPDEST PUSH1 0xD SLOAD PUSH1 0xFF AND ISZERO PUSH2 0x38DE JUMPI PUSH1 0x40 MLOAD PUSH3 0x461BCD PUSH1 0xE5 SHL DUP2 MSTORE PUSH1 0x4 ADD PUSH2 0x10AB SWAP1 PUSH2 0x50CB JUMP JUMPDEST PUSH1 0xD DUP1 SLOAD PUSH1 0xFF NOT AND PUSH1 0x1 OR SWAP1 SSTORE PUSH32 0x62E78CEA01BEE320CD4E420270B5EA74000D11B0C9F74754EBDBFC544B05A258 PUSH2 0x365D CALLER SWAP1 JUMP JUMPDEST PUSH1 0x0 DUP3 PUSH2 0x3922 JUMPI POP PUSH1 0x0 PUSH2 0xEEE JUMP JUMPDEST PUSH1 0x0 PUSH2 0x392E DUP4 DUP6 PUSH2 0x522A JUMP JUMPDEST SWAP1 POP DUP3 PUSH2 0x393B DUP6 DUP4 PUSH2 0x5216 JUMP JUMPDEST EQ PUSH2 0x3992 JUMPI PUSH1 0x40 MLOAD PUSH3 0x461BCD PUSH1 0xE5 SHL DUP2 MSTORE PUSH1 0x20 PUSH1 0x4 DUP3 ADD MSTORE PUSH1 0x21 PUSH1 0x24 DUP3 ADD MSTORE PUSH32 0x536166654D6174683A206D756C7469706C69636174696F6E206F766572666C6F PUSH1 0x44 DUP3 ADD MSTORE PUSH1 0x77 PUSH1 0xF8 SHL PUSH1 0x64 DUP3 ADD MSTORE PUSH1 0x84 ADD PUSH2 0x10AB JUMP JUMPDEST SWAP4 SWAP3 POP POP POP JUMP JUMPDEST PUSH2 0x39A3 DUP4 DUP4 PUSH2 0x38A1 JUMP JUMPDEST PUSH1 0x40 MLOAD DUP3 DUP2 MSTORE PUSH32 0x5297781EC3BE961005343C79526E11FA2C29F53380C82E2BEAFDD9372BD75BE SWAP1 PUSH1 0x20 ADD PUSH1 0x40 MLOAD DUP1 SWAP2 SUB SWAP1 LOG1 PUSH1 0x0 PUSH2 0x39E3 PUSH1 0x2 DUP5 PUSH2 0x52F9 JUMP JUMPDEST ISZERO PUSH2 0x3A0C JUMPI PUSH1 0x40 MLOAD DUP1 PUSH1 0x40 ADD PUSH1 0x40 MSTORE DUP1 PUSH1 0x6 DUP2 MSTORE PUSH1 0x20 ADD PUSH6 0x46656D616C65 PUSH1 0xD0 SHL DUP2 MSTORE POP PUSH2 0x3A2A JUMP JUMPDEST PUSH1 0x40 MLOAD DUP1 PUSH1 0x40 ADD PUSH1 0x40 MSTORE DUP1 PUSH1 0x4 DUP2 MSTORE PUSH1 0x20 ADD PUSH4 0x4D616C65 PUSH1 0xE0 SHL DUP2 MSTORE POP JUMPDEST PUSH1 0x1 PUSH1 0x1 PUSH1 0xA0 SHL SUB DUP6 AND PUSH1 0x0 SWAP1 DUP2 MSTORE PUSH2 0xBDB PUSH1 0x20 SWAP1 DUP2 MSTORE PUSH1 0x40 DUP1 DUP4 KECCAK256 DUP1 SLOAD PUSH1 0x1 DUP2 ADD DUP3 SSTORE SWAP1 DUP5 MSTORE DUP3 DUP5 KECCAK256 ADD DUP8 SWAP1 SSTORE DUP1 MLOAD PUSH1 0xC0 DUP2 ADD DUP3 MSTORE DUP5 DUP2 MSTORE TIMESTAMP DUP2 DUP5 ADD MSTORE DUP1 DUP3 ADD DUP5 SWAP1 MSTORE PUSH1 0x60 DUP2 ADD DUP5 SWAP1 MSTORE PUSH1 0x80 DUP2 ADD DUP5 SWAP1 MSTORE PUSH1 0xA0 DUP2 ADD DUP5 SWAP1 MSTORE DUP8 DUP5 MSTORE PUSH2 0xBDA DUP4 MSTORE SWAP3 KECCAK256 DUP3 MLOAD DUP1 MLOAD SWAP5 SWAP6 POP SWAP3 SWAP4 SWAP1 SWAP3 PUSH2 0x3AA6 SWAP3 DUP5 SWAP3 SWAP2 ADD SWAP1 PUSH2 0x4A39 JUMP JUMPDEST POP PUSH1 0x20 DUP3 DUP2 ADD MLOAD PUSH1 0x1 DUP1 DUP5 ADD SWAP2 SWAP1 SWAP2 SSTORE PUSH1 0x40 DUP1 DUP6 ADD MLOAD PUSH1 0x2 DUP6 ADD SSTORE PUSH1 0x60 DUP6 ADD MLOAD PUSH1 0x3 DUP6 ADD SSTORE PUSH1 0x80 DUP6 ADD MLOAD PUSH1 0x4 DUP6 ADD SSTORE PUSH1 0xA0 SWAP1 SWAP5 ADD MLOAD PUSH1 0x5 SWAP1 SWAP4 ADD SWAP3 SWAP1 SWAP3 SSTORE PUSH1 0x1 PUSH1 0x1 PUSH1 0xA0 SHL SUB DUP8 AND PUSH1 0x0 SWAP1 DUP2 MSTORE PUSH2 0xBD9 SWAP1 SWAP2 MSTORE SWAP2 DUP3 KECCAK256 ADD DUP1 SLOAD SWAP2 PUSH2 0x3B09 DUP4 PUSH2 0x52DE JUMP JUMPDEST SWAP2 SWAP1 POP SSTORE POP DUP2 PUSH2 0x3B29 JUMPI PUSH1 0x10 DUP1 SLOAD SWAP1 PUSH1 0x0 PUSH2 0x3B23 DUP4 PUSH2 0x52DE JUMP JUMPDEST SWAP2 SWAP1 POP SSTORE POP JUMPDEST PUSH1 0xE DUP1 SLOAD SWAP1 PUSH1 0x0 PUSH2 0x3B39 DUP4 PUSH2 0x52DE JUMP JUMPDEST SWAP2 SWAP1 POP SSTORE POP POP POP POP POP JUMP JUMPDEST PUSH1 0x0 DUP1 PUSH1 0x19 SLOAD PUSH1 0x10 SLOAD PUSH1 0x11 SLOAD PUSH2 0x3B5A SWAP2 SWAP1 PUSH2 0x5249 JUMP JUMPDEST PUSH2 0x3B64 SWAP2 SWAP1 PUSH2 0x51FE JUMP JUMPDEST PUSH2 0xBD6 SLOAD SWAP1 SWAP2 POP PUSH1 0x0 SWAP1 PUSH3 0x10000 SWAP1 DIV PUSH1 0xFF AND ISZERO PUSH2 0x3BDB JUMPI PUSH1 0x1D SLOAD PUSH1 0x40 DUP1 MLOAD PUSH1 0x20 DUP2 ADD SWAP3 SWAP1 SWAP3 MSTORE PUSH12 0xFFFFFFFFFFFFFFFFFFFFFFFF NOT CALLER PUSH1 0x60 SHL AND SWAP1 DUP3 ADD MSTORE DIFFICULTY PUSH1 0x54 DUP3 ADD MSTORE TIMESTAMP PUSH1 0x74 DUP3 ADD MSTORE DUP3 SWAP1 PUSH1 0x94 ADD PUSH1 0x40 MLOAD PUSH1 0x20 DUP2 DUP4 SUB SUB DUP2 MSTORE SWAP1 PUSH1 0x40 MSTORE DUP1 MLOAD SWAP1 PUSH1 0x20 ADD KECCAK256 PUSH1 0x0 SHR PUSH2 0x3BD6 SWAP2 SWAP1 PUSH2 0x52F9 JUMP JUMPDEST PUSH2 0x3BDD JUMP JUMPDEST DUP4 JUMPDEST SWAP1 POP PUSH1 0x0 PUSH1 0x1E DUP3 PUSH2 0xBB8 DUP2 LT PUSH2 0x3C03 JUMPI PUSH4 0x4E487B71 PUSH1 0xE0 SHL PUSH1 0x0 MSTORE PUSH1 0x32 PUSH1 0x4 MSTORE PUSH1 0x24 PUSH1 0x0 REVERT JUMPDEST ADD SLOAD ISZERO PUSH2 0x3C35 JUMPI PUSH1 0x1E DUP3 PUSH2 0xBB8 DUP2 LT PUSH2 0x3C2C JUMPI PUSH4 0x4E487B71 PUSH1 0xE0 SHL PUSH1 0x0 MSTORE PUSH1 0x32 PUSH1 0x4 MSTORE PUSH1 0x24 PUSH1 0x0 REVERT JUMPDEST ADD SLOAD SWAP1 POP PUSH2 0x3C38 JUMP JUMPDEST POP DUP1 JUMPDEST PUSH1 0x1E PUSH2 0x3C45 PUSH1 0x1 DUP6 PUSH2 0x5249 JUMP JUMPDEST PUSH2 0xBB8 DUP2 LT PUSH2 0x3C64 JUMPI PUSH4 0x4E487B71 PUSH1 0xE0 SHL PUSH1 0x0 MSTORE PUSH1 0x32 PUSH1 0x4 MSTORE PUSH1 0x24 PUSH1 0x0 REVERT JUMPDEST ADD SLOAD PUSH2 0x3C9E JUMPI PUSH2 0x3C75 PUSH1 0x1 DUP5 PUSH2 0x5249 JUMP JUMPDEST PUSH1 0x1E DUP4 PUSH2 0xBB8 DUP2 LT PUSH2 0x3C97 JUMPI PUSH4 0x4E487B71 PUSH1 0xE0 SHL PUSH1 0x0 MSTORE PUSH1 0x32 PUSH1 0x4 MSTORE PUSH1 0x24 PUSH1 0x0 REVERT JUMPDEST ADD SSTORE PUSH2 0x3CF1 JUMP JUMPDEST PUSH1 0x1E PUSH2 0x3CAB PUSH1 0x1 DUP6 PUSH2 0x5249 JUMP JUMPDEST PUSH2 0xBB8 DUP2 LT PUSH2 0x3CCA JUMPI PUSH4 0x4E487B71 PUSH1 0xE0 SHL PUSH1 0x0 MSTORE PUSH1 0x32 PUSH1 0x4 MSTORE PUSH1 0x24 PUSH1 0x0 REVERT JUMPDEST ADD SLOAD PUSH1 0x1E DUP4 PUSH2 0xBB8 DUP2 LT PUSH2 0x3CEE JUMPI PUSH4 0x4E487B71 PUSH1 0xE0 SHL PUSH1 0x0 MSTORE PUSH1 0x32 PUSH1 0x4 MSTORE PUSH1 0x24 PUSH1 0x0 REVERT JUMPDEST ADD SSTORE JUMPDEST PUSH1 0x1D DUP1 SLOAD SWAP1 PUSH1 0x0 PUSH2 0x3D01 DUP4 PUSH2 0x52DE JUMP JUMPDEST SWAP1 SWAP2 SSTORE POP PUSH2 0x3D12 SWAP1 POP DUP2 PUSH1 0x1 PUSH2 0x418B JUMP JUMPDEST SWAP6 SWAP5 POP POP POP POP POP JUMP JUMPDEST DUP1 MLOAD PUSH2 0x196A SWAP1 PUSH1 0x2 SWAP1 PUSH1 0x20 DUP5 ADD SWAP1 PUSH2 0x4A39 JUMP JUMPDEST PUSH2 0x3D39 DUP5 DUP5 DUP5 PUSH2 0x3F6D JUMP JUMPDEST PUSH2 0x3D45 DUP5 DUP5 DUP5 DUP5 PUSH2 0x41EA JUMP JUMPDEST PUSH2 0x17CB JUMPI PUSH1 0x40 MLOAD PUSH3 0x461BCD PUSH1 0xE5 SHL DUP2 MSTORE PUSH1 0x4 ADD PUSH2 0x10AB SWAP1 PUSH2 0x5079 JUMP JUMPDEST PUSH1 0x60 PUSH2 0x3D6C DUP3 PUSH2 0x352C JUMP JUMPDEST PUSH2 0x3DD2 JUMPI PUSH1 0x40 MLOAD PUSH3 0x461BCD PUSH1 0xE5 SHL DUP2 MSTORE PUSH1 0x20 PUSH1 0x4 DUP3 ADD MSTORE PUSH1 0x31 PUSH1 0x24 DUP3 ADD MSTORE PUSH32 0x45524337323155524953746F726167653A2055524920717565727920666F7220 PUSH1 0x44 DUP3 ADD MSTORE PUSH17 0x3737B732BC34B9BA32B73A103A37B5B2B7 PUSH1 0x79 SHL PUSH1 0x64 DUP3 ADD MSTORE PUSH1 0x84 ADD PUSH2 0x10AB JUMP JUMPDEST PUSH1 0x0 DUP3 DUP2 MSTORE PUSH1 0xC PUSH1 0x20 MSTORE PUSH1 0x40 DUP2 KECCAK256 DUP1 SLOAD PUSH2 0x3DEB SWAP1 PUSH2 0x52A3 JUMP JUMPDEST DUP1 PUSH1 0x1F ADD PUSH1 0x20 DUP1 SWAP2 DIV MUL PUSH1 0x20 ADD PUSH1 0x40 MLOAD SWAP1 DUP2 ADD PUSH1 0x40 MSTORE DUP1 SWAP3 SWAP2 SWAP1 DUP2 DUP2 MSTORE PUSH1 0x20 ADD DUP3 DUP1 SLOAD PUSH2 0x3E17 SWAP1 PUSH2 0x52A3 JUMP JUMPDEST DUP1 ISZERO PUSH2 0x3E64 JUMPI DUP1 PUSH1 0x1F LT PUSH2 0x3E39 JUMPI PUSH2 0x100 DUP1 DUP4 SLOAD DIV MUL DUP4 MSTORE SWAP2 PUSH1 0x20 ADD SWAP2 PUSH2 0x3E64 JUMP JUMPDEST DUP3 ADD SWAP2 SWAP1 PUSH1 0x0 MSTORE PUSH1 0x20 PUSH1 0x0 KECCAK256 SWAP1 JUMPDEST DUP2 SLOAD DUP2 MSTORE SWAP1 PUSH1 0x1 ADD SWAP1 PUSH1 0x20 ADD DUP1 DUP4 GT PUSH2 0x3E47 JUMPI DUP3 SWAP1 SUB PUSH1 0x1F AND DUP3 ADD SWAP2 JUMPDEST POP POP POP POP POP SWAP1 POP PUSH1 0x0 PUSH2 0x3E75 PUSH2 0x42F7 JUMP JUMPDEST SWAP1 POP DUP1 MLOAD PUSH1 0x0 EQ ISZERO PUSH2 0x3E88 JUMPI POP SWAP3 SWAP2 POP POP JUMP JUMPDEST DUP2 MLOAD ISZERO PUSH2 0x3EBA JUMPI DUP1 DUP3 PUSH1 0x40 MLOAD PUSH1 0x20 ADD PUSH2 0x3EA2 SWAP3 SWAP2 SWAP1 PUSH2 0x4EA0 JUMP JUMPDEST PUSH1 0x40 MLOAD PUSH1 0x20 DUP2 DUP4 SUB SUB DUP2 MSTORE SWAP1 PUSH1 0x40 MSTORE SWAP3 POP POP POP SWAP2 SWAP1 POP JUMP JUMPDEST PUSH2 0x3777 DUP5 PUSH2 0x4307 JUMP JUMPDEST PUSH1 0xD DUP1 SLOAD PUSH1 0x1 PUSH1 0x1 PUSH1 0xA0 SHL SUB DUP4 DUP2 AND PUSH2 0x100 DUP2 DUP2 MUL PUSH2 0x100 PUSH1 0x1 PUSH1 0xA8 SHL SUB NOT DUP6 AND OR SWAP1 SWAP5 SSTORE PUSH1 0x40 MLOAD SWAP4 SWAP1 SWAP3 DIV AND SWAP2 DUP3 SWAP1 PUSH32 0x8BE0079C531659141344CD1FD0A4F28419497F9722A3DAAFE3B4186F6B6457E0 SWAP1 PUSH1 0x0 SWAP1 LOG3 POP POP JUMP JUMPDEST PUSH1 0x0 PUSH1 0x1 PUSH1 0x1 PUSH1 0xE0 SHL SUB NOT DUP3 AND PUSH4 0x80AC58CD PUSH1 0xE0 SHL EQ DUP1 PUSH2 0x3F4E JUMPI POP PUSH1 0x1 PUSH1 0x1 PUSH1 0xE0 SHL SUB NOT DUP3 AND PUSH4 0x5B5E139F PUSH1 0xE0 SHL EQ JUMPDEST DUP1 PUSH2 0xEEE JUMPI POP PUSH4 0x1FFC9A7 PUSH1 0xE0 SHL PUSH1 0x1 PUSH1 0x1 PUSH1 0xE0 SHL SUB NOT DUP4 AND EQ PUSH2 0xEEE JUMP JUMPDEST DUP3 PUSH1 0x1 PUSH1 0x1 PUSH1 0xA0 SHL SUB AND PUSH2 0x3F80 DUP3 PUSH2 0x19A3 JUMP JUMPDEST PUSH1 0x1 PUSH1 0x1 PUSH1 0xA0 SHL SUB AND EQ PUSH2 0x3FE8 JUMPI PUSH1 0x40 MLOAD PUSH3 0x461BCD PUSH1 0xE5 SHL DUP2 MSTORE PUSH1 0x20 PUSH1 0x4 DUP3 ADD MSTORE PUSH1 0x29 PUSH1 0x24 DUP3 ADD MSTORE PUSH32 0x4552433732313A207472616E73666572206F6620746F6B656E20746861742069 PUSH1 0x44 DUP3 ADD MSTORE PUSH9 0x39903737BA1037BBB7 PUSH1 0xB9 SHL PUSH1 0x64 DUP3 ADD MSTORE PUSH1 0x84 ADD PUSH2 0x10AB JUMP JUMPDEST PUSH1 0x1 PUSH1 0x1 PUSH1 0xA0 SHL SUB DUP3 AND PUSH2 0x404A JUMPI PUSH1 0x40 MLOAD PUSH3 0x461BCD PUSH1 0xE5 SHL DUP2 MSTORE PUSH1 0x20 PUSH1 0x4 DUP3 ADD MSTORE PUSH1 0x24 DUP1 DUP3 ADD MSTORE PUSH32 0x4552433732313A207472616E7366657220746F20746865207A65726F20616464 PUSH1 0x44 DUP3 ADD MSTORE PUSH4 0x72657373 PUSH1 0xE0 SHL PUSH1 0x64 DUP3 ADD MSTORE PUSH1 0x84 ADD PUSH2 0x10AB JUMP JUMPDEST PUSH2 0x4055 DUP4 DUP4 DUP4 PUSH2 0x4499 JUMP JUMPDEST PUSH2 0x4060 PUSH1 0x0 DUP3 PUSH2 0x3549 JUMP JUMPDEST PUSH1 0x1 PUSH1 0x1 PUSH1 0xA0 SHL SUB DUP4 AND PUSH1 0x0 SWAP1 DUP2 MSTORE PUSH1 0x4 PUSH1 0x20 MSTORE PUSH1 0x40 DUP2 KECCAK256 DUP1 SLOAD PUSH1 0x1 SWAP3 SWAP1 PUSH2 0x4089 SWAP1 DUP5 SWAP1 PUSH2 0x5249 JUMP JUMPDEST SWAP1 SWAP2 SSTORE POP POP PUSH1 0x1 PUSH1 0x1 PUSH1 0xA0 SHL SUB DUP3 AND PUSH1 0x0 SWAP1 DUP2 MSTORE PUSH1 0x4 PUSH1 0x20 MSTORE PUSH1 0x40 DUP2 KECCAK256 DUP1 SLOAD PUSH1 0x1 SWAP3 SWAP1 PUSH2 0x40B7 SWAP1 DUP5 SWAP1 PUSH2 0x51FE JUMP JUMPDEST SWAP1 SWAP2 SSTORE POP POP PUSH1 0x0 DUP2 DUP2 MSTORE PUSH1 0x3 PUSH1 0x20 MSTORE PUSH1 0x40 DUP1 DUP3 KECCAK256 DUP1 SLOAD PUSH1 0x1 PUSH1 0x1 PUSH1 0xA0 SHL SUB NOT AND PUSH1 0x1 PUSH1 0x1 PUSH1 0xA0 SHL SUB DUP7 DUP2 AND SWAP2 DUP3 OR SWAP1 SWAP3 SSTORE SWAP2 MLOAD DUP5 SWAP4 SWAP2 DUP8 AND SWAP2 PUSH32 0xDDF252AD1BE2C89B69C2B068FC378DAA952BA7F163C4A11628F55A4DF523B3EF SWAP2 LOG4 POP POP POP JUMP JUMPDEST PUSH2 0x4121 DUP2 PUSH2 0x44C7 JUMP JUMPDEST PUSH1 0x0 DUP2 DUP2 MSTORE PUSH1 0xC PUSH1 0x20 MSTORE PUSH1 0x40 SWAP1 KECCAK256 DUP1 SLOAD PUSH2 0x413A SWAP1 PUSH2 0x52A3 JUMP JUMPDEST ISZERO SWAP1 POP PUSH2 0x1688 JUMPI PUSH1 0x0 DUP2 DUP2 MSTORE PUSH1 0xC PUSH1 0x20 MSTORE PUSH1 0x40 DUP2 KECCAK256 PUSH2 0x1688 SWAP2 PUSH2 0x4ABD JUMP JUMPDEST PUSH2 0x4162 DUP4 DUP4 PUSH2 0x456E JUMP JUMPDEST PUSH2 0x416F PUSH1 0x0 DUP5 DUP5 DUP5 PUSH2 0x41EA JUMP JUMPDEST PUSH2 0x11E1 JUMPI PUSH1 0x40 MLOAD PUSH3 0x461BCD PUSH1 0xE5 SHL DUP2 MSTORE PUSH1 0x4 ADD PUSH2 0x10AB SWAP1 PUSH2 0x5079 JUMP JUMPDEST PUSH1 0x0 DUP1 PUSH2 0x4198 DUP4 DUP6 PUSH2 0x51FE JUMP JUMPDEST SWAP1 POP DUP4 DUP2 LT ISZERO PUSH2 0x3992 JUMPI PUSH1 0x40 MLOAD PUSH3 0x461BCD PUSH1 0xE5 SHL DUP2 MSTORE PUSH1 0x20 PUSH1 0x4 DUP3 ADD MSTORE PUSH1 0x1B PUSH1 0x24 DUP3 ADD MSTORE PUSH32 0x536166654D6174683A206164646974696F6E206F766572666C6F770000000000 PUSH1 0x44 DUP3 ADD MSTORE PUSH1 0x64 ADD PUSH2 0x10AB JUMP JUMPDEST PUSH1 0x0 PUSH1 0x1 PUSH1 0x1 PUSH1 0xA0 SHL SUB DUP5 AND EXTCODESIZE ISZERO PUSH2 0x42EC JUMPI PUSH1 0x40 MLOAD PUSH4 0xA85BD01 PUSH1 0xE1 SHL DUP2 MSTORE PUSH1 0x1 PUSH1 0x1 PUSH1 0xA0 SHL SUB DUP6 AND SWAP1 PUSH4 0x150B7A02 SWAP1 PUSH2 0x422E SWAP1 CALLER SWAP1 DUP10 SWAP1 DUP9 SWAP1 DUP9 SWAP1 PUSH1 0x4 ADD PUSH2 0x4FA9 JUMP JUMPDEST PUSH1 0x20 PUSH1 0x40 MLOAD DUP1 DUP4 SUB DUP2 PUSH1 0x0 DUP8 DUP1 EXTCODESIZE ISZERO DUP1 ISZERO PUSH2 0x4248 JUMPI PUSH1 0x0 DUP1 REVERT JUMPDEST POP GAS CALL SWAP3 POP POP POP DUP1 ISZERO PUSH2 0x4278 JUMPI POP PUSH1 0x40 DUP1 MLOAD PUSH1 0x1F RETURNDATASIZE SWAP1 DUP2 ADD PUSH1 0x1F NOT AND DUP3 ADD SWAP1 SWAP3 MSTORE PUSH2 0x4275 SWAP2 DUP2 ADD SWAP1 PUSH2 0x4DD9 JUMP JUMPDEST PUSH1 0x1 JUMPDEST PUSH2 0x42D2 JUMPI RETURNDATASIZE DUP1 DUP1 ISZERO PUSH2 0x42A6 JUMPI PUSH1 0x40 MLOAD SWAP2 POP PUSH1 0x1F NOT PUSH1 0x3F RETURNDATASIZE ADD AND DUP3 ADD PUSH1 0x40 MSTORE RETURNDATASIZE DUP3 MSTORE RETURNDATASIZE PUSH1 0x0 PUSH1 0x20 DUP5 ADD RETURNDATACOPY PUSH2 0x42AB JUMP JUMPDEST PUSH1 0x60 SWAP2 POP JUMPDEST POP DUP1 MLOAD PUSH2 0x42CA JUMPI PUSH1 0x40 MLOAD PUSH3 0x461BCD PUSH1 0xE5 SHL DUP2 MSTORE PUSH1 0x4 ADD PUSH2 0x10AB SWAP1 PUSH2 0x5079 JUMP JUMPDEST DUP1 MLOAD DUP2 PUSH1 0x20 ADD REVERT JUMPDEST PUSH1 0x1 PUSH1 0x1 PUSH1 0xE0 SHL SUB NOT AND PUSH4 0xA85BD01 PUSH1 0xE1 SHL EQ SWAP1 POP PUSH2 0x3777 JUMP JUMPDEST POP PUSH1 0x1 SWAP5 SWAP4 POP POP POP POP JUMP JUMPDEST PUSH1 0x60 PUSH2 0xBDC DUP1 SLOAD PUSH2 0xFC0 SWAP1 PUSH2 0x52A3 JUMP JUMPDEST PUSH1 0x60 PUSH2 0x4312 DUP3 PUSH2 0x352C JUMP JUMPDEST PUSH2 0x4376 JUMPI PUSH1 0x40 MLOAD PUSH3 0x461BCD PUSH1 0xE5 SHL DUP2 MSTORE PUSH1 0x20 PUSH1 0x4 DUP3 ADD MSTORE PUSH1 0x2F PUSH1 0x24 DUP3 ADD MSTORE PUSH32 0x4552433732314D657461646174613A2055524920717565727920666F72206E6F PUSH1 0x44 DUP3 ADD MSTORE PUSH15 0x3732BC34B9BA32B73A103A37B5B2B7 PUSH1 0x89 SHL PUSH1 0x64 DUP3 ADD MSTORE PUSH1 0x84 ADD PUSH2 0x10AB JUMP JUMPDEST PUSH1 0x0 DUP3 DUP2 MSTORE PUSH1 0x7 PUSH1 0x20 MSTORE PUSH1 0x40 SWAP1 KECCAK256 SLOAD PUSH1 0xFF AND PUSH2 0x43E7 JUMPI PUSH1 0x0 PUSH2 0x4396 PUSH2 0x42F7 JUMP JUMPDEST SWAP1 POP PUSH1 0x0 DUP2 MLOAD GT PUSH2 0x43B6 JUMPI PUSH1 0x40 MLOAD DUP1 PUSH1 0x20 ADD PUSH1 0x40 MSTORE DUP1 PUSH1 0x0 DUP2 MSTORE POP PUSH2 0x3992 JUMP JUMPDEST DUP1 PUSH2 0x43C0 DUP5 PUSH2 0x46AD JUMP JUMPDEST PUSH1 0x40 MLOAD PUSH1 0x20 ADD PUSH2 0x43D1 SWAP3 SWAP2 SWAP1 PUSH2 0x4ECF JUMP JUMPDEST PUSH1 0x40 MLOAD PUSH1 0x20 DUP2 DUP4 SUB SUB DUP2 MSTORE SWAP1 PUSH1 0x40 MSTORE SWAP4 SWAP3 POP POP POP JUMP JUMPDEST PUSH1 0x0 PUSH1 0x2 DUP1 SLOAD PUSH2 0x43F6 SWAP1 PUSH2 0x52A3 JUMP JUMPDEST DUP1 PUSH1 0x1F ADD PUSH1 0x20 DUP1 SWAP2 DIV MUL PUSH1 0x20 ADD PUSH1 0x40 MLOAD SWAP1 DUP2 ADD PUSH1 0x40 MSTORE DUP1 SWAP3 SWAP2 SWAP1 DUP2 DUP2 MSTORE PUSH1 0x20 ADD DUP3 DUP1 SLOAD PUSH2 0x4422 SWAP1 PUSH2 0x52A3 JUMP JUMPDEST DUP1 ISZERO PUSH2 0x446F JUMPI DUP1 PUSH1 0x1F LT PUSH2 0x4444 JUMPI PUSH2 0x100 DUP1 DUP4 SLOAD DIV MUL DUP4 MSTORE SWAP2 PUSH1 0x20 ADD SWAP2 PUSH2 0x446F JUMP JUMPDEST DUP3 ADD SWAP2 SWAP1 PUSH1 0x0 MSTORE PUSH1 0x20 PUSH1 0x0 KECCAK256 SWAP1 JUMPDEST DUP2 SLOAD DUP2 MSTORE SWAP1 PUSH1 0x1 ADD SWAP1 PUSH1 0x20 ADD DUP1 DUP4 GT PUSH2 0x4452 JUMPI DUP3 SWAP1 SUB PUSH1 0x1F AND DUP3 ADD SWAP2 JUMPDEST POP POP POP POP POP SWAP1 POP PUSH1 0x0 DUP2 MLOAD GT PUSH2 0x43B6 JUMPI PUSH1 0x40 MLOAD DUP1 PUSH1 0x20 ADD PUSH1 0x40 MSTORE DUP1 PUSH1 0x0 DUP2 MSTORE POP PUSH2 0x3992 JUMP JUMPDEST SWAP2 SWAP1 POP JUMP JUMPDEST PUSH1 0xD SLOAD PUSH1 0xFF AND ISZERO PUSH2 0x44BC JUMPI PUSH1 0x40 MLOAD PUSH3 0x461BCD PUSH1 0xE5 SHL DUP2 MSTORE PUSH1 0x4 ADD PUSH2 0x10AB SWAP1 PUSH2 0x50CB JUMP JUMPDEST PUSH2 0x11E1 DUP4 DUP4 DUP4 PUSH2 0x47C7 JUMP JUMPDEST PUSH1 0x0 PUSH2 0x44D2 DUP3 PUSH2 0x19A3 JUMP JUMPDEST SWAP1 POP PUSH2 0x44E0 DUP2 PUSH1 0x0 DUP5 PUSH2 0x4499 JUMP JUMPDEST PUSH2 0x44EB PUSH1 0x0 DUP4 PUSH2 0x3549 JUMP JUMPDEST PUSH1 0x1 PUSH1 0x1 PUSH1 0xA0 SHL SUB DUP2 AND PUSH1 0x0 SWAP1 DUP2 MSTORE PUSH1 0x4 PUSH1 0x20 MSTORE PUSH1 0x40 DUP2 KECCAK256 DUP1 SLOAD PUSH1 0x1 SWAP3 SWAP1 PUSH2 0x4514 SWAP1 DUP5 SWAP1 PUSH2 0x5249 JUMP JUMPDEST SWAP1 SWAP2 SSTORE POP POP PUSH1 0x0 DUP3 DUP2 MSTORE PUSH1 0x3 PUSH1 0x20 MSTORE PUSH1 0x40 DUP1 DUP3 KECCAK256 DUP1 SLOAD PUSH1 0x1 PUSH1 0x1 PUSH1 0xA0 SHL SUB NOT AND SWAP1 SSTORE MLOAD DUP4 SWAP2 SWAP1 PUSH1 0x1 PUSH1 0x1 PUSH1 0xA0 SHL SUB DUP5 AND SWAP1 PUSH32 0xDDF252AD1BE2C89B69C2B068FC378DAA952BA7F163C4A11628F55A4DF523B3EF SWAP1 DUP4 SWAP1 LOG4 POP POP JUMP JUMPDEST PUSH1 0x1 PUSH1 0x1 PUSH1 0xA0 SHL SUB DUP3 AND PUSH2 0x45C4 JUMPI PUSH1 0x40 MLOAD PUSH3 0x461BCD PUSH1 0xE5 SHL DUP2 MSTORE PUSH1 0x20 PUSH1 0x4 DUP3 ADD DUP2 SWAP1 MSTORE PUSH1 0x24 DUP3 ADD MSTORE PUSH32 0x4552433732313A206D696E7420746F20746865207A65726F2061646472657373 PUSH1 0x44 DUP3 ADD MSTORE PUSH1 0x64 ADD PUSH2 0x10AB JUMP JUMPDEST PUSH2 0x45CD DUP2 PUSH2 0x352C JUMP JUMPDEST ISZERO PUSH2 0x461A JUMPI PUSH1 0x40 MLOAD PUSH3 0x461BCD PUSH1 0xE5 SHL DUP2 MSTORE PUSH1 0x20 PUSH1 0x4 DUP3 ADD MSTORE PUSH1 0x1C PUSH1 0x24 DUP3 ADD MSTORE PUSH32 0x4552433732313A20746F6B656E20616C7265616479206D696E74656400000000 PUSH1 0x44 DUP3 ADD MSTORE PUSH1 0x64 ADD PUSH2 0x10AB JUMP JUMPDEST PUSH2 0x4626 PUSH1 0x0 DUP4 DUP4 PUSH2 0x4499 JUMP JUMPDEST PUSH1 0x1 PUSH1 0x1 PUSH1 0xA0 SHL SUB DUP3 AND PUSH1 0x0 SWAP1 DUP2 MSTORE PUSH1 0x4 PUSH1 0x20 MSTORE PUSH1 0x40 DUP2 KECCAK256 DUP1 SLOAD PUSH1 0x1 SWAP3 SWAP1 PUSH2 0x464F SWAP1 DUP5 SWAP1 PUSH2 0x51FE JUMP JUMPDEST SWAP1 SWAP2 SSTORE POP POP PUSH1 0x0 DUP2 DUP2 MSTORE PUSH1 0x3 PUSH1 0x20 MSTORE PUSH1 0x40 DUP1 DUP3 KECCAK256 DUP1 SLOAD PUSH1 0x1 PUSH1 0x1 PUSH1 0xA0 SHL SUB NOT AND PUSH1 0x1 PUSH1 0x1 PUSH1 0xA0 SHL SUB DUP7 AND SWAP1 DUP2 OR SWAP1 SWAP2 SSTORE SWAP1 MLOAD DUP4 SWAP3 SWAP1 PUSH32 0xDDF252AD1BE2C89B69C2B068FC378DAA952BA7F163C4A11628F55A4DF523B3EF SWAP1 DUP3 SWAP1 LOG4 POP POP JUMP JUMPDEST PUSH1 0x60 DUP2 PUSH2 0x46D1 JUMPI POP POP PUSH1 0x40 DUP1 MLOAD DUP1 DUP3 ADD SWAP1 SWAP2 MSTORE PUSH1 0x1 DUP2 MSTORE PUSH1 0x3 PUSH1 0xFC SHL PUSH1 0x20 DUP3 ADD MSTORE SWAP1 JUMP JUMPDEST DUP2 PUSH1 0x0 JUMPDEST DUP2 ISZERO PUSH2 0x46FB JUMPI DUP1 PUSH2 0x46E5 DUP2 PUSH2 0x52DE JUMP JUMPDEST SWAP2 POP PUSH2 0x46F4 SWAP1 POP PUSH1 0xA DUP4 PUSH2 0x5216 JUMP JUMPDEST SWAP2 POP PUSH2 0x46D5 JUMP JUMPDEST PUSH1 0x0 DUP2 PUSH8 0xFFFFFFFFFFFFFFFF DUP2 GT ISZERO PUSH2 0x4724 JUMPI PUSH4 0x4E487B71 PUSH1 0xE0 SHL PUSH1 0x0 MSTORE PUSH1 0x41 PUSH1 0x4 MSTORE PUSH1 0x24 PUSH1 0x0 REVERT JUMPDEST PUSH1 0x40 MLOAD SWAP1 DUP1 DUP3 MSTORE DUP1 PUSH1 0x1F ADD PUSH1 0x1F NOT AND PUSH1 0x20 ADD DUP3 ADD PUSH1 0x40 MSTORE DUP1 ISZERO PUSH2 0x474E JUMPI PUSH1 0x20 DUP3 ADD DUP2 DUP1 CALLDATASIZE DUP4 CALLDATACOPY ADD SWAP1 POP JUMPDEST POP SWAP1 POP JUMPDEST DUP5 ISZERO PUSH2 0x3777 JUMPI PUSH2 0x4763 PUSH1 0x1 DUP4 PUSH2 0x5249 JUMP JUMPDEST SWAP2 POP PUSH2 0x4770 PUSH1 0xA DUP7 PUSH2 0x52F9 JUMP JUMPDEST PUSH2 0x477B SWAP1 PUSH1 0x30 PUSH2 0x51FE JUMP JUMPDEST PUSH1 0xF8 SHL DUP2 DUP4 DUP2 MLOAD DUP2 LT PUSH2 0x479E JUMPI PUSH4 0x4E487B71 PUSH1 0xE0 SHL PUSH1 0x0 MSTORE PUSH1 0x32 PUSH1 0x4 MSTORE PUSH1 0x24 PUSH1 0x0 REVERT JUMPDEST PUSH1 0x20 ADD ADD SWAP1 PUSH1 0x1 PUSH1 0x1 PUSH1 0xF8 SHL SUB NOT AND SWAP1 DUP2 PUSH1 0x0 BYTE SWAP1 MSTORE8 POP PUSH2 0x47C0 PUSH1 0xA DUP7 PUSH2 0x5216 JUMP JUMPDEST SWAP5 POP PUSH2 0x4752 JUMP JUMPDEST PUSH1 0x1 PUSH1 0x1 PUSH1 0xA0 SHL SUB DUP4 AND PUSH2 0x4822 JUMPI PUSH2 0x481D DUP2 PUSH1 0xA DUP1 SLOAD PUSH1 0x0 DUP4 DUP2 MSTORE PUSH1 0xB PUSH1 0x20 MSTORE PUSH1 0x40 DUP2 KECCAK256 DUP3 SWAP1 SSTORE PUSH1 0x1 DUP3 ADD DUP4 SSTORE SWAP2 SWAP1 SWAP2 MSTORE PUSH32 0xC65A7BB8D6351C1CF70C95A316CC6A92839C986682D98BC35F958F4883F9D2A8 ADD SSTORE JUMP JUMPDEST PUSH2 0x4845 JUMP JUMPDEST DUP2 PUSH1 0x1 PUSH1 0x1 PUSH1 0xA0 SHL SUB AND DUP4 PUSH1 0x1 PUSH1 0x1 PUSH1 0xA0 SHL SUB AND EQ PUSH2 0x4845 JUMPI PUSH2 0x4845 DUP4 DUP3 PUSH2 0x487F JUMP JUMPDEST PUSH1 0x1 PUSH1 0x1 PUSH1 0xA0 SHL SUB DUP3 AND PUSH2 0x485C JUMPI PUSH2 0x11E1 DUP2 PUSH2 0x491C JUMP JUMPDEST DUP3 PUSH1 0x1 PUSH1 0x1 PUSH1 0xA0 SHL SUB AND DUP3 PUSH1 0x1 PUSH1 0x1 PUSH1 0xA0 SHL SUB AND EQ PUSH2 0x11E1 JUMPI PUSH2 0x11E1 DUP3 DUP3 PUSH2 0x49F5 JUMP JUMPDEST PUSH1 0x0 PUSH1 0x1 PUSH2 0x488C DUP5 PUSH2 0x19CC JUMP JUMPDEST PUSH2 0x4896 SWAP2 SWAP1 PUSH2 0x5249 JUMP JUMPDEST PUSH1 0x0 DUP4 DUP2 MSTORE PUSH1 0x9 PUSH1 0x20 MSTORE PUSH1 0x40 SWAP1 KECCAK256 SLOAD SWAP1 SWAP2 POP DUP1 DUP3 EQ PUSH2 0x48E9 JUMPI PUSH1 0x1 PUSH1 0x1 PUSH1 0xA0 SHL SUB DUP5 AND PUSH1 0x0 SWAP1 DUP2 MSTORE PUSH1 0x8 PUSH1 0x20 SWAP1 DUP2 MSTORE PUSH1 0x40 DUP1 DUP4 KECCAK256 DUP6 DUP5 MSTORE DUP3 MSTORE DUP1 DUP4 KECCAK256 SLOAD DUP5 DUP5 MSTORE DUP2 DUP5 KECCAK256 DUP2 SWAP1 SSTORE DUP4 MSTORE PUSH1 0x9 SWAP1 SWAP2 MSTORE SWAP1 KECCAK256 DUP2 SWAP1 SSTORE JUMPDEST POP PUSH1 0x0 SWAP2 DUP3 MSTORE PUSH1 0x9 PUSH1 0x20 SWAP1 DUP2 MSTORE PUSH1 0x40 DUP1 DUP5 KECCAK256 DUP5 SWAP1 SSTORE PUSH1 0x1 PUSH1 0x1 PUSH1 0xA0 SHL SUB SWAP1 SWAP5 AND DUP4 MSTORE PUSH1 0x8 DUP2 MSTORE DUP4 DUP4 KECCAK256 SWAP2 DUP4 MSTORE MSTORE SWAP1 DUP2 KECCAK256 SSTORE JUMP JUMPDEST PUSH1 0xA SLOAD PUSH1 0x0 SWAP1 PUSH2 0x492E SWAP1 PUSH1 0x1 SWAP1 PUSH2 0x5249 JUMP JUMPDEST PUSH1 0x0 DUP4 DUP2 MSTORE PUSH1 0xB PUSH1 0x20 MSTORE PUSH1 0x40 DUP2 KECCAK256 SLOAD PUSH1 0xA DUP1 SLOAD SWAP4 SWAP5 POP SWAP1 SWAP3 DUP5 SWAP1 DUP2 LT PUSH2 0x4964 JUMPI PUSH4 0x4E487B71 PUSH1 0xE0 SHL PUSH1 0x0 MSTORE PUSH1 0x32 PUSH1 0x4 MSTORE PUSH1 0x24 PUSH1 0x0 REVERT JUMPDEST SWAP1 PUSH1 0x0 MSTORE PUSH1 0x20 PUSH1 0x0 KECCAK256 ADD SLOAD SWAP1 POP DUP1 PUSH1 0xA DUP4 DUP2 SLOAD DUP2 LT PUSH2 0x4993 JUMPI PUSH4 0x4E487B71 PUSH1 0xE0 SHL PUSH1 0x0 MSTORE PUSH1 0x32 PUSH1 0x4 MSTORE PUSH1 0x24 PUSH1 0x0 REVERT JUMPDEST PUSH1 0x0 SWAP2 DUP3 MSTORE PUSH1 0x20 DUP1 DUP4 KECCAK256 SWAP1 SWAP2 ADD SWAP3 SWAP1 SWAP3 SSTORE DUP3 DUP2 MSTORE PUSH1 0xB SWAP1 SWAP2 MSTORE PUSH1 0x40 DUP1 DUP3 KECCAK256 DUP5 SWAP1 SSTORE DUP6 DUP3 MSTORE DUP2 KECCAK256 SSTORE PUSH1 0xA DUP1 SLOAD DUP1 PUSH2 0x49D9 JUMPI PUSH4 0x4E487B71 PUSH1 0xE0 SHL PUSH1 0x0 MSTORE PUSH1 0x31 PUSH1 0x4 MSTORE PUSH1 0x24 PUSH1 0x0 REVERT JUMPDEST PUSH1 0x1 SWAP1 SUB DUP2 DUP2 SWAP1 PUSH1 0x0 MSTORE PUSH1 0x20 PUSH1 0x0 KECCAK256 ADD PUSH1 0x0 SWAP1 SSTORE SWAP1 SSTORE POP POP POP POP JUMP JUMPDEST PUSH1 0x0 PUSH2 0x4A00 DUP4 PUSH2 0x19CC JUMP JUMPDEST PUSH1 0x1 PUSH1 0x1 PUSH1 0xA0 SHL SUB SWAP1 SWAP4 AND PUSH1 0x0 SWAP1 DUP2 MSTORE PUSH1 0x8 PUSH1 0x20 SWAP1 DUP2 MSTORE PUSH1 0x40 DUP1 DUP4 KECCAK256 DUP7 DUP5 MSTORE DUP3 MSTORE DUP1 DUP4 KECCAK256 DUP6 SWAP1 SSTORE SWAP4 DUP3 MSTORE PUSH1 0x9 SWAP1 MSTORE SWAP2 SWAP1 SWAP2 KECCAK256 SWAP2 SWAP1 SWAP2 SSTORE POP JUMP JUMPDEST DUP3 DUP1 SLOAD PUSH2 0x4A45 SWAP1 PUSH2 0x52A3 JUMP JUMPDEST SWAP1 PUSH1 0x0 MSTORE PUSH1 0x20 PUSH1 0x0 KECCAK256 SWAP1 PUSH1 0x1F ADD PUSH1 0x20 SWAP1 DIV DUP2 ADD SWAP3 DUP3 PUSH2 0x4A67 JUMPI PUSH1 0x0 DUP6 SSTORE PUSH2 0x4AAD JUMP JUMPDEST DUP3 PUSH1 0x1F LT PUSH2 0x4A80 JUMPI DUP1 MLOAD PUSH1 0xFF NOT AND DUP4 DUP1 ADD OR DUP6 SSTORE PUSH2 0x4AAD JUMP JUMPDEST DUP3 DUP1 ADD PUSH1 0x1 ADD DUP6 SSTORE DUP3 ISZERO PUSH2 0x4AAD JUMPI SWAP2 DUP3 ADD JUMPDEST DUP3 DUP2 GT ISZERO PUSH2 0x4AAD JUMPI DUP3 MLOAD DUP3 SSTORE SWAP2 PUSH1 0x20 ADD SWAP2 SWAP1 PUSH1 0x1 ADD SWAP1 PUSH2 0x4A92 JUMP JUMPDEST POP PUSH2 0x4AB9 SWAP3 SWAP2 POP PUSH2 0x4AF3 JUMP JUMPDEST POP SWAP1 JUMP JUMPDEST POP DUP1 SLOAD PUSH2 0x4AC9 SWAP1 PUSH2 0x52A3 JUMP JUMPDEST PUSH1 0x0 DUP3 SSTORE DUP1 PUSH1 0x1F LT PUSH2 0x4AD9 JUMPI POP POP JUMP JUMPDEST PUSH1 0x1F ADD PUSH1 0x20 SWAP1 DIV SWAP1 PUSH1 0x0 MSTORE PUSH1 0x20 PUSH1 0x0 KECCAK256 SWAP1 DUP2 ADD SWAP1 PUSH2 0x1688 SWAP2 SWAP1 JUMPDEST JUMPDEST DUP1 DUP3 GT ISZERO PUSH2 0x4AB9 JUMPI PUSH1 0x0 DUP2 SSTORE PUSH1 0x1 ADD PUSH2 0x4AF4 JUMP JUMPDEST PUSH1 0x0 PUSH8 0xFFFFFFFFFFFFFFFF DUP4 GT ISZERO PUSH2 0x4B22 JUMPI PUSH2 0x4B22 PUSH2 0x5339 JUMP JUMPDEST PUSH2 0x4B35 PUSH1 0x1F DUP5 ADD PUSH1 0x1F NOT AND PUSH1 0x20 ADD PUSH2 0x51CD JUMP JUMPDEST SWAP1 POP DUP3 DUP2 MSTORE DUP4 DUP4 DUP4 ADD GT ISZERO PUSH2 0x4B49 JUMPI PUSH1 0x0 DUP1 REVERT JUMPDEST DUP3 DUP3 PUSH1 0x20 DUP4 ADD CALLDATACOPY PUSH1 0x0 PUSH1 0x20 DUP5 DUP4 ADD ADD MSTORE SWAP4 SWAP3 POP POP POP JUMP JUMPDEST DUP1 CALLDATALOAD PUSH1 0x1 PUSH1 0x1 PUSH1 0xA0 SHL SUB DUP2 AND DUP2 EQ PUSH2 0x4494 JUMPI PUSH1 0x0 DUP1 REVERT JUMPDEST PUSH1 0x0 PUSH1 0x20 DUP3 DUP5 SUB SLT ISZERO PUSH2 0x4B88 JUMPI DUP1 DUP2 REVERT JUMPDEST PUSH2 0x3992 DUP3 PUSH2 0x4B60 JUMP JUMPDEST PUSH1 0x0 DUP1 PUSH1 0x40 DUP4 DUP6 SUB SLT ISZERO PUSH2 0x4BA3 JUMPI DUP1 DUP2 REVERT JUMPDEST PUSH2 0x4BAC DUP4 PUSH2 0x4B60 JUMP JUMPDEST SWAP2 POP PUSH2 0x4BBA PUSH1 0x20 DUP5 ADD PUSH2 0x4B60 JUMP JUMPDEST SWAP1 POP SWAP3 POP SWAP3 SWAP1 POP JUMP JUMPDEST PUSH1 0x0 DUP1 PUSH1 0x0 PUSH1 0x60 DUP5 DUP7 SUB SLT ISZERO PUSH2 0x4BD7 JUMPI DUP1 DUP2 REVERT JUMPDEST PUSH2 0x4BE0 DUP5 PUSH2 0x4B60 JUMP JUMPDEST SWAP3 POP PUSH2 0x4BEE PUSH1 0x20 DUP6 ADD PUSH2 0x4B60 JUMP JUMPDEST SWAP2 POP PUSH1 0x40 DUP5 ADD CALLDATALOAD SWAP1 POP SWAP3 POP SWAP3 POP SWAP3 JUMP JUMPDEST PUSH1 0x0 DUP1 PUSH1 0x0 DUP1 PUSH1 0x80 DUP6 DUP8 SUB SLT ISZERO PUSH2 0x4C13 JUMPI DUP1 DUP2 REVERT JUMPDEST PUSH2 0x4C1C DUP6 PUSH2 0x4B60 JUMP JUMPDEST SWAP4 POP PUSH2 0x4C2A PUSH1 0x20 DUP7 ADD PUSH2 0x4B60 JUMP JUMPDEST SWAP3 POP PUSH1 0x40 DUP6 ADD CALLDATALOAD SWAP2 POP PUSH1 0x60 DUP6 ADD CALLDATALOAD PUSH8 0xFFFFFFFFFFFFFFFF DUP2 GT ISZERO PUSH2 0x4C4C JUMPI DUP2 DUP3 REVERT JUMPDEST DUP6 ADD PUSH1 0x1F DUP2 ADD DUP8 SGT PUSH2 0x4C5C JUMPI DUP2 DUP3 REVERT JUMPDEST PUSH2 0x4C6B DUP8 DUP3 CALLDATALOAD PUSH1 0x20 DUP5 ADD PUSH2 0x4B08 JUMP JUMPDEST SWAP2 POP POP SWAP3 SWAP6 SWAP2 SWAP5 POP SWAP3 POP JUMP JUMPDEST PUSH1 0x0 DUP1 PUSH1 0x40 DUP4 DUP6 SUB SLT ISZERO PUSH2 0x4C89 JUMPI DUP2 DUP3 REVERT JUMPDEST PUSH2 0x4C92 DUP4 PUSH2 0x4B60 JUMP JUMPDEST SWAP2 POP PUSH1 0x20 DUP4 ADD CALLDATALOAD PUSH2 0x4CA2 DUP2 PUSH2 0x534F JUMP JUMPDEST DUP1 SWAP2 POP POP SWAP3 POP SWAP3 SWAP1 POP JUMP JUMPDEST PUSH1 0x0 DUP1 PUSH1 0x40 DUP4 DUP6 SUB SLT ISZERO PUSH2 0x4CBF JUMPI DUP2 DUP3 REVERT JUMPDEST PUSH2 0x4CC8 DUP4 PUSH2 0x4B60 JUMP JUMPDEST SWAP5 PUSH1 0x20 SWAP4 SWAP1 SWAP4 ADD CALLDATALOAD SWAP4 POP POP POP JUMP JUMPDEST PUSH1 0x0 PUSH1 0x20 DUP1 DUP4 DUP6 SUB SLT ISZERO PUSH2 0x4CE8 JUMPI DUP2 DUP3 REVERT JUMPDEST DUP3 CALLDATALOAD PUSH8 0xFFFFFFFFFFFFFFFF DUP1 DUP3 GT ISZERO PUSH2 0x4CFF JUMPI DUP4 DUP5 REVERT JUMPDEST DUP2 DUP6 ADD SWAP2 POP DUP6 PUSH1 0x1F DUP4 ADD SLT PUSH2 0x4D12 JUMPI DUP4 DUP5 REVERT JUMPDEST DUP2 CALLDATALOAD DUP2 DUP2 GT ISZERO PUSH2 0x4D24 JUMPI PUSH2 0x4D24 PUSH2 0x5339 JUMP JUMPDEST DUP1 PUSH1 0x5 SHL SWAP2 POP PUSH2 0x4D35 DUP5 DUP4 ADD PUSH2 0x51CD JUMP JUMPDEST DUP2 DUP2 MSTORE DUP5 DUP2 ADD SWAP1 DUP5 DUP7 ADD DUP5 DUP7 ADD DUP8 ADD DUP11 LT ISZERO PUSH2 0x4D4F JUMPI DUP8 DUP9 REVERT JUMPDEST DUP8 SWAP6 POP JUMPDEST DUP4 DUP7 LT ISZERO PUSH2 0x4D78 JUMPI PUSH2 0x4D64 DUP2 PUSH2 0x4B60 JUMP JUMPDEST DUP4 MSTORE PUSH1 0x1 SWAP6 SWAP1 SWAP6 ADD SWAP5 SWAP2 DUP7 ADD SWAP2 DUP7 ADD PUSH2 0x4D53 JUMP JUMPDEST POP SWAP9 SWAP8 POP POP POP POP POP POP POP POP JUMP JUMPDEST PUSH1 0x0 PUSH1 0x20 DUP3 DUP5 SUB SLT ISZERO PUSH2 0x4D96 JUMPI DUP1 DUP2 REVERT JUMPDEST DUP2 CALLDATALOAD PUSH2 0x3992 DUP2 PUSH2 0x534F JUMP JUMPDEST PUSH1 0x0 PUSH1 0x20 DUP3 DUP5 SUB SLT ISZERO PUSH2 0x4DB2 JUMPI DUP1 DUP2 REVERT JUMPDEST DUP2 MLOAD PUSH2 0x3992 DUP2 PUSH2 0x534F JUMP JUMPDEST PUSH1 0x0 PUSH1 0x20 DUP3 DUP5 SUB SLT ISZERO PUSH2 0x4DCE JUMPI DUP1 DUP2 REVERT JUMPDEST DUP2 CALLDATALOAD PUSH2 0x3992 DUP2 PUSH2 0x535D JUMP JUMPDEST PUSH1 0x0 PUSH1 0x20 DUP3 DUP5 SUB SLT ISZERO PUSH2 0x4DEA JUMPI DUP1 DUP2 REVERT JUMPDEST DUP2 MLOAD PUSH2 0x3992 DUP2 PUSH2 0x535D JUMP JUMPDEST PUSH1 0x0 PUSH1 0x20 DUP3 DUP5 SUB SLT ISZERO PUSH2 0x4E06 JUMPI DUP1 DUP2 REVERT JUMPDEST DUP2 CALLDATALOAD PUSH8 0xFFFFFFFFFFFFFFFF DUP2 GT ISZERO PUSH2 0x4E1C JUMPI DUP2 DUP3 REVERT JUMPDEST DUP3 ADD PUSH1 0x1F DUP2 ADD DUP5 SGT PUSH2 0x4E2C JUMPI DUP2 DUP3 REVERT JUMPDEST PUSH2 0x3777 DUP5 DUP3 CALLDATALOAD PUSH1 0x20 DUP5 ADD PUSH2 0x4B08 JUMP JUMPDEST PUSH1 0x0 PUSH1 0x20 DUP3 DUP5 SUB SLT ISZERO PUSH2 0x4E4C JUMPI DUP1 DUP2 REVERT JUMPDEST POP CALLDATALOAD SWAP2 SWAP1 POP JUMP JUMPDEST PUSH1 0x0 DUP1 PUSH1 0x40 DUP4 DUP6 SUB SLT ISZERO PUSH2 0x4E65 JUMPI DUP2 DUP3 REVERT JUMPDEST POP POP DUP1 CALLDATALOAD SWAP3 PUSH1 0x20 SWAP1 SWAP2 ADD CALLDATALOAD SWAP2 POP JUMP JUMPDEST PUSH1 0x0 DUP2 MLOAD DUP1 DUP5 MSTORE PUSH2 0x4E8C DUP2 PUSH1 0x20 DUP7 ADD PUSH1 0x20 DUP7 ADD PUSH2 0x5260 JUMP JUMPDEST PUSH1 0x1F ADD PUSH1 0x1F NOT AND SWAP3 SWAP1 SWAP3 ADD PUSH1 0x20 ADD SWAP3 SWAP2 POP POP JUMP JUMPDEST PUSH1 0x0 DUP4 MLOAD PUSH2 0x4EB2 DUP2 DUP5 PUSH1 0x20 DUP9 ADD PUSH2 0x5260 JUMP JUMPDEST DUP4 MLOAD SWAP1 DUP4 ADD SWAP1 PUSH2 0x4EC6 DUP2 DUP4 PUSH1 0x20 DUP9 ADD PUSH2 0x5260 JUMP JUMPDEST ADD SWAP5 SWAP4 POP POP POP POP JUMP JUMPDEST PUSH1 0x0 DUP4 MLOAD PUSH2 0x4EE1 DUP2 DUP5 PUSH1 0x20 DUP9 ADD PUSH2 0x5260 JUMP JUMPDEST DUP4 MLOAD SWAP1 DUP4 ADD SWAP1 PUSH2 0x4EF5 DUP2 DUP4 PUSH1 0x20 DUP9 ADD PUSH2 0x5260 JUMP JUMPDEST PUSH5 0x173539B7B7 PUSH1 0xD9 SHL SWAP2 ADD SWAP1 DUP2 MSTORE PUSH1 0x5 ADD SWAP5 SWAP4 POP POP POP POP JUMP JUMPDEST PUSH1 0x0 DUP1 DUP4 SLOAD DUP3 PUSH1 0x1 DUP3 DUP2 SHR SWAP2 POP DUP1 DUP4 AND DUP1 PUSH2 0x4F2A JUMPI PUSH1 0x7F DUP4 AND SWAP3 POP JUMPDEST PUSH1 0x20 DUP1 DUP5 LT DUP3 EQ ISZERO PUSH2 0x4F4A JUMPI PUSH4 0x4E487B71 PUSH1 0xE0 SHL DUP8 MSTORE PUSH1 0x22 PUSH1 0x4 MSTORE PUSH1 0x24 DUP8 REVERT JUMPDEST DUP2 DUP1 ISZERO PUSH2 0x4F5E JUMPI PUSH1 0x1 DUP2 EQ PUSH2 0x4F6F JUMPI PUSH2 0x4F9B JUMP JUMPDEST PUSH1 0xFF NOT DUP7 AND DUP10 MSTORE DUP5 DUP10 ADD SWAP7 POP PUSH2 0x4F9B JUMP JUMPDEST PUSH1 0x0 DUP11 DUP2 MSTORE PUSH1 0x20 SWAP1 KECCAK256 DUP9 JUMPDEST DUP7 DUP2 LT ISZERO PUSH2 0x4F93 JUMPI DUP2 SLOAD DUP12 DUP3 ADD MSTORE SWAP1 DUP6 ADD SWAP1 DUP4 ADD PUSH2 0x4F7A JUMP JUMPDEST POP POP DUP5 DUP10 ADD SWAP7 POP JUMPDEST POP SWAP5 SWAP9 SWAP8 POP POP POP POP POP POP POP POP JUMP JUMPDEST PUSH1 0x1 PUSH1 0x1 PUSH1 0xA0 SHL SUB DUP6 DUP2 AND DUP3 MSTORE DUP5 AND PUSH1 0x20 DUP3 ADD MSTORE PUSH1 0x40 DUP2 ADD DUP4 SWAP1 MSTORE PUSH1 0x80 PUSH1 0x60 DUP3 ADD DUP2 SWAP1 MSTORE PUSH1 0x0 SWAP1 PUSH2 0x4FDC SWAP1 DUP4 ADD DUP5 PUSH2 0x4E74 JUMP JUMPDEST SWAP7 SWAP6 POP POP POP POP POP POP JUMP JUMPDEST PUSH1 0x20 DUP1 DUP3 MSTORE DUP3 MLOAD DUP3 DUP3 ADD DUP2 SWAP1 MSTORE PUSH1 0x0 SWAP2 SWAP1 DUP5 DUP3 ADD SWAP1 PUSH1 0x40 DUP6 ADD SWAP1 DUP5 JUMPDEST DUP2 DUP2 LT ISZERO PUSH2 0x501E JUMPI DUP4 MLOAD DUP4 MSTORE SWAP3 DUP5 ADD SWAP3 SWAP2 DUP5 ADD SWAP2 PUSH1 0x1 ADD PUSH2 0x5002 JUMP JUMPDEST POP SWAP1 SWAP7 SWAP6 POP POP POP POP POP POP JUMP JUMPDEST PUSH1 0x20 DUP2 MSTORE PUSH1 0x0 PUSH2 0x3992 PUSH1 0x20 DUP4 ADD DUP5 PUSH2 0x4E74 JUMP JUMPDEST PUSH1 0xC0 DUP2 MSTORE PUSH1 0x0 PUSH2 0x5050 PUSH1 0xC0 DUP4 ADD DUP10 PUSH2 0x4E74 JUMP JUMPDEST PUSH1 0x20 DUP4 ADD SWAP8 SWAP1 SWAP8 MSTORE POP PUSH1 0x40 DUP2 ADD SWAP5 SWAP1 SWAP5 MSTORE PUSH1 0x60 DUP5 ADD SWAP3 SWAP1 SWAP3 MSTORE PUSH1 0x80 DUP4 ADD MSTORE PUSH1 0xA0 SWAP1 SWAP2 ADD MSTORE SWAP2 SWAP1 POP JUMP JUMPDEST PUSH1 0x20 DUP1 DUP3 MSTORE PUSH1 0x32 SWAP1 DUP3 ADD MSTORE PUSH32 0x4552433732313A207472616E7366657220746F206E6F6E204552433732315265 PUSH1 0x40 DUP3 ADD MSTORE PUSH18 0x31B2B4BB32B91034B6B83632B6B2B73A32B9 PUSH1 0x71 SHL PUSH1 0x60 DUP3 ADD MSTORE PUSH1 0x80 ADD SWAP1 JUMP JUMPDEST PUSH1 0x20 DUP1 DUP3 MSTORE PUSH1 0x10 SWAP1 DUP3 ADD MSTORE PUSH16 0x14185D5CD8589B194E881C185D5CD959 PUSH1 0x82 SHL PUSH1 0x40 DUP3 ADD MSTORE PUSH1 0x60 ADD SWAP1 JUMP JUMPDEST PUSH1 0x20 DUP1 DUP3 MSTORE DUP2 DUP2 ADD MSTORE PUSH32 0x4F776E61626C653A2063616C6C6572206973206E6F7420746865206F776E6572 PUSH1 0x40 DUP3 ADD MSTORE PUSH1 0x60 ADD SWAP1 JUMP JUMPDEST PUSH1 0x20 DUP1 DUP3 MSTORE PUSH1 0x31 SWAP1 DUP3 ADD MSTORE PUSH32 0x4552433732313A207472616E736665722063616C6C6572206973206E6F74206F PUSH1 0x40 DUP3 ADD MSTORE PUSH17 0x1DDB995C881B9BDC88185C1C1C9BDD9959 PUSH1 0x7A SHL PUSH1 0x60 DUP3 ADD MSTORE PUSH1 0x80 ADD SWAP1 JUMP JUMPDEST PUSH1 0x20 DUP1 DUP3 MSTORE PUSH1 0x32 SWAP1 DUP3 ADD MSTORE PUSH32 0x45786365656473206D6178206E756D626572206F66204D6F6E676F6F73657320 PUSH1 0x40 DUP3 ADD MSTORE PUSH18 0x34B71037B732903A3930B739B0B1BA34B7B7 PUSH1 0x71 SHL PUSH1 0x60 DUP3 ADD MSTORE PUSH1 0x80 ADD SWAP1 JUMP JUMPDEST PUSH1 0x40 MLOAD PUSH1 0x1F DUP3 ADD PUSH1 0x1F NOT AND DUP2 ADD PUSH8 0xFFFFFFFFFFFFFFFF DUP2 GT DUP3 DUP3 LT OR ISZERO PUSH2 0x51F6 JUMPI PUSH2 0x51F6 PUSH2 0x5339 JUMP JUMPDEST PUSH1 0x40 MSTORE SWAP2 SWAP1 POP JUMP JUMPDEST PUSH1 0x0 DUP3 NOT DUP3 GT ISZERO PUSH2 0x5211 JUMPI PUSH2 0x5211 PUSH2 0x530D JUMP JUMPDEST POP ADD SWAP1 JUMP JUMPDEST PUSH1 0x0 DUP3 PUSH2 0x5225 JUMPI PUSH2 0x5225 PUSH2 0x5323 JUMP JUMPDEST POP DIV SWAP1 JUMP JUMPDEST PUSH1 0x0 DUP2 PUSH1 0x0 NOT DIV DUP4 GT DUP3 ISZERO ISZERO AND ISZERO PUSH2 0x5244 JUMPI PUSH2 0x5244 PUSH2 0x530D JUMP JUMPDEST POP MUL SWAP1 JUMP JUMPDEST PUSH1 0x0 DUP3 DUP3 LT ISZERO PUSH2 0x525B JUMPI PUSH2 0x525B PUSH2 0x530D JUMP JUMPDEST POP SUB SWAP1 JUMP JUMPDEST PUSH1 0x0 JUMPDEST DUP4 DUP2 LT ISZERO PUSH2 0x527B JUMPI DUP2 DUP2 ADD MLOAD DUP4 DUP3 ADD MSTORE PUSH1 0x20 ADD PUSH2 0x5263 JUMP JUMPDEST DUP4 DUP2 GT ISZERO PUSH2 0x17CB JUMPI POP POP PUSH1 0x0 SWAP2 ADD MSTORE JUMP JUMPDEST PUSH1 0x0 DUP2 PUSH2 0x529B JUMPI PUSH2 0x529B PUSH2 0x530D JUMP JUMPDEST POP PUSH1 0x0 NOT ADD SWAP1 JUMP JUMPDEST PUSH1 0x1 DUP2 DUP2 SHR SWAP1 DUP3 AND DUP1 PUSH2 0x52B7 JUMPI PUSH1 0x7F DUP3 AND SWAP2 POP JUMPDEST PUSH1 0x20 DUP3 LT DUP2 EQ ISZERO PUSH2 0x52D8 JUMPI PUSH4 0x4E487B71 PUSH1 0xE0 SHL PUSH1 0x0 MSTORE PUSH1 0x22 PUSH1 0x4 MSTORE PUSH1 0x24 PUSH1 0x0 REVERT JUMPDEST POP SWAP2 SWAP1 POP JUMP JUMPDEST PUSH1 0x0 PUSH1 0x0 NOT DUP3 EQ ISZERO PUSH2 0x52F2 JUMPI PUSH2 0x52F2 PUSH2 0x530D JUMP JUMPDEST POP PUSH1 0x1 ADD SWAP1 JUMP JUMPDEST PUSH1 0x0 DUP3 PUSH2 0x5308 JUMPI PUSH2 0x5308 PUSH2 0x5323 JUMP JUMPDEST POP MOD SWAP1 JUMP JUMPDEST PUSH4 0x4E487B71 PUSH1 0xE0 SHL PUSH1 0x0 MSTORE PUSH1 0x11 PUSH1 0x4 MSTORE PUSH1 0x24 PUSH1 0x0 REVERT JUMPDEST PUSH4 0x4E487B71 PUSH1 0xE0 SHL PUSH1 0x0 MSTORE PUSH1 0x12 PUSH1 0x4 MSTORE PUSH1 0x24 PUSH1 0x0 REVERT JUMPDEST PUSH4 0x4E487B71 PUSH1 0xE0 SHL PUSH1 0x0 MSTORE PUSH1 0x41 PUSH1 0x4 MSTORE PUSH1 0x24 PUSH1 0x0 REVERT JUMPDEST DUP1 ISZERO ISZERO DUP2 EQ PUSH2 0x1688 JUMPI PUSH1 0x0 DUP1 REVERT JUMPDEST PUSH1 0x1 PUSH1 0x1 PUSH1 0xE0 SHL SUB NOT DUP2 AND DUP2 EQ PUSH2 0x1688 JUMPI PUSH1 0x0 DUP1 REVERT INVALID LOG2 PUSH5 0x6970667358 0x22 SLT KECCAK256 INVALID 0xC3 0xAD BALANCE MOD 0xEB CREATE SIGNEXTEND 0xBD DUP14 STATICCALL 0xF6 PUSH4 0x8D5B1191 0xBD 0xBF SWAP16 0xD5 0x4D LOG2 SMOD 0x49 PUSH11 0x70F3F6020C3C64736F6C63 NUMBER STOP ADDMOD DIV STOP CALLER "
		},
		"gasEstimates": {
			"creation": {
				"codeDepositCost": "4283400",
				"executionCost": "infinite",
				"totalCost": "infinite"
			},
			"external": {
				"DurationToGestation()": "1161",
				"DurationToGestationUpdate(uint256)": "21212",
				"MAXNFT_LIMIT()": "339",
				"TotalWhitelistNFT()": "1051",
				"addPresaleUser(address[])": "infinite",
				"approve(address,uint256)": "infinite",
				"balanceOf(address)": "1411",
				"baseURI()": "infinite",
				"breedCount()": "1051",
				"breedMaximumUpdate(uint256)": "21211",
				"breedPause()": "1110",
				"breedPauseUpdate(bool)": "22058",
				"breedStore(address)": "3869",
				"burn(uint256)": "infinite",
				"childPrice()": "1140",
				"childPriceUpdate(uint256)": "21189",
				"childURI()": "infinite",
				"disablePublicSale()": "21949",
				"durationForWhitelist()": "1053",
				"eligibleDurationForBreed()": "1095",
				"eligibleDurationForBreedUpdate(uint256)": "21232",
				"enablePublicSale()": "21891",
				"ethEmergencySafe(address,uint256)": "infinite",
				"feeAddress()": "1145",
				"feeAddressUpdate(address)": "22189",
				"gestationApprove(uint256,uint256)": "infinite",
				"getApproved(uint256)": "2200",
				"getChainID()": "248",
				"getUesrAllTokens(address)": "1302",
				"giveBirth(uint256,uint256)": "infinite",
				"indices(uint256)": "1219",
				"isApprovedForAll(address,address)": "infinite",
				"isChild(uint256)": "1218",
				"maxBreedLimit()": "1095",
				"maxBreedLimitUpdate(uint256)": "21167",
				"maxNftLimit()": "1096",
				"maxNftLimitUpdate(uint256)": "21212",
				"maxTokensAtOnce()": "1141",
				"maxWhitelistSize()": "1118",
				"maximumBreedPerUser()": "1097",
				"mintDateForWhitelist()": "1140",
				"mintNftCount()": "1094",
				"mintSignStatus()": "1166",
				"mintWithPromotion(address,uint256)": "infinite",
				"mintWithSignPause(bool)": "22044",
				"name()": "infinite",
				"nftStore(uint256)": "infinite",
				"owner()": "1132",
				"ownerOf(uint256)": "1345",
				"pause()": "23832",
				"paused()": "1116",
				"presaleMint(address,uint256)": "infinite",
				"presalePause()": "1133",
				"presaleStore(address)": "1344",
				"publicSale()": "1155",
				"readyToBreed(uint256)": "2216",
				"removePresaleUser(address[])": "infinite",
				"safeMint(address,uint256)": "infinite",
				"safeTransferFrom(address,address,uint256)": "infinite",
				"safeTransferFrom(address,address,uint256,bytes)": "infinite",
				"setApprovalForAll(address,bool)": "23391",
				"setBaseURI(string)": "infinite",
				"setChildURI(string)": "infinite",
				"setPresalePause(bool)": "22146",
				"supportsInterface(bytes4)": "infinite",
				"symbol()": "infinite",
				"tokenByIndex(uint256)": "2894",
				"tokenEmergencySafe(address,address,uint256)": "infinite",
				"tokenOfOwnerByIndex(address,uint256)": "2409",
				"tokenPrice()": "1119",
				"tokenPriceUpdate(uint256)": "21213",
				"tokenURI(uint256)": "infinite",
				"totalPresaleUser()": "1096",
				"totalSupply()": "1116",
				"transferFrom(address,address,uint256)": "infinite",
				"transferOwnership(address)": "23711",
				"unpause()": "23810",
				"updateDurationForWhitelist(uint256)": "21235",
				"updateMaxTokensAtOnce(uint256)": "21254",
				"updateMintDateForWhitelist(uint256)": "21146",
				"updatemaxWhitelistSize(uint256)": "21168",
				"userAllTokens(address)": "infinite",
				"userTokens(address,uint256)": "2265"
			},
			"internal": {
				"_baseURI()": "infinite",
				"_beforeTokenTransfer(address,address,uint256)": "infinite",
				"_burn(uint256)": "infinite",
				"randomIndex(uint256)": "infinite",
				"safeMintWithRandomIndex(address,uint256,bool)": "infinite"
			}
		},
		"methodIdentifiers": {
			"DurationToGestation()": "79446221",
			"DurationToGestationUpdate(uint256)": "8e689c81",
			"MAXNFT_LIMIT()": "7556e0e2",
			"TotalWhitelistNFT()": "68cd5bfe",
			"addPresaleUser(address[])": "7b2f4cee",
			"approve(address,uint256)": "095ea7b3",
			"balanceOf(address)": "70a08231",
			"baseURI()": "6c0360eb",
			"breedCount()": "e608eb1f",
			"breedMaximumUpdate(uint256)": "e3ae0828",
			"breedPause()": "69643669",
			"breedPauseUpdate(bool)": "cee3e7bd",
			"breedStore(address)": "04ecf881",
			"burn(uint256)": "42966c68",
			"childPrice()": "34fc584b",
			"childPriceUpdate(uint256)": "eacb0d29",
			"childURI()": "472fc0ce",
			"disablePublicSale()": "ec8db817",
			"durationForWhitelist()": "7a1b595a",
			"eligibleDurationForBreed()": "b49d97ed",
			"eligibleDurationForBreedUpdate(uint256)": "fbe17aae",
			"enablePublicSale()": "2316b4da",
			"ethEmergencySafe(address,uint256)": "bbf961a4",
			"feeAddress()": "41275358",
			"feeAddressUpdate(address)": "54c001dd",
			"gestationApprove(uint256,uint256)": "bd1b929c",
			"getApproved(uint256)": "081812fc",
			"getChainID()": "564b81ef",
			"getUesrAllTokens(address)": "0015284a",
			"giveBirth(uint256,uint256)": "7b422184",
			"indices(uint256)": "a1a953fd",
			"isApprovedForAll(address,address)": "e985e9c5",
			"isChild(uint256)": "2eb88cee",
			"maxBreedLimit()": "da7438d5",
			"maxBreedLimitUpdate(uint256)": "d5303baa",
			"maxNftLimit()": "c1957b84",
			"maxNftLimitUpdate(uint256)": "c6cde4aa",
			"maxTokensAtOnce()": "22a7cf5f",
			"maxWhitelistSize()": "5f22eb6d",
			"maximumBreedPerUser()": "25f1ffb8",
			"mintDateForWhitelist()": "a32da8c2",
			"mintNftCount()": "f92abf62",
			"mintSignStatus()": "5646f79c",
			"mintWithPromotion(address,uint256)": "c0d2ccf8",
			"mintWithSignPause(bool)": "ac5a7359",
			"name()": "06fdde03",
			"nftStore(uint256)": "020f41fe",
			"owner()": "8da5cb5b",
			"ownerOf(uint256)": "6352211e",
			"pause()": "8456cb59",
			"paused()": "5c975abb",
			"presaleMint(address,uint256)": "9b6a6709",
			"presalePause()": "33ba9daa",
			"presaleStore(address)": "11d0ae2e",
			"publicSale()": "33bc1c5c",
			"readyToBreed(uint256)": "2c1115ef",
			"removePresaleUser(address[])": "f531b768",
			"safeMint(address,uint256)": "a1448194",
			"safeTransferFrom(address,address,uint256)": "42842e0e",
			"safeTransferFrom(address,address,uint256,bytes)": "b88d4fde",
			"setApprovalForAll(address,bool)": "a22cb465",
			"setBaseURI(string)": "55f804b3",
			"setChildURI(string)": "ae2c94b2",
			"setPresalePause(bool)": "eeecf85d",
			"supportsInterface(bytes4)": "01ffc9a7",
			"symbol()": "95d89b41",
			"tokenByIndex(uint256)": "4f6ccce7",
			"tokenEmergencySafe(address,address,uint256)": "477a056c",
			"tokenOfOwnerByIndex(address,uint256)": "2f745c59",
			"tokenPrice()": "7ff9b596",
			"tokenPriceUpdate(uint256)": "26b52ab6",
			"tokenURI(uint256)": "c87b56dd",
			"totalPresaleUser()": "8e2137ad",
			"totalSupply()": "18160ddd",
			"transferFrom(address,address,uint256)": "23b872dd",
			"transferOwnership(address)": "f2fde38b",
			"unpause()": "3f4ba83a",
			"updateDurationForWhitelist(uint256)": "80ca5b46",
			"updateMaxTokensAtOnce(uint256)": "fd9425f5",
			"updateMintDateForWhitelist(uint256)": "bf91ed1e",
			"updatemaxWhitelistSize(uint256)": "59cc38d9",
			"userAllTokens(address)": "e503ea0f",
			"userTokens(address,uint256)": "f9f411d8"
		}
	},
	"abi": [
		{
			"inputs": [],
			"stateMutability": "nonpayable",
			"type": "constructor"
		},
		{
			"anonymous": false,
			"inputs": [
				{
					"indexed": true,
					"internalType": "address",
					"name": "account",
					"type": "address"
				}
			],
			"name": "AddedToWhitelist",
			"type": "event"
		},
		{
			"anonymous": false,
			"inputs": [
				{
					"indexed": true,
					"internalType": "address",
					"name": "owner",
					"type": "address"
				},
				{
					"indexed": true,
					"internalType": "address",
					"name": "approved",
					"type": "address"
				},
				{
					"indexed": true,
					"internalType": "uint256",
					"name": "tokenId",
					"type": "uint256"
				}
			],
			"name": "Approval",
			"type": "event"
		},
		{
			"anonymous": false,
			"inputs": [
				{
					"indexed": true,
					"internalType": "address",
					"name": "owner",
					"type": "address"
				},
				{
					"indexed": true,
					"internalType": "address",
					"name": "operator",
					"type": "address"
				},
				{
					"indexed": false,
					"internalType": "bool",
					"name": "approved",
					"type": "bool"
				}
			],
			"name": "ApprovalForAll",
			"type": "event"
		},
		{
			"anonymous": false,
			"inputs": [
				{
					"indexed": false,
					"internalType": "uint256",
					"name": "gestationTime",
					"type": "uint256"
				}
			],
			"name": "GestationApproved",
			"type": "event"
		},
		{
			"anonymous": false,
			"inputs": [
				{
					"indexed": false,
					"internalType": "uint256",
					"name": "tokenID",
					"type": "uint256"
				}
			],
			"name": "MintToken",
			"type": "event"
		},
		{
			"anonymous": false,
			"inputs": [
				{
					"indexed": false,
					"internalType": "bool",
					"name": "result",
					"type": "bool"
				}
			],
			"name": "OperationResult",
			"type": "event"
		},
		{
			"anonymous": false,
			"inputs": [
				{
					"indexed": true,
					"internalType": "address",
					"name": "previousOwner",
					"type": "address"
				},
				{
					"indexed": true,
					"internalType": "address",
					"name": "newOwner",
					"type": "address"
				}
			],
			"name": "OwnershipTransferred",
			"type": "event"
		},
		{
			"anonymous": false,
			"inputs": [
				{
					"indexed": false,
					"internalType": "address",
					"name": "account",
					"type": "address"
				}
			],
			"name": "Paused",
			"type": "event"
		},
		{
			"anonymous": false,
			"inputs": [
				{
					"indexed": true,
					"internalType": "address",
					"name": "account",
					"type": "address"
				}
			],
			"name": "RemovedFromWhitelist",
			"type": "event"
		},
		{
			"anonymous": false,
			"inputs": [
				{
					"indexed": true,
					"internalType": "address",
					"name": "from",
					"type": "address"
				},
				{
					"indexed": true,
					"internalType": "address",
					"name": "to",
					"type": "address"
				},
				{
					"indexed": true,
					"internalType": "uint256",
					"name": "tokenId",
					"type": "uint256"
				}
			],
			"name": "Transfer",
			"type": "event"
		},
		{
			"anonymous": false,
			"inputs": [
				{
					"indexed": false,
					"internalType": "address",
					"name": "account",
					"type": "address"
				}
			],
			"name": "Unpaused",
			"type": "event"
		},
		{
			"inputs": [],
			"name": "DurationToGestation",
			"outputs": [
				{
					"internalType": "uint256",
					"name": "",
					"type": "uint256"
				}
			],
			"stateMutability": "view",
			"type": "function"
		},
		{
			"inputs": [
				{
					"internalType": "uint256",
					"name": "amount",
					"type": "uint256"
				}
			],
			"name": "DurationToGestationUpdate",
			"outputs": [],
			"stateMutability": "nonpayable",
			"type": "function"
		},
		{
			"inputs": [],
			"name": "MAXNFT_LIMIT",
			"outputs": [
				{
					"internalType": "uint256",
					"name": "",
					"type": "uint256"
				}
			],
			"stateMutability": "view",
			"type": "function"
		},
		{
			"inputs": [],
			"name": "TotalWhitelistNFT",
			"outputs": [
				{
					"internalType": "uint256",
					"name": "",
					"type": "uint256"
				}
			],
			"stateMutability": "view",
			"type": "function"
		},
		{
			"inputs": [
				{
					"internalType": "address[]",
					"name": "users",
					"type": "address[]"
				}
			],
			"name": "addPresaleUser",
			"outputs": [],
			"stateMutability": "nonpayable",
			"type": "function"
		},
		{
			"inputs": [
				{
					"internalType": "address",
					"name": "to",
					"type": "address"
				},
				{
					"internalType": "uint256",
					"name": "tokenId",
					"type": "uint256"
				}
			],
			"name": "approve",
			"outputs": [],
			"stateMutability": "nonpayable",
			"type": "function"
		},
		{
			"inputs": [
				{
					"internalType": "address",
					"name": "owner",
					"type": "address"
				}
			],
			"name": "balanceOf",
			"outputs": [
				{
					"internalType": "uint256",
					"name": "",
					"type": "uint256"
				}
			],
			"stateMutability": "view",
			"type": "function"
		},
		{
			"inputs": [],
			"name": "baseURI",
			"outputs": [
				{
					"internalType": "string",
					"name": "",
					"type": "string"
				}
			],
			"stateMutability": "view",
			"type": "function"
		},
		{
			"inputs": [],
			"name": "breedCount",
			"outputs": [
				{
					"internalType": "uint256",
					"name": "",
					"type": "uint256"
				}
			],
			"stateMutability": "view",
			"type": "function"
		},
		{
			"inputs": [
				{
					"internalType": "uint256",
					"name": "amount",
					"type": "uint256"
				}
			],
			"name": "breedMaximumUpdate",
			"outputs": [],
			"stateMutability": "nonpayable",
			"type": "function"
		},
		{
			"inputs": [],
			"name": "breedPause",
			"outputs": [
				{
					"internalType": "bool",
					"name": "",
					"type": "bool"
				}
			],
			"stateMutability": "view",
			"type": "function"
		},
		{
			"inputs": [
				{
					"internalType": "bool",
					"name": "status",
					"type": "bool"
				}
			],
			"name": "breedPauseUpdate",
			"outputs": [],
			"stateMutability": "nonpayable",
			"type": "function"
		},
		{
			"inputs": [
				{
					"internalType": "address",
					"name": "",
					"type": "address"
				}
			],
			"name": "breedStore",
			"outputs": [
				{
					"internalType": "uint256",
					"name": "breedCount",
					"type": "uint256"
				},
				{
					"internalType": "uint256",
					"name": "nftCount",
					"type": "uint256"
				},
				{
					"internalType": "uint256",
					"name": "gestationTime",
					"type": "uint256"
				},
				{
					"internalType": "bool",
					"name": "gestation",
					"type": "bool"
				}
			],
			"stateMutability": "view",
			"type": "function"
		},
		{
			"inputs": [
				{
					"internalType": "uint256",
					"name": "tokenId",
					"type": "uint256"
				}
			],
			"name": "burn",
			"outputs": [],
			"stateMutability": "nonpayable",
			"type": "function"
		},
		{
			"inputs": [],
			"name": "childPrice",
			"outputs": [
				{
					"internalType": "uint256",
					"name": "",
					"type": "uint256"
				}
			],
			"stateMutability": "view",
			"type": "function"
		},
		{
			"inputs": [
				{
					"internalType": "uint256",
					"name": "amount",
					"type": "uint256"
				}
			],
			"name": "childPriceUpdate",
			"outputs": [],
			"stateMutability": "nonpayable",
			"type": "function"
		},
		{
			"inputs": [],
			"name": "childURI",
			"outputs": [
				{
					"internalType": "string",
					"name": "",
					"type": "string"
				}
			],
			"stateMutability": "view",
			"type": "function"
		},
		{
			"inputs": [],
			"name": "disablePublicSale",
			"outputs": [],
			"stateMutability": "nonpayable",
			"type": "function"
		},
		{
			"inputs": [],
			"name": "durationForWhitelist",
			"outputs": [
				{
					"internalType": "uint256",
					"name": "",
					"type": "uint256"
				}
			],
			"stateMutability": "view",
			"type": "function"
		},
		{
			"inputs": [],
			"name": "eligibleDurationForBreed",
			"outputs": [
				{
					"internalType": "uint256",
					"name": "",
					"type": "uint256"
				}
			],
			"stateMutability": "view",
			"type": "function"
		},
		{
			"inputs": [
				{
					"internalType": "uint256",
					"name": "newDuration",
					"type": "uint256"
				}
			],
			"name": "eligibleDurationForBreedUpdate",
			"outputs": [],
			"stateMutability": "nonpayable",
			"type": "function"
		},
		{
			"inputs": [],
			"name": "enablePublicSale",
			"outputs": [],
			"stateMutability": "nonpayable",
			"type": "function"
		},
		{
			"inputs": [
				{
					"internalType": "address",
					"name": "user",
					"type": "address"
				},
				{
					"internalType": "uint256",
					"name": "amount",
					"type": "uint256"
				}
			],
			"name": "ethEmergencySafe",
			"outputs": [],
			"stateMutability": "nonpayable",
			"type": "function"
		},
		{
			"inputs": [],
			"name": "feeAddress",
			"outputs": [
				{
					"internalType": "address",
					"name": "",
					"type": "address"
				}
			],
			"stateMutability": "view",
			"type": "function"
		},
		{
			"inputs": [
				{
					"internalType": "address",
					"name": "account",
					"type": "address"
				}
			],
			"name": "feeAddressUpdate",
			"outputs": [],
			"stateMutability": "nonpayable",
			"type": "function"
		},
		{
			"inputs": [
				{
					"internalType": "uint256",
					"name": "maleId",
					"type": "uint256"
				},
				{
					"internalType": "uint256",
					"name": "femaleId",
					"type": "uint256"
				}
			],
			"name": "gestationApprove",
			"outputs": [],
			"stateMutability": "nonpayable",
			"type": "function"
		},
		{
			"inputs": [
				{
					"internalType": "uint256",
					"name": "tokenId",
					"type": "uint256"
				}
			],
			"name": "getApproved",
			"outputs": [
				{
					"internalType": "address",
					"name": "",
					"type": "address"
				}
			],
			"stateMutability": "view",
			"type": "function"
		},
		{
			"inputs": [],
			"name": "getChainID",
			"outputs": [
				{
					"internalType": "uint256",
					"name": "",
					"type": "uint256"
				}
			],
			"stateMutability": "view",
			"type": "function"
		},
		{
			"inputs": [
				{
					"internalType": "address",
					"name": "account",
					"type": "address"
				}
			],
			"name": "getUesrAllTokens",
			"outputs": [
				{
					"internalType": "uint256",
					"name": "",
					"type": "uint256"
				}
			],
			"stateMutability": "view",
			"type": "function"
		},
		{
			"inputs": [
				{
					"internalType": "uint256",
					"name": "maleId",
					"type": "uint256"
				},
				{
					"internalType": "uint256",
					"name": "femaleId",
					"type": "uint256"
				}
			],
			"name": "giveBirth",
			"outputs": [],
			"stateMutability": "payable",
			"type": "function"
		},
		{
			"inputs": [
				{
					"internalType": "uint256",
					"name": "",
					"type": "uint256"
				}
			],
			"name": "indices",
			"outputs": [
				{
					"internalType": "uint256",
					"name": "",
					"type": "uint256"
				}
			],
			"stateMutability": "view",
			"type": "function"
		},
		{
			"inputs": [
				{
					"internalType": "address",
					"name": "owner",
					"type": "address"
				},
				{
					"internalType": "address",
					"name": "operator",
					"type": "address"
				}
			],
			"name": "isApprovedForAll",
			"outputs": [
				{
					"internalType": "bool",
					"name": "",
					"type": "bool"
				}
			],
			"stateMutability": "view",
			"type": "function"
		},
		{
			"inputs": [
				{
					"internalType": "uint256",
					"name": "",
					"type": "uint256"
				}
			],
			"name": "isChild",
			"outputs": [
				{
					"internalType": "bool",
					"name": "",
					"type": "bool"
				}
			],
			"stateMutability": "view",
			"type": "function"
		},
		{
			"inputs": [],
			"name": "maxBreedLimit",
			"outputs": [
				{
					"internalType": "uint256",
					"name": "",
					"type": "uint256"
				}
			],
			"stateMutability": "view",
			"type": "function"
		},
		{
			"inputs": [
				{
					"internalType": "uint256",
					"name": "amount",
					"type": "uint256"
				}
			],
			"name": "maxBreedLimitUpdate",
			"outputs": [],
			"stateMutability": "nonpayable",
			"type": "function"
		},
		{
			"inputs": [],
			"name": "maxNftLimit",
			"outputs": [
				{
					"internalType": "uint256",
					"name": "",
					"type": "uint256"
				}
			],
			"stateMutability": "view",
			"type": "function"
		},
		{
			"inputs": [
				{
					"internalType": "uint256",
					"name": "amount",
					"type": "uint256"
				}
			],
			"name": "maxNftLimitUpdate",
			"outputs": [],
			"stateMutability": "nonpayable",
			"type": "function"
		},
		{
			"inputs": [],
			"name": "maxTokensAtOnce",
			"outputs": [
				{
					"internalType": "uint256",
					"name": "",
					"type": "uint256"
				}
			],
			"stateMutability": "view",
			"type": "function"
		},
		{
			"inputs": [],
			"name": "maxWhitelistSize",
			"outputs": [
				{
					"internalType": "uint256",
					"name": "",
					"type": "uint256"
				}
			],
			"stateMutability": "view",
			"type": "function"
		},
		{
			"inputs": [],
			"name": "maximumBreedPerUser",
			"outputs": [
				{
					"internalType": "uint256",
					"name": "",
					"type": "uint256"
				}
			],
			"stateMutability": "view",
			"type": "function"
		},
		{
			"inputs": [],
			"name": "mintDateForWhitelist",
			"outputs": [
				{
					"internalType": "uint256",
					"name": "",
					"type": "uint256"
				}
			],
			"stateMutability": "view",
			"type": "function"
		},
		{
			"inputs": [],
			"name": "mintNftCount",
			"outputs": [
				{
					"internalType": "uint256",
					"name": "",
					"type": "uint256"
				}
			],
			"stateMutability": "view",
			"type": "function"
		},
		{
			"inputs": [],
			"name": "mintSignStatus",
			"outputs": [
				{
					"internalType": "bool",
					"name": "",
					"type": "bool"
				}
			],
			"stateMutability": "view",
			"type": "function"
		},
		{
			"inputs": [
				{
					"internalType": "address",
					"name": "to",
					"type": "address"
				},
				{
					"internalType": "uint256",
					"name": "id",
					"type": "uint256"
				}
			],
			"name": "mintWithPromotion",
			"outputs": [],
			"stateMutability": "nonpayable",
			"type": "function"
		},
		{
			"inputs": [
				{
					"internalType": "bool",
					"name": "status",
					"type": "bool"
				}
			],
			"name": "mintWithSignPause",
			"outputs": [],
			"stateMutability": "nonpayable",
			"type": "function"
		},
		{
			"inputs": [],
			"name": "name",
			"outputs": [
				{
					"internalType": "string",
					"name": "",
					"type": "string"
				}
			],
			"stateMutability": "view",
			"type": "function"
		},
		{
			"inputs": [
				{
					"internalType": "uint256",
					"name": "",
					"type": "uint256"
				}
			],
			"name": "nftStore",
			"outputs": [
				{
					"internalType": "string",
					"name": "gender",
					"type": "string"
				},
				{
					"internalType": "uint256",
					"name": "birthTime",
					"type": "uint256"
				},
				{
					"internalType": "uint256",
					"name": "motherId",
					"type": "uint256"
				},
				{
					"internalType": "uint256",
					"name": "fatherId",
					"type": "uint256"
				},
				{
					"internalType": "uint256",
					"name": "generation",
					"type": "uint256"
				},
				{
					"internalType": "uint256",
					"name": "nextReserve",
					"type": "uint256"
				}
			],
			"stateMutability": "view",
			"type": "function"
		},
		{
			"inputs": [],
			"name": "owner",
			"outputs": [
				{
					"internalType": "address",
					"name": "",
					"type": "address"
				}
			],
			"stateMutability": "view",
			"type": "function"
		},
		{
			"inputs": [
				{
					"internalType": "uint256",
					"name": "tokenId",
					"type": "uint256"
				}
			],
			"name": "ownerOf",
			"outputs": [
				{
					"internalType": "address",
					"name": "",
					"type": "address"
				}
			],
			"stateMutability": "view",
			"type": "function"
		},
		{
			"inputs": [],
			"name": "pause",
			"outputs": [],
			"stateMutability": "nonpayable",
			"type": "function"
		},
		{
			"inputs": [],
			"name": "paused",
			"outputs": [
				{
					"internalType": "bool",
					"name": "",
					"type": "bool"
				}
			],
			"stateMutability": "view",
			"type": "function"
		},
		{
			"inputs": [
				{
					"internalType": "address",
					"name": "to",
					"type": "address"
				},
				{
					"internalType": "uint256",
					"name": "numberOfTokens",
					"type": "uint256"
				}
			],
			"name": "presaleMint",
			"outputs": [],
			"stateMutability": "payable",
			"type": "function"
		},
		{
			"inputs": [],
			"name": "presalePause",
			"outputs": [
				{
					"internalType": "bool",
					"name": "",
					"type": "bool"
				}
			],
			"stateMutability": "view",
			"type": "function"
		},
		{
			"inputs": [
				{
					"internalType": "address",
					"name": "",
					"type": "address"
				}
			],
			"name": "presaleStore",
			"outputs": [
				{
					"internalType": "bool",
					"name": "",
					"type": "bool"
				}
			],
			"stateMutability": "view",
			"type": "function"
		},
		{
			"inputs": [],
			"name": "publicSale",
			"outputs": [
				{
					"internalType": "bool",
					"name": "",
					"type": "bool"
				}
			],
			"stateMutability": "view",
			"type": "function"
		},
		{
			"inputs": [
				{
					"internalType": "uint256",
					"name": "id",
					"type": "uint256"
				}
			],
			"name": "readyToBreed",
			"outputs": [
				{
					"internalType": "bool",
					"name": "",
					"type": "bool"
				}
			],
			"stateMutability": "view",
			"type": "function"
		},
		{
			"inputs": [
				{
					"internalType": "address[]",
					"name": "users",
					"type": "address[]"
				}
			],
			"name": "removePresaleUser",
			"outputs": [],
			"stateMutability": "nonpayable",
			"type": "function"
		},
		{
			"inputs": [
				{
					"internalType": "address",
					"name": "to",
					"type": "address"
				},
				{
					"internalType": "uint256",
					"name": "numberOfTokens",
					"type": "uint256"
				}
			],
			"name": "safeMint",
			"outputs": [],
			"stateMutability": "payable",
			"type": "function"
		},
		{
			"inputs": [
				{
					"internalType": "address",
					"name": "from",
					"type": "address"
				},
				{
					"internalType": "address",
					"name": "to",
					"type": "address"
				},
				{
					"internalType": "uint256",
					"name": "tokenId",
					"type": "uint256"
				}
			],
			"name": "safeTransferFrom",
			"outputs": [],
			"stateMutability": "nonpayable",
			"type": "function"
		},
		{
			"inputs": [
				{
					"internalType": "address",
					"name": "from",
					"type": "address"
				},
				{
					"internalType": "address",
					"name": "to",
					"type": "address"
				},
				{
					"internalType": "uint256",
					"name": "tokenId",
					"type": "uint256"
				},
				{
					"internalType": "bytes",
					"name": "_data",
					"type": "bytes"
				}
			],
			"name": "safeTransferFrom",
			"outputs": [],
			"stateMutability": "nonpayable",
			"type": "function"
		},
		{
			"inputs": [
				{
					"internalType": "address",
					"name": "operator",
					"type": "address"
				},
				{
					"internalType": "bool",
					"name": "approved",
					"type": "bool"
				}
			],
			"name": "setApprovalForAll",
			"outputs": [],
			"stateMutability": "nonpayable",
			"type": "function"
		},
		{
			"inputs": [
				{
					"internalType": "string",
					"name": "_URI",
					"type": "string"
				}
			],
			"name": "setBaseURI",
			"outputs": [],
			"stateMutability": "nonpayable",
			"type": "function"
		},
		{
			"inputs": [
				{
					"internalType": "string",
					"name": "_URI",
					"type": "string"
				}
			],
			"name": "setChildURI",
			"outputs": [],
			"stateMutability": "nonpayable",
			"type": "function"
		},
		{
			"inputs": [
				{
					"internalType": "bool",
					"name": "status",
					"type": "bool"
				}
			],
			"name": "setPresalePause",
			"outputs": [],
			"stateMutability": "nonpayable",
			"type": "function"
		},
		{
			"inputs": [
				{
					"internalType": "bytes4",
					"name": "interfaceId",
					"type": "bytes4"
				}
			],
			"name": "supportsInterface",
			"outputs": [
				{
					"internalType": "bool",
					"name": "",
					"type": "bool"
				}
			],
			"stateMutability": "view",
			"type": "function"
		},
		{
			"inputs": [],
			"name": "symbol",
			"outputs": [
				{
					"internalType": "string",
					"name": "",
					"type": "string"
				}
			],
			"stateMutability": "view",
			"type": "function"
		},
		{
			"inputs": [
				{
					"internalType": "uint256",
					"name": "index",
					"type": "uint256"
				}
			],
			"name": "tokenByIndex",
			"outputs": [
				{
					"internalType": "uint256",
					"name": "",
					"type": "uint256"
				}
			],
			"stateMutability": "view",
			"type": "function"
		},
		{
			"inputs": [
				{
					"internalType": "address",
					"name": "token",
					"type": "address"
				},
				{
					"internalType": "address",
					"name": "user",
					"type": "address"
				},
				{
					"internalType": "uint256",
					"name": "amount",
					"type": "uint256"
				}
			],
			"name": "tokenEmergencySafe",
			"outputs": [],
			"stateMutability": "nonpayable",
			"type": "function"
		},
		{
			"inputs": [
				{
					"internalType": "address",
					"name": "owner",
					"type": "address"
				},
				{
					"internalType": "uint256",
					"name": "index",
					"type": "uint256"
				}
			],
			"name": "tokenOfOwnerByIndex",
			"outputs": [
				{
					"internalType": "uint256",
					"name": "",
					"type": "uint256"
				}
			],
			"stateMutability": "view",
			"type": "function"
		},
		{
			"inputs": [],
			"name": "tokenPrice",
			"outputs": [
				{
					"internalType": "uint256",
					"name": "",
					"type": "uint256"
				}
			],
			"stateMutability": "view",
			"type": "function"
		},
		{
			"inputs": [
				{
					"internalType": "uint256",
					"name": "amount",
					"type": "uint256"
				}
			],
			"name": "tokenPriceUpdate",
			"outputs": [],
			"stateMutability": "nonpayable",
			"type": "function"
		},
		{
			"inputs": [
				{
					"internalType": "uint256",
					"name": "tokenId",
					"type": "uint256"
				}
			],
			"name": "tokenURI",
			"outputs": [
				{
					"internalType": "string",
					"name": "",
					"type": "string"
				}
			],
			"stateMutability": "view",
			"type": "function"
		},
		{
			"inputs": [],
			"name": "totalPresaleUser",
			"outputs": [
				{
					"internalType": "uint256",
					"name": "",
					"type": "uint256"
				}
			],
			"stateMutability": "view",
			"type": "function"
		},
		{
			"inputs": [],
			"name": "totalSupply",
			"outputs": [
				{
					"internalType": "uint256",
					"name": "",
					"type": "uint256"
				}
			],
			"stateMutability": "view",
			"type": "function"
		},
		{
			"inputs": [
				{
					"internalType": "address",
					"name": "from",
					"type": "address"
				},
				{
					"internalType": "address",
					"name": "to",
					"type": "address"
				},
				{
					"internalType": "uint256",
					"name": "tokenId",
					"type": "uint256"
				}
			],
			"name": "transferFrom",
			"outputs": [],
			"stateMutability": "nonpayable",
			"type": "function"
		},
		{
			"inputs": [
				{
					"internalType": "address",
					"name": "newOwner",
					"type": "address"
				}
			],
			"name": "transferOwnership",
			"outputs": [],
			"stateMutability": "nonpayable",
			"type": "function"
		},
		{
			"inputs": [],
			"name": "unpause",
			"outputs": [],
			"stateMutability": "nonpayable",
			"type": "function"
		},
		{
			"inputs": [
				{
					"internalType": "uint256",
					"name": "amount",
					"type": "uint256"
				}
			],
			"name": "updateDurationForWhitelist",
			"outputs": [],
			"stateMutability": "nonpayable",
			"type": "function"
		},
		{
			"inputs": [
				{
					"internalType": "uint256",
					"name": "_count",
					"type": "uint256"
				}
			],
			"name": "updateMaxTokensAtOnce",
			"outputs": [],
			"stateMutability": "nonpayable",
			"type": "function"
		},
		{
			"inputs": [
				{
					"internalType": "uint256",
					"name": "amount",
					"type": "uint256"
				}
			],
			"name": "updateMintDateForWhitelist",
			"outputs": [],
			"stateMutability": "nonpayable",
			"type": "function"
		},
		{
			"inputs": [
				{
					"internalType": "uint256",
					"name": "_maxWhitelistSize",
					"type": "uint256"
				}
			],
			"name": "updatemaxWhitelistSize",
			"outputs": [],
			"stateMutability": "nonpayable",
			"type": "function"
		},
		{
			"inputs": [
				{
					"internalType": "address",
					"name": "account",
					"type": "address"
				}
			],
			"name": "userAllTokens",
			"outputs": [
				{
					"internalType": "uint256[]",
					"name": "",
					"type": "uint256[]"
				}
			],
			"stateMutability": "view",
			"type": "function"
		},
		{
			"inputs": [
				{
					"internalType": "address",
					"name": "",
					"type": "address"
				},
				{
					"internalType": "uint256",
					"name": "",
					"type": "uint256"
				}
			],
			"name": "userTokens",
			"outputs": [
				{
					"internalType": "uint256",
					"name": "",
					"type": "uint256"
				}
			],
			"stateMutability": "view",
			"type": "function"
		},
		{
			"stateMutability": "payable",
			"type": "receive"
		}
	]
}