{
  "contractName": "MyTokenSale2",
  "abi": [
    {
      "inputs": [
        {
          "internalType": "uint256",
          "name": "rate",
          "type": "uint256"
        },
        {
          "internalType": "address payable",
          "name": "wallet",
          "type": "address"
        },
        {
          "internalType": "contract CCLC",
          "name": "token",
          "type": "address"
        },
        {
          "internalType": "contract PriceConsumerV3",
          "name": "_priceFeed",
          "type": "address"
        }
      ],
      "stateMutability": "nonpayable",
      "type": "constructor"
    },
    {
      "anonymous": false,
      "inputs": [
        {
          "indexed": true,
          "internalType": "address",
          "name": "previousOwner",
          "type": "address"
        },
        {
          "indexed": true,
          "internalType": "address",
          "name": "newOwner",
          "type": "address"
        }
      ],
      "name": "OwnershipTransferred",
      "type": "event"
    },
    {
      "anonymous": false,
      "inputs": [
        {
          "indexed": false,
          "internalType": "uint256",
          "name": "_amount",
          "type": "uint256"
        }
      ],
      "name": "TokensBoughtUSDT",
      "type": "event"
    },
    {
      "anonymous": false,
      "inputs": [
        {
          "indexed": false,
          "internalType": "uint256",
          "name": "_amount",
          "type": "uint256"
        }
      ],
      "name": "TokensClaimed",
      "type": "event"
    },
    {
      "anonymous": false,
      "inputs": [
        {
          "indexed": true,
          "internalType": "address",
          "name": "purchaser",
          "type": "address"
        },
        {
          "indexed": true,
          "internalType": "address",
          "name": "beneficiary",
          "type": "address"
        },
        {
          "indexed": false,
          "internalType": "uint256",
          "name": "value",
          "type": "uint256"
        },
        {
          "indexed": false,
          "internalType": "uint256",
          "name": "amount",
          "type": "uint256"
        }
      ],
      "name": "TokensPurchased",
      "type": "event"
    },
    {
      "inputs": [
        {
          "internalType": "address",
          "name": "",
          "type": "address"
        }
      ],
      "name": "boughtTotal",
      "outputs": [
        {
          "internalType": "uint256",
          "name": "",
          "type": "uint256"
        }
      ],
      "stateMutability": "view",
      "type": "function",
      "constant": true
    },
    {
      "inputs": [
        {
          "internalType": "address",
          "name": "beneficiary",
          "type": "address"
        }
      ],
      "name": "buyTokens",
      "outputs": [],
      "stateMutability": "payable",
      "type": "function",
      "payable": true
    },
    {
      "inputs": [],
      "name": "cclc",
      "outputs": [
        {
          "internalType": "contract CCLC",
          "name": "",
          "type": "address"
        }
      ],
      "stateMutability": "view",
      "type": "function",
      "constant": true
    },
    {
      "inputs": [
        {
          "internalType": "address",
          "name": "",
          "type": "address"
        }
      ],
      "name": "claimedAmount",
      "outputs": [
        {
          "internalType": "uint256",
          "name": "",
          "type": "uint256"
        }
      ],
      "stateMutability": "view",
      "type": "function",
      "constant": true
    },
    {
      "inputs": [],
      "name": "fundEnd",
      "outputs": [
        {
          "internalType": "uint256",
          "name": "",
          "type": "uint256"
        }
      ],
      "stateMutability": "view",
      "type": "function",
      "constant": true
    },
    {
      "inputs": [],
      "name": "fundReleaseInterval",
      "outputs": [
        {
          "internalType": "uint256",
          "name": "",
          "type": "uint256"
        }
      ],
      "stateMutability": "view",
      "type": "function",
      "constant": true
    },
    {
      "inputs": [],
      "name": "fundReleaseStart",
      "outputs": [
        {
          "internalType": "uint256",
          "name": "",
          "type": "uint256"
        }
      ],
      "stateMutability": "view",
      "type": "function",
      "constant": true
    },
    {
      "inputs": [],
      "name": "owner",
      "outputs": [
        {
          "internalType": "address",
          "name": "",
          "type": "address"
        }
      ],
      "stateMutability": "view",
      "type": "function",
      "constant": true
    },
    {
      "inputs": [],
      "name": "rate",
      "outputs": [
        {
          "internalType": "uint256",
          "name": "",
          "type": "uint256"
        }
      ],
      "stateMutability": "view",
      "type": "function",
      "constant": true
    },
    {
      "inputs": [],
      "name": "renounceOwnership",
      "outputs": [],
      "stateMutability": "nonpayable",
      "type": "function"
    },
    {
      "inputs": [],
      "name": "token",
      "outputs": [
        {
          "internalType": "contract IERC20",
          "name": "",
          "type": "address"
        }
      ],
      "stateMutability": "view",
      "type": "function",
      "constant": true
    },
    {
      "inputs": [],
      "name": "totalUnsold",
      "outputs": [
        {
          "internalType": "uint256",
          "name": "",
          "type": "uint256"
        }
      ],
      "stateMutability": "view",
      "type": "function",
      "constant": true
    },
    {
      "inputs": [
        {
          "internalType": "address",
          "name": "newOwner",
          "type": "address"
        }
      ],
      "name": "transferOwnership",
      "outputs": [],
      "stateMutability": "nonpayable",
      "type": "function"
    },
    {
      "inputs": [
        {
          "internalType": "address",
          "name": "",
          "type": "address"
        }
      ],
      "name": "userBalance",
      "outputs": [
        {
          "internalType": "uint256",
          "name": "",
          "type": "uint256"
        }
      ],
      "stateMutability": "view",
      "type": "function",
      "constant": true
    },
    {
      "inputs": [],
      "name": "wallet",
      "outputs": [
        {
          "internalType": "address payable",
          "name": "",
          "type": "address"
        }
      ],
      "stateMutability": "view",
      "type": "function",
      "constant": true
    },
    {
      "inputs": [],
      "name": "weiRaised",
      "outputs": [
        {
          "internalType": "uint256",
          "name": "",
          "type": "uint256"
        }
      ],
      "stateMutability": "view",
      "type": "function",
      "constant": true
    },
    {
      "stateMutability": "payable",
      "type": "receive",
      "payable": true
    },
    {
      "inputs": [],
      "name": "getUnsold",
      "outputs": [
        {
          "internalType": "uint256",
          "name": "",
          "type": "uint256"
        }
      ],
      "stateMutability": "view",
      "type": "function",
      "constant": true
    },
    {
      "inputs": [],
      "name": "burnUnsold",
      "outputs": [],
      "stateMutability": "nonpayable",
      "type": "function"
    },
    {
      "inputs": [],
      "name": "endICO",
      "outputs": [],
      "stateMutability": "nonpayable",
      "type": "function"
    },
    {
      "inputs": [
        {
          "internalType": "uint256",
          "name": "amount",
          "type": "uint256"
        },
        {
          "internalType": "address",
          "name": "_token",
          "type": "address"
        }
      ],
      "name": "buyWithUSDT",
      "outputs": [],
      "stateMutability": "nonpayable",
      "type": "function"
    },
    {
      "inputs": [],
      "name": "getUserBalance",
      "outputs": [
        {
          "internalType": "uint256",
          "name": "",
          "type": "uint256"
        }
      ],
      "stateMutability": "view",
      "type": "function",
      "constant": true
    },
    {
      "inputs": [],
      "name": "getUserClaimed",
      "outputs": [
        {
          "internalType": "uint256",
          "name": "",
          "type": "uint256"
        }
      ],
      "stateMutability": "view",
      "type": "function",
      "constant": true
    },
    {
      "inputs": [],
      "name": "getUserBought",
      "outputs": [
        {
          "internalType": "uint256",
          "name": "",
          "type": "uint256"
        }
      ],
      "stateMutability": "view",
      "type": "function",
      "constant": true
    },
    {
      "inputs": [],
      "name": "claimTokens",
      "outputs": [],
      "stateMutability": "nonpayable",
      "type": "function"
    },
    {
      "inputs": [],
      "name": "getClaimAmount",
      "outputs": [
        {
          "internalType": "uint256",
          "name": "",
          "type": "uint256"
        }
      ],
      "stateMutability": "view",
      "type": "function",
      "constant": true
    },
    {
      "inputs": [],
      "name": "amountRaised",
      "outputs": [
        {
          "internalType": "uint256",
          "name": "",
          "type": "uint256"
        }
      ],
      "stateMutability": "view",
      "type": "function",
      "constant": true
    },
    {
      "inputs": [],
      "name": "getSlice",
      "outputs": [
        {
          "internalType": "uint256",
          "name": "",
          "type": "uint256"
        }
      ],
      "stateMutability": "view",
      "type": "function",
      "constant": true
    },
    {
      "inputs": [],
      "name": "getFundStartTime",
      "outputs": [
        {
          "internalType": "uint256",
          "name": "",
          "type": "uint256"
        }
      ],
      "stateMutability": "view",
      "type": "function",
      "constant": true
    },
    {
      "inputs": [],
      "name": "getFundEndTime",
      "outputs": [
        {
          "internalType": "uint256",
          "name": "",
          "type": "uint256"
        }
      ],
      "stateMutability": "view",
      "type": "function",
      "constant": true
    },
    {
      "inputs": [],
      "name": "getTime",
      "outputs": [
        {
          "internalType": "uint256",
          "name": "",
          "type": "uint256"
        }
      ],
      "stateMutability": "view",
      "type": "function",
      "constant": true
    },
    {
      "inputs": [
        {
          "internalType": "address",
          "name": "newOwner",
          "type": "address"
        }
      ],
      "name": "_transferOwnership",
      "outputs": [],
      "stateMutability": "nonpayable",
      "type": "function"
    }
  ],
  "bytecode": "0x60806040524260085562530e804262000019919062000407565b60095562eff1006009546200002f919062000407565b600a5562dd7c00600a5462000045919062000407565b600b556224ea00600c556aa56fa5b99019a5c80000006011553480156200006b57600080fd5b50604051620037bd380380620037bd83398181016040528101906200009191906200059d565b838383600160008190555060008311620000e2576040517f08c379a0000000000000000000000000000000000000000000000000000000008152600401620000d99062000670565b60405180910390fd5b600073ffffffffffffffffffffffffffffffffffffffff168273ffffffffffffffffffffffffffffffffffffffff16141562000155576040517f08c379a00000000000000000000000000000000000000000000000000000000081526004016200014c9062000708565b60405180910390fd5b600073ffffffffffffffffffffffffffffffffffffffff168173ffffffffffffffffffffffffffffffffffffffff161415620001c8576040517f08c379a0000000000000000000000000000000000000000000000000000000008152600401620001bf90620007a0565b60405180910390fd5b8260038190555081600260006101000a81548173ffffffffffffffffffffffffffffffffffffffff021916908373ffffffffffffffffffffffffffffffffffffffff16021790555080600160006101000a81548173ffffffffffffffffffffffffffffffffffffffff021916908373ffffffffffffffffffffffffffffffffffffffff16021790555050505062000274620002686200030060201b60201c565b6200030860201b60201c565b81600660006101000a81548173ffffffffffffffffffffffffffffffffffffffff021916908373ffffffffffffffffffffffffffffffffffffffff16021790555080600760006101000a81548173ffffffffffffffffffffffffffffffffffffffff021916908373ffffffffffffffffffffffffffffffffffffffff16021790555050505050620007c2565b600033905090565b6000600560009054906101000a900473ffffffffffffffffffffffffffffffffffffffff16905081600560006101000a81548173ffffffffffffffffffffffffffffffffffffffff021916908373ffffffffffffffffffffffffffffffffffffffff1602179055508173ffffffffffffffffffffffffffffffffffffffff168173ffffffffffffffffffffffffffffffffffffffff167f8be0079c531659141344cd1fd0a4f28419497f9722a3daafe3b4186f6b6457e060405160405180910390a35050565b6000819050919050565b7f4e487b7100000000000000000000000000000000000000000000000000000000600052601160045260246000fd5b60006200041482620003ce565b91506200042183620003ce565b9250827fffffffffffffffffffffffffffffffffffffffffffffffffffffffffffffffff03821115620004595762000458620003d8565b5b828201905092915050565b600080fd5b6200047481620003ce565b81146200048057600080fd5b50565b600081519050620004948162000469565b92915050565b600073ffffffffffffffffffffffffffffffffffffffff82169050919050565b6000620004c7826200049a565b9050919050565b620004d981620004ba565b8114620004e557600080fd5b50565b600081519050620004f981620004ce565b92915050565b60006200050c826200049a565b9050919050565b60006200052082620004ff565b9050919050565b620005328162000513565b81146200053e57600080fd5b50565b600081519050620005528162000527565b92915050565b60006200056582620004ff565b9050919050565b620005778162000558565b81146200058357600080fd5b50565b60008151905062000597816200056c565b92915050565b60008060008060808587031215620005ba57620005b962000464565b5b6000620005ca8782880162000483565b9450506020620005dd87828801620004e8565b9350506040620005f08782880162000541565b9250506060620006038782880162000586565b91505092959194509250565b600082825260208201905092915050565b7f43726f776473616c653a20726174652069732030000000000000000000000000600082015250565b6000620006586014836200060f565b9150620006658262000620565b602082019050919050565b600060208201905081810360008301526200068b8162000649565b9050919050565b7f43726f776473616c653a2077616c6c657420697320746865207a65726f20616460008201527f6472657373000000000000000000000000000000000000000000000000000000602082015250565b6000620006f06025836200060f565b9150620006fd8262000692565b604082019050919050565b600060208201905081810360008301526200072381620006e1565b9050919050565b7f43726f776473616c653a20746f6b656e20697320746865207a65726f2061646460008201527f7265737300000000000000000000000000000000000000000000000000000000602082015250565b6000620007886024836200060f565b915062000795826200072a565b604082019050919050565b60006020820190508181036000830152620007bb8162000779565b9050919050565b612feb80620007d26000396000f3fe6080604052600436106101dc5760003560e01c806365b58b0511610102578063d095362f11610095578063f2fde38b11610064578063f2fde38b1461064d578063f339c3ab14610676578063fac7a27a146106a1578063fc0c546a146106cc576101ec565b8063d095362f146105b4578063d29d44ee146105dd578063d810771414610606578063ec8ac4d814610631576101ec565b80638007f337116100d15780638007f3371461051c5780638da5cb5b14610547578063b52a585114610572578063b7013dc114610589576101ec565b806365b58b051461047257806371127ed2146104af578063715018a6146104da5780637b3e5e7b146104f1576101ec565b806348c54b9d1161017a578063557ed1ba11610149578063557ed1ba146103c65780635965aadc146103f157806360deea251461041c57806363a3c45214610447576101ec565b806348c54b9d146103425780634b78b535146103595780634f24840914610384578063521eb2731461039b576101ec565b80633710ab25116101b65780633710ab25146102965780633c00c417146102c15780634042b66f146102ec578063429dc97214610317576101ec565b80630103c92b146101f157806304e869031461022e5780632c4e722e1461026b576101ec565b366101ec576101ea336106f7565b005b600080fd5b3480156101fd57600080fd5b5061021860048036038101906102139190612271565b610816565b60405161022591906122b7565b60405180910390f35b34801561023a57600080fd5b5061025560048036038101906102509190612271565b61082e565b60405161026291906122b7565b60405180910390f35b34801561027757600080fd5b50610280610846565b60405161028d91906122b7565b60405180910390f35b3480156102a257600080fd5b506102ab610850565b6040516102b891906122b7565b60405180910390f35b3480156102cd57600080fd5b506102d6610897565b6040516102e391906122b7565b60405180910390f35b3480156102f857600080fd5b506103016108b4565b60405161030e91906122b7565b60405180910390f35b34801561032357600080fd5b5061032c6108be565b60405161033991906122b7565b60405180910390f35b34801561034e57600080fd5b506103576108c4565b005b34801561036557600080fd5b5061036e610c2a565b60405161037b91906122b7565b60405180910390f35b34801561039057600080fd5b50610399610c7d565b005b3480156103a757600080fd5b506103b0610d72565b6040516103bd91906122f3565b60405180910390f35b3480156103d257600080fd5b506103db610d9c565b6040516103e891906122b7565b60405180910390f35b3480156103fd57600080fd5b50610406610da4565b60405161041391906122b7565b60405180910390f35b34801561042857600080fd5b50610431610dae565b60405161043e91906122b7565b60405180910390f35b34801561045357600080fd5b5061045c610df5565b60405161046991906122b7565b60405180910390f35b34801561047e57600080fd5b5061049960048036038101906104949190612271565b610dff565b6040516104a691906122b7565b60405180910390f35b3480156104bb57600080fd5b506104c4610e17565b6040516104d191906122b7565b60405180910390f35b3480156104e657600080fd5b506104ef610e95565b005b3480156104fd57600080fd5b50610506610f1d565b60405161051391906122b7565b60405180910390f35b34801561052857600080fd5b50610531610f44565b60405161053e91906122b7565b60405180910390f35b34801561055357600080fd5b5061055c610f4a565b604051610569919061231d565b60405180910390f35b34801561057e57600080fd5b50610587610f74565b005b34801561059557600080fd5b5061059e611126565b6040516105ab91906122b7565b60405180910390f35b3480156105c057600080fd5b506105db60048036038101906105d69190612364565b61116d565b005b3480156105e957600080fd5b5061060460048036038101906105ff9190612271565b611719565b005b34801561061257600080fd5b5061061b6117a1565b60405161062891906122b7565b60405180910390f35b61064b60048036038101906106469190612271565b6106f7565b005b34801561065957600080fd5b50610674600480360381019061066f9190612271565b6117a7565b005b34801561068257600080fd5b5061068b61189f565b60405161069891906122b7565b60405180910390f35b3480156106ad57600080fd5b506106b66118a5565b6040516106c39190612403565b60405180910390f35b3480156106d857600080fd5b506106e16118cb565b6040516106ee919061243f565b60405180910390f35b6002600054141561073d576040517f08c379a0000000000000000000000000000000000000000000000000000000008152600401610734906124b7565b60405180910390fd5b6002600081905550600034905061075482826118f5565b600061075f82611a3b565b905061077682600454611b1d90919063ffffffff16565b6004819055506107868382611b33565b8273ffffffffffffffffffffffffffffffffffffffff163373ffffffffffffffffffffffffffffffffffffffff167f6faf93231a456e552dbc9961f58d9713ee4f2e69d15f1975b050ef0911053a7b84846040516107e59291906124d7565b60405180910390a36107f78383611b41565b6107ff611ba5565b6108098383611c10565b5050600160008190555050565b600d6020528060005260406000206000915090505481565b600e6020528060005260406000206000915090505481565b6000600354905090565b6000600f60003373ffffffffffffffffffffffffffffffffffffffff1673ffffffffffffffffffffffffffffffffffffffff16815260200190815260200160002054905090565b6000806224ea00600a546108ab919061252f565b90508091505090565b6000600454905090565b600b5481565b6000600d60003373ffffffffffffffffffffffffffffffffffffffff1673ffffffffffffffffffffffffffffffffffffffff1681526020019081526020016000205411610946576040517f08c379a000000000000000000000000000000000000000000000000000000000815260040161093d906125d1565b60405180910390fd5b6000610950610e17565b90506000600e60003373ffffffffffffffffffffffffffffffffffffffff1673ffffffffffffffffffffffffffffffffffffffff168152602001908152602001600020548261099f91906125f1565b9050600d60003373ffffffffffffffffffffffffffffffffffffffff1673ffffffffffffffffffffffffffffffffffffffff1681526020019081526020016000205481600e60003373ffffffffffffffffffffffffffffffffffffffff1673ffffffffffffffffffffffffffffffffffffffff16815260200190815260200160002054610a2c919061252f565b1115610a3757600080fd5b600d60003373ffffffffffffffffffffffffffffffffffffffff1673ffffffffffffffffffffffffffffffffffffffff16815260200190815260200160002054600e60003373ffffffffffffffffffffffffffffffffffffffff1673ffffffffffffffffffffffffffffffffffffffff168152602001908152602001600020541415610af8576040517f08c379a0000000000000000000000000000000000000000000000000000000008152600401610aef90612697565b60405180910390fd5b600660009054906101000a900473ffffffffffffffffffffffffffffffffffffffff1673ffffffffffffffffffffffffffffffffffffffff1663a9059cbb33836040518363ffffffff1660e01b8152600401610b559291906126b7565b6020604051808303816000875af1158015610b74573d6000803e3d6000fd5b505050506040513d601f19601f82011682018060405250810190610b989190612718565b5080600e60003373ffffffffffffffffffffffffffffffffffffffff1673ffffffffffffffffffffffffffffffffffffffff1681526020019081526020016000206000828254610be8919061252f565b925050819055507fcff788b65ecc4ee1e06954505390b4d87e536462f29c25f160ab35cdb6ef6aea81604051610c1e91906122b7565b60405180910390a15050565b60006006600d60003373ffffffffffffffffffffffffffffffffffffffff1673ffffffffffffffffffffffffffffffffffffffff16815260200190815260200160002054610c789190612774565b905090565b610c85611c14565b73ffffffffffffffffffffffffffffffffffffffff16610ca3610f4a565b73ffffffffffffffffffffffffffffffffffffffff1614610cf9576040517f08c379a0000000000000000000000000000000000000000000000000000000008152600401610cf0906127f1565b60405180910390fd5b6009544210610d3d576040517f08c379a0000000000000000000000000000000000000000000000000000000008152600401610d349061285d565b60405180910390fd5b4260098190555062eff10042610d53919061252f565b600a8190555062dd7c00600a54610d6a919061252f565b600b81905550565b6000600260009054906101000a900473ffffffffffffffffffffffffffffffffffffffff16905090565b600042905090565b6000600b54905090565b6000600e60003373ffffffffffffffffffffffffffffffffffffffff1673ffffffffffffffffffffffffffffffffffffffff16815260200190815260200160002054905090565b6000601154905090565b600f6020528060005260406000206000915090505481565b6000600a54421015610e2c5760009050610e92565b6000610e36610c2a565b90506000600c54600a5442610e4b91906125f1565b610e559190612774565b905060068110610e7b576000600683610e6e919061287d565b9050809350505050610e92565b60008183610e89919061287d565b90508093505050505b90565b610e9d611c14565b73ffffffffffffffffffffffffffffffffffffffff16610ebb610f4a565b73ffffffffffffffffffffffffffffffffffffffff1614610f11576040517f08c379a0000000000000000000000000000000000000000000000000000000008152600401610f08906127f1565b60405180910390fd5b610f1b6000611c1c565b565b600080610f286108b4565b9050600060105482610f3a919061252f565b9050809250505090565b600c5481565b6000600560009054906101000a900473ffffffffffffffffffffffffffffffffffffffff16905090565b610f7c611c14565b73ffffffffffffffffffffffffffffffffffffffff16610f9a610f4a565b73ffffffffffffffffffffffffffffffffffffffff1614610ff0576040517f08c379a0000000000000000000000000000000000000000000000000000000008152600401610fe7906127f1565b60405180910390fd5b6009544211611034576040517f08c379a000000000000000000000000000000000000000000000000000000000815260040161102b90612923565b60405180910390fd5b600060115411611079576040517f08c379a00000000000000000000000000000000000000000000000000000000081526004016110709061298f565b60405180910390fd5b600660009054906101000a900473ffffffffffffffffffffffffffffffffffffffff1673ffffffffffffffffffffffffffffffffffffffff1663a9059cbb336011546040518363ffffffff1660e01b81526004016110d89291906126b7565b6020604051808303816000875af11580156110f7573d6000803e3d6000fd5b505050506040513d601f19601f8201168201806040525081019061111b9190612718565b506000601181905550565b6000600d60003373ffffffffffffffffffffffffffffffffffffffff1673ffffffffffffffffffffffffffffffffffffffff16815260200190815260200160002054905090565b731af3f329e8be154074d8769d1ffa4ee058b1dbc373ffffffffffffffffffffffffffffffffffffffff168173ffffffffffffffffffffffffffffffffffffffff1614806111fa57507355d398326f99059ff775485246999027b319795573ffffffffffffffffffffffffffffffffffffffff168173ffffffffffffffffffffffffffffffffffffffff16145b80611244575073e9e7cea3dedca5984780bafc599bd69add087d5673ffffffffffffffffffffffffffffffffffffffff168173ffffffffffffffffffffffffffffffffffffffff16145b611283576040517f08c379a000000000000000000000000000000000000000000000000000000000815260040161127a906129fb565b60405180910390fd5b6802b5e3af16b188000082101580156112a65750690cb49b44ba602d8000008211155b6112e5576040517f08c379a00000000000000000000000000000000000000000000000000000000081526004016112dc90612a67565b60405180910390fd5b600081905060006019846112f9919061287d565b90506000603260648361130c9190612774565b611316919061287d565b9050600060326064846113299190612774565b611333919061287d565b90508373ffffffffffffffffffffffffffffffffffffffff166323b872dd337356e6a6bdcea6666beb932a2933895c628d85aef5896040518463ffffffff1660e01b815260040161138693929190612a87565b6020604051808303816000875af11580156113a5573d6000803e3d6000fd5b505050506040513d601f19601f820116820180604052508101906113c99190612718565b50600660009054906101000a900473ffffffffffffffffffffffffffffffffffffffff1673ffffffffffffffffffffffffffffffffffffffff1663a9059cbb33846040518363ffffffff1660e01b81526004016114279291906126b7565b6020604051808303816000875af1158015611446573d6000803e3d6000fd5b505050506040513d601f19601f8201168201806040525081019061146a9190612718565b5080600d60003373ffffffffffffffffffffffffffffffffffffffff1673ffffffffffffffffffffffffffffffffffffffff16815260200190815260200160002060008282546114ba919061252f565b925050819055506000600760009054906101000a900473ffffffffffffffffffffffffffffffffffffffff1673ffffffffffffffffffffffffffffffffffffffff16638e15f4736040518163ffffffff1660e01b8152600401602060405180830381865afa158015611530573d6000803e3d6000fd5b505050506040513d601f19601f820116820180604052508101906115549190612af4565b905060006305f5e100826115689190612774565b9050600081896115789190612774565b905068056bc75e2d6310000081600f60003373ffffffffffffffffffffffffffffffffffffffff1673ffffffffffffffffffffffffffffffffffffffff168152602001908152602001600020546115cf919061252f565b1115611610576040517f08c379a000000000000000000000000000000000000000000000000000000000815260040161160790612b6d565b60405180910390fd5b80600f60003373ffffffffffffffffffffffffffffffffffffffff1673ffffffffffffffffffffffffffffffffffffffff168152602001908152602001600020600082825461165f919061252f565b925050819055508060106000828254611678919061252f565b92505081905550856011600082825461169191906125f1565b92505081905550600060115414156116d7574260098190555062eff100426116b9919061252f565b600a8190555062dd7c00600a546116d0919061252f565b600b819055505b7fc1b848c8325e11620a407329a0b17996b87f664ad2e681527919f2b3edf4aa5d8660405161170691906122b7565b60405180910390a1505050505050505050565b611721611c14565b73ffffffffffffffffffffffffffffffffffffffff1661173f610f4a565b73ffffffffffffffffffffffffffffffffffffffff1614611795576040517f08c379a000000000000000000000000000000000000000000000000000000000815260040161178c906127f1565b60405180910390fd5b61179e816117a7565b50565b600a5481565b6117af611c14565b73ffffffffffffffffffffffffffffffffffffffff166117cd610f4a565b73ffffffffffffffffffffffffffffffffffffffff1614611823576040517f08c379a000000000000000000000000000000000000000000000000000000000815260040161181a906127f1565b60405180910390fd5b600073ffffffffffffffffffffffffffffffffffffffff168173ffffffffffffffffffffffffffffffffffffffff161415611893576040517f08c379a000000000000000000000000000000000000000000000000000000000815260040161188a90612bff565b60405180910390fd5b61189c81611c1c565b50565b60115481565b600660009054906101000a900473ffffffffffffffffffffffffffffffffffffffff1681565b6000600160009054906101000a900473ffffffffffffffffffffffffffffffffffffffff16905090565b6118ff8282611ce2565b6009544210611943576040517f08c379a000000000000000000000000000000000000000000000000000000000815260040161193a9061285d565b60405180910390fd5b67016345785d8a000081600f60003373ffffffffffffffffffffffffffffffffffffffff1673ffffffffffffffffffffffffffffffffffffffff16815260200190815260200160002054611997919061252f565b101580156119f8575068056bc75e2d6310000081600f60003373ffffffffffffffffffffffffffffffffffffffff1673ffffffffffffffffffffffffffffffffffffffff168152602001908152602001600020546119f5919061252f565b11155b611a37576040517f08c379a0000000000000000000000000000000000000000000000000000000008152600401611a2e90612b6d565b60405180910390fd5b5050565b6000611a4682611d9a565b506000600760009054906101000a900473ffffffffffffffffffffffffffffffffffffffff1673ffffffffffffffffffffffffffffffffffffffff16638e15f4736040518163ffffffff1660e01b8152600401602060405180830381865afa158015611ab6573d6000803e3d6000fd5b505050506040513d601f19601f82011682018060405250810190611ada9190612af4565b905060006305f5e10082611aee9190612774565b905060008185611afe919061287d565b90506000601982611b0f919061287d565b905080945050505050919050565b60008183611b2b919061252f565b905092915050565b611b3d8282611db8565b5050565b611b4b8282611eb0565b80600f60003373ffffffffffffffffffffffffffffffffffffffff1673ffffffffffffffffffffffffffffffffffffffff1681526020019081526020016000206000828254611b9a919061252f565b925050819055505050565b600260009054906101000a900473ffffffffffffffffffffffffffffffffffffffff1673ffffffffffffffffffffffffffffffffffffffff166108fc349081150290604051600060405180830381858888f19350505050158015611c0d573d6000803e3d6000fd5b50565b5050565b600033905090565b6000600560009054906101000a900473ffffffffffffffffffffffffffffffffffffffff16905081600560006101000a81548173ffffffffffffffffffffffffffffffffffffffff021916908373ffffffffffffffffffffffffffffffffffffffff1602179055508173ffffffffffffffffffffffffffffffffffffffff168173ffffffffffffffffffffffffffffffffffffffff167f8be0079c531659141344cd1fd0a4f28419497f9722a3daafe3b4186f6b6457e060405160405180910390a35050565b600073ffffffffffffffffffffffffffffffffffffffff168273ffffffffffffffffffffffffffffffffffffffff161415611d52576040517f08c379a0000000000000000000000000000000000000000000000000000000008152600401611d4990612c91565b60405180910390fd5b6000811415611d96576040517f08c379a0000000000000000000000000000000000000000000000000000000008152600401611d8d90612cfd565b60405180910390fd5b5050565b6000611db160035483611eb490919063ffffffff16565b9050919050565b60006032606483611dc99190612774565b611dd3919061287d565b905060006032606484611de69190612774565b611df0919061287d565b9050611dfc8483611eca565b80600d60003373ffffffffffffffffffffffffffffffffffffffff1673ffffffffffffffffffffffffffffffffffffffff1681526020019081526020016000206000828254611e4b919061252f565b925050819055508260116000828254611e6491906125f1565b9250508190555060006011541415611eaa574260098190555062eff10042611e8c919061252f565b600a8190555062dd7c00600a54611ea3919061252f565b600b819055505b50505050565b5050565b60008183611ec2919061287d565b905092915050565b611f178282600160009054906101000a900473ffffffffffffffffffffffffffffffffffffffff1673ffffffffffffffffffffffffffffffffffffffff16611f1b9092919063ffffffff16565b5050565b611f9c8363a9059cbb60e01b8484604051602401611f3a9291906126b7565b604051602081830303815290604052907bffffffffffffffffffffffffffffffffffffffffffffffffffffffff19166020820180517bffffffffffffffffffffffffffffffffffffffffffffffffffffffff8381831617835250505050611fa1565b505050565b6000612003826040518060400160405280602081526020017f5361666545524332303a206c6f772d6c6576656c2063616c6c206661696c65648152508573ffffffffffffffffffffffffffffffffffffffff166120689092919063ffffffff16565b905060008151111561206357808060200190518101906120239190612718565b612062576040517f08c379a000000000000000000000000000000000000000000000000000000000815260040161205990612d8f565b60405180910390fd5b5b505050565b60606120778484600085612080565b90509392505050565b6060824710156120c5576040517f08c379a00000000000000000000000000000000000000000000000000000000081526004016120bc90612e21565b60405180910390fd5b6120ce85612194565b61210d576040517f08c379a000000000000000000000000000000000000000000000000000000000815260040161210490612e8d565b60405180910390fd5b6000808673ffffffffffffffffffffffffffffffffffffffff1685876040516121369190612f27565b60006040518083038185875af1925050503d8060008114612173576040519150601f19603f3d011682016040523d82523d6000602084013e612178565b606091505b50915091506121888282866121a7565b92505050949350505050565b600080823b905060008111915050919050565b606083156121b757829050612207565b6000835111156121ca5782518084602001fd5b816040517f08c379a00000000000000000000000000000000000000000000000000000000081526004016121fe9190612f93565b60405180910390fd5b9392505050565b600080fd5b600073ffffffffffffffffffffffffffffffffffffffff82169050919050565b600061223e82612213565b9050919050565b61224e81612233565b811461225957600080fd5b50565b60008135905061226b81612245565b92915050565b6000602082840312156122875761228661220e565b5b60006122958482850161225c565b91505092915050565b6000819050919050565b6122b18161229e565b82525050565b60006020820190506122cc60008301846122a8565b92915050565b60006122dd82612213565b9050919050565b6122ed816122d2565b82525050565b600060208201905061230860008301846122e4565b92915050565b61231781612233565b82525050565b6000602082019050612332600083018461230e565b92915050565b6123418161229e565b811461234c57600080fd5b50565b60008135905061235e81612338565b92915050565b6000806040838503121561237b5761237a61220e565b5b60006123898582860161234f565b925050602061239a8582860161225c565b9150509250929050565b6000819050919050565b60006123c96123c46123bf84612213565b6123a4565b612213565b9050919050565b60006123db826123ae565b9050919050565b60006123ed826123d0565b9050919050565b6123fd816123e2565b82525050565b600060208201905061241860008301846123f4565b92915050565b6000612429826123d0565b9050919050565b6124398161241e565b82525050565b60006020820190506124546000830184612430565b92915050565b600082825260208201905092915050565b7f5265656e7472616e637947756172643a207265656e7472616e742063616c6c00600082015250565b60006124a1601f8361245a565b91506124ac8261246b565b602082019050919050565b600060208201905081810360008301526124d081612494565b9050919050565b60006040820190506124ec60008301856122a8565b6124f960208301846122a8565b9392505050565b7f4e487b7100000000000000000000000000000000000000000000000000000000600052601160045260246000fd5b600061253a8261229e565b91506125458361229e565b9250827fffffffffffffffffffffffffffffffffffffffffffffffffffffffffffffffff0382111561257a57612579612500565b5b828201905092915050565b7f596f752068617665206e6f20746f6b656e7320746f20636c61696d2e00000000600082015250565b60006125bb601c8361245a565b91506125c682612585565b602082019050919050565b600060208201905081810360008301526125ea816125ae565b9050919050565b60006125fc8261229e565b91506126078361229e565b92508282101561261a57612619612500565b5b828203905092915050565b7f596f75206861766520636c61696d656420616c6c206f6620796f75722043434c60008201527f432e000000000000000000000000000000000000000000000000000000000000602082015250565b600061268160228361245a565b915061268c82612625565b604082019050919050565b600060208201905081810360008301526126b081612674565b9050919050565b60006040820190506126cc600083018561230e565b6126d960208301846122a8565b9392505050565b60008115159050919050565b6126f5816126e0565b811461270057600080fd5b50565b600081519050612712816126ec565b92915050565b60006020828403121561272e5761272d61220e565b5b600061273c84828501612703565b91505092915050565b7f4e487b7100000000000000000000000000000000000000000000000000000000600052601260045260246000fd5b600061277f8261229e565b915061278a8361229e565b92508261279a57612799612745565b5b828204905092915050565b7f4f776e61626c653a2063616c6c6572206973206e6f7420746865206f776e6572600082015250565b60006127db60208361245a565b91506127e6826127a5565b602082019050919050565b6000602082019050818103600083015261280a816127ce565b9050919050565b7f49434f206973206f7665722e0000000000000000000000000000000000000000600082015250565b6000612847600c8361245a565b915061285282612811565b602082019050919050565b600060208201905081810360008301526128768161283a565b9050919050565b60006128888261229e565b91506128938361229e565b9250817fffffffffffffffffffffffffffffffffffffffffffffffffffffffffffffffff04831182151516156128cc576128cb612500565b5b828202905092915050565b7f5468652049434f206973207374696c6c206f6e676f696e672e00000000000000600082015250565b600061290d60198361245a565b9150612918826128d7565b602082019050919050565b6000602082019050818103600083015261293c81612900565b9050919050565b7f536f6c64206f75742e0000000000000000000000000000000000000000000000600082015250565b600061297960098361245a565b915061298482612943565b602082019050919050565b600060208201905081810360008301526129a88161296c565b9050919050565b7f4441492f555344542f42555344206f6e6c792e00000000000000000000000000600082015250565b60006129e560138361245a565b91506129f0826129af565b602082019050919050565b60006020820190508181036000830152612a14816129d8565b9050919050565b7f4d696e3a202435302c204d61783a202436302c30303000000000000000000000600082015250565b6000612a5160168361245a565b9150612a5c82612a1b565b602082019050919050565b60006020820190508181036000830152612a8081612a44565b9050919050565b6000606082019050612a9c600083018661230e565b612aa9602083018561230e565b612ab660408301846122a8565b949350505050565b6000819050919050565b612ad181612abe565b8114612adc57600080fd5b50565b600081519050612aee81612ac8565b92915050565b600060208284031215612b0a57612b0961220e565b5b6000612b1884828501612adf565b91505092915050565b7f4d696e3a20302e3120424e422c204d61783a2031303020424e42000000000000600082015250565b6000612b57601a8361245a565b9150612b6282612b21565b602082019050919050565b60006020820190508181036000830152612b8681612b4a565b9050919050565b7f4f776e61626c653a206e6577206f776e657220697320746865207a65726f206160008201527f6464726573730000000000000000000000000000000000000000000000000000602082015250565b6000612be960268361245a565b9150612bf482612b8d565b604082019050919050565b60006020820190508181036000830152612c1881612bdc565b9050919050565b7f43726f776473616c653a2062656e656669636961727920697320746865207a6560008201527f726f206164647265737300000000000000000000000000000000000000000000602082015250565b6000612c7b602a8361245a565b9150612c8682612c1f565b604082019050919050565b60006020820190508181036000830152612caa81612c6e565b9050919050565b7f43726f776473616c653a20776569416d6f756e74206973203000000000000000600082015250565b6000612ce760198361245a565b9150612cf282612cb1565b602082019050919050565b60006020820190508181036000830152612d1681612cda565b9050919050565b7f5361666545524332303a204552433230206f7065726174696f6e20646964206e60008201527f6f74207375636365656400000000000000000000000000000000000000000000602082015250565b6000612d79602a8361245a565b9150612d8482612d1d565b604082019050919050565b60006020820190508181036000830152612da881612d6c565b9050919050565b7f416464726573733a20696e73756666696369656e742062616c616e636520666f60008201527f722063616c6c0000000000000000000000000000000000000000000000000000602082015250565b6000612e0b60268361245a565b9150612e1682612daf565b604082019050919050565b60006020820190508181036000830152612e3a81612dfe565b9050919050565b7f416464726573733a2063616c6c20746f206e6f6e2d636f6e7472616374000000600082015250565b6000612e77601d8361245a565b9150612e8282612e41565b602082019050919050565b60006020820190508181036000830152612ea681612e6a565b9050919050565b600081519050919050565b600081905092915050565b60005b83811015612ee1578082015181840152602081019050612ec6565b83811115612ef0576000848401525b50505050565b6000612f0182612ead565b612f0b8185612eb8565b9350612f1b818560208601612ec3565b80840191505092915050565b6000612f338284612ef6565b915081905092915050565b600081519050919050565b6000601f19601f8301169050919050565b6000612f6582612f3e565b612f6f818561245a565b9350612f7f818560208601612ec3565b612f8881612f49565b840191505092915050565b60006020820190508181036000830152612fad8184612f5a565b90509291505056fea2646970667358221220a22341d589383f168f6c10f9c4d2b9efd5d86caa92160bfabaed21844814cb2164736f6c634300080b0033",
  "immutableReferences": {},
  "source": "pragma solidity ^0.8.0;\r\n\r\nimport \"../client/node_modules/@openzeppelin/contracts/access/Ownable.sol\";\r\nimport \"./Crowdsale.sol\";\r\nimport \"./CCLC.sol\";\r\nimport \"./PriceConsumerV3.sol\";\r\n\r\n\r\ncontract MyTokenSale2 is Crowdsale, Ownable {\r\n\r\n    CCLC public cclc;\r\n    PriceConsumerV3 priceFeed;\r\n\r\n    event TokensClaimed(uint _amount);\r\n    event TokensBoughtUSDT(uint _amount);\r\n\r\n    //Start of ICO\r\n    uint startTime = block.timestamp;\r\n\r\n    //End of ICO 2 months\r\n    uint endTime = block.timestamp + 9 weeks; //8 weeks (2 months)\r\n\r\n    //Starts after 1 year.\r\n    uint public fundReleaseStart = endTime + 26 weeks; //26 weeks (6 months) \r\n\r\n    uint public fundEnd = fundReleaseStart + 24 weeks;\r\n\r\n    //monthly release interval 1 month used as divisor.\r\n    uint public fundReleaseInterval = 4 weeks; //4 weeks (monthly)\r\n\r\n    //stores investors CCLC amount.\r\n    mapping(address => uint256) public userBalance;\r\n    mapping(address => uint256) public claimedAmount;\r\n\r\n    //amount bought in BNB, min = 0.5, max = 100.\r\n    mapping(address => uint256) public boughtTotal;\r\n    uint stableCoinAmount;\r\n    uint public totalUnsold = 200_000_000_000000000000000000; //200 million\r\n    \r\n\r\n    function getUnsold() public view returns(uint) {\r\n        return totalUnsold;\r\n    }\r\n\r\n    //Front-end transfers unsoldTokens to owner, then burns.\r\n    function burnUnsold() external onlyOwner {\r\n        require(block.timestamp > endTime, \"The ICO is still ongoing.\");\r\n        require(totalUnsold > 0, \"Sold out.\");\r\n        cclc.transfer(msg.sender, totalUnsold);\r\n        totalUnsold = 0;\r\n    }\r\n    function endICO() public onlyOwner {\r\n        require(block.timestamp < endTime, \"ICO is over.\");\r\n        endTime = block.timestamp;\r\n        fundReleaseStart = block.timestamp + 26 weeks; //1/2 Year\r\n        fundEnd = fundReleaseStart + 24 weeks;\r\n    }\r\n    \r\n\r\n    constructor(uint256 rate, address payable wallet, CCLC token, PriceConsumerV3 _priceFeed) Crowdsale(rate, wallet, token) {\r\n        cclc = token;\r\n        priceFeed = _priceFeed;\r\n    }\r\n\r\n      function _preValidatePurchase(address beneficiary, uint256 weiAmount) internal override view {\r\n       super._preValidatePurchase(beneficiary, weiAmount);\r\n       require(block.timestamp < endTime, 'ICO is over.');\r\n       require(boughtTotal[msg.sender] + weiAmount >= 100000000000000000 && boughtTotal[msg.sender] + weiAmount <= 100000000000000000000, \"Min: 0.1 BNB, Max: 100 BNB\"); // can only buy 100 BNB worth.\r\n    }\r\n\r\n    function _updatePurchasingState(address beneficiary, uint256 weiAmount) internal override {\r\n        super._updatePurchasingState(beneficiary, weiAmount);\r\n        boughtTotal[msg.sender] += weiAmount;\r\n    }\r\n\r\n    //sends 50% to buyer, 50% remains for vesting.\r\n      function _deliverTokens(address beneficiary, uint256 tokenAmount) internal override {\r\n          uint instantAmount = (tokenAmount / 100) * 50;\r\n          uint vestedAmount = (tokenAmount / 100) * 50;\r\n          super._deliverTokens(beneficiary, instantAmount );\r\n          userBalance[msg.sender] += vestedAmount;\r\n          totalUnsold -= tokenAmount;\r\n          if(totalUnsold == 0) {\r\n              endTime = block.timestamp;\r\n              fundReleaseStart = block.timestamp + 26 weeks;\r\n              fundEnd = fundReleaseStart + 24 weeks;\r\n          }\r\n      }\r\n    \r\n    //Converts ETH amount given to current USD exchange rate.\r\n    //Multiplies dollar amount by the CCLC set price to calculate amount to give. \r\n      function _getTokenAmount(uint weiAmount) internal override view returns(uint256) {\r\n          super._getTokenAmount(weiAmount);\r\n          int currentPrice = priceFeed.getLatestPrice();\r\n          uint currPrice = uint(currentPrice) / (1 * 10 ** 8);\r\n          uint usdAmount = weiAmount * uint(currPrice);\r\n          uint amountToGive = (usdAmount) * 25;//4 cents per CCLC\r\n          return(amountToGive);\r\n      }\r\n\r\n        //Used for Stablecoins DAI/USDT/BUSD\r\n      function buyWithUSDT(uint amount, address _token) public {\r\n          //prevents buying with other ERC20 tokens.\r\n          require(_token == 0x1AF3F329e8BE154074D8769D1FFa4eE058B1DBc3 || _token == 0x55d398326f99059fF775485246999027B3197955 || _token == 0xe9e7CEA3DedcA5984780Bafc599bD69ADd087D56, 'DAI/USDT/BUSD only.');\r\n          require(amount >= 50000000000000000000 && amount <= 60000000000000000000000, \"Min: $50, Max: $60,000\"); // can only buy 10 ETH worth.\r\n         // require(block.timestamp < endTime, 'ICO is over.'); \r\n          IERC20 usdt = IERC20(_token);\r\n          uint amountToGive = amount * 25; //4 cents per CCLC\r\n\r\n          //50% instant deposit, 50% vested for 1 year to be claimed during the 6 month-release.\r\n          uint instantAmount = (amountToGive / 100) * 50;\r\n          uint vestedAmount = (amountToGive / 100) * 50;\r\n          usdt.transferFrom(msg.sender, 0x56E6a6bDCea6666bEB932a2933895c628d85aeF5, amount); //transfer to CCLC Owner Address\r\n          cclc.transfer(msg.sender, instantAmount);\r\n          userBalance[msg.sender] += vestedAmount;\r\n\r\n          //calculates the wei amount to keep user allocation under 10 ETH.\r\n          int currentPrice = priceFeed.getLatestPrice(); //get ETH:USDT price.\r\n          uint currPrice = uint(currentPrice) / (1 * 10 ** 8);\r\n          uint weiAmount = amount / uint(currPrice); //used to keep allocation per user under 10 ETH, converts from USD:ETH price.\r\n          require(boughtTotal[msg.sender] + weiAmount <= 100000000000000000000, \"Min: 0.1 BNB, Max: 100 BNB\"); // can only buy 100 worth.\r\n          boughtTotal[msg.sender] += weiAmount;\r\n          stableCoinAmount += weiAmount;\r\n          totalUnsold -= amountToGive;\r\n          if(totalUnsold == 0) {\r\n              endTime = block.timestamp;\r\n              fundReleaseStart = block.timestamp + 26 weeks;\r\n              fundEnd = fundReleaseStart + 24 weeks;\r\n          }\r\n          emit TokensBoughtUSDT(amountToGive);\r\n      }\r\n\r\n    //View functions for the Front-End\r\n      function getUserBalance() public view returns(uint256) {\r\n          return userBalance[msg.sender];\r\n      }\r\n      function getUserClaimed() public view returns(uint256) {\r\n          return claimedAmount[msg.sender];\r\n      }\r\n\r\n      function getUserBought() public view returns(uint256) {\r\n          return boughtTotal[msg.sender];\r\n      }\r\n\r\n      \r\n      function claimTokens() public {\r\n          require(userBalance[msg.sender] > 0, 'You have no tokens to claim.');\r\n          uint claimableAmount = getClaimAmount();\r\n          uint amountToGive = claimableAmount - claimedAmount[msg.sender];\r\n          require(claimedAmount[msg.sender] + amountToGive <= userBalance[msg.sender]);\r\n          require(claimedAmount[msg.sender] != userBalance[msg.sender], \"You have claimed all of your CCLC.\");\r\n          cclc.transfer(msg.sender, amountToGive);\r\n          claimedAmount[msg.sender] += amountToGive;\r\n          emit TokensClaimed(amountToGive);\r\n      }\r\n\r\n      function getClaimAmount() public view returns(uint256) {\r\n          if(block.timestamp < fundReleaseStart) {\r\n              return 0;\r\n          } else {\r\n          uint256 slice = getSlice(); //Slice to get the total vest amount to 1/6\r\n          uint256 monthsCompleted = (block.timestamp - fundReleaseStart) / fundReleaseInterval;\r\n          if (monthsCompleted >= 6) {\r\n              uint giveAmount = slice * 6;\r\n              return giveAmount; //Stops the claimable amount @ userTotal.\r\n          } else{\r\n              uint giveAmount = slice * monthsCompleted;\r\n              return giveAmount;\r\n          }\r\n          }\r\n      }\r\n\r\n    //shows the total funds raised in wei.\r\n      function amountRaised() public view returns(uint256) {\r\n          uint amount = Crowdsale.weiRaised();\r\n          uint totalAmount = amount + stableCoinAmount;//stableCoinAmount converted from wei via Chainlink Oracle.\r\n          return totalAmount;\r\n      }\r\n          \r\n    \r\n\r\n    //divides user funds into 6 parts as per the 6 month vest-release.\r\n      function getSlice() public view returns(uint) {\r\n          return userBalance[msg.sender] / 6;\r\n      }\r\n\r\n      function getFundStartTime() public view returns(uint256) {\r\n          uint fundReleaseStartReal = fundReleaseStart + 4 weeks;\r\n          return fundReleaseStartReal;\r\n      }\r\n      function getFundEndTime() public view returns(uint256) {\r\n          return fundEnd;\r\n      }\r\n\r\n      function getTime() public view returns (uint256) {\r\n          return block.timestamp;\r\n      }       \r\n\r\n       function _transferOwnership(address newOwner) public onlyOwner {\r\n        transferOwnership(newOwner);\r\n    } \r\n\r\n}",
  "sourcePath": "C:\\Users\\L_Mea\\clearchain\\ICO\\contracts\\MyTokenSale2.sol",
  "compiler": {
    "name": "solc",
    "version": "0.8.11+commit.d7f03943.Emscripten.clang"
  },
  "schemaVersion": "3.4.3",
  "updatedAt": "2022-01-25T13:31:26.946Z",
  "networkType": "ethereum",
  "devdoc": {
    "kind": "dev",
    "methods": {
      "buyTokens(address)": {
        "details": "low level token purchase ***DO NOT OVERRIDE*** This function has a non-reentrancy guard, so it shouldn't be called by another `nonReentrant` function.",
        "params": {
          "beneficiary": "Recipient of the token purchase"
        }
      },
      "owner()": {
        "details": "Returns the address of the current owner."
      },
      "rate()": {
        "returns": {
          "_0": "the number of token units a buyer gets per wei."
        }
      },
      "renounceOwnership()": {
        "details": "Leaves the contract without owner. It will not be possible to call `onlyOwner` functions anymore. Can only be called by the current owner. NOTE: Renouncing ownership will leave the contract without an owner, thereby removing any functionality that is only available to the owner."
      },
      "token()": {
        "returns": {
          "_0": "the token being sold."
        }
      },
      "transferOwnership(address)": {
        "details": "Transfers ownership of the contract to a new account (`newOwner`). Can only be called by the current owner."
      },
      "wallet()": {
        "returns": {
          "_0": "the address where funds are collected."
        }
      },
      "weiRaised()": {
        "returns": {
          "_0": "the amount of wei raised."
        }
      }
    },
    "version": 1
  },
  "userdoc": {
    "events": {
      "TokensPurchased(address,address,uint256,uint256)": {
        "notice": "Event for token purchase logging"
      }
    },
    "kind": "user",
    "methods": {},
    "version": 1
  }
}