{
  "contractName": "MyTokenSale1",
  "abi": [
    {
      "inputs": [
        {
          "internalType": "uint256",
          "name": "rate",
          "type": "uint256"
        },
        {
          "internalType": "address payable",
          "name": "wallet",
          "type": "address"
        },
        {
          "internalType": "contract CCLC",
          "name": "token",
          "type": "address"
        },
        {
          "internalType": "contract PriceConsumerV3",
          "name": "_priceFeed",
          "type": "address"
        }
      ],
      "stateMutability": "nonpayable",
      "type": "constructor"
    },
    {
      "anonymous": false,
      "inputs": [
        {
          "indexed": true,
          "internalType": "address",
          "name": "previousOwner",
          "type": "address"
        },
        {
          "indexed": true,
          "internalType": "address",
          "name": "newOwner",
          "type": "address"
        }
      ],
      "name": "OwnershipTransferred",
      "type": "event"
    },
    {
      "anonymous": false,
      "inputs": [
        {
          "indexed": false,
          "internalType": "uint256",
          "name": "_amount",
          "type": "uint256"
        }
      ],
      "name": "TokensBoughtUSDT",
      "type": "event"
    },
    {
      "anonymous": false,
      "inputs": [
        {
          "indexed": false,
          "internalType": "uint256",
          "name": "_amount",
          "type": "uint256"
        }
      ],
      "name": "TokensClaimed",
      "type": "event"
    },
    {
      "anonymous": false,
      "inputs": [
        {
          "indexed": true,
          "internalType": "address",
          "name": "purchaser",
          "type": "address"
        },
        {
          "indexed": true,
          "internalType": "address",
          "name": "beneficiary",
          "type": "address"
        },
        {
          "indexed": false,
          "internalType": "uint256",
          "name": "value",
          "type": "uint256"
        },
        {
          "indexed": false,
          "internalType": "uint256",
          "name": "amount",
          "type": "uint256"
        }
      ],
      "name": "TokensPurchased",
      "type": "event"
    },
    {
      "inputs": [
        {
          "internalType": "address",
          "name": "",
          "type": "address"
        }
      ],
      "name": "boughtTotal",
      "outputs": [
        {
          "internalType": "uint256",
          "name": "",
          "type": "uint256"
        }
      ],
      "stateMutability": "view",
      "type": "function"
    },
    {
      "inputs": [
        {
          "internalType": "address",
          "name": "beneficiary",
          "type": "address"
        }
      ],
      "name": "buyTokens",
      "outputs": [],
      "stateMutability": "payable",
      "type": "function"
    },
    {
      "inputs": [],
      "name": "cclc",
      "outputs": [
        {
          "internalType": "contract CCLC",
          "name": "",
          "type": "address"
        }
      ],
      "stateMutability": "view",
      "type": "function"
    },
    {
      "inputs": [
        {
          "internalType": "address",
          "name": "",
          "type": "address"
        }
      ],
      "name": "claimedAmount",
      "outputs": [
        {
          "internalType": "uint256",
          "name": "",
          "type": "uint256"
        }
      ],
      "stateMutability": "view",
      "type": "function"
    },
    {
      "inputs": [],
      "name": "fundEnd",
      "outputs": [
        {
          "internalType": "uint256",
          "name": "",
          "type": "uint256"
        }
      ],
      "stateMutability": "view",
      "type": "function"
    },
    {
      "inputs": [],
      "name": "fundReleaseInterval",
      "outputs": [
        {
          "internalType": "uint256",
          "name": "",
          "type": "uint256"
        }
      ],
      "stateMutability": "view",
      "type": "function"
    },
    {
      "inputs": [],
      "name": "fundReleaseStart",
      "outputs": [
        {
          "internalType": "uint256",
          "name": "",
          "type": "uint256"
        }
      ],
      "stateMutability": "view",
      "type": "function"
    },
    {
      "inputs": [],
      "name": "owner",
      "outputs": [
        {
          "internalType": "address",
          "name": "",
          "type": "address"
        }
      ],
      "stateMutability": "view",
      "type": "function"
    },
    {
      "inputs": [],
      "name": "rate",
      "outputs": [
        {
          "internalType": "uint256",
          "name": "",
          "type": "uint256"
        }
      ],
      "stateMutability": "view",
      "type": "function"
    },
    {
      "inputs": [],
      "name": "renounceOwnership",
      "outputs": [],
      "stateMutability": "nonpayable",
      "type": "function"
    },
    {
      "inputs": [],
      "name": "token",
      "outputs": [
        {
          "internalType": "contract IERC20",
          "name": "",
          "type": "address"
        }
      ],
      "stateMutability": "view",
      "type": "function"
    },
    {
      "inputs": [],
      "name": "totalUnsold",
      "outputs": [
        {
          "internalType": "uint256",
          "name": "",
          "type": "uint256"
        }
      ],
      "stateMutability": "view",
      "type": "function"
    },
    {
      "inputs": [
        {
          "internalType": "address",
          "name": "newOwner",
          "type": "address"
        }
      ],
      "name": "transferOwnership",
      "outputs": [],
      "stateMutability": "nonpayable",
      "type": "function"
    },
    {
      "inputs": [
        {
          "internalType": "address",
          "name": "",
          "type": "address"
        }
      ],
      "name": "userBalance",
      "outputs": [
        {
          "internalType": "uint256",
          "name": "",
          "type": "uint256"
        }
      ],
      "stateMutability": "view",
      "type": "function"
    },
    {
      "inputs": [],
      "name": "wallet",
      "outputs": [
        {
          "internalType": "address payable",
          "name": "",
          "type": "address"
        }
      ],
      "stateMutability": "view",
      "type": "function"
    },
    {
      "inputs": [],
      "name": "weiRaised",
      "outputs": [
        {
          "internalType": "uint256",
          "name": "",
          "type": "uint256"
        }
      ],
      "stateMutability": "view",
      "type": "function"
    },
    {
      "stateMutability": "payable",
      "type": "receive"
    },
    {
      "inputs": [],
      "name": "getUnsold",
      "outputs": [
        {
          "internalType": "uint256",
          "name": "",
          "type": "uint256"
        }
      ],
      "stateMutability": "view",
      "type": "function"
    },
    {
      "inputs": [],
      "name": "burnUnsold",
      "outputs": [],
      "stateMutability": "nonpayable",
      "type": "function"
    },
    {
      "inputs": [],
      "name": "endICO",
      "outputs": [],
      "stateMutability": "nonpayable",
      "type": "function"
    },
    {
      "inputs": [
        {
          "internalType": "uint256",
          "name": "amount",
          "type": "uint256"
        },
        {
          "internalType": "address",
          "name": "_token",
          "type": "address"
        }
      ],
      "name": "buyWithUSDT",
      "outputs": [],
      "stateMutability": "nonpayable",
      "type": "function"
    },
    {
      "inputs": [],
      "name": "getUserBalance",
      "outputs": [
        {
          "internalType": "uint256",
          "name": "",
          "type": "uint256"
        }
      ],
      "stateMutability": "view",
      "type": "function"
    },
    {
      "inputs": [],
      "name": "getUserClaimed",
      "outputs": [
        {
          "internalType": "uint256",
          "name": "",
          "type": "uint256"
        }
      ],
      "stateMutability": "view",
      "type": "function"
    },
    {
      "inputs": [],
      "name": "getUserBought",
      "outputs": [
        {
          "internalType": "uint256",
          "name": "",
          "type": "uint256"
        }
      ],
      "stateMutability": "view",
      "type": "function"
    },
    {
      "inputs": [],
      "name": "claimTokens",
      "outputs": [],
      "stateMutability": "nonpayable",
      "type": "function"
    },
    {
      "inputs": [],
      "name": "getClaimAmount",
      "outputs": [
        {
          "internalType": "uint256",
          "name": "",
          "type": "uint256"
        }
      ],
      "stateMutability": "view",
      "type": "function"
    },
    {
      "inputs": [],
      "name": "amountRaised",
      "outputs": [
        {
          "internalType": "uint256",
          "name": "",
          "type": "uint256"
        }
      ],
      "stateMutability": "view",
      "type": "function"
    },
    {
      "inputs": [],
      "name": "getSlice",
      "outputs": [
        {
          "internalType": "uint256",
          "name": "",
          "type": "uint256"
        }
      ],
      "stateMutability": "view",
      "type": "function"
    },
    {
      "inputs": [],
      "name": "getFundStartTime",
      "outputs": [
        {
          "internalType": "uint256",
          "name": "",
          "type": "uint256"
        }
      ],
      "stateMutability": "view",
      "type": "function"
    },
    {
      "inputs": [],
      "name": "getFundEndTime",
      "outputs": [
        {
          "internalType": "uint256",
          "name": "",
          "type": "uint256"
        }
      ],
      "stateMutability": "view",
      "type": "function"
    },
    {
      "inputs": [],
      "name": "getTime",
      "outputs": [
        {
          "internalType": "uint256",
          "name": "",
          "type": "uint256"
        }
      ],
      "stateMutability": "view",
      "type": "function"
    },
    {
      "inputs": [
        {
          "internalType": "address",
          "name": "newOwner",
          "type": "address"
        }
      ],
      "name": "_transferOwnership",
      "outputs": [],
      "stateMutability": "nonpayable",
      "type": "function"
    }
  ],
  "bytecode": "0x6080604052426008556249d4004262000019919062000408565b6009556301dfe20060095462000030919062000408565b600a5562dd7c00600a5462000046919062000408565b600b556224ea00600c556a52b7d2dcc80cd2e40000006011553480156200006c57600080fd5b50604051620038053803806200380583398181016040528101906200009291906200059e565b838383600160008190555060008311620000e3576040517f08c379a0000000000000000000000000000000000000000000000000000000008152600401620000da9062000671565b60405180910390fd5b600073ffffffffffffffffffffffffffffffffffffffff168273ffffffffffffffffffffffffffffffffffffffff16141562000156576040517f08c379a00000000000000000000000000000000000000000000000000000000081526004016200014d9062000709565b60405180910390fd5b600073ffffffffffffffffffffffffffffffffffffffff168173ffffffffffffffffffffffffffffffffffffffff161415620001c9576040517f08c379a0000000000000000000000000000000000000000000000000000000008152600401620001c090620007a1565b60405180910390fd5b8260038190555081600260006101000a81548173ffffffffffffffffffffffffffffffffffffffff021916908373ffffffffffffffffffffffffffffffffffffffff16021790555080600160006101000a81548173ffffffffffffffffffffffffffffffffffffffff021916908373ffffffffffffffffffffffffffffffffffffffff16021790555050505062000275620002696200030160201b60201c565b6200030960201b60201c565b81600660006101000a81548173ffffffffffffffffffffffffffffffffffffffff021916908373ffffffffffffffffffffffffffffffffffffffff16021790555080600760006101000a81548173ffffffffffffffffffffffffffffffffffffffff021916908373ffffffffffffffffffffffffffffffffffffffff16021790555050505050620007c3565b600033905090565b6000600560009054906101000a900473ffffffffffffffffffffffffffffffffffffffff16905081600560006101000a81548173ffffffffffffffffffffffffffffffffffffffff021916908373ffffffffffffffffffffffffffffffffffffffff1602179055508173ffffffffffffffffffffffffffffffffffffffff168173ffffffffffffffffffffffffffffffffffffffff167f8be0079c531659141344cd1fd0a4f28419497f9722a3daafe3b4186f6b6457e060405160405180910390a35050565b6000819050919050565b7f4e487b7100000000000000000000000000000000000000000000000000000000600052601160045260246000fd5b60006200041582620003cf565b91506200042283620003cf565b9250827fffffffffffffffffffffffffffffffffffffffffffffffffffffffffffffffff038211156200045a5762000459620003d9565b5b828201905092915050565b600080fd5b6200047581620003cf565b81146200048157600080fd5b50565b60008151905062000495816200046a565b92915050565b600073ffffffffffffffffffffffffffffffffffffffff82169050919050565b6000620004c8826200049b565b9050919050565b620004da81620004bb565b8114620004e657600080fd5b50565b600081519050620004fa81620004cf565b92915050565b60006200050d826200049b565b9050919050565b6000620005218262000500565b9050919050565b620005338162000514565b81146200053f57600080fd5b50565b600081519050620005538162000528565b92915050565b6000620005668262000500565b9050919050565b620005788162000559565b81146200058457600080fd5b50565b60008151905062000598816200056d565b92915050565b60008060008060808587031215620005bb57620005ba62000465565b5b6000620005cb8782880162000484565b9450506020620005de87828801620004e9565b9350506040620005f18782880162000542565b9250506060620006048782880162000587565b91505092959194509250565b600082825260208201905092915050565b7f43726f776473616c653a20726174652069732030000000000000000000000000600082015250565b60006200065960148362000610565b9150620006668262000621565b602082019050919050565b600060208201905081810360008301526200068c816200064a565b9050919050565b7f43726f776473616c653a2077616c6c657420697320746865207a65726f20616460008201527f6472657373000000000000000000000000000000000000000000000000000000602082015250565b6000620006f160258362000610565b9150620006fe8262000693565b604082019050919050565b600060208201905081810360008301526200072481620006e2565b9050919050565b7f43726f776473616c653a20746f6b656e20697320746865207a65726f2061646460008201527f7265737300000000000000000000000000000000000000000000000000000000602082015250565b60006200078960248362000610565b915062000796826200072b565b604082019050919050565b60006020820190508181036000830152620007bc816200077a565b9050919050565b61303280620007d36000396000f3fe6080604052600436106101dc5760003560e01c806365b58b0511610102578063d095362f11610095578063f2fde38b11610064578063f2fde38b1461064d578063f339c3ab14610676578063fac7a27a146106a1578063fc0c546a146106cc576101ec565b8063d095362f146105b4578063d29d44ee146105dd578063d810771414610606578063ec8ac4d814610631576101ec565b80638007f337116100d15780638007f3371461051c5780638da5cb5b14610547578063b52a585114610572578063b7013dc114610589576101ec565b806365b58b051461047257806371127ed2146104af578063715018a6146104da5780637b3e5e7b146104f1576101ec565b806348c54b9d1161017a578063557ed1ba11610149578063557ed1ba146103c65780635965aadc146103f157806360deea251461041c57806363a3c45214610447576101ec565b806348c54b9d146103425780634b78b535146103595780634f24840914610384578063521eb2731461039b576101ec565b80633710ab25116101b65780633710ab25146102965780633c00c417146102c15780634042b66f146102ec578063429dc97214610317576101ec565b80630103c92b146101f157806304e869031461022e5780632c4e722e1461026b576101ec565b366101ec576101ea336106f7565b005b600080fd5b3480156101fd57600080fd5b50610218600480360381019061021391906122b8565b610816565b60405161022591906122fe565b60405180910390f35b34801561023a57600080fd5b50610255600480360381019061025091906122b8565b61082e565b60405161026291906122fe565b60405180910390f35b34801561027757600080fd5b50610280610846565b60405161028d91906122fe565b60405180910390f35b3480156102a257600080fd5b506102ab610850565b6040516102b891906122fe565b60405180910390f35b3480156102cd57600080fd5b506102d6610897565b6040516102e391906122fe565b60405180910390f35b3480156102f857600080fd5b506103016108b4565b60405161030e91906122fe565b60405180910390f35b34801561032357600080fd5b5061032c6108be565b60405161033991906122fe565b60405180910390f35b34801561034e57600080fd5b506103576108c4565b005b34801561036557600080fd5b5061036e610c2a565b60405161037b91906122fe565b60405180910390f35b34801561039057600080fd5b50610399610c7d565b005b3480156103a757600080fd5b506103b0610d73565b6040516103bd919061233a565b60405180910390f35b3480156103d257600080fd5b506103db610d9d565b6040516103e891906122fe565b60405180910390f35b3480156103fd57600080fd5b50610406610da5565b60405161041391906122fe565b60405180910390f35b34801561042857600080fd5b50610431610daf565b60405161043e91906122fe565b60405180910390f35b34801561045357600080fd5b5061045c610df6565b60405161046991906122fe565b60405180910390f35b34801561047e57600080fd5b50610499600480360381019061049491906122b8565b610e00565b6040516104a691906122fe565b60405180910390f35b3480156104bb57600080fd5b506104c4610e18565b6040516104d191906122fe565b60405180910390f35b3480156104e657600080fd5b506104ef610e96565b005b3480156104fd57600080fd5b50610506610f1e565b60405161051391906122fe565b60405180910390f35b34801561052857600080fd5b50610531610f45565b60405161053e91906122fe565b60405180910390f35b34801561055357600080fd5b5061055c610f4b565b6040516105699190612364565b60405180910390f35b34801561057e57600080fd5b50610587610f75565b005b34801561059557600080fd5b5061059e611127565b6040516105ab91906122fe565b60405180910390f35b3480156105c057600080fd5b506105db60048036038101906105d691906123ab565b61116e565b005b3480156105e957600080fd5b5061060460048036038101906105ff91906122b8565b61175f565b005b34801561061257600080fd5b5061061b6117e7565b60405161062891906122fe565b60405180910390f35b61064b600480360381019061064691906122b8565b6106f7565b005b34801561065957600080fd5b50610674600480360381019061066f91906122b8565b6117ed565b005b34801561068257600080fd5b5061068b6118e5565b60405161069891906122fe565b60405180910390f35b3480156106ad57600080fd5b506106b66118eb565b6040516106c3919061244a565b60405180910390f35b3480156106d857600080fd5b506106e1611911565b6040516106ee9190612486565b60405180910390f35b6002600054141561073d576040517f08c379a0000000000000000000000000000000000000000000000000000000008152600401610734906124fe565b60405180910390fd5b60026000819055506000349050610754828261193b565b600061075f82611a81565b905061077682600454611b6390919063ffffffff16565b6004819055506107868382611b79565b8273ffffffffffffffffffffffffffffffffffffffff163373ffffffffffffffffffffffffffffffffffffffff167f6faf93231a456e552dbc9961f58d9713ee4f2e69d15f1975b050ef0911053a7b84846040516107e592919061251e565b60405180910390a36107f78383611b87565b6107ff611beb565b6108098383611c56565b5050600160008190555050565b600d6020528060005260406000206000915090505481565b600e6020528060005260406000206000915090505481565b6000600354905090565b6000600f60003373ffffffffffffffffffffffffffffffffffffffff1673ffffffffffffffffffffffffffffffffffffffff16815260200190815260200160002054905090565b6000806224ea00600a546108ab9190612576565b90508091505090565b6000600454905090565b600b5481565b6000600d60003373ffffffffffffffffffffffffffffffffffffffff1673ffffffffffffffffffffffffffffffffffffffff1681526020019081526020016000205411610946576040517f08c379a000000000000000000000000000000000000000000000000000000000815260040161093d90612618565b60405180910390fd5b6000610950610e18565b90506000600e60003373ffffffffffffffffffffffffffffffffffffffff1673ffffffffffffffffffffffffffffffffffffffff168152602001908152602001600020548261099f9190612638565b9050600d60003373ffffffffffffffffffffffffffffffffffffffff1673ffffffffffffffffffffffffffffffffffffffff1681526020019081526020016000205481600e60003373ffffffffffffffffffffffffffffffffffffffff1673ffffffffffffffffffffffffffffffffffffffff16815260200190815260200160002054610a2c9190612576565b1115610a3757600080fd5b600d60003373ffffffffffffffffffffffffffffffffffffffff1673ffffffffffffffffffffffffffffffffffffffff16815260200190815260200160002054600e60003373ffffffffffffffffffffffffffffffffffffffff1673ffffffffffffffffffffffffffffffffffffffff168152602001908152602001600020541415610af8576040517f08c379a0000000000000000000000000000000000000000000000000000000008152600401610aef906126de565b60405180910390fd5b600660009054906101000a900473ffffffffffffffffffffffffffffffffffffffff1673ffffffffffffffffffffffffffffffffffffffff1663a9059cbb33836040518363ffffffff1660e01b8152600401610b559291906126fe565b6020604051808303816000875af1158015610b74573d6000803e3d6000fd5b505050506040513d601f19601f82011682018060405250810190610b98919061275f565b5080600e60003373ffffffffffffffffffffffffffffffffffffffff1673ffffffffffffffffffffffffffffffffffffffff1681526020019081526020016000206000828254610be89190612576565b925050819055507fcff788b65ecc4ee1e06954505390b4d87e536462f29c25f160ab35cdb6ef6aea81604051610c1e91906122fe565b60405180910390a15050565b60006006600d60003373ffffffffffffffffffffffffffffffffffffffff1673ffffffffffffffffffffffffffffffffffffffff16815260200190815260200160002054610c7891906127bb565b905090565b610c85611c5a565b73ffffffffffffffffffffffffffffffffffffffff16610ca3610f4b565b73ffffffffffffffffffffffffffffffffffffffff1614610cf9576040517f08c379a0000000000000000000000000000000000000000000000000000000008152600401610cf090612838565b60405180910390fd5b6009544210610d3d576040517f08c379a0000000000000000000000000000000000000000000000000000000008152600401610d34906128a4565b60405180910390fd5b426009819055506301dfe20042610d549190612576565b600a8190555062dd7c00600a54610d6b9190612576565b600b81905550565b6000600260009054906101000a900473ffffffffffffffffffffffffffffffffffffffff16905090565b600042905090565b6000600b54905090565b6000600e60003373ffffffffffffffffffffffffffffffffffffffff1673ffffffffffffffffffffffffffffffffffffffff16815260200190815260200160002054905090565b6000601154905090565b600f6020528060005260406000206000915090505481565b6000600a54421015610e2d5760009050610e93565b6000610e37610c2a565b90506000600c54600a5442610e4c9190612638565b610e5691906127bb565b905060068110610e7c576000600683610e6f91906128c4565b9050809350505050610e93565b60008183610e8a91906128c4565b90508093505050505b90565b610e9e611c5a565b73ffffffffffffffffffffffffffffffffffffffff16610ebc610f4b565b73ffffffffffffffffffffffffffffffffffffffff1614610f12576040517f08c379a0000000000000000000000000000000000000000000000000000000008152600401610f0990612838565b60405180910390fd5b610f1c6000611c62565b565b600080610f296108b4565b9050600060105482610f3b9190612576565b9050809250505090565b600c5481565b6000600560009054906101000a900473ffffffffffffffffffffffffffffffffffffffff16905090565b610f7d611c5a565b73ffffffffffffffffffffffffffffffffffffffff16610f9b610f4b565b73ffffffffffffffffffffffffffffffffffffffff1614610ff1576040517f08c379a0000000000000000000000000000000000000000000000000000000008152600401610fe890612838565b60405180910390fd5b6009544211611035576040517f08c379a000000000000000000000000000000000000000000000000000000000815260040161102c9061296a565b60405180910390fd5b60006011541161107a576040517f08c379a0000000000000000000000000000000000000000000000000000000008152600401611071906129d6565b60405180910390fd5b600660009054906101000a900473ffffffffffffffffffffffffffffffffffffffff1673ffffffffffffffffffffffffffffffffffffffff1663a9059cbb336011546040518363ffffffff1660e01b81526004016110d99291906126fe565b6020604051808303816000875af11580156110f8573d6000803e3d6000fd5b505050506040513d601f19601f8201168201806040525081019061111c919061275f565b506000601181905550565b6000600d60003373ffffffffffffffffffffffffffffffffffffffff1673ffffffffffffffffffffffffffffffffffffffff16815260200190815260200160002054905090565b731af3f329e8be154074d8769d1ffa4ee058b1dbc373ffffffffffffffffffffffffffffffffffffffff168173ffffffffffffffffffffffffffffffffffffffff1614806111fb57507355d398326f99059ff775485246999027b319795573ffffffffffffffffffffffffffffffffffffffff168173ffffffffffffffffffffffffffffffffffffffff16145b80611245575073e9e7cea3dedca5984780bafc599bd69add087d5673ffffffffffffffffffffffffffffffffffffffff168173ffffffffffffffffffffffffffffffffffffffff16145b611284576040517f08c379a000000000000000000000000000000000000000000000000000000000815260040161127b90612a42565b60405180910390fd5b68056bc75e2d6310000082101580156112a75750690cb49b44ba602d8000008211155b6112e6576040517f08c379a00000000000000000000000000000000000000000000000000000000081526004016112dd90612aae565b60405180910390fd5b600954421061132a576040517f08c379a0000000000000000000000000000000000000000000000000000000008152600401611321906128a4565b60405180910390fd5b6000819050600060198461133e91906128c4565b90506000601e60648361135191906127bb565b61135b91906128c4565b90506000604660648461136e91906127bb565b61137891906128c4565b90508373ffffffffffffffffffffffffffffffffffffffff166323b872dd337356e6a6bdcea6666beb932a2933895c628d85aef5896040518463ffffffff1660e01b81526004016113cb93929190612ace565b6020604051808303816000875af11580156113ea573d6000803e3d6000fd5b505050506040513d601f19601f8201168201806040525081019061140e919061275f565b50600660009054906101000a900473ffffffffffffffffffffffffffffffffffffffff1673ffffffffffffffffffffffffffffffffffffffff1663a9059cbb33846040518363ffffffff1660e01b815260040161146c9291906126fe565b6020604051808303816000875af115801561148b573d6000803e3d6000fd5b505050506040513d601f19601f820116820180604052508101906114af919061275f565b5080600d60003373ffffffffffffffffffffffffffffffffffffffff1673ffffffffffffffffffffffffffffffffffffffff16815260200190815260200160002060008282546114ff9190612576565b925050819055506000600760009054906101000a900473ffffffffffffffffffffffffffffffffffffffff1673ffffffffffffffffffffffffffffffffffffffff16638e15f4736040518163ffffffff1660e01b8152600401602060405180830381865afa158015611575573d6000803e3d6000fd5b505050506040513d601f19601f820116820180604052508101906115999190612b3b565b905060006305f5e100826115ad91906127bb565b9050600081896115bd91906127bb565b905068056bc75e2d6310000081600f60003373ffffffffffffffffffffffffffffffffffffffff1673ffffffffffffffffffffffffffffffffffffffff168152602001908152602001600020546116149190612576565b1115611655576040517f08c379a000000000000000000000000000000000000000000000000000000000815260040161164c90612bb4565b60405180910390fd5b80600f60003373ffffffffffffffffffffffffffffffffffffffff1673ffffffffffffffffffffffffffffffffffffffff16815260200190815260200160002060008282546116a49190612576565b9250508190555080601060008282546116bd9190612576565b9250508190555085601160008282546116d69190612638565b925050819055506000601154141561171d57426009819055506301dfe200426116ff9190612576565b600a8190555062dd7c00600a546117169190612576565b600b819055505b7fc1b848c8325e11620a407329a0b17996b87f664ad2e681527919f2b3edf4aa5d8660405161174c91906122fe565b60405180910390a1505050505050505050565b611767611c5a565b73ffffffffffffffffffffffffffffffffffffffff16611785610f4b565b73ffffffffffffffffffffffffffffffffffffffff16146117db576040517f08c379a00000000000000000000000000000000000000000000000000000000081526004016117d290612838565b60405180910390fd5b6117e4816117ed565b50565b600a5481565b6117f5611c5a565b73ffffffffffffffffffffffffffffffffffffffff16611813610f4b565b73ffffffffffffffffffffffffffffffffffffffff1614611869576040517f08c379a000000000000000000000000000000000000000000000000000000000815260040161186090612838565b60405180910390fd5b600073ffffffffffffffffffffffffffffffffffffffff168173ffffffffffffffffffffffffffffffffffffffff1614156118d9576040517f08c379a00000000000000000000000000000000000000000000000000000000081526004016118d090612c46565b60405180910390fd5b6118e281611c62565b50565b60115481565b600660009054906101000a900473ffffffffffffffffffffffffffffffffffffffff1681565b6000600160009054906101000a900473ffffffffffffffffffffffffffffffffffffffff16905090565b6119458282611d28565b6009544210611989576040517f08c379a0000000000000000000000000000000000000000000000000000000008152600401611980906128a4565b60405180910390fd5b67016345785d8a000081600f60003373ffffffffffffffffffffffffffffffffffffffff1673ffffffffffffffffffffffffffffffffffffffff168152602001908152602001600020546119dd9190612576565b10158015611a3e575068056bc75e2d6310000081600f60003373ffffffffffffffffffffffffffffffffffffffff1673ffffffffffffffffffffffffffffffffffffffff16815260200190815260200160002054611a3b9190612576565b11155b611a7d576040517f08c379a0000000000000000000000000000000000000000000000000000000008152600401611a7490612bb4565b60405180910390fd5b5050565b6000611a8c82611de0565b506000600760009054906101000a900473ffffffffffffffffffffffffffffffffffffffff1673ffffffffffffffffffffffffffffffffffffffff16638e15f4736040518163ffffffff1660e01b8152600401602060405180830381865afa158015611afc573d6000803e3d6000fd5b505050506040513d601f19601f82011682018060405250810190611b209190612b3b565b905060006305f5e10082611b3491906127bb565b905060008185611b4491906128c4565b90506000601982611b5591906128c4565b905080945050505050919050565b60008183611b719190612576565b905092915050565b611b838282611dfe565b5050565b611b918282611ef7565b80600f60003373ffffffffffffffffffffffffffffffffffffffff1673ffffffffffffffffffffffffffffffffffffffff1681526020019081526020016000206000828254611be09190612576565b925050819055505050565b600260009054906101000a900473ffffffffffffffffffffffffffffffffffffffff1673ffffffffffffffffffffffffffffffffffffffff166108fc349081150290604051600060405180830381858888f19350505050158015611c53573d6000803e3d6000fd5b50565b5050565b600033905090565b6000600560009054906101000a900473ffffffffffffffffffffffffffffffffffffffff16905081600560006101000a81548173ffffffffffffffffffffffffffffffffffffffff021916908373ffffffffffffffffffffffffffffffffffffffff1602179055508173ffffffffffffffffffffffffffffffffffffffff168173ffffffffffffffffffffffffffffffffffffffff167f8be0079c531659141344cd1fd0a4f28419497f9722a3daafe3b4186f6b6457e060405160405180910390a35050565b600073ffffffffffffffffffffffffffffffffffffffff168273ffffffffffffffffffffffffffffffffffffffff161415611d98576040517f08c379a0000000000000000000000000000000000000000000000000000000008152600401611d8f90612cd8565b60405180910390fd5b6000811415611ddc576040517f08c379a0000000000000000000000000000000000000000000000000000000008152600401611dd390612d44565b60405180910390fd5b5050565b6000611df760035483611efb90919063ffffffff16565b9050919050565b6000601e606483611e0f91906127bb565b611e1991906128c4565b905060006046606484611e2c91906127bb565b611e3691906128c4565b9050611e428483611f11565b80600d60003373ffffffffffffffffffffffffffffffffffffffff1673ffffffffffffffffffffffffffffffffffffffff1681526020019081526020016000206000828254611e919190612576565b925050819055508260116000828254611eaa9190612638565b9250508190555060006011541415611ef157426009819055506301dfe20042611ed39190612576565b600a8190555062dd7c00600a54611eea9190612576565b600b819055505b50505050565b5050565b60008183611f0991906128c4565b905092915050565b611f5e8282600160009054906101000a900473ffffffffffffffffffffffffffffffffffffffff1673ffffffffffffffffffffffffffffffffffffffff16611f629092919063ffffffff16565b5050565b611fe38363a9059cbb60e01b8484604051602401611f819291906126fe565b604051602081830303815290604052907bffffffffffffffffffffffffffffffffffffffffffffffffffffffff19166020820180517bffffffffffffffffffffffffffffffffffffffffffffffffffffffff8381831617835250505050611fe8565b505050565b600061204a826040518060400160405280602081526020017f5361666545524332303a206c6f772d6c6576656c2063616c6c206661696c65648152508573ffffffffffffffffffffffffffffffffffffffff166120af9092919063ffffffff16565b90506000815111156120aa578080602001905181019061206a919061275f565b6120a9576040517f08c379a00000000000000000000000000000000000000000000000000000000081526004016120a090612dd6565b60405180910390fd5b5b505050565b60606120be84846000856120c7565b90509392505050565b60608247101561210c576040517f08c379a000000000000000000000000000000000000000000000000000000000815260040161210390612e68565b60405180910390fd5b612115856121db565b612154576040517f08c379a000000000000000000000000000000000000000000000000000000000815260040161214b90612ed4565b60405180910390fd5b6000808673ffffffffffffffffffffffffffffffffffffffff16858760405161217d9190612f6e565b60006040518083038185875af1925050503d80600081146121ba576040519150601f19603f3d011682016040523d82523d6000602084013e6121bf565b606091505b50915091506121cf8282866121ee565b92505050949350505050565b600080823b905060008111915050919050565b606083156121fe5782905061224e565b6000835111156122115782518084602001fd5b816040517f08c379a00000000000000000000000000000000000000000000000000000000081526004016122459190612fda565b60405180910390fd5b9392505050565b600080fd5b600073ffffffffffffffffffffffffffffffffffffffff82169050919050565b60006122858261225a565b9050919050565b6122958161227a565b81146122a057600080fd5b50565b6000813590506122b28161228c565b92915050565b6000602082840312156122ce576122cd612255565b5b60006122dc848285016122a3565b91505092915050565b6000819050919050565b6122f8816122e5565b82525050565b600060208201905061231360008301846122ef565b92915050565b60006123248261225a565b9050919050565b61233481612319565b82525050565b600060208201905061234f600083018461232b565b92915050565b61235e8161227a565b82525050565b60006020820190506123796000830184612355565b92915050565b612388816122e5565b811461239357600080fd5b50565b6000813590506123a58161237f565b92915050565b600080604083850312156123c2576123c1612255565b5b60006123d085828601612396565b92505060206123e1858286016122a3565b9150509250929050565b6000819050919050565b600061241061240b6124068461225a565b6123eb565b61225a565b9050919050565b6000612422826123f5565b9050919050565b600061243482612417565b9050919050565b61244481612429565b82525050565b600060208201905061245f600083018461243b565b92915050565b600061247082612417565b9050919050565b61248081612465565b82525050565b600060208201905061249b6000830184612477565b92915050565b600082825260208201905092915050565b7f5265656e7472616e637947756172643a207265656e7472616e742063616c6c00600082015250565b60006124e8601f836124a1565b91506124f3826124b2565b602082019050919050565b60006020820190508181036000830152612517816124db565b9050919050565b600060408201905061253360008301856122ef565b61254060208301846122ef565b9392505050565b7f4e487b7100000000000000000000000000000000000000000000000000000000600052601160045260246000fd5b6000612581826122e5565b915061258c836122e5565b9250827fffffffffffffffffffffffffffffffffffffffffffffffffffffffffffffffff038211156125c1576125c0612547565b5b828201905092915050565b7f596f752068617665206e6f20746f6b656e7320746f20636c61696d2e00000000600082015250565b6000612602601c836124a1565b915061260d826125cc565b602082019050919050565b60006020820190508181036000830152612631816125f5565b9050919050565b6000612643826122e5565b915061264e836122e5565b92508282101561266157612660612547565b5b828203905092915050565b7f596f75206861766520636c61696d656420616c6c206f6620796f75722043434c60008201527f432e000000000000000000000000000000000000000000000000000000000000602082015250565b60006126c86022836124a1565b91506126d38261266c565b604082019050919050565b600060208201905081810360008301526126f7816126bb565b9050919050565b60006040820190506127136000830185612355565b61272060208301846122ef565b9392505050565b60008115159050919050565b61273c81612727565b811461274757600080fd5b50565b60008151905061275981612733565b92915050565b60006020828403121561277557612774612255565b5b60006127838482850161274a565b91505092915050565b7f4e487b7100000000000000000000000000000000000000000000000000000000600052601260045260246000fd5b60006127c6826122e5565b91506127d1836122e5565b9250826127e1576127e061278c565b5b828204905092915050565b7f4f776e61626c653a2063616c6c6572206973206e6f7420746865206f776e6572600082015250565b60006128226020836124a1565b915061282d826127ec565b602082019050919050565b6000602082019050818103600083015261285181612815565b9050919050565b7f49434f206973206f7665722e0000000000000000000000000000000000000000600082015250565b600061288e600c836124a1565b915061289982612858565b602082019050919050565b600060208201905081810360008301526128bd81612881565b9050919050565b60006128cf826122e5565b91506128da836122e5565b9250817fffffffffffffffffffffffffffffffffffffffffffffffffffffffffffffffff048311821515161561291357612912612547565b5b828202905092915050565b7f5468652049434f206973207374696c6c206f6e676f696e672e00000000000000600082015250565b60006129546019836124a1565b915061295f8261291e565b602082019050919050565b6000602082019050818103600083015261298381612947565b9050919050565b7f536f6c64206f75742e0000000000000000000000000000000000000000000000600082015250565b60006129c06009836124a1565b91506129cb8261298a565b602082019050919050565b600060208201905081810360008301526129ef816129b3565b9050919050565b7f4441492f555344542f42555344206f6e6c792e00000000000000000000000000600082015250565b6000612a2c6013836124a1565b9150612a37826129f6565b602082019050919050565b60006020820190508181036000830152612a5b81612a1f565b9050919050565b7f4d696e3a20243130302c204d61783a202436302c303030000000000000000000600082015250565b6000612a986017836124a1565b9150612aa382612a62565b602082019050919050565b60006020820190508181036000830152612ac781612a8b565b9050919050565b6000606082019050612ae36000830186612355565b612af06020830185612355565b612afd60408301846122ef565b949350505050565b6000819050919050565b612b1881612b05565b8114612b2357600080fd5b50565b600081519050612b3581612b0f565b92915050565b600060208284031215612b5157612b50612255565b5b6000612b5f84828501612b26565b91505092915050565b7f4d696e3a20302e3120424e422c204d61783a2031303020424e42000000000000600082015250565b6000612b9e601a836124a1565b9150612ba982612b68565b602082019050919050565b60006020820190508181036000830152612bcd81612b91565b9050919050565b7f4f776e61626c653a206e6577206f776e657220697320746865207a65726f206160008201527f6464726573730000000000000000000000000000000000000000000000000000602082015250565b6000612c306026836124a1565b9150612c3b82612bd4565b604082019050919050565b60006020820190508181036000830152612c5f81612c23565b9050919050565b7f43726f776473616c653a2062656e656669636961727920697320746865207a6560008201527f726f206164647265737300000000000000000000000000000000000000000000602082015250565b6000612cc2602a836124a1565b9150612ccd82612c66565b604082019050919050565b60006020820190508181036000830152612cf181612cb5565b9050919050565b7f43726f776473616c653a20776569416d6f756e74206973203000000000000000600082015250565b6000612d2e6019836124a1565b9150612d3982612cf8565b602082019050919050565b60006020820190508181036000830152612d5d81612d21565b9050919050565b7f5361666545524332303a204552433230206f7065726174696f6e20646964206e60008201527f6f74207375636365656400000000000000000000000000000000000000000000602082015250565b6000612dc0602a836124a1565b9150612dcb82612d64565b604082019050919050565b60006020820190508181036000830152612def81612db3565b9050919050565b7f416464726573733a20696e73756666696369656e742062616c616e636520666f60008201527f722063616c6c0000000000000000000000000000000000000000000000000000602082015250565b6000612e526026836124a1565b9150612e5d82612df6565b604082019050919050565b60006020820190508181036000830152612e8181612e45565b9050919050565b7f416464726573733a2063616c6c20746f206e6f6e2d636f6e7472616374000000600082015250565b6000612ebe601d836124a1565b9150612ec982612e88565b602082019050919050565b60006020820190508181036000830152612eed81612eb1565b9050919050565b600081519050919050565b600081905092915050565b60005b83811015612f28578082015181840152602081019050612f0d565b83811115612f37576000848401525b50505050565b6000612f4882612ef4565b612f528185612eff565b9350612f62818560208601612f0a565b80840191505092915050565b6000612f7a8284612f3d565b915081905092915050565b600081519050919050565b6000601f19601f8301169050919050565b6000612fac82612f85565b612fb681856124a1565b9350612fc6818560208601612f0a565b612fcf81612f90565b840191505092915050565b60006020820190508181036000830152612ff48184612fa1565b90509291505056fea264697066735822122096d8698ce12d758aced2a54a701137d05973c103c74b73f9a05ee37074f669bd64736f6c634300080b0033",
  "immutableReferences": {},
  "source": "pragma solidity ^0.8.0;\r\n\r\nimport \"../client/node_modules/@openzeppelin/contracts/access/Ownable.sol\";\r\nimport \"./Crowdsale.sol\";\r\nimport \"./CCLC.sol\";\r\nimport \"./PriceConsumerV3.sol\";\r\n\r\n\r\ncontract MyTokenSale1 is Crowdsale, Ownable {\r\n\r\n    CCLC public cclc;\r\n    PriceConsumerV3 priceFeed;\r\n\r\n    event TokensClaimed(uint _amount);\r\n    event TokensBoughtUSDT(uint _amount);\r\n\r\n    //Start of ICO\r\n    uint startTime = block.timestamp;\r\n\r\n    //End of ICO 2 months\r\n    uint endTime = block.timestamp + 8 weeks; //8 weeks (2 months)\r\n\r\n    //Starts after 1 year.\r\n    uint public fundReleaseStart = endTime + 52 weeks; //52 weeks (1 year) \r\n\r\n    uint public fundEnd = fundReleaseStart + 24 weeks;\r\n\r\n    //monthly release interval 1 month used as divisor.\r\n    uint public fundReleaseInterval = 4 weeks; //4 weeks (monthly)\r\n\r\n    //stores investors CCLC amount.\r\n    mapping(address => uint256) public userBalance;\r\n    mapping(address => uint256) public claimedAmount;\r\n\r\n    //amount bought in BNB, min = 0.5, max = 100.\r\n    mapping(address => uint256) public boughtTotal;\r\n    uint stableCoinAmount;\r\n    uint public totalUnsold = 100000000000000000000000000; //100 million\r\n    \r\n\r\n    function getUnsold() public view returns(uint) {\r\n        return totalUnsold;\r\n    }\r\n\r\n    //Front-end transfers unsoldTokens to owner, then burns.\r\n    function burnUnsold() external onlyOwner {\r\n        require(block.timestamp > endTime, \"The ICO is still ongoing.\");\r\n        require(totalUnsold > 0, \"Sold out.\");\r\n        cclc.transfer(msg.sender, totalUnsold);\r\n        totalUnsold = 0;\r\n    }\r\n    function endICO() public onlyOwner {\r\n        require(block.timestamp < endTime, \"ICO is over.\");\r\n        endTime = block.timestamp;\r\n        fundReleaseStart = block.timestamp + 52 weeks; //1 Year\r\n        fundEnd = fundReleaseStart + 24 weeks;\r\n    }\r\n    \r\n\r\n    constructor(uint256 rate, address payable wallet, CCLC token, PriceConsumerV3 _priceFeed) Crowdsale(rate, wallet, token) {\r\n        cclc = token;\r\n        priceFeed = _priceFeed;\r\n    }\r\n\r\n      function _preValidatePurchase(address beneficiary, uint256 weiAmount) internal override view {\r\n       super._preValidatePurchase(beneficiary, weiAmount);\r\n       require(block.timestamp < endTime, 'ICO is over.');\r\n       require(boughtTotal[msg.sender] + weiAmount >= 100000000000000000 && boughtTotal[msg.sender] + weiAmount <= 100000000000000000000, \"Min: 0.1 BNB, Max: 100 BNB\"); // can only buy 100 BNB worth.\r\n    }\r\n\r\n    function _updatePurchasingState(address beneficiary, uint256 weiAmount) internal override {\r\n        super._updatePurchasingState(beneficiary, weiAmount);\r\n        boughtTotal[msg.sender] += weiAmount;\r\n    }\r\n\r\n    //sends 30% to buyer, 70% remains for vesting.\r\n      function _deliverTokens(address beneficiary, uint256 tokenAmount) internal override {\r\n          uint instantAmount = (tokenAmount / 100) * 30;\r\n          uint vestedAmount = (tokenAmount / 100) * 70;\r\n          super._deliverTokens(beneficiary, instantAmount );\r\n          userBalance[msg.sender] += vestedAmount;\r\n          totalUnsold -= tokenAmount;\r\n          if(totalUnsold == 0) {\r\n              endTime = block.timestamp;\r\n              fundReleaseStart = block.timestamp + 52 weeks;\r\n              fundEnd = fundReleaseStart + 24 weeks;\r\n          }\r\n      }\r\n    \r\n    //Converts ETH amount given to current USD exchange rate.\r\n    //Multiplies dollar amount by the CCLC set price to calculate amount to give. \r\n      function _getTokenAmount(uint weiAmount) internal override view returns(uint256) {\r\n          super._getTokenAmount(weiAmount);\r\n          int currentPrice = priceFeed.getLatestPrice();\r\n          uint currPrice = uint(currentPrice) / (1 * 10 ** 8);\r\n          uint usdAmount = weiAmount * uint(currPrice);\r\n          uint amountToGive = (usdAmount) * 25;//4 cents per CCLC\r\n          return(amountToGive);\r\n      }\r\n\r\n        //Used for Stablecoins DAI/USDT/BUSD\r\n      function buyWithUSDT(uint amount, address _token) public {\r\n          //prevents buying with other ERC20 tokens.\r\n          require(_token == 0x1AF3F329e8BE154074D8769D1FFa4eE058B1DBc3 || _token == 0x55d398326f99059fF775485246999027B3197955 || _token == 0xe9e7CEA3DedcA5984780Bafc599bD69ADd087D56, 'DAI/USDT/BUSD only.');\r\n          require(amount >= 100000000000000000000 && amount <= 60000000000000000000000, \"Min: $100, Max: $60,000\"); // can only buy 10 ETH worth.\r\n          require(block.timestamp < endTime, 'ICO is over.'); \r\n          IERC20 usdt = IERC20(_token);\r\n          uint amountToGive = amount * 25; //4 cents per CCLC\r\n\r\n          //30% instant deposit, 70% vested for 1 year to be claimed during the 6 month-release.\r\n          uint instantAmount = (amountToGive / 100) * 30;\r\n          uint vestedAmount = (amountToGive / 100) * 70;\r\n          usdt.transferFrom(msg.sender, 0x56E6a6bDCea6666bEB932a2933895c628d85aeF5, amount); //transfer to CCLC Owner Address\r\n          cclc.transfer(msg.sender, instantAmount);\r\n          userBalance[msg.sender] += vestedAmount;\r\n\r\n          //calculates the wei amount to keep user allocation under 10 ETH.\r\n          int currentPrice = priceFeed.getLatestPrice(); //get ETH:USDT price.\r\n          uint currPrice = uint(currentPrice) / (1 * 10 ** 8);\r\n          uint weiAmount = amount / uint(currPrice); //used to keep allocation per user under 10 ETH, converts from USD:ETH price.\r\n          require(boughtTotal[msg.sender] + weiAmount <= 100000000000000000000, \"Min: 0.1 BNB, Max: 100 BNB\"); // can only buy 100 worth.\r\n          boughtTotal[msg.sender] += weiAmount;\r\n          stableCoinAmount += weiAmount;\r\n          totalUnsold -= amountToGive;\r\n          if(totalUnsold == 0) {\r\n              endTime = block.timestamp;\r\n              fundReleaseStart = block.timestamp + 52 weeks;\r\n              fundEnd = fundReleaseStart + 24 weeks;\r\n          }\r\n          emit TokensBoughtUSDT(amountToGive);\r\n      }\r\n\r\n    //View functions for the Front-End\r\n      function getUserBalance() public view returns(uint256) {\r\n          return userBalance[msg.sender];\r\n      }\r\n      function getUserClaimed() public view returns(uint256) {\r\n          return claimedAmount[msg.sender];\r\n      }\r\n\r\n      function getUserBought() public view returns(uint256) {\r\n          return boughtTotal[msg.sender];\r\n      }\r\n\r\n      \r\n      function claimTokens() public {\r\n          require(userBalance[msg.sender] > 0, 'You have no tokens to claim.');\r\n          uint claimableAmount = getClaimAmount();\r\n          uint amountToGive = claimableAmount - claimedAmount[msg.sender];\r\n          require(claimedAmount[msg.sender] + amountToGive <= userBalance[msg.sender]);\r\n          require(claimedAmount[msg.sender] != userBalance[msg.sender], \"You have claimed all of your CCLC.\");\r\n          cclc.transfer(msg.sender, amountToGive);\r\n          claimedAmount[msg.sender] += amountToGive;\r\n          emit TokensClaimed(amountToGive);\r\n      }\r\n\r\n      function getClaimAmount() public view returns(uint256) {\r\n          if(block.timestamp < fundReleaseStart) {\r\n              return 0;\r\n          } else {\r\n          uint256 slice = getSlice(); //Slice to get the total vest amount to 1/6\r\n          uint256 monthsCompleted = (block.timestamp - fundReleaseStart) / fundReleaseInterval;\r\n          if (monthsCompleted >= 6) {\r\n              uint giveAmount = slice * 6;\r\n              return giveAmount; //Stops the claimable amount @ userTotal.\r\n          } else{\r\n              uint giveAmount = slice * monthsCompleted;\r\n              return giveAmount;\r\n          }\r\n          }\r\n      }\r\n\r\n    //shows the total funds raised in wei.\r\n      function amountRaised() public view returns(uint256) {\r\n          uint amount = Crowdsale.weiRaised();\r\n          uint totalAmount = amount + stableCoinAmount;//stableCoinAmount converted from wei via Chainlink Oracle.\r\n          return totalAmount;\r\n      }\r\n          \r\n    \r\n\r\n    //divides user funds into 6 parts as per the 6 month vest-release.\r\n      function getSlice() public view returns(uint) {\r\n          return userBalance[msg.sender] / 6;\r\n      }\r\n\r\n      function getFundStartTime() public view returns(uint256) {\r\n          uint fundReleaseStartReal = fundReleaseStart + 4 weeks;\r\n          return fundReleaseStartReal;\r\n      }\r\n      function getFundEndTime() public view returns(uint256) {\r\n          return fundEnd;\r\n      }\r\n\r\n      function getTime() public view returns (uint256) {\r\n          return block.timestamp;\r\n      }       \r\n\r\n       function _transferOwnership(address newOwner) public onlyOwner {\r\n        transferOwnership(newOwner);\r\n    } \r\n\r\n}",
  "sourcePath": "C:\\Users\\L_Mea\\clearchain\\ICO\\contracts\\MyTokenSale1.sol",
  "compiler": {
    "name": "solc",
    "version": "0.8.11+commit.d7f03943.Emscripten.clang"
  },
  "schemaVersion": "3.4.3",
  "updatedAt": "2022-01-25T13:29:17.977Z",
  "devdoc": {
    "kind": "dev",
    "methods": {
      "buyTokens(address)": {
        "details": "low level token purchase ***DO NOT OVERRIDE*** This function has a non-reentrancy guard, so it shouldn't be called by another `nonReentrant` function.",
        "params": {
          "beneficiary": "Recipient of the token purchase"
        }
      },
      "owner()": {
        "details": "Returns the address of the current owner."
      },
      "rate()": {
        "returns": {
          "_0": "the number of token units a buyer gets per wei."
        }
      },
      "renounceOwnership()": {
        "details": "Leaves the contract without owner. It will not be possible to call `onlyOwner` functions anymore. Can only be called by the current owner. NOTE: Renouncing ownership will leave the contract without an owner, thereby removing any functionality that is only available to the owner."
      },
      "token()": {
        "returns": {
          "_0": "the token being sold."
        }
      },
      "transferOwnership(address)": {
        "details": "Transfers ownership of the contract to a new account (`newOwner`). Can only be called by the current owner."
      },
      "wallet()": {
        "returns": {
          "_0": "the address where funds are collected."
        }
      },
      "weiRaised()": {
        "returns": {
          "_0": "the amount of wei raised."
        }
      }
    },
    "version": 1
  },
  "userdoc": {
    "events": {
      "TokensPurchased(address,address,uint256,uint256)": {
        "notice": "Event for token purchase logging"
      }
    },
    "kind": "user",
    "methods": {},
    "version": 1
  }
}