{
  "contractName": "MyTokenSale3",
  "abi": [
    {
      "inputs": [
        {
          "internalType": "uint256",
          "name": "rate",
          "type": "uint256"
        },
        {
          "internalType": "address payable",
          "name": "wallet",
          "type": "address"
        },
        {
          "internalType": "contract IERC20",
          "name": "token",
          "type": "address"
        },
        {
          "internalType": "contract KycContract",
          "name": "_kyc",
          "type": "address"
        }
      ],
      "stateMutability": "nonpayable",
      "type": "constructor"
    },
    {
      "anonymous": false,
      "inputs": [
        {
          "indexed": true,
          "internalType": "address",
          "name": "purchaser",
          "type": "address"
        },
        {
          "indexed": true,
          "internalType": "address",
          "name": "beneficiary",
          "type": "address"
        },
        {
          "indexed": false,
          "internalType": "uint256",
          "name": "value",
          "type": "uint256"
        },
        {
          "indexed": false,
          "internalType": "uint256",
          "name": "amount",
          "type": "uint256"
        }
      ],
      "name": "TokensPurchased",
      "type": "event"
    },
    {
      "inputs": [
        {
          "internalType": "address",
          "name": "beneficiary",
          "type": "address"
        }
      ],
      "name": "buyTokens",
      "outputs": [],
      "stateMutability": "payable",
      "type": "function"
    },
    {
      "inputs": [],
      "name": "cclc",
      "outputs": [
        {
          "internalType": "contract IERC20",
          "name": "",
          "type": "address"
        }
      ],
      "stateMutability": "view",
      "type": "function"
    },
    {
      "inputs": [],
      "name": "rate",
      "outputs": [
        {
          "internalType": "uint256",
          "name": "",
          "type": "uint256"
        }
      ],
      "stateMutability": "view",
      "type": "function"
    },
    {
      "inputs": [],
      "name": "token",
      "outputs": [
        {
          "internalType": "contract IERC20",
          "name": "",
          "type": "address"
        }
      ],
      "stateMutability": "view",
      "type": "function"
    },
    {
      "inputs": [],
      "name": "wallet",
      "outputs": [
        {
          "internalType": "address payable",
          "name": "",
          "type": "address"
        }
      ],
      "stateMutability": "view",
      "type": "function"
    },
    {
      "inputs": [],
      "name": "weiRaised",
      "outputs": [
        {
          "internalType": "uint256",
          "name": "",
          "type": "uint256"
        }
      ],
      "stateMutability": "view",
      "type": "function"
    },
    {
      "stateMutability": "payable",
      "type": "receive"
    },
    {
      "inputs": [],
      "name": "getBalance",
      "outputs": [
        {
          "internalType": "uint256",
          "name": "",
          "type": "uint256"
        }
      ],
      "stateMutability": "view",
      "type": "function"
    }
  ],
  "bytecode": "0x60806040523480156200001157600080fd5b5060405162001831380380620018318339818101604052810190620000379190620003c9565b83838360016000819055506000831162000088576040517f08c379a00000000000000000000000000000000000000000000000000000000081526004016200007f906200049c565b60405180910390fd5b600073ffffffffffffffffffffffffffffffffffffffff168273ffffffffffffffffffffffffffffffffffffffff161415620000fb576040517f08c379a0000000000000000000000000000000000000000000000000000000008152600401620000f29062000534565b60405180910390fd5b600073ffffffffffffffffffffffffffffffffffffffff168173ffffffffffffffffffffffffffffffffffffffff1614156200016e576040517f08c379a00000000000000000000000000000000000000000000000000000000081526004016200016590620005cc565b60405180910390fd5b8260038190555081600260006101000a81548173ffffffffffffffffffffffffffffffffffffffff021916908373ffffffffffffffffffffffffffffffffffffffff16021790555080600160006101000a81548173ffffffffffffffffffffffffffffffffffffffff021916908373ffffffffffffffffffffffffffffffffffffffff16021790555050505080600660006101000a81548173ffffffffffffffffffffffffffffffffffffffff021916908373ffffffffffffffffffffffffffffffffffffffff16021790555081600560006101000a81548173ffffffffffffffffffffffffffffffffffffffff021916908373ffffffffffffffffffffffffffffffffffffffff16021790555050505050620005ee565b600080fd5b6000819050919050565b620002a0816200028b565b8114620002ac57600080fd5b50565b600081519050620002c08162000295565b92915050565b600073ffffffffffffffffffffffffffffffffffffffff82169050919050565b6000620002f382620002c6565b9050919050565b6200030581620002e6565b81146200031157600080fd5b50565b6000815190506200032581620002fa565b92915050565b60006200033882620002c6565b9050919050565b60006200034c826200032b565b9050919050565b6200035e816200033f565b81146200036a57600080fd5b50565b6000815190506200037e8162000353565b92915050565b600062000391826200032b565b9050919050565b620003a38162000384565b8114620003af57600080fd5b50565b600081519050620003c38162000398565b92915050565b60008060008060808587031215620003e657620003e562000286565b5b6000620003f687828801620002af565b9450506020620004098782880162000314565b93505060406200041c878288016200036d565b92505060606200042f87828801620003b2565b91505092959194509250565b600082825260208201905092915050565b7f43726f776473616c653a20726174652069732030000000000000000000000000600082015250565b6000620004846014836200043b565b915062000491826200044c565b602082019050919050565b60006020820190508181036000830152620004b78162000475565b9050919050565b7f43726f776473616c653a2077616c6c657420697320746865207a65726f20616460008201527f6472657373000000000000000000000000000000000000000000000000000000602082015250565b60006200051c6025836200043b565b91506200052982620004be565b604082019050919050565b600060208201905081810360008301526200054f816200050d565b9050919050565b7f43726f776473616c653a20746f6b656e20697320746865207a65726f2061646460008201527f7265737300000000000000000000000000000000000000000000000000000000602082015250565b6000620005b46024836200043b565b9150620005c18262000556565b604082019050919050565b60006020820190508181036000830152620005e781620005a5565b9050919050565b61123380620005fe6000396000f3fe6080604052600436106100745760003560e01c8063521eb2731161004e578063521eb2731461010a578063ec8ac4d814610135578063fac7a27a14610151578063fc0c546a1461017c57610084565b806312065fe0146100895780632c4e722e146100b45780634042b66f146100df57610084565b3661008457610082336101a7565b005b600080fd5b34801561009557600080fd5b5061009e6102c6565b6040516100ab91906109de565b60405180910390f35b3480156100c057600080fd5b506100c9610378565b6040516100d691906109de565b60405180910390f35b3480156100eb57600080fd5b506100f4610382565b60405161010191906109de565b60405180910390f35b34801561011657600080fd5b5061011f61038c565b60405161012c9190610a3a565b60405180910390f35b61014f600480360381019061014a9190610a98565b6101a7565b005b34801561015d57600080fd5b506101666103b6565b6040516101739190610b24565b60405180910390f35b34801561018857600080fd5b506101916103dc565b60405161019e9190610b24565b60405180910390f35b600260005414156101ed576040517f08c379a00000000000000000000000000000000000000000000000000000000081526004016101e490610b9c565b60405180910390fd5b600260008190555060003490506102048282610406565b600061020f826104fe565b90506102268260045461051c90919063ffffffff16565b6004819055506102368382610532565b8273ffffffffffffffffffffffffffffffffffffffff163373ffffffffffffffffffffffffffffffffffffffff167f6faf93231a456e552dbc9961f58d9713ee4f2e69d15f1975b050ef0911053a7b8484604051610295929190610bbc565b60405180910390a36102a78383610540565b6102af610544565b6102b983836105af565b5050600160008190555050565b6000600560009054906101000a900473ffffffffffffffffffffffffffffffffffffffff1673ffffffffffffffffffffffffffffffffffffffff166370a08231306040518263ffffffff1660e01b81526004016103239190610bf4565b60206040518083038186803b15801561033b57600080fd5b505afa15801561034f573d6000803e3d6000fd5b505050506040513d601f19601f820116820180604052508101906103739190610c3b565b905090565b6000600354905090565b6000600454905090565b6000600260009054906101000a900473ffffffffffffffffffffffffffffffffffffffff16905090565b600560009054906101000a900473ffffffffffffffffffffffffffffffffffffffff1681565b6000600160009054906101000a900473ffffffffffffffffffffffffffffffffffffffff16905090565b61041082826105b3565b600660009054906101000a900473ffffffffffffffffffffffffffffffffffffffff1673ffffffffffffffffffffffffffffffffffffffff1663df235fe4336040518263ffffffff1660e01b815260040161046b9190610bf4565b60206040518083038186803b15801561048357600080fd5b505afa158015610497573d6000803e3d6000fd5b505050506040513d601f19601f820116820180604052508101906104bb9190610ca0565b6104fa576040517f08c379a00000000000000000000000000000000000000000000000000000000081526004016104f190610d3f565b60405180910390fd5b5050565b60006105156003548361066b90919063ffffffff16565b9050919050565b6000818361052a9190610d8e565b905092915050565b61053c8282610681565b5050565b5050565b600260009054906101000a900473ffffffffffffffffffffffffffffffffffffffff1673ffffffffffffffffffffffffffffffffffffffff166108fc349081150290604051600060405180830381858888f193505050501580156105ac573d6000803e3d6000fd5b50565b5050565b600073ffffffffffffffffffffffffffffffffffffffff168273ffffffffffffffffffffffffffffffffffffffff161415610623576040517f08c379a000000000000000000000000000000000000000000000000000000000815260040161061a90610e56565b60405180910390fd5b6000811415610667576040517f08c379a000000000000000000000000000000000000000000000000000000000815260040161065e90610ec2565b60405180910390fd5b5050565b600081836106799190610ee2565b905092915050565b6106ce8282600160009054906101000a900473ffffffffffffffffffffffffffffffffffffffff1673ffffffffffffffffffffffffffffffffffffffff166106d29092919063ffffffff16565b5050565b6107538363a9059cbb60e01b84846040516024016106f1929190610f3c565b604051602081830303815290604052907bffffffffffffffffffffffffffffffffffffffffffffffffffffffff19166020820180517bffffffffffffffffffffffffffffffffffffffffffffffffffffffff8381831617835250505050610758565b505050565b60006107ba826040518060400160405280602081526020017f5361666545524332303a206c6f772d6c6576656c2063616c6c206661696c65648152508573ffffffffffffffffffffffffffffffffffffffff1661081f9092919063ffffffff16565b905060008151111561081a57808060200190518101906107da9190610ca0565b610819576040517f08c379a000000000000000000000000000000000000000000000000000000000815260040161081090610fd7565b60405180910390fd5b5b505050565b606061082e8484600085610837565b90509392505050565b60608247101561087c576040517f08c379a000000000000000000000000000000000000000000000000000000000815260040161087390611069565b60405180910390fd5b6108858561094b565b6108c4576040517f08c379a00000000000000000000000000000000000000000000000000000000081526004016108bb906110d5565b60405180910390fd5b6000808673ffffffffffffffffffffffffffffffffffffffff1685876040516108ed919061116f565b60006040518083038185875af1925050503d806000811461092a576040519150601f19603f3d011682016040523d82523d6000602084013e61092f565b606091505b509150915061093f82828661095e565b92505050949350505050565b600080823b905060008111915050919050565b6060831561096e578290506109be565b6000835111156109815782518084602001fd5b816040517f08c379a00000000000000000000000000000000000000000000000000000000081526004016109b591906111db565b60405180910390fd5b9392505050565b6000819050919050565b6109d8816109c5565b82525050565b60006020820190506109f360008301846109cf565b92915050565b600073ffffffffffffffffffffffffffffffffffffffff82169050919050565b6000610a24826109f9565b9050919050565b610a3481610a19565b82525050565b6000602082019050610a4f6000830184610a2b565b92915050565b600080fd5b6000610a65826109f9565b9050919050565b610a7581610a5a565b8114610a8057600080fd5b50565b600081359050610a9281610a6c565b92915050565b600060208284031215610aae57610aad610a55565b5b6000610abc84828501610a83565b91505092915050565b6000819050919050565b6000610aea610ae5610ae0846109f9565b610ac5565b6109f9565b9050919050565b6000610afc82610acf565b9050919050565b6000610b0e82610af1565b9050919050565b610b1e81610b03565b82525050565b6000602082019050610b396000830184610b15565b92915050565b600082825260208201905092915050565b7f5265656e7472616e637947756172643a207265656e7472616e742063616c6c00600082015250565b6000610b86601f83610b3f565b9150610b9182610b50565b602082019050919050565b60006020820190508181036000830152610bb581610b79565b9050919050565b6000604082019050610bd160008301856109cf565b610bde60208301846109cf565b9392505050565b610bee81610a5a565b82525050565b6000602082019050610c096000830184610be5565b92915050565b610c18816109c5565b8114610c2357600080fd5b50565b600081519050610c3581610c0f565b92915050565b600060208284031215610c5157610c50610a55565b5b6000610c5f84828501610c26565b91505092915050565b60008115159050919050565b610c7d81610c68565b8114610c8857600080fd5b50565b600081519050610c9a81610c74565b92915050565b600060208284031215610cb657610cb5610a55565b5b6000610cc484828501610c8b565b91505092915050565b7f4b5943206e6f7420636f6d706c657465642e20205075726368617365206e6f7460008201527f20616c6c6f7765642e0000000000000000000000000000000000000000000000602082015250565b6000610d29602983610b3f565b9150610d3482610ccd565b604082019050919050565b60006020820190508181036000830152610d5881610d1c565b9050919050565b7f4e487b7100000000000000000000000000000000000000000000000000000000600052601160045260246000fd5b6000610d99826109c5565b9150610da4836109c5565b9250827fffffffffffffffffffffffffffffffffffffffffffffffffffffffffffffffff03821115610dd957610dd8610d5f565b5b828201905092915050565b7f43726f776473616c653a2062656e656669636961727920697320746865207a6560008201527f726f206164647265737300000000000000000000000000000000000000000000602082015250565b6000610e40602a83610b3f565b9150610e4b82610de4565b604082019050919050565b60006020820190508181036000830152610e6f81610e33565b9050919050565b7f43726f776473616c653a20776569416d6f756e74206973203000000000000000600082015250565b6000610eac601983610b3f565b9150610eb782610e76565b602082019050919050565b60006020820190508181036000830152610edb81610e9f565b9050919050565b6000610eed826109c5565b9150610ef8836109c5565b9250817fffffffffffffffffffffffffffffffffffffffffffffffffffffffffffffffff0483118215151615610f3157610f30610d5f565b5b828202905092915050565b6000604082019050610f516000830185610be5565b610f5e60208301846109cf565b9392505050565b7f5361666545524332303a204552433230206f7065726174696f6e20646964206e60008201527f6f74207375636365656400000000000000000000000000000000000000000000602082015250565b6000610fc1602a83610b3f565b9150610fcc82610f65565b604082019050919050565b60006020820190508181036000830152610ff081610fb4565b9050919050565b7f416464726573733a20696e73756666696369656e742062616c616e636520666f60008201527f722063616c6c0000000000000000000000000000000000000000000000000000602082015250565b6000611053602683610b3f565b915061105e82610ff7565b604082019050919050565b6000602082019050818103600083015261108281611046565b9050919050565b7f416464726573733a2063616c6c20746f206e6f6e2d636f6e7472616374000000600082015250565b60006110bf601d83610b3f565b91506110ca82611089565b602082019050919050565b600060208201905081810360008301526110ee816110b2565b9050919050565b600081519050919050565b600081905092915050565b60005b8381101561112957808201518184015260208101905061110e565b83811115611138576000848401525b50505050565b6000611149826110f5565b6111538185611100565b935061116381856020860161110b565b80840191505092915050565b600061117b828461113e565b915081905092915050565b600081519050919050565b6000601f19601f8301169050919050565b60006111ad82611186565b6111b78185610b3f565b93506111c781856020860161110b565b6111d081611191565b840191505092915050565b600060208201905081810360008301526111f581846111a2565b90509291505056fea26469706673582212200fcc4e5a43f6e59c8a1effe75f19dbbeb4746693faf406a7451d10daebdcf02564736f6c63430008090033",
  "immutableReferences": {},
  "source": "pragma solidity ^0.8.0;\r\n\r\nimport \"./Crowdsale.sol\";\r\nimport \"./KycContract.sol\";\r\nimport \"./CCLC.sol\";\r\n\r\ncontract MyTokenSale3 is Crowdsale {\r\n\r\n    IERC20 public cclc;\r\n    KycContract kyc;\r\n\r\n    constructor(uint256 rate, address payable wallet, IERC20 token, KycContract _kyc) Crowdsale(rate, wallet, token) {\r\n        kyc = _kyc;\r\n        cclc = token;\r\n    }\r\n\r\n\r\n      function _preValidatePurchase(address beneficiary, uint256 weiAmount) internal override view {\r\n       super._preValidatePurchase(beneficiary, weiAmount);\r\n       require(kyc.kycCompleted(msg.sender), \"KYC not completed.  Purchase not allowed.\");\r\n    }\r\n\r\n      function getBalance() public view returns (uint256) {\r\n          return cclc.balanceOf(address(this));\r\n      }\r\n\r\n}",
  "sourcePath": "C:\\Users\\L_Mea\\clearchain\\ICO\\contracts\\MyTokenSale3.sol",
  "compiler": {
    "name": "solc",
    "version": "0.8.9+commit.e5eed63a.Emscripten.clang"
  },
  "schemaVersion": "3.4.3",
  "updatedAt": "2021-10-21T05:10:38.703Z",
  "devdoc": {
    "kind": "dev",
    "methods": {
      "buyTokens(address)": {
        "details": "low level token purchase ***DO NOT OVERRIDE*** This function has a non-reentrancy guard, so it shouldn't be called by another `nonReentrant` function.",
        "params": {
          "beneficiary": "Recipient of the token purchase"
        }
      },
      "rate()": {
        "returns": {
          "_0": "the number of token units a buyer gets per wei."
        }
      },
      "token()": {
        "returns": {
          "_0": "the token being sold."
        }
      },
      "wallet()": {
        "returns": {
          "_0": "the address where funds are collected."
        }
      },
      "weiRaised()": {
        "returns": {
          "_0": "the amount of wei raised."
        }
      }
    },
    "version": 1
  },
  "userdoc": {
    "events": {
      "TokensPurchased(address,address,uint256,uint256)": {
        "notice": "Event for token purchase logging"
      }
    },
    "kind": "user",
    "methods": {},
    "version": 1
  }
}