{
  "contractName": "TeamStorage",
  "abi": [
    {
      "inputs": [
        {
          "internalType": "contract CCLC",
          "name": "token",
          "type": "address"
        }
      ],
      "stateMutability": "nonpayable",
      "type": "constructor"
    },
    {
      "anonymous": false,
      "inputs": [
        {
          "indexed": true,
          "internalType": "address",
          "name": "previousOwner",
          "type": "address"
        },
        {
          "indexed": true,
          "internalType": "address",
          "name": "newOwner",
          "type": "address"
        }
      ],
      "name": "OwnershipTransferred",
      "type": "event"
    },
    {
      "anonymous": false,
      "inputs": [
        {
          "indexed": false,
          "internalType": "uint256",
          "name": "_amount",
          "type": "uint256"
        }
      ],
      "name": "TokensClaimed",
      "type": "event"
    },
    {
      "inputs": [],
      "name": "cclc",
      "outputs": [
        {
          "internalType": "contract CCLC",
          "name": "",
          "type": "address"
        }
      ],
      "stateMutability": "view",
      "type": "function"
    },
    {
      "inputs": [],
      "name": "owner",
      "outputs": [
        {
          "internalType": "address",
          "name": "",
          "type": "address"
        }
      ],
      "stateMutability": "view",
      "type": "function"
    },
    {
      "inputs": [],
      "name": "renounceOwnership",
      "outputs": [],
      "stateMutability": "nonpayable",
      "type": "function"
    },
    {
      "inputs": [
        {
          "internalType": "address",
          "name": "newOwner",
          "type": "address"
        }
      ],
      "name": "transferOwnership",
      "outputs": [],
      "stateMutability": "nonpayable",
      "type": "function"
    },
    {
      "stateMutability": "payable",
      "type": "receive"
    },
    {
      "inputs": [
        {
          "internalType": "address",
          "name": "newOwner",
          "type": "address"
        }
      ],
      "name": "_transferOwnership",
      "outputs": [],
      "stateMutability": "nonpayable",
      "type": "function"
    },
    {
      "inputs": [],
      "name": "claimTokens",
      "outputs": [],
      "stateMutability": "nonpayable",
      "type": "function"
    },
    {
      "inputs": [],
      "name": "getClaimAmount",
      "outputs": [
        {
          "internalType": "uint256",
          "name": "",
          "type": "uint256"
        }
      ],
      "stateMutability": "view",
      "type": "function"
    },
    {
      "inputs": [],
      "name": "getUserClaimed",
      "outputs": [
        {
          "internalType": "uint256",
          "name": "",
          "type": "uint256"
        }
      ],
      "stateMutability": "view",
      "type": "function"
    }
  ],
  "bytecode": "0x608060405242600255626ebe0042620000199190620001cb565b6003556a21165458500521280000006005553480156200003857600080fd5b5060405162000f2338038062000f2383398181016040528101906200005e9190620002a6565b6200007e62000072620000c660201b60201c565b620000ce60201b60201c565b80600160006101000a81548173ffffffffffffffffffffffffffffffffffffffff021916908373ffffffffffffffffffffffffffffffffffffffff16021790555050620002d8565b600033905090565b60008060009054906101000a900473ffffffffffffffffffffffffffffffffffffffff169050816000806101000a81548173ffffffffffffffffffffffffffffffffffffffff021916908373ffffffffffffffffffffffffffffffffffffffff1602179055508173ffffffffffffffffffffffffffffffffffffffff168173ffffffffffffffffffffffffffffffffffffffff167f8be0079c531659141344cd1fd0a4f28419497f9722a3daafe3b4186f6b6457e060405160405180910390a35050565b6000819050919050565b7f4e487b7100000000000000000000000000000000000000000000000000000000600052601160045260246000fd5b6000620001d88262000192565b9150620001e58362000192565b9250827fffffffffffffffffffffffffffffffffffffffffffffffffffffffffffffffff038211156200021d576200021c6200019c565b5b828201905092915050565b600080fd5b600073ffffffffffffffffffffffffffffffffffffffff82169050919050565b60006200025a826200022d565b9050919050565b60006200026e826200024d565b9050919050565b620002808162000261565b81146200028c57600080fd5b50565b600081519050620002a08162000275565b92915050565b600060208284031215620002bf57620002be62000228565b5b6000620002cf848285016200028f565b91505092915050565b610c3b80620002e86000396000f3fe60806040526004361061007f5760003560e01c80638da5cb5b1161004e5780638da5cb5b1461010f578063d29d44ee1461013a578063f2fde38b14610163578063fac7a27a1461018c57610086565b806348c54b9d1461008b57806360deea25146100a257806371127ed2146100cd578063715018a6146100f857610086565b3661008657005b600080fd5b34801561009757600080fd5b506100a06101b7565b005b3480156100ae57600080fd5b506100b76103fe565b6040516100c49190610762565b60405180910390f35b3480156100d957600080fd5b506100e2610408565b6040516100ef9190610762565b60405180910390f35b34801561010457600080fd5b5061010d610426565b005b34801561011b57600080fd5b506101246104ae565b60405161013191906107be565b60405180910390f35b34801561014657600080fd5b50610161600480360381019061015c919061080a565b6104d7565b005b34801561016f57600080fd5b5061018a6004803603810190610185919061080a565b61055f565b005b34801561019857600080fd5b506101a1610657565b6040516101ae9190610896565b60405180910390f35b6101bf61067d565b73ffffffffffffffffffffffffffffffffffffffff166101dd6104ae565b73ffffffffffffffffffffffffffffffffffffffff1614610233576040517f08c379a000000000000000000000000000000000000000000000000000000000815260040161022a9061090e565b60405180910390fd5b600061023d610408565b905060006004548261024f919061095d565b905060008211610294576040517f08c379a000000000000000000000000000000000000000000000000000000000815260040161028b906109dd565b60405180910390fd5b6a2116545850052128000000816004546102ae91906109fd565b11156102b957600080fd5b6a21165458500521280000006004541415610309576040517f08c379a000000000000000000000000000000000000000000000000000000000815260040161030090610ac5565b60405180910390fd5b600160009054906101000a900473ffffffffffffffffffffffffffffffffffffffff1673ffffffffffffffffffffffffffffffffffffffff1663a9059cbb33836040518363ffffffff1660e01b8152600401610366929190610ae5565b6020604051808303816000875af1158015610385573d6000803e3d6000fd5b505050506040513d601f19601f820116820180604052508101906103a99190610b46565b5080600460008282546103bc91906109fd565b925050819055507fcff788b65ecc4ee1e06954505390b4d87e536462f29c25f160ab35cdb6ef6aea816040516103f29190610762565b60405180910390a15050565b6000600454905090565b600060035442101561041d5760009050610423565b60055490505b90565b61042e61067d565b73ffffffffffffffffffffffffffffffffffffffff1661044c6104ae565b73ffffffffffffffffffffffffffffffffffffffff16146104a2576040517f08c379a00000000000000000000000000000000000000000000000000000000081526004016104999061090e565b60405180910390fd5b6104ac6000610685565b565b60008060009054906101000a900473ffffffffffffffffffffffffffffffffffffffff16905090565b6104df61067d565b73ffffffffffffffffffffffffffffffffffffffff166104fd6104ae565b73ffffffffffffffffffffffffffffffffffffffff1614610553576040517f08c379a000000000000000000000000000000000000000000000000000000000815260040161054a9061090e565b60405180910390fd5b61055c8161055f565b50565b61056761067d565b73ffffffffffffffffffffffffffffffffffffffff166105856104ae565b73ffffffffffffffffffffffffffffffffffffffff16146105db576040517f08c379a00000000000000000000000000000000000000000000000000000000081526004016105d29061090e565b60405180910390fd5b600073ffffffffffffffffffffffffffffffffffffffff168173ffffffffffffffffffffffffffffffffffffffff16141561064b576040517f08c379a000000000000000000000000000000000000000000000000000000000815260040161064290610be5565b60405180910390fd5b61065481610685565b50565b600160009054906101000a900473ffffffffffffffffffffffffffffffffffffffff1681565b600033905090565b60008060009054906101000a900473ffffffffffffffffffffffffffffffffffffffff169050816000806101000a81548173ffffffffffffffffffffffffffffffffffffffff021916908373ffffffffffffffffffffffffffffffffffffffff1602179055508173ffffffffffffffffffffffffffffffffffffffff168173ffffffffffffffffffffffffffffffffffffffff167f8be0079c531659141344cd1fd0a4f28419497f9722a3daafe3b4186f6b6457e060405160405180910390a35050565b6000819050919050565b61075c81610749565b82525050565b60006020820190506107776000830184610753565b92915050565b600073ffffffffffffffffffffffffffffffffffffffff82169050919050565b60006107a88261077d565b9050919050565b6107b88161079d565b82525050565b60006020820190506107d360008301846107af565b92915050565b600080fd5b6107e78161079d565b81146107f257600080fd5b50565b600081359050610804816107de565b92915050565b6000602082840312156108205761081f6107d9565b5b600061082e848285016107f5565b91505092915050565b6000819050919050565b600061085c6108576108528461077d565b610837565b61077d565b9050919050565b600061086e82610841565b9050919050565b600061088082610863565b9050919050565b61089081610875565b82525050565b60006020820190506108ab6000830184610887565b92915050565b600082825260208201905092915050565b7f4f776e61626c653a2063616c6c6572206973206e6f7420746865206f776e6572600082015250565b60006108f86020836108b1565b9150610903826108c2565b602082019050919050565b60006020820190508181036000830152610927816108eb565b9050919050565b7f4e487b7100000000000000000000000000000000000000000000000000000000600052601160045260246000fd5b600061096882610749565b915061097383610749565b9250828210156109865761098561092e565b5b828203905092915050565b7f43616e277420636c61696d20616e797468696e67206e6f772e00000000000000600082015250565b60006109c76019836108b1565b91506109d282610991565b602082019050919050565b600060208201905081810360008301526109f6816109ba565b9050919050565b6000610a0882610749565b9150610a1383610749565b9250827fffffffffffffffffffffffffffffffffffffffffffffffffffffffffffffffff03821115610a4857610a4761092e565b5b828201905092915050565b7f596f75206861766520636c61696d656420616c6c206f6620796f75722043434c60008201527f432e000000000000000000000000000000000000000000000000000000000000602082015250565b6000610aaf6022836108b1565b9150610aba82610a53565b604082019050919050565b60006020820190508181036000830152610ade81610aa2565b9050919050565b6000604082019050610afa60008301856107af565b610b076020830184610753565b9392505050565b60008115159050919050565b610b2381610b0e565b8114610b2e57600080fd5b50565b600081519050610b4081610b1a565b92915050565b600060208284031215610b5c57610b5b6107d9565b5b6000610b6a84828501610b31565b91505092915050565b7f4f776e61626c653a206e6577206f776e657220697320746865207a65726f206160008201527f6464726573730000000000000000000000000000000000000000000000000000602082015250565b6000610bcf6026836108b1565b9150610bda82610b73565b604082019050919050565b60006020820190508181036000830152610bfe81610bc2565b905091905056fea26469706673582212209d1f44c4ca3e1eb6a2ead5167d9796fbdfee715d934b0ca4e0b8adb82251ee3764736f6c634300080b0033",
  "immutableReferences": {},
  "source": "pragma solidity ^0.8.0;\r\n\r\nimport \"../client/node_modules/@openzeppelin/contracts/access/Ownable.sol\";\r\nimport \"./CCLC.sol\";\r\n\r\ncontract TeamStorage is Ownable {\r\n\r\n    //40 million CCLC stored until the beginning of the first ICO, to be re-vested when ICO starts.\r\n\r\n    CCLC public cclc;\r\n\r\n    event TokensClaimed(uint _amount);\r\n    \r\n    uint startTime = block.timestamp;\r\n    uint fundReleaseStart = block.timestamp +  12 weeks; //3 months after start of ICO (8 weeks)\r\n    //uint fundReleaseEnd = fundReleaseStart + 24 weeks; //6 months\r\n    //uint fundReleaseInterval = 4 weeks;\r\n    uint claimedAmount;\r\n    uint total = 40000000000000000000000000;\r\n\r\n    constructor(CCLC token) {\r\n        cclc = token;\r\n    }\r\n\r\n    function _transferOwnership(address newOwner) public onlyOwner {\r\n        transferOwnership(newOwner);\r\n    } \r\n\r\n\r\n   \r\n    function claimTokens() public onlyOwner{\r\n        uint claimableAmount = getClaimAmount();\r\n        uint amountToGive =  claimableAmount - claimedAmount;\r\n        require(claimableAmount > 0, \"Can't claim anything now.\");\r\n        require(claimedAmount + amountToGive <= 40000000000000000000000000);\r\n        require(claimedAmount != 40000000000000000000000000, \"You have claimed all of your CCLC.\");\r\n        cclc.transfer(msg.sender, amountToGive);\r\n        claimedAmount += amountToGive;\r\n        emit TokensClaimed(amountToGive);\r\n      }\r\n\r\n    function getClaimAmount() public view returns(uint256) {\r\n          if(block.timestamp < fundReleaseStart) {\r\n              return 0;\r\n          } else {\r\n              return total;\r\n          }\r\n      }\r\n\r\n    function getUserClaimed() public view returns(uint256) {\r\n        return claimedAmount;\r\n      }\r\n\r\n    receive() external payable {}\r\n\r\n}",
  "sourcePath": "C:\\Users\\L_Mea\\clearchain\\ICO\\contracts\\TeamStorage.sol",
  "compiler": {
    "name": "solc",
    "version": "0.8.11+commit.d7f03943.Emscripten.clang"
  },
  "schemaVersion": "3.4.3",
  "updatedAt": "2022-01-25T13:31:27.010Z",
  "networkType": "ethereum",
  "devdoc": {
    "kind": "dev",
    "methods": {
      "owner()": {
        "details": "Returns the address of the current owner."
      },
      "renounceOwnership()": {
        "details": "Leaves the contract without owner. It will not be possible to call `onlyOwner` functions anymore. Can only be called by the current owner. NOTE: Renouncing ownership will leave the contract without an owner, thereby removing any functionality that is only available to the owner."
      },
      "transferOwnership(address)": {
        "details": "Transfers ownership of the contract to a new account (`newOwner`). Can only be called by the current owner."
      }
    },
    "version": 1
  },
  "userdoc": {
    "kind": "user",
    "methods": {},
    "version": 1
  }
}