{
  "contractName": "VestedRound1",
  "abi": [
    {
      "inputs": [
        {
          "internalType": "contract IERC20",
          "name": "_cclc",
          "type": "address"
        }
      ],
      "stateMutability": "nonpayable",
      "type": "constructor"
    },
    {
      "inputs": [
        {
          "internalType": "address",
          "name": "",
          "type": "address"
        }
      ],
      "name": "balances",
      "outputs": [
        {
          "internalType": "uint256",
          "name": "",
          "type": "uint256"
        }
      ],
      "stateMutability": "view",
      "type": "function",
      "constant": true
    },
    {
      "inputs": [],
      "name": "cclc",
      "outputs": [
        {
          "internalType": "contract IERC20",
          "name": "",
          "type": "address"
        }
      ],
      "stateMutability": "view",
      "type": "function",
      "constant": true
    },
    {
      "stateMutability": "payable",
      "type": "receive",
      "payable": true
    },
    {
      "inputs": [],
      "name": "getCCLCBalance",
      "outputs": [
        {
          "internalType": "uint256",
          "name": "",
          "type": "uint256"
        }
      ],
      "stateMutability": "view",
      "type": "function",
      "constant": true
    }
  ],
  "bytecode": "0x608060405234801561001057600080fd5b506040516104e43803806104e4833981810160405281019061003291906100ed565b806000806101000a81548173ffffffffffffffffffffffffffffffffffffffff021916908373ffffffffffffffffffffffffffffffffffffffff1602179055505061011a565b600080fd5b600073ffffffffffffffffffffffffffffffffffffffff82169050919050565b60006100a88261007d565b9050919050565b60006100ba8261009d565b9050919050565b6100ca816100af565b81146100d557600080fd5b50565b6000815190506100e7816100c1565b92915050565b60006020828403121561010357610102610078565b5b6000610111848285016100d8565b91505092915050565b6103bb806101296000396000f3fe6080604052600436106100385760003560e01c806327e235e3146100445780635806820714610081578063fac7a27a146100ac5761003f565b3661003f57005b600080fd5b34801561005057600080fd5b5061006b60048036038101906100669190610227565b6100d7565b604051610078919061026d565b60405180910390f35b34801561008d57600080fd5b506100966100ef565b6040516100a3919061026d565b60405180910390f35b3480156100b857600080fd5b506100c16101a0565b6040516100ce91906102e7565b60405180910390f35b60016020528060005260406000206000915090505481565b60008060009054906101000a900473ffffffffffffffffffffffffffffffffffffffff1673ffffffffffffffffffffffffffffffffffffffff166370a08231306040518263ffffffff1660e01b815260040161014b9190610311565b60206040518083038186803b15801561016357600080fd5b505afa158015610177573d6000803e3d6000fd5b505050506040513d601f19601f8201168201806040525081019061019b9190610358565b905090565b60008054906101000a900473ffffffffffffffffffffffffffffffffffffffff1681565b600080fd5b600073ffffffffffffffffffffffffffffffffffffffff82169050919050565b60006101f4826101c9565b9050919050565b610204816101e9565b811461020f57600080fd5b50565b600081359050610221816101fb565b92915050565b60006020828403121561023d5761023c6101c4565b5b600061024b84828501610212565b91505092915050565b6000819050919050565b61026781610254565b82525050565b6000602082019050610282600083018461025e565b92915050565b6000819050919050565b60006102ad6102a86102a3846101c9565b610288565b6101c9565b9050919050565b60006102bf82610292565b9050919050565b60006102d1826102b4565b9050919050565b6102e1816102c6565b82525050565b60006020820190506102fc60008301846102d8565b92915050565b61030b816101e9565b82525050565b60006020820190506103266000830184610302565b92915050565b61033581610254565b811461034057600080fd5b50565b6000815190506103528161032c565b92915050565b60006020828403121561036e5761036d6101c4565b5b600061037c84828501610343565b9150509291505056fea264697066735822122064941b66753c78848e64e60be5653c40c5fb5b46c6bd27cff70a920c66da1f3d64736f6c63430008090033",
  "immutableReferences": {},
  "source": "pragma solidity ^0.8.0;\r\n\r\nimport \"./MyTokenSale1.sol\";\r\n\r\ncontract VestedRound1 {\r\n\r\n    IERC20 public cclc;\r\n\r\n    mapping(address => uint256) public balances;\r\n\r\n    constructor(IERC20 _cclc) {\r\n        cclc = _cclc;\r\n    }\r\n    \r\n    function getCCLCBalance() public view returns(uint256) {\r\n        return cclc.balanceOf((address(this)));\r\n    }\r\n\r\n    receive() external payable{}\r\n\r\n}",
  "sourcePath": "C:\\Users\\L_Mea\\clearchain\\ICO\\contracts\\VestedRound1.sol",
  "compiler": {
    "name": "solc",
    "version": "0.8.9+commit.e5eed63a.Emscripten.clang"
  },
  "schemaVersion": "3.4.3",
  "updatedAt": "2021-10-22T08:56:15.287Z",
  "networkType": "ethereum",
  "devdoc": {
    "kind": "dev",
    "methods": {},
    "version": 1
  },
  "userdoc": {
    "kind": "user",
    "methods": {},
    "version": 1
  }
}