{
  "contractName": "Registrar",
  "abi": [
    {
      "inputs": [
        {
          "internalType": "contract VaxProtocol",
          "name": "_parentContract",
          "type": "address"
        },
        {
          "internalType": "string",
          "name": "_name",
          "type": "string"
        }
      ],
      "stateMutability": "nonpayable",
      "type": "constructor"
    },
    {
      "inputs": [],
      "name": "id",
      "outputs": [
        {
          "internalType": "address",
          "name": "",
          "type": "address"
        }
      ],
      "stateMutability": "view",
      "type": "function"
    },
    {
      "inputs": [],
      "name": "name",
      "outputs": [
        {
          "internalType": "string",
          "name": "",
          "type": "string"
        }
      ],
      "stateMutability": "view",
      "type": "function"
    }
  ],
  "bytecode": "0x608060405230600160006101000a81548173ffffffffffffffffffffffffffffffffffffffff021916908373ffffffffffffffffffffffffffffffffffffffff16021790555034801561005157600080fd5b50604051610708380380610708833981810160405281019061007391906101fa565b81600260006101000a81548173ffffffffffffffffffffffffffffffffffffffff021916908373ffffffffffffffffffffffffffffffffffffffff16021790555080600090805190602001906100ca9291906100d2565b505050610420565b8280546100de90610323565b90600052602060002090601f0160209004810192826101005760008555610147565b82601f1061011957805160ff1916838001178555610147565b82800160010185558215610147579182015b8281111561014657825182559160200191906001019061012b565b5b5090506101549190610158565b5090565b5b80821115610171576000816000905550600101610159565b5090565b60006101886101838461027b565b610256565b9050828152602081018484840111156101a4576101a36103e9565b5b6101af8482856102f0565b509392505050565b6000815190506101c681610409565b92915050565b600082601f8301126101e1576101e06103e4565b5b81516101f1848260208601610175565b91505092915050565b60008060408385031215610211576102106103f3565b5b600061021f858286016101b7565b925050602083015167ffffffffffffffff8111156102405761023f6103ee565b5b61024c858286016101cc565b9150509250929050565b6000610260610271565b905061026c8282610355565b919050565b6000604051905090565b600067ffffffffffffffff821115610296576102956103b5565b5b61029f826103f8565b9050602081019050919050565b60006102b7826102d0565b9050919050565b60006102c9826102ac565b9050919050565b600073ffffffffffffffffffffffffffffffffffffffff82169050919050565b60005b8381101561030e5780820151818401526020810190506102f3565b8381111561031d576000848401525b50505050565b6000600282049050600182168061033b57607f821691505b6020821081141561034f5761034e610386565b5b50919050565b61035e826103f8565b810181811067ffffffffffffffff8211171561037d5761037c6103b5565b5b80604052505050565b7f4e487b7100000000000000000000000000000000000000000000000000000000600052602260045260246000fd5b7f4e487b7100000000000000000000000000000000000000000000000000000000600052604160045260246000fd5b600080fd5b600080fd5b600080fd5b600080fd5b6000601f19601f8301169050919050565b610412816102be565b811461041d57600080fd5b50565b6102d98061042f6000396000f3fe608060405234801561001057600080fd5b50600436106100365760003560e01c806306fdde031461003b578063af640d0f14610059575b600080fd5b610043610077565b604051610050919061018e565b60405180910390f35b610061610105565b60405161006e9190610173565b60405180910390f35b6000805461008490610231565b80601f01602080910402602001604051908101604052809291908181526020018280546100b090610231565b80156100fd5780601f106100d2576101008083540402835291602001916100fd565b820191906000526020600020905b8154815290600101906020018083116100e057829003601f168201915b505050505081565b600160009054906101000a900473ffffffffffffffffffffffffffffffffffffffff1681565b610134816101cc565b82525050565b6000610145826101b0565b61014f81856101bb565b935061015f8185602086016101fe565b61016881610292565b840191505092915050565b6000602082019050610188600083018461012b565b92915050565b600060208201905081810360008301526101a8818461013a565b905092915050565b600081519050919050565b600082825260208201905092915050565b60006101d7826101de565b9050919050565b600073ffffffffffffffffffffffffffffffffffffffff82169050919050565b60005b8381101561021c578082015181840152602081019050610201565b8381111561022b576000848401525b50505050565b6000600282049050600182168061024957607f821691505b6020821081141561025d5761025c610263565b5b50919050565b7f4e487b7100000000000000000000000000000000000000000000000000000000600052602260045260246000fd5b6000601f19601f830116905091905056fea26469706673582212207602dce2bb584ed02266ba2b74313553cb1f4ea62d69441be9c1d8967cdabf8264736f6c63430008070033",
  "immutableReferences": {},
  "source": "pragma solidity ^0.8.0;\r\nimport \"./VaxProtocol.sol\";\r\n\r\ncontract Registrar {\r\n    string public name;\r\n    address public id = address(this);\r\n\r\n \r\n    VaxProtocol parentContract;\r\n    \r\n    constructor(VaxProtocol _parentContract, string memory _name) {\r\n        parentContract = _parentContract;\r\n        name = _name;\r\n    }\r\n}",
  "sourcePath": "C:\\Users\\L_Mea\\contracts_solidity\\VaxProtocol\\contracts\\Registrar.sol",
  "compiler": {
    "name": "solc",
    "version": "0.8.7+commit.e28d00a7.Emscripten.clang"
  },
  "schemaVersion": "3.4.3",
  "updatedAt": "2021-09-05T11:44:30.199Z",
  "devdoc": {
    "kind": "dev",
    "methods": {},
    "version": 1
  },
  "userdoc": {
    "kind": "user",
    "methods": {},
    "version": 1
  }
}