{
  "contractName": "VaxProtocol",
  "abi": [
    {
      "anonymous": false,
      "inputs": [
        {
          "indexed": false,
          "internalType": "string",
          "name": "_name",
          "type": "string"
        },
        {
          "indexed": false,
          "internalType": "uint256",
          "name": "_step",
          "type": "uint256"
        },
        {
          "indexed": false,
          "internalType": "address",
          "name": "_personAddress",
          "type": "address"
        }
      ],
      "name": "vaxStatus",
      "type": "event"
    },
    {
      "inputs": [
        {
          "internalType": "string",
          "name": "",
          "type": "string"
        }
      ],
      "name": "people",
      "outputs": [
        {
          "internalType": "contract Registrar",
          "name": "_person",
          "type": "address"
        },
        {
          "internalType": "string",
          "name": "_name",
          "type": "string"
        },
        {
          "internalType": "enum VaxProtocol.VaxState",
          "name": "_step",
          "type": "uint8"
        },
        {
          "internalType": "bool",
          "name": "fullyVaxxed",
          "type": "bool"
        }
      ],
      "stateMutability": "view",
      "type": "function",
      "constant": true
    },
    {
      "inputs": [
        {
          "internalType": "string",
          "name": "_name",
          "type": "string"
        }
      ],
      "name": "register",
      "outputs": [],
      "stateMutability": "nonpayable",
      "type": "function"
    },
    {
      "inputs": [
        {
          "internalType": "string",
          "name": "_name",
          "type": "string"
        }
      ],
      "name": "firstVax",
      "outputs": [],
      "stateMutability": "nonpayable",
      "type": "function"
    },
    {
      "inputs": [
        {
          "internalType": "string",
          "name": "_name",
          "type": "string"
        }
      ],
      "name": "secondVax",
      "outputs": [],
      "stateMutability": "nonpayable",
      "type": "function"
    },
    {
      "inputs": [
        {
          "internalType": "string",
          "name": "patient",
          "type": "string"
        }
      ],
      "name": "getInfo",
      "outputs": [
        {
          "internalType": "bool",
          "name": "",
          "type": "bool"
        }
      ],
      "stateMutability": "view",
      "type": "function",
      "constant": true
    }
  ],
  "bytecode": "0x608060405234801561001057600080fd5b50611690806100206000396000f3fe60806040523480156200001157600080fd5b50600436106200005e5760003560e01c80630e139a94146200006357806324d6aabd146200009c57806351e71cbc14620000bc5780637ee005ab14620000dc578063f2c298be1462000112575b600080fd5b6200008160048036038101906200007b919062000954565b62000132565b60405162000093949392919062000b07565b60405180910390f35b620000ba6004803603810190620000b4919062000954565b62000242565b005b620000da6004803603810190620000d4919062000954565b62000435565b005b620000fa6004803603810190620000f4919062000954565b620005ec565b60405162000109919062000aea565b60405180910390f35b6200013060048036038101906200012a919062000954565b62000625565b005b6000818051602081018201805184825260208301602085012081835280955050505050506000915090508060000160009054906101000a900473ffffffffffffffffffffffffffffffffffffffff1690806001018054620001939062000da5565b80601f0160208091040260200160405190810160405280929190818152602001828054620001c19062000da5565b8015620002125780601f10620001e65761010080835404028352916020019162000212565b820191906000526020600020905b815481529060010190602001808311620001f457829003601f168201915b5050505050908060020160009054906101000a900460ff16908060020160019054906101000a900460ff16905084565b6002600381111562000259576200025862000e11565b5b6000826040516200026b919062000ad1565b908152602001604051809103902060020160009054906101000a900460ff1660038111156200029f576200029e62000e11565b5b14620002e2576040517f08c379a0000000000000000000000000000000000000000000000000000000008152600401620002d99062000bd3565b60405180910390fd5b6003600082604051620002f6919062000ad1565b908152602001604051809103902060020160006101000a81548160ff021916908360038111156200032c576200032b62000e11565b5b0217905550600160008260405162000345919062000ad1565b908152602001604051809103902060020160016101000a81548160ff0219169083151502179055507f395c02e9b6734c450e7e915b9edb69177a7fbe16deee9db642d8ee86c6fbe95681600083604051620003a1919062000ad1565b908152602001604051809103902060020160009054906101000a900460ff166003811115620003d557620003d462000e11565b5b600084604051620003e7919062000ad1565b908152602001604051809103902060000160009054906101000a900473ffffffffffffffffffffffffffffffffffffffff166040516200042a9392919062000b8f565b60405180910390a150565b600160038111156200044c576200044b62000e11565b5b6000826040516200045e919062000ad1565b908152602001604051809103902060020160009054906101000a900460ff16600381111562000492576200049162000e11565b5b14620004d5576040517f08c379a0000000000000000000000000000000000000000000000000000000008152600401620004cc9062000bf5565b60405180910390fd5b6002600082604051620004e9919062000ad1565b908152602001604051809103902060020160006101000a81548160ff021916908360038111156200051f576200051e62000e11565b5b02179055507f395c02e9b6734c450e7e915b9edb69177a7fbe16deee9db642d8ee86c6fbe9568160008360405162000558919062000ad1565b908152602001604051809103902060020160009054906101000a900460ff1660038111156200058c576200058b62000e11565b5b6000846040516200059e919062000ad1565b908152602001604051809103902060000160009054906101000a900473ffffffffffffffffffffffffffffffffffffffff16604051620005e19392919062000b8f565b60405180910390a150565b60008082604051620005ff919062000ad1565b908152602001604051809103902060020160019054906101000a900460ff169050919050565b60003082604051620006379062000818565b6200064492919062000b5b565b604051809103906000f08015801562000661573d6000803e3d6000fd5b5090508060008360405162000677919062000ad1565b908152602001604051809103902060000160006101000a81548173ffffffffffffffffffffffffffffffffffffffff021916908373ffffffffffffffffffffffffffffffffffffffff16021790555081600083604051620006d9919062000ad1565b90815260200160405180910390206001019080519060200190620006ff92919062000826565b50600160008360405162000714919062000ad1565b908152602001604051809103902060020160006101000a81548160ff021916908360038111156200074a576200074962000e11565b5b02179055507f395c02e9b6734c450e7e915b9edb69177a7fbe16deee9db642d8ee86c6fbe9568260008460405162000783919062000ad1565b908152602001604051809103902060020160009054906101000a900460ff166003811115620007b757620007b662000e11565b5b600085604051620007c9919062000ad1565b908152602001604051809103902060000160009054906101000a900473ffffffffffffffffffffffffffffffffffffffff166040516200080c9392919062000b8f565b60405180910390a15050565b6107088062000f5383390190565b828054620008349062000da5565b90600052602060002090601f016020900481019282620008585760008555620008a4565b82601f106200087357805160ff1916838001178555620008a4565b82800160010185558215620008a4579182015b82811115620008a357825182559160200191906001019062000886565b5b509050620008b39190620008b7565b5090565b5b80821115620008d2576000816000905550600101620008b8565b5090565b6000620008ed620008e78462000c40565b62000c17565b9050828152602081018484840111156200090c576200090b62000ea3565b5b6200091984828562000d60565b509392505050565b600082601f83011262000939576200093862000e9e565b5b81356200094b848260208601620008d6565b91505092915050565b6000602082840312156200096d576200096c62000ead565b5b600082013567ffffffffffffffff8111156200098e576200098d62000ea8565b5b6200099c8482850162000921565b91505092915050565b620009b08162000c9d565b82525050565b620009c18162000cb1565b82525050565b620009d28162000cfc565b82525050565b620009e38162000d10565b82525050565b620009f48162000d24565b82525050565b600062000a078262000c76565b62000a13818562000c81565b935062000a2581856020860162000d6f565b62000a308162000eb2565b840191505092915050565b600062000a488262000c76565b62000a54818562000c92565b935062000a6681856020860162000d6f565b80840191505092915050565b600062000a8160248362000c81565b915062000a8e8262000ec3565b604082019050919050565b600062000aa860168362000c81565b915062000ab58262000f12565b602082019050919050565b62000acb8162000cf2565b82525050565b600062000adf828462000a3b565b915081905092915050565b600060208201905062000b016000830184620009b6565b92915050565b600060808201905062000b1e6000830187620009c7565b818103602083015262000b328186620009fa565b905062000b436040830185620009e9565b62000b526060830184620009b6565b95945050505050565b600060408201905062000b726000830185620009d8565b818103602083015262000b868184620009fa565b90509392505050565b6000606082019050818103600083015262000bab8186620009fa565b905062000bbc602083018562000ac0565b62000bcb6040830184620009a5565b949350505050565b6000602082019050818103600083015262000bee8162000a72565b9050919050565b6000602082019050818103600083015262000c108162000a99565b9050919050565b600062000c2362000c36565b905062000c31828262000ddb565b919050565b6000604051905090565b600067ffffffffffffffff82111562000c5e5762000c5d62000e6f565b5b62000c698262000eb2565b9050602081019050919050565b600081519050919050565b600082825260208201905092915050565b600081905092915050565b600062000caa8262000cd2565b9050919050565b60008115159050919050565b600081905062000ccd8262000f3b565b919050565b600073ffffffffffffffffffffffffffffffffffffffff82169050919050565b6000819050919050565b600062000d098262000d38565b9050919050565b600062000d1d8262000d38565b9050919050565b600062000d318262000cbd565b9050919050565b600062000d458262000d4c565b9050919050565b600062000d598262000cd2565b9050919050565b82818337600083830152505050565b60005b8381101562000d8f57808201518184015260208101905062000d72565b8381111562000d9f576000848401525b50505050565b6000600282049050600182168062000dbe57607f821691505b6020821081141562000dd55762000dd462000e40565b5b50919050565b62000de68262000eb2565b810181811067ffffffffffffffff8211171562000e085762000e0762000e6f565b5b80604052505050565b7f4e487b7100000000000000000000000000000000000000000000000000000000600052602160045260246000fd5b7f4e487b7100000000000000000000000000000000000000000000000000000000600052602260045260246000fd5b7f4e487b7100000000000000000000000000000000000000000000000000000000600052604160045260246000fd5b600080fd5b600080fd5b600080fd5b600080fd5b6000601f19601f8301169050919050565b7f506c6561736520726567697374657220666f7220796f7572206669727374206460008201527f6f73652e00000000000000000000000000000000000000000000000000000000602082015250565b7f506c656173652072656769737465722066697273742e00000000000000000000600082015250565b6004811062000f4f5762000f4e62000e11565b5b5056fe608060405230600160006101000a81548173ffffffffffffffffffffffffffffffffffffffff021916908373ffffffffffffffffffffffffffffffffffffffff16021790555034801561005157600080fd5b50604051610708380380610708833981810160405281019061007391906101fa565b81600260006101000a81548173ffffffffffffffffffffffffffffffffffffffff021916908373ffffffffffffffffffffffffffffffffffffffff16021790555080600090805190602001906100ca9291906100d2565b505050610420565b8280546100de90610323565b90600052602060002090601f0160209004810192826101005760008555610147565b82601f1061011957805160ff1916838001178555610147565b82800160010185558215610147579182015b8281111561014657825182559160200191906001019061012b565b5b5090506101549190610158565b5090565b5b80821115610171576000816000905550600101610159565b5090565b60006101886101838461027b565b610256565b9050828152602081018484840111156101a4576101a36103e9565b5b6101af8482856102f0565b509392505050565b6000815190506101c681610409565b92915050565b600082601f8301126101e1576101e06103e4565b5b81516101f1848260208601610175565b91505092915050565b60008060408385031215610211576102106103f3565b5b600061021f858286016101b7565b925050602083015167ffffffffffffffff8111156102405761023f6103ee565b5b61024c858286016101cc565b9150509250929050565b6000610260610271565b905061026c8282610355565b919050565b6000604051905090565b600067ffffffffffffffff821115610296576102956103b5565b5b61029f826103f8565b9050602081019050919050565b60006102b7826102d0565b9050919050565b60006102c9826102ac565b9050919050565b600073ffffffffffffffffffffffffffffffffffffffff82169050919050565b60005b8381101561030e5780820151818401526020810190506102f3565b8381111561031d576000848401525b50505050565b6000600282049050600182168061033b57607f821691505b6020821081141561034f5761034e610386565b5b50919050565b61035e826103f8565b810181811067ffffffffffffffff8211171561037d5761037c6103b5565b5b80604052505050565b7f4e487b7100000000000000000000000000000000000000000000000000000000600052602260045260246000fd5b7f4e487b7100000000000000000000000000000000000000000000000000000000600052604160045260246000fd5b600080fd5b600080fd5b600080fd5b600080fd5b6000601f19601f8301169050919050565b610412816102be565b811461041d57600080fd5b50565b6102d98061042f6000396000f3fe608060405234801561001057600080fd5b50600436106100365760003560e01c806306fdde031461003b578063af640d0f14610059575b600080fd5b610043610077565b604051610050919061018e565b60405180910390f35b610061610105565b60405161006e9190610173565b60405180910390f35b6000805461008490610231565b80601f01602080910402602001604051908101604052809291908181526020018280546100b090610231565b80156100fd5780601f106100d2576101008083540402835291602001916100fd565b820191906000526020600020905b8154815290600101906020018083116100e057829003601f168201915b505050505081565b600160009054906101000a900473ffffffffffffffffffffffffffffffffffffffff1681565b610134816101cc565b82525050565b6000610145826101b0565b61014f81856101bb565b935061015f8185602086016101fe565b61016881610292565b840191505092915050565b6000602082019050610188600083018461012b565b92915050565b600060208201905081810360008301526101a8818461013a565b905092915050565b600081519050919050565b600082825260208201905092915050565b60006101d7826101de565b9050919050565b600073ffffffffffffffffffffffffffffffffffffffff82169050919050565b60005b8381101561021c578082015181840152602081019050610201565b8381111561022b576000848401525b50505050565b6000600282049050600182168061024957607f821691505b6020821081141561025d5761025c610263565b5b50919050565b7f4e487b7100000000000000000000000000000000000000000000000000000000600052602260045260246000fd5b6000601f19601f830116905091905056fea26469706673582212207602dce2bb584ed02266ba2b74313553cb1f4ea62d69441be9c1d8967cdabf8264736f6c63430008070033a2646970667358221220c1223bb4097f14ef7277262cc36c62bc604563c61439212719c5f79e4ccee99964736f6c63430008070033",
  "immutableReferences": {},
  "source": "pragma solidity ^0.8.0;\r\n\r\nimport \"./Registrar.sol\";\r\n\r\ncontract VaxProtocol {\r\n    \r\n    enum VaxState{Unregistered, Registered, FirstDose, FullyVaxxed}\r\n    \r\n   struct Patient {\r\n       Registrar _person;\r\n       string _name;\r\n       VaxProtocol.VaxState _step;\r\n       bool fullyVaxxed;\r\n   }\r\n    mapping (string => Patient) public people;\r\n    \r\n    event vaxStatus(string _name, uint _step, address _personAddress);\r\n    \r\n    function register(string memory _name) public {\r\n        Registrar person = new Registrar(this, _name);\r\n        people[_name]._person = person;\r\n        people[_name]._name = _name;\r\n        people[_name]._step = VaxState.Registered;\r\n        emit vaxStatus(_name, uint(people[_name]._step), address(people[_name]._person));\r\n    }\r\n    \r\n    function firstVax(string memory _name) public {\r\n        require(people[_name]._step == VaxState.Registered, \"Please register first.\");\r\n        people[_name]._step = VaxState.FirstDose;\r\n        emit vaxStatus(_name, uint(people[_name]._step), address(people[_name]._person));\r\n        \r\n \r\n    }\r\n    \r\n    function secondVax(string memory _name) public {\r\n        require(people[_name]._step == VaxState.FirstDose, \"Please register for your first dose.\");\r\n        people[_name]._step = VaxState.FullyVaxxed;\r\n        people[_name].fullyVaxxed = true;\r\n        emit vaxStatus(_name, uint(people[_name]._step), address(people[_name]._person));\r\n    }\r\n\r\n    function getInfo(string memory patient) public view returns(bool) {\r\n        return (people[patient].fullyVaxxed);\r\n    }\r\n    \r\n}",
  "sourcePath": "C:\\Users\\L_Mea\\contracts_solidity\\VaxProtocol\\contracts\\VaxProtocol.sol",
  "compiler": {
    "name": "solc",
    "version": "0.8.7+commit.e28d00a7.Emscripten.clang"
  },
  "schemaVersion": "3.4.3",
  "updatedAt": "2021-09-05T11:47:21.591Z",
  "networkType": "ethereum",
  "devdoc": {
    "kind": "dev",
    "methods": {},
    "version": 1
  },
  "userdoc": {
    "kind": "user",
    "methods": {},
    "version": 1
  }
}